{
  "contractName": "Article",
  "abi": [
    {
      "anonymous": false,
      "inputs": [
        {
          "indexed": false,
          "name": "aticleNum",
          "type": "uint256"
        }
      ],
      "name": "ArticleAdded",
      "type": "event"
    },
    {
      "anonymous": false,
      "inputs": [
        {
          "indexed": false,
          "name": "aticleNum",
          "type": "uint256"
        }
      ],
      "name": "ArticleRemoved",
      "type": "event"
    },
    {
      "anonymous": false,
      "inputs": [
        {
          "indexed": false,
          "name": "aticleNum",
          "type": "uint256"
        }
      ],
      "name": "ArticleApproved",
      "type": "event"
    },
    {
      "anonymous": false,
      "inputs": [
        {
          "indexed": false,
          "name": "aticleNum",
          "type": "uint256"
        }
      ],
      "name": "ArticleChallenged",
      "type": "event"
    },
    {
      "anonymous": false,
      "inputs": [
        {
          "indexed": false,
          "name": "aticleNum",
          "type": "uint256"
        }
      ],
      "name": "ArticleUpVoted",
      "type": "event"
    },
    {
      "anonymous": false,
      "inputs": [
        {
          "indexed": false,
          "name": "aticleNum",
          "type": "uint256"
        }
      ],
      "name": "ArticleDownVoted",
      "type": "event"
    },
    {
      "constant": false,
      "inputs": [
        {
          "name": "_ipfsArticleHash",
          "type": "bytes32"
        },
        {
          "name": "_ipfsReferenceHash",
          "type": "bytes32"
        },
        {
          "name": "_stake",
          "type": "uint256"
        }
      ],
      "name": "addArticle",
      "outputs": [
        {
          "name": "",
          "type": "uint256"
        }
      ],
      "payable": false,
      "stateMutability": "nonpayable",
      "type": "function"
    },
    {
      "constant": false,
      "inputs": [
        {
          "name": "articleNumber",
          "type": "uint256"
        }
      ],
      "name": "approved",
      "outputs": [],
      "payable": false,
      "stateMutability": "nonpayable",
      "type": "function"
    },
    {
      "constant": false,
      "inputs": [
        {
          "name": "articleNumber",
          "type": "uint256"
        }
      ],
      "name": "challenged",
      "outputs": [],
      "payable": false,
      "stateMutability": "nonpayable",
      "type": "function"
    },
    {
      "constant": false,
      "inputs": [
        {
          "name": "articleNumber",
          "type": "uint256"
        }
      ],
      "name": "removed",
      "outputs": [],
      "payable": false,
      "stateMutability": "nonpayable",
      "type": "function"
    },
    {
      "constant": false,
      "inputs": [
        {
          "name": "articleNumber",
          "type": "uint256"
        }
      ],
      "name": "upVoted",
      "outputs": [],
      "payable": false,
      "stateMutability": "nonpayable",
      "type": "function"
    },
    {
      "constant": false,
      "inputs": [
        {
          "name": "articleNumber",
          "type": "uint256"
        }
      ],
      "name": "downVoted",
      "outputs": [],
      "payable": false,
      "stateMutability": "nonpayable",
      "type": "function"
    }
  ],
  "bytecode": "0x608060405234801561001057600080fd5b5061064b806100206000396000f3fe608060405260043610610078576000357c0100000000000000000000000000000000000000000000000000000000900463ffffffff16806301c97c571461007d57806345e73685146100b85780637d4061e6146100f35780638255899d1461012e5780639d0c8a9f14610169578063ce4fef0e146101a4575b600080fd5b34801561008957600080fd5b506100b6600480360360208110156100a057600080fd5b8101908080359060200190929190505050610207565b005b3480156100c457600080fd5b506100f1600480360360208110156100db57600080fd5b8101908080359060200190929190505050610286565b005b3480156100ff57600080fd5b5061012c6004803603602081101561011657600080fd5b81019080803590602001909291905050506102f0565b005b34801561013a57600080fd5b506101676004803603602081101561015157600080fd5b810190808035906020019092919050505061035a565b005b34801561017557600080fd5b506101a26004803603602081101561018c57600080fd5b81019080803590602001909291905050506103c4565b005b3480156101b057600080fd5b506101f1600480360360608110156101c757600080fd5b81019080803590602001909291908035906020019092919080359060200190929190505050610443565b6040518082815260200191505060405180910390f35b61023060018060008481526020019081526020016000206003015461059590919063ffffffff16565b60016000838152602001908152602001600020600301819055507feb5a35545b0a45240a67898d2f6187c764da2eaca5c11a0e75e615dd80d9458d6000546040518082815260200191505060405180910390a150565b600180600083815260200190815260200160002060020160016101000a81548160ff0219169083151502179055507f7794351528fe7be520769ebfe19d7275d2a0ecb197e1bbc23afa224134887ba26000546040518082815260200191505060405180910390a150565b600180600083815260200190815260200160002060020160006101000a81548160ff0219169083151502179055507f60bd4c6e468dd35d1c78b03ddc704f2f270ad2ed13b45bf571438f433db9b8f76000546040518082815260200191505060405180910390a150565b600180600083815260200190815260200160002060020160026101000a81548160ff0219169083151502179055507fe95591b999a8fa4c23f2d0b426271960c193b5eb71cef3bc673ac5be6cb60df46000546040518082815260200191505060405180910390a150565b6103ed60018060008481526020019081526020016000206004015461059590919063ffffffff16565b60016000838152602001908152602001600020600401819055507fd1ff0de57853f81f969355a26960199cd8211f9d274c6c552a148053125b46116000546040518082815260200191505060405180910390a150565b600061045b600160005461059590919063ffffffff16565b600081905550610100604051908101604052808581526020018481526020016000151581526020016000151581526020016000151581526020016000815260200160008152602001838152506001600080548152602001908152602001600020600082015181600001556020820151816001015560408201518160020160006101000a81548160ff02191690831515021790555060608201518160020160016101000a81548160ff02191690831515021790555060808201518160020160026101000a81548160ff02191690831515021790555060a0820151816003015560c0820151816004015560e082015181600501559050507f9ed508f9dd7c730fd307b1ca38355cf4d9c00f58a2acfa5167b497c51a859e4c6000546040518082815260200191505060405180910390a160005490509392505050565b6000808284019050838110151515610615576040517f08c379a000000000000000000000000000000000000000000000000000000000815260040180806020018281038252601b8152602001807f536166654d6174683a206164646974696f6e206f766572666c6f77000000000081525060200191505060405180910390fd5b809150509291505056fea165627a7a72305820d37dbb532bc7fd7142a190d5c98e11a01a50a84381d6e6ef7d75f010bde0aeca0029",
  "source": "pragma solidity >=0.4.21 <0.6.0;\n\n// Import the library 'Roles' and SafeMath\n//import \"../node_modules/openzeppelin-solidity/contracts/access/Roles.sol\";\nimport \"../node_modules/openzeppelin-solidity/contracts/math/SafeMath.sol\";\n\n// Define a contract 'ContributorRole' to manage this role - add, remove, check\ncontract Article {\n  using SafeMath for uint;\n\n  // Define events\n  event ArticleAdded(uint aticleNum);\n  event ArticleRemoved(uint aticleNum);\n  event ArticleApproved(uint aticleNum);\n  event ArticleChallenged(uint aticleNum);\n  //Not sure if we need these below\n  event ArticleUpVoted(uint aticleNum);\n  event ArticleDownVoted(uint aticleNum);\n\n  //Define a struct to store contributor information\n  struct articleInfo {\n      bytes32 ipfsArticleHash;\n      bytes32 ipfsReferenceHash;\n      bool approved;\n      bool challenged;\n      bool removed;\n      uint upVotes;\n      uint downVotes;\n      uint stake;\n    }\n\n  //Define a variable to count number of articles.\n    uint totalArticles;\n\n  //Define a mapping to map contributor address and contributor info\n  mapping(uint => articleInfo) allArticles;\n\n  // In the constructor make the address that deploys this contract the 1st Contributor\n  //   constructor() public {\n //   }\n\n  // Define a function 'addArticle' that adds the article\n  function addArticle(bytes32 _ipfsArticleHash, bytes32 _ipfsReferenceHash, uint _stake) public returns(uint){\n    totalArticles = totalArticles.add(1);\n    allArticles[totalArticles] = articleInfo({ipfsArticleHash: _ipfsArticleHash, ipfsReferenceHash: _ipfsReferenceHash,\n                                            approved: false, challenged:false, removed: false, upVotes: 0, downVotes: 0, stake: _stake});\n    emit ArticleAdded(totalArticles);\n    return totalArticles;\n  }\n\n  // Define a function 'approved' that updates the approved flag\n  function approved(uint articleNumber) public {\n    allArticles[articleNumber].approved = true;\n    emit ArticleApproved(totalArticles);\n  }\n\n  // Define a function 'challenged' that updates the challenged flag\n  function challenged(uint articleNumber) public {\n    allArticles[articleNumber].challenged = true;\n    emit ArticleChallenged(totalArticles);\n  }\n\n  // Define a function 'removed' that updates the removed flag\n  function removed(uint articleNumber) public {\n    allArticles[articleNumber].removed = true;\n    emit ArticleRemoved(totalArticles);\n  }\n\n  // Define a function 'upVoted' that updates the upVote count\n  function upVoted(uint articleNumber) public {\n    allArticles[articleNumber].upVotes = allArticles[articleNumber].upVotes.add(1);\n    emit ArticleUpVoted(totalArticles);\n  }\n\n  // Define a function 'downVoted' that updates the upVote count\n  function downVoted(uint articleNumber) public {\n    allArticles[articleNumber].downVotes = allArticles[articleNumber].downVotes.add(1);\n    emit ArticleDownVoted(totalArticles);\n  }\n}",
  "sourcePath": "/Users/ringaile/Documents/hackathon/contracts/Article.sol",
  "compiler": {
    "name": "solc",
    "version": "0.5.0+commit.1d4f565a.Emscripten.clang"
  },
  "schemaVersion": "3.0.5",
  "updatedAt": "2019-07-01T21:39:43.511Z",
  "devdoc": {
    "methods": {}
  },
  "userdoc": {
    "methods": {}
  }
}