{
  "contractName": "Article",
  "abi": [
    {
      "anonymous": false,
      "inputs": [
        {
          "indexed": false,
          "name": "aticleNum",
          "type": "uint256"
        }
      ],
      "name": "ArticleAdded",
      "type": "event",
      "signature": "0x9ed508f9dd7c730fd307b1ca38355cf4d9c00f58a2acfa5167b497c51a859e4c"
    },
    {
      "anonymous": false,
      "inputs": [
        {
          "indexed": false,
          "name": "aticleNum",
          "type": "uint256"
        }
      ],
      "name": "ArticleRemoved",
      "type": "event",
      "signature": "0xe95591b999a8fa4c23f2d0b426271960c193b5eb71cef3bc673ac5be6cb60df4"
    },
    {
      "anonymous": false,
      "inputs": [
        {
          "indexed": false,
          "name": "aticleNum",
          "type": "uint256"
        }
      ],
      "name": "ArticleApproved",
      "type": "event",
      "signature": "0x60bd4c6e468dd35d1c78b03ddc704f2f270ad2ed13b45bf571438f433db9b8f7"
    },
    {
      "anonymous": false,
      "inputs": [
        {
          "indexed": false,
          "name": "aticleNum",
          "type": "uint256"
        }
      ],
      "name": "ArticleChallenged",
      "type": "event",
      "signature": "0x7794351528fe7be520769ebfe19d7275d2a0ecb197e1bbc23afa224134887ba2"
    },
    {
      "anonymous": false,
      "inputs": [
        {
          "indexed": false,
          "name": "aticleNum",
          "type": "uint256"
        }
      ],
      "name": "ArticleUpVoted",
      "type": "event",
      "signature": "0xeb5a35545b0a45240a67898d2f6187c764da2eaca5c11a0e75e615dd80d9458d"
    },
    {
      "anonymous": false,
      "inputs": [
        {
          "indexed": false,
          "name": "aticleNum",
          "type": "uint256"
        }
      ],
      "name": "ArticleDownVoted",
      "type": "event",
      "signature": "0xd1ff0de57853f81f969355a26960199cd8211f9d274c6c552a148053125b4611"
    },
    {
      "constant": false,
      "inputs": [
        {
          "name": "_contributor",
          "type": "address"
        },
        {
          "name": "_ipfsArticleHash",
          "type": "bytes32"
        },
        {
          "name": "_ipfsReferenceHash",
          "type": "bytes32"
        },
        {
          "name": "_title",
          "type": "string"
        },
        {
          "name": "_datePublished",
          "type": "uint256"
        },
        {
          "name": "_stake",
          "type": "uint256"
        }
      ],
      "name": "add",
      "outputs": [
        {
          "name": "",
          "type": "uint256"
        }
      ],
      "payable": false,
      "stateMutability": "nonpayable",
      "type": "function",
      "signature": "0x2d85b283"
    },
    {
      "constant": true,
      "inputs": [
        {
          "name": "articleNumber",
          "type": "uint256"
        }
      ],
      "name": "getArticleTitle",
      "outputs": [
        {
          "name": "title",
          "type": "string"
        }
      ],
      "payable": false,
      "stateMutability": "view",
      "type": "function",
      "signature": "0x744d5c65"
    },
    {
      "constant": true,
      "inputs": [
        {
          "name": "articleNumber",
          "type": "uint256"
        }
      ],
      "name": "getArticleDatePublished",
      "outputs": [
        {
          "name": "datePublished",
          "type": "uint256"
        }
      ],
      "payable": false,
      "stateMutability": "view",
      "type": "function",
      "signature": "0xfc96a826"
    },
    {
      "constant": true,
      "inputs": [
        {
          "name": "articleNumber",
          "type": "uint256"
        }
      ],
      "name": "getArticleUpvotes",
      "outputs": [
        {
          "name": "upVotes",
          "type": "uint256"
        }
      ],
      "payable": false,
      "stateMutability": "view",
      "type": "function",
      "signature": "0xcd0b1300"
    },
    {
      "constant": true,
      "inputs": [
        {
          "name": "articleNumber",
          "type": "uint256"
        }
      ],
      "name": "getArticleDownvotes",
      "outputs": [
        {
          "name": "downVotes",
          "type": "uint256"
        }
      ],
      "payable": false,
      "stateMutability": "view",
      "type": "function",
      "signature": "0x7c224df8"
    },
    {
      "constant": true,
      "inputs": [],
      "name": "getNumberOfArticles",
      "outputs": [
        {
          "name": "noOfArticles",
          "type": "uint256"
        }
      ],
      "payable": false,
      "stateMutability": "view",
      "type": "function",
      "signature": "0x89da85d3"
    },
    {
      "constant": false,
      "inputs": [
        {
          "name": "articleNumber",
          "type": "uint256"
        }
      ],
      "name": "approved",
      "outputs": [],
      "payable": false,
      "stateMutability": "nonpayable",
      "type": "function",
      "signature": "0x7d4061e6"
    },
    {
      "constant": false,
      "inputs": [
        {
          "name": "articleNumber",
          "type": "uint256"
        }
      ],
      "name": "challenged",
      "outputs": [],
      "payable": false,
      "stateMutability": "nonpayable",
      "type": "function",
      "signature": "0x45e73685"
    },
    {
      "constant": false,
      "inputs": [
        {
          "name": "articleNumber",
          "type": "uint256"
        }
      ],
      "name": "removed",
      "outputs": [],
      "payable": false,
      "stateMutability": "nonpayable",
      "type": "function",
      "signature": "0x8255899d"
    },
    {
      "constant": false,
      "inputs": [
        {
          "name": "articleNumber",
          "type": "uint256"
        }
      ],
      "name": "upVoted",
      "outputs": [],
      "payable": false,
      "stateMutability": "nonpayable",
      "type": "function",
      "signature": "0x01c97c57"
    },
    {
      "constant": false,
      "inputs": [
        {
          "name": "articleNumber",
          "type": "uint256"
        }
      ],
      "name": "downVoted",
      "outputs": [],
      "payable": false,
      "stateMutability": "nonpayable",
      "type": "function",
      "signature": "0x9d0c8a9f"
    }
  ],
  "bytecode": "0x608060405234801561001057600080fd5b50610c03806100206000396000f3fe6080604052600436106100af576000357c0100000000000000000000000000000000000000000000000000000000900463ffffffff16806301c97c57146100b45780632d85b283146100ef57806345e7368514610213578063744d5c651461024e5780637c224df8146103025780637d4061e6146103515780638255899d1461038c57806389da85d3146103c75780639d0c8a9f146103f2578063cd0b13001461042d578063fc96a8261461047c575b600080fd5b3480156100c057600080fd5b506100ed600480360360208110156100d757600080fd5b81019080803590602001909291905050506104cb565b005b3480156100fb57600080fd5b506101fd600480360360c081101561011257600080fd5b81019080803573ffffffffffffffffffffffffffffffffffffffff16906020019092919080359060200190929190803590602001909291908035906020019064010000000081111561016357600080fd5b82018360208201111561017557600080fd5b8035906020019184600183028401116401000000008311171561019757600080fd5b91908080601f016020809104026020016040519081016040528093929190818152602001838380828437600081840152601f19601f820116905080830192505050505050509192919290803590602001909291908035906020019092919050505061054a565b6040518082815260200191505060405180910390f35b34801561021f57600080fd5b5061024c6004803603602081101561023657600080fd5b810190808035906020019092919050505061079d565b005b34801561025a57600080fd5b506102876004803603602081101561027157600080fd5b8101908080359060200190929190505050610807565b6040518080602001828103825283818151815260200191508051906020019080838360005b838110156102c75780820151818401526020810190506102ac565b50505050905090810190601f1680156102f45780820380516001836020036101000a031916815260200191505b509250505060405180910390f35b34801561030e57600080fd5b5061033b6004803603602081101561032557600080fd5b81019080803590602001909291905050506108cb565b6040518082815260200191505060405180910390f35b34801561035d57600080fd5b5061038a6004803603602081101561037457600080fd5b81019080803590602001909291905050506108f6565b005b34801561039857600080fd5b506103c5600480360360208110156103af57600080fd5b8101908080359060200190929190505050610960565b005b3480156103d357600080fd5b506103dc6109ca565b6040518082815260200191505060405180910390f35b3480156103fe57600080fd5b5061042b6004803603602081101561041557600080fd5b81019080803590602001909291905050506109d3565b005b34801561043957600080fd5b506104666004803603602081101561045057600080fd5b8101908080359060200190929190505050610a52565b6040518082815260200191505060405180910390f35b34801561048857600080fd5b506104b56004803603602081101561049f57600080fd5b8101908080359060200190929190505050610a7d565b6040518082815260200191505060405180910390f35b6104f4600180600084815260200190815260200160002060060154610aa890919063ffffffff16565b60016000838152602001908152602001600020600601819055507feb5a35545b0a45240a67898d2f6187c764da2eaca5c11a0e75e615dd80d9458d6000546040518082815260200191505060405180910390a150565b60006105626001600054610aa890919063ffffffff16565b600081905550610180604051908101604052808873ffffffffffffffffffffffffffffffffffffffff168152602001878152602001868152602001858152602001848152602001600073ffffffffffffffffffffffffffffffffffffffff168152602001600015158152602001600015158152602001600015158152602001600081526020016000815260200183815250600160008054815260200190815260200160002060008201518160000160006101000a81548173ffffffffffffffffffffffffffffffffffffffff021916908373ffffffffffffffffffffffffffffffffffffffff1602179055506020820151816001015560408201518160020155606082015181600301908051906020019061067e929190610b32565b506080820151816004015560a08201518160050160006101000a81548173ffffffffffffffffffffffffffffffffffffffff021916908373ffffffffffffffffffffffffffffffffffffffff16021790555060c08201518160050160146101000a81548160ff02191690831515021790555060e08201518160050160156101000a81548160ff0219169083151502179055506101008201518160050160166101000a81548160ff0219169083151502179055506101208201518160060155610140820151816007015561016082015181600801559050507f9ed508f9dd7c730fd307b1ca38355cf4d9c00f58a2acfa5167b497c51a859e4c6000546040518082815260200191505060405180910390a160005490509695505050505050565b600180600083815260200190815260200160002060050160156101000a81548160ff0219169083151502179055507f7794351528fe7be520769ebfe19d7275d2a0ecb197e1bbc23afa224134887ba26000546040518082815260200191505060405180910390a150565b606060006001600084815260200190815260200160002090506060816003018054600181600116156101000203166002900480601f0160208091040260200160405190810160405280929190818152602001828054600181600116156101000203166002900480156108ba5780601f1061088f576101008083540402835291602001916108ba565b820191906000526020600020905b81548152906001019060200180831161089d57829003601f168201915b505050505090508092505050919050565b6000806001600084815260200190815260200160002090506000816007015490508092505050919050565b600180600083815260200190815260200160002060050160146101000a81548160ff0219169083151502179055507f60bd4c6e468dd35d1c78b03ddc704f2f270ad2ed13b45bf571438f433db9b8f76000546040518082815260200191505060405180910390a150565b600180600083815260200190815260200160002060050160166101000a81548160ff0219169083151502179055507fe95591b999a8fa4c23f2d0b426271960c193b5eb71cef3bc673ac5be6cb60df46000546040518082815260200191505060405180910390a150565b60008054905090565b6109fc600180600084815260200190815260200160002060070154610aa890919063ffffffff16565b60016000838152602001908152602001600020600701819055507fd1ff0de57853f81f969355a26960199cd8211f9d274c6c552a148053125b46116000546040518082815260200191505060405180910390a150565b6000806001600084815260200190815260200160002090506000816006015490508092505050919050565b6000806001600084815260200190815260200160002090506000816004015490508092505050919050565b6000808284019050838110151515610b28576040517f08c379a000000000000000000000000000000000000000000000000000000000815260040180806020018281038252601b8152602001807f536166654d6174683a206164646974696f6e206f766572666c6f77000000000081525060200191505060405180910390fd5b8091505092915050565b828054600181600116156101000203166002900490600052602060002090601f016020900481019282601f10610b7357805160ff1916838001178555610ba1565b82800160010185558215610ba1579182015b82811115610ba0578251825591602001919060010190610b85565b5b509050610bae9190610bb2565b5090565b610bd491905b80821115610bd0576000816000905550600101610bb8565b5090565b9056fea165627a7a72305820785c72159bddfdd13921b3e7b0db5f260aacd3a67e4c0762d79a30df329f12ca0029",
  "source": "pragma solidity >=0.4.21 <0.6.0;\n\n// Import the library 'Roles' and SafeMath\n//import \"../node_modules/openzeppelin-solidity/contracts/access/Roles.sol\";\nimport \"../node_modules/openzeppelin-solidity/contracts/math/SafeMath.sol\";\n\n// Define a contract 'ContributorRole' to manage this role - add, remove, check\ncontract Article {\n  using SafeMath for uint;\n\n  // Define events\n  event ArticleAdded(uint aticleNum);\n  event ArticleRemoved(uint aticleNum);\n  event ArticleApproved(uint aticleNum);\n  event ArticleChallenged(uint aticleNum);\n  //Not sure if we need these below\n  event ArticleUpVoted(uint aticleNum);\n  event ArticleDownVoted(uint aticleNum);\n\n  //Define a struct to store contributor information\n  struct articleInfo {\n      address contributor;\n      bytes32 ipfsArticleHash;\n      bytes32 ipfsReferenceHash;\n      string title;\n      uint datePublished;\n      address validator;\n      bool approved;\n      bool challenged;\n      bool removed;\n      uint upVotes;\n      uint downVotes;\n      uint stake;\n    }\n\n  //Define a variable to count number of articles.\n    uint totalArticles;\n\n  //Define a mapping to map contributor address and contributor info\n  mapping(uint => articleInfo) allArticles;\n\n  // In the constructor make the address that deploys this contract the 1st Contributor\n  //   constructor() public {\n //   }\n\n  // Define a function 'addArticle' that adds the article\n  function add(address _contributor, bytes32 _ipfsArticleHash, bytes32 _ipfsReferenceHash,\n                        string memory _title, uint _datePublished, uint _stake) public returns(uint){\n    totalArticles = totalArticles.add(1);\n    allArticles[totalArticles] = articleInfo({contributor: _contributor, ipfsArticleHash: _ipfsArticleHash,\n                                             ipfsReferenceHash: _ipfsReferenceHash, title: _title, datePublished: _datePublished,\n                                            validator: address(0), approved: false, challenged:false, removed: false, upVotes: 0, downVotes: 0, stake: _stake});\n    emit ArticleAdded(totalArticles);\n    return totalArticles;\n  }\n\n  // Define a function to return article title\n  function getArticleTitle(uint articleNumber) public view returns (string memory title){\n    articleInfo storage article = allArticles[articleNumber];\n    string memory articleTitle = article.title;\n    return articleTitle;\n  }\n\n  // Define a function to return article date published\n  function getArticleDatePublished(uint articleNumber) public view returns (uint datePublished){\n    articleInfo storage article = allArticles[articleNumber];\n    uint articleDatePublished = article.datePublished;\n    return articleDatePublished;\n  }\n\n  // Define a function to return article upvotes\n  function getArticleUpvotes(uint articleNumber) public view returns (uint upVotes){\n    articleInfo storage article = allArticles[articleNumber];\n    uint articleUpvotes = article.upVotes;\n    return articleUpvotes;\n  }\n\n  // Define a function to return article downvotes\n  function getArticleDownvotes(uint articleNumber) public view returns (uint downVotes){\n    articleInfo storage article = allArticles[articleNumber];\n    uint articleDownvotes = article.downVotes;\n    return articleDownvotes;\n  }\n\n  //Define a function to return number of articles\n  function getNumberOfArticles() public view returns (uint noOfArticles) {\n    return totalArticles;\n  }\n\n  // Define a function 'approved' that updates the approved flag\n  function approved(uint articleNumber) public {\n    allArticles[articleNumber].approved = true;\n    emit ArticleApproved(totalArticles);\n  }\n\n  // Define a function 'challenged' that updates the challenged flag\n  function challenged(uint articleNumber) public {\n    allArticles[articleNumber].challenged = true;\n    emit ArticleChallenged(totalArticles);\n  }\n\n  // Define a function 'removed' that updates the removed flag\n  function removed(uint articleNumber) public {\n    allArticles[articleNumber].removed = true;\n    emit ArticleRemoved(totalArticles);\n  }\n\n  // Define a function 'upVoted' that updates the upVote count\n  function upVoted(uint articleNumber) public {\n    allArticles[articleNumber].upVotes = allArticles[articleNumber].upVotes.add(1);\n    emit ArticleUpVoted(totalArticles);\n  }\n\n  // Define a function 'downVoted' that updates the upVote count\n  function downVoted(uint articleNumber) public {\n    allArticles[articleNumber].downVotes = allArticles[articleNumber].downVotes.add(1);\n    emit ArticleDownVoted(totalArticles);\n  }\n}",
  "sourcePath": "/Users/ringaile/Documents/hackathon/contracts/Article.sol",
  "compiler": {
    "name": "solc",
    "version": "0.5.0+commit.1d4f565a.Emscripten.clang"
  },
  "schemaVersion": "3.0.5",
  "updatedAt": "2019-07-03T21:20:07.809Z",
  "devdoc": {
    "methods": {}
  },
  "userdoc": {
    "methods": {}
  }
}