{
  "contractName": "Article",
  "abi": [
    {
      "anonymous": false,
      "inputs": [
        {
          "indexed": false,
          "name": "aticleNum",
          "type": "uint256"
        }
      ],
      "name": "ArticleAdded",
      "type": "event"
    },
    {
      "anonymous": false,
      "inputs": [
        {
          "indexed": false,
          "name": "aticleNum",
          "type": "uint256"
        }
      ],
      "name": "ArticleRemoved",
      "type": "event"
    },
    {
      "anonymous": false,
      "inputs": [
        {
          "indexed": false,
          "name": "aticleNum",
          "type": "uint256"
        }
      ],
      "name": "ArticleApproved",
      "type": "event"
    },
    {
      "anonymous": false,
      "inputs": [
        {
          "indexed": false,
          "name": "aticleNum",
          "type": "uint256"
        }
      ],
      "name": "ArticleChallenged",
      "type": "event"
    },
    {
      "anonymous": false,
      "inputs": [
        {
          "indexed": false,
          "name": "aticleNum",
          "type": "uint256"
        }
      ],
      "name": "ArticleUpVoted",
      "type": "event"
    },
    {
      "anonymous": false,
      "inputs": [
        {
          "indexed": false,
          "name": "aticleNum",
          "type": "uint256"
        }
      ],
      "name": "ArticleDownVoted",
      "type": "event"
    },
    {
      "constant": false,
      "inputs": [
        {
          "name": "_contributor",
          "type": "address"
        },
        {
          "name": "_ipfsArticleHash",
          "type": "bytes32"
        },
        {
          "name": "_ipfsReferenceHash",
          "type": "bytes32"
        },
        {
          "name": "_title",
          "type": "string"
        },
        {
          "name": "_datePublished",
          "type": "uint256"
        },
        {
          "name": "_stake",
          "type": "uint256"
        }
      ],
      "name": "addArticle",
      "outputs": [
        {
          "name": "",
          "type": "uint256"
        }
      ],
      "payable": false,
      "stateMutability": "nonpayable",
      "type": "function"
    },
    {
      "constant": false,
      "inputs": [
        {
          "name": "articleNumber",
          "type": "uint256"
        }
      ],
      "name": "approved",
      "outputs": [],
      "payable": false,
      "stateMutability": "nonpayable",
      "type": "function"
    },
    {
      "constant": false,
      "inputs": [
        {
          "name": "articleNumber",
          "type": "uint256"
        }
      ],
      "name": "challenged",
      "outputs": [],
      "payable": false,
      "stateMutability": "nonpayable",
      "type": "function"
    },
    {
      "constant": false,
      "inputs": [
        {
          "name": "articleNumber",
          "type": "uint256"
        }
      ],
      "name": "removed",
      "outputs": [],
      "payable": false,
      "stateMutability": "nonpayable",
      "type": "function"
    },
    {
      "constant": false,
      "inputs": [
        {
          "name": "articleNumber",
          "type": "uint256"
        }
      ],
      "name": "upVoted",
      "outputs": [],
      "payable": false,
      "stateMutability": "nonpayable",
      "type": "function"
    },
    {
      "constant": false,
      "inputs": [
        {
          "name": "articleNumber",
          "type": "uint256"
        }
      ],
      "name": "downVoted",
      "outputs": [],
      "payable": false,
      "stateMutability": "nonpayable",
      "type": "function"
    }
  ],
  "bytecode": "0x608060405234801561001057600080fd5b5061084d806100206000396000f3fe608060405260043610610078576000357c0100000000000000000000000000000000000000000000000000000000900463ffffffff16806301c97c571461007d57806345e73685146100b85780637d4061e6146100f35780638255899d1461012e5780639d0c8a9f14610169578063c33994fb146101a4575b600080fd5b34801561008957600080fd5b506100b6600480360360208110156100a057600080fd5b81019080803590602001909291905050506102c8565b005b3480156100c457600080fd5b506100f1600480360360208110156100db57600080fd5b8101908080359060200190929190505050610347565b005b3480156100ff57600080fd5b5061012c6004803603602081101561011657600080fd5b81019080803590602001909291905050506103b1565b005b34801561013a57600080fd5b506101676004803603602081101561015157600080fd5b810190808035906020019092919050505061041b565b005b34801561017557600080fd5b506101a26004803603602081101561018c57600080fd5b8101908080359060200190929190505050610485565b005b3480156101b057600080fd5b506102b2600480360360c08110156101c757600080fd5b81019080803573ffffffffffffffffffffffffffffffffffffffff16906020019092919080359060200190929190803590602001909291908035906020019064010000000081111561021857600080fd5b82018360208201111561022a57600080fd5b8035906020019184600183028401116401000000008311171561024c57600080fd5b91908080601f016020809104026020016040519081016040528093929190818152602001838380828437600081840152601f19601f8201169050808301925050505050505091929192908035906020019092919080359060200190929190505050610504565b6040518082815260200191505060405180910390f35b6102f16001806000848152602001908152602001600020600601546106f290919063ffffffff16565b60016000838152602001908152602001600020600601819055507feb5a35545b0a45240a67898d2f6187c764da2eaca5c11a0e75e615dd80d9458d6000546040518082815260200191505060405180910390a150565b600180600083815260200190815260200160002060050160016101000a81548160ff0219169083151502179055507f7794351528fe7be520769ebfe19d7275d2a0ecb197e1bbc23afa224134887ba26000546040518082815260200191505060405180910390a150565b600180600083815260200190815260200160002060050160006101000a81548160ff0219169083151502179055507f60bd4c6e468dd35d1c78b03ddc704f2f270ad2ed13b45bf571438f433db9b8f76000546040518082815260200191505060405180910390a150565b600180600083815260200190815260200160002060050160026101000a81548160ff0219169083151502179055507fe95591b999a8fa4c23f2d0b426271960c193b5eb71cef3bc673ac5be6cb60df46000546040518082815260200191505060405180910390a150565b6104ae6001806000848152602001908152602001600020600701546106f290919063ffffffff16565b60016000838152602001908152602001600020600701819055507fd1ff0de57853f81f969355a26960199cd8211f9d274c6c552a148053125b46116000546040518082815260200191505060405180910390a150565b600061051c60016000546106f290919063ffffffff16565b600081905550610160604051908101604052808873ffffffffffffffffffffffffffffffffffffffff168152602001878152602001868152602001858152602001848152602001600015158152602001600015158152602001600015158152602001600081526020016000815260200183815250600160008054815260200190815260200160002060008201518160000160006101000a81548173ffffffffffffffffffffffffffffffffffffffff021916908373ffffffffffffffffffffffffffffffffffffffff1602179055506020820151816001015560408201518160020155606082015181600301908051906020019061061b92919061077c565b506080820151816004015560a08201518160050160006101000a81548160ff02191690831515021790555060c08201518160050160016101000a81548160ff02191690831515021790555060e08201518160050160026101000a81548160ff0219169083151502179055506101008201518160060155610120820151816007015561014082015181600801559050507f9ed508f9dd7c730fd307b1ca38355cf4d9c00f58a2acfa5167b497c51a859e4c6000546040518082815260200191505060405180910390a160005490509695505050505050565b6000808284019050838110151515610772576040517f08c379a000000000000000000000000000000000000000000000000000000000815260040180806020018281038252601b8152602001807f536166654d6174683a206164646974696f6e206f766572666c6f77000000000081525060200191505060405180910390fd5b8091505092915050565b828054600181600116156101000203166002900490600052602060002090601f016020900481019282601f106107bd57805160ff19168380011785556107eb565b828001600101855582156107eb579182015b828111156107ea5782518255916020019190600101906107cf565b5b5090506107f891906107fc565b5090565b61081e91905b8082111561081a576000816000905550600101610802565b5090565b9056fea165627a7a72305820fec79d41d655b5b31d6191763d365a33ccbc2d018b958a4943e08bfd3b71b1ca0029",
  "source": "pragma solidity >=0.4.21 <0.6.0;\r\n\r\n// Import the library 'Roles' and SafeMath\r\n//import \"../node_modules/openzeppelin-solidity/contracts/access/Roles.sol\";\r\nimport \"../node_modules/openzeppelin-solidity/contracts/math/SafeMath.sol\";\r\n\r\n// Define a contract 'ContributorRole' to manage this role - add, remove, check\r\ncontract Article {\r\n  using SafeMath for uint;\r\n\r\n  // Define events\r\n  event ArticleAdded(uint aticleNum);\r\n  event ArticleRemoved(uint aticleNum);\r\n  event ArticleApproved(uint aticleNum);\r\n  event ArticleChallenged(uint aticleNum);\r\n  //Not sure if we need these below\r\n  event ArticleUpVoted(uint aticleNum);\r\n  event ArticleDownVoted(uint aticleNum);\r\n\r\n  //Define a struct to store contributor information\r\n  struct articleInfo {\r\n      address contributor;\r\n      bytes32 ipfsArticleHash;\r\n      bytes32 ipfsReferenceHash;\r\n      string title;\r\n      uint datePublished;\r\n      bool approved;\r\n      bool challenged;\r\n      bool removed;\r\n      uint upVotes;\r\n      uint downVotes;\r\n      uint stake;\r\n    }\r\n\r\n  //Define a variable to count number of articles.\r\n    uint totalArticles;\r\n\r\n  //Define a mapping to map contributor address and contributor info\r\n  mapping(uint => articleInfo) allArticles;\r\n\r\n  // In the constructor make the address that deploys this contract the 1st Contributor\r\n  //   constructor() public {\r\n //   }\r\n\r\n  // Define a function 'addArticle' that adds the article\r\n  function addArticle(address _contributor, bytes32 _ipfsArticleHash, bytes32 _ipfsReferenceHash,\r\n                        string memory _title, uint _datePublished, uint _stake) public returns(uint){\r\n    totalArticles = totalArticles.add(1);\r\n    allArticles[totalArticles] = articleInfo({contributor: _contributor, ipfsArticleHash: _ipfsArticleHash,\r\n                                             ipfsReferenceHash: _ipfsReferenceHash, title: _title, datePublished: _datePublished,\r\n                                            approved: false, challenged:false, removed: false, upVotes: 0, downVotes: 0, stake: _stake});\r\n    emit ArticleAdded(totalArticles);\r\n    return totalArticles;\r\n  }\r\n\r\n  // Define a function 'approved' that updates the approved flag\r\n  function approved(uint articleNumber) public {\r\n    allArticles[articleNumber].approved = true;\r\n    emit ArticleApproved(totalArticles);\r\n  }\r\n\r\n  // Define a function 'challenged' that updates the challenged flag\r\n  function challenged(uint articleNumber) public {\r\n    allArticles[articleNumber].challenged = true;\r\n    emit ArticleChallenged(totalArticles);\r\n  }\r\n\r\n  // Define a function 'removed' that updates the removed flag\r\n  function removed(uint articleNumber) public {\r\n    allArticles[articleNumber].removed = true;\r\n    emit ArticleRemoved(totalArticles);\r\n  }\r\n\r\n  // Define a function 'upVoted' that updates the upVote count\r\n  function upVoted(uint articleNumber) public {\r\n    allArticles[articleNumber].upVotes = allArticles[articleNumber].upVotes.add(1);\r\n    emit ArticleUpVoted(totalArticles);\r\n  }\r\n\r\n  // Define a function 'downVoted' that updates the upVote count\r\n  function downVoted(uint articleNumber) public {\r\n    allArticles[articleNumber].downVotes = allArticles[articleNumber].downVotes.add(1);\r\n    emit ArticleDownVoted(totalArticles);\r\n  }\r\n}",
  "sourcePath": "C:\\Users\\avant\\Desktop\\honest_media\\contracts\\Article.sol",
  "compiler": {
    "name": "solc",
    "version": "0.5.0+commit.1d4f565a.Emscripten.clang"
  },
  "schemaVersion": "3.0.5",
  "updatedAt": "2019-07-01T19:17:27.194Z",
  "devdoc": {
    "methods": {}
  },
  "userdoc": {
    "methods": {}
  }
}