{
  "contractName": "Article",
  "abi": [
    {
      "anonymous": false,
      "inputs": [
        {
          "indexed": false,
          "name": "aticleNum",
          "type": "uint256"
        }
      ],
      "name": "ArticleAdded",
      "type": "event"
    },
    {
      "anonymous": false,
      "inputs": [
        {
          "indexed": false,
          "name": "aticleNum",
          "type": "uint256"
        }
      ],
      "name": "ArticleRemoved",
      "type": "event"
    },
    {
      "anonymous": false,
      "inputs": [
        {
          "indexed": false,
          "name": "aticleNum",
          "type": "uint256"
        }
      ],
      "name": "ArticleApproved",
      "type": "event"
    },
    {
      "anonymous": false,
      "inputs": [
        {
          "indexed": false,
          "name": "aticleNum",
          "type": "uint256"
        }
      ],
      "name": "ArticleChallenged",
      "type": "event"
    },
    {
      "anonymous": false,
      "inputs": [
        {
          "indexed": false,
          "name": "aticleNum",
          "type": "uint256"
        }
      ],
      "name": "ArticleUpVoted",
      "type": "event"
    },
    {
      "anonymous": false,
      "inputs": [
        {
          "indexed": false,
          "name": "aticleNum",
          "type": "uint256"
        }
      ],
      "name": "ArticleDownVoted",
      "type": "event"
    },
    {
      "constant": false,
      "inputs": [
        {
          "name": "_contributor",
          "type": "address"
        },
        {
          "name": "_ipfsArticleHash",
          "type": "bytes32"
        },
        {
          "name": "_ipfsReferenceHash",
          "type": "bytes32"
        },
        {
          "name": "_title",
          "type": "string"
        },
        {
          "name": "_datePublished",
          "type": "uint256"
        },
        {
          "name": "_stake",
          "type": "uint256"
        }
      ],
      "name": "add",
      "outputs": [
        {
          "name": "",
          "type": "uint256"
        }
      ],
      "payable": false,
      "stateMutability": "nonpayable",
      "type": "function"
    },
    {
      "constant": true,
      "inputs": [
        {
          "name": "articleNumber",
          "type": "uint256"
        }
      ],
      "name": "getArticleTitle",
      "outputs": [
        {
          "name": "title",
          "type": "string"
        }
      ],
      "payable": false,
      "stateMutability": "view",
      "type": "function"
    },
    {
      "constant": true,
      "inputs": [
        {
          "name": "articleNumber",
          "type": "uint256"
        }
      ],
      "name": "getArticleDatePublished",
      "outputs": [
        {
          "name": "datePublished",
          "type": "uint256"
        }
      ],
      "payable": false,
      "stateMutability": "view",
      "type": "function"
    },
    {
      "constant": true,
      "inputs": [
        {
          "name": "articleNumber",
          "type": "uint256"
        }
      ],
      "name": "getArticleUpvotes",
      "outputs": [
        {
          "name": "upVotes",
          "type": "uint256"
        }
      ],
      "payable": false,
      "stateMutability": "view",
      "type": "function"
    },
    {
      "constant": true,
      "inputs": [
        {
          "name": "articleNumber",
          "type": "uint256"
        }
      ],
      "name": "getArticleDownvotes",
      "outputs": [
        {
          "name": "downVotes",
          "type": "uint256"
        }
      ],
      "payable": false,
      "stateMutability": "view",
      "type": "function"
    },
    {
      "constant": true,
      "inputs": [],
      "name": "getNumberOfArticles",
      "outputs": [
        {
          "name": "noOfArticles",
          "type": "uint256"
        }
      ],
      "payable": false,
      "stateMutability": "view",
      "type": "function"
    },
    {
      "constant": false,
      "inputs": [
        {
          "name": "articleNumber",
          "type": "uint256"
        }
      ],
      "name": "approved",
      "outputs": [],
      "payable": false,
      "stateMutability": "nonpayable",
      "type": "function"
    },
    {
      "constant": false,
      "inputs": [
        {
          "name": "articleNumber",
          "type": "uint256"
        }
      ],
      "name": "challenged",
      "outputs": [],
      "payable": false,
      "stateMutability": "nonpayable",
      "type": "function"
    },
    {
      "constant": false,
      "inputs": [
        {
          "name": "articleNumber",
          "type": "uint256"
        }
      ],
      "name": "removed",
      "outputs": [],
      "payable": false,
      "stateMutability": "nonpayable",
      "type": "function"
    },
    {
      "constant": false,
      "inputs": [
        {
          "name": "articleNumber",
          "type": "uint256"
        }
      ],
      "name": "upVoted",
      "outputs": [],
      "payable": false,
      "stateMutability": "nonpayable",
      "type": "function"
    },
    {
      "constant": false,
      "inputs": [
        {
          "name": "articleNumber",
          "type": "uint256"
        }
      ],
      "name": "downVoted",
      "outputs": [],
      "payable": false,
      "stateMutability": "nonpayable",
      "type": "function"
    }
  ],
  "bytecode": "0x608060405234801561001057600080fd5b50610b6b806100206000396000f3fe608060405234801561001057600080fd5b50600436106100a95760003560e01c80637d4061e6116100715780637d4061e61461030a5780638255899d1461033857806389da85d3146103665780639d0c8a9f14610384578063cd0b1300146103b2578063fc96a826146103f4576100a9565b806301c97c57146100ae5780632d85b283146100dc57806345e73685146101f3578063744d5c65146102215780637c224df8146102c8575b600080fd5b6100da600480360360208110156100c457600080fd5b8101908080359060200190929190505050610436565b005b6101dd600480360360c08110156100f257600080fd5b81019080803573ffffffffffffffffffffffffffffffffffffffff16906020019092919080359060200190929190803590602001909291908035906020019064010000000081111561014357600080fd5b82018360208201111561015557600080fd5b8035906020019184600183028401116401000000008311171561017757600080fd5b91908080601f016020809104026020016040519081016040528093929190818152602001838380828437600081840152601f19601f82011690508083019250505050505050919291929080359060200190929190803590602001909291905050506104b5565b6040518082815260200191505060405180910390f35b61021f6004803603602081101561020957600080fd5b8101908080359060200190929190505050610707565b005b61024d6004803603602081101561023757600080fd5b8101908080359060200190929190505050610771565b6040518080602001828103825283818151815260200191508051906020019080838360005b8381101561028d578082015181840152602081019050610272565b50505050905090810190601f1680156102ba5780820380516001836020036101000a031916815260200191505b509250505060405180910390f35b6102f4600480360360208110156102de57600080fd5b8101908080359060200190929190505050610835565b6040518082815260200191505060405180910390f35b6103366004803603602081101561032057600080fd5b8101908080359060200190929190505050610860565b005b6103646004803603602081101561034e57600080fd5b81019080803590602001909291905050506108ca565b005b61036e610934565b6040518082815260200191505060405180910390f35b6103b06004803603602081101561039a57600080fd5b810190808035906020019092919050505061093d565b005b6103de600480360360208110156103c857600080fd5b81019080803590602001909291905050506109bc565b6040518082815260200191505060405180910390f35b6104206004803603602081101561040a57600080fd5b81019080803590602001909291905050506109e7565b6040518082815260200191505060405180910390f35b61045f600180600084815260200190815260200160002060060154610a1290919063ffffffff16565b60016000838152602001908152602001600020600601819055507feb5a35545b0a45240a67898d2f6187c764da2eaca5c11a0e75e615dd80d9458d6000546040518082815260200191505060405180910390a150565b60006104cd6001600054610a1290919063ffffffff16565b6000819055506040518061018001604052808873ffffffffffffffffffffffffffffffffffffffff168152602001878152602001868152602001858152602001848152602001600073ffffffffffffffffffffffffffffffffffffffff168152602001600015158152602001600015158152602001600015158152602001600081526020016000815260200183815250600160008054815260200190815260200160002060008201518160000160006101000a81548173ffffffffffffffffffffffffffffffffffffffff021916908373ffffffffffffffffffffffffffffffffffffffff160217905550602082015181600101556040820151816002015560608201518160030190805190602001906105e8929190610a9a565b506080820151816004015560a08201518160050160006101000a81548173ffffffffffffffffffffffffffffffffffffffff021916908373ffffffffffffffffffffffffffffffffffffffff16021790555060c08201518160050160146101000a81548160ff02191690831515021790555060e08201518160050160156101000a81548160ff0219169083151502179055506101008201518160050160166101000a81548160ff0219169083151502179055506101208201518160060155610140820151816007015561016082015181600801559050507f9ed508f9dd7c730fd307b1ca38355cf4d9c00f58a2acfa5167b497c51a859e4c6000546040518082815260200191505060405180910390a160005490509695505050505050565b600180600083815260200190815260200160002060050160156101000a81548160ff0219169083151502179055507f7794351528fe7be520769ebfe19d7275d2a0ecb197e1bbc23afa224134887ba26000546040518082815260200191505060405180910390a150565b606060006001600084815260200190815260200160002090506060816003018054600181600116156101000203166002900480601f0160208091040260200160405190810160405280929190818152602001828054600181600116156101000203166002900480156108245780601f106107f957610100808354040283529160200191610824565b820191906000526020600020905b81548152906001019060200180831161080757829003601f168201915b505050505090508092505050919050565b6000806001600084815260200190815260200160002090506000816007015490508092505050919050565b600180600083815260200190815260200160002060050160146101000a81548160ff0219169083151502179055507f60bd4c6e468dd35d1c78b03ddc704f2f270ad2ed13b45bf571438f433db9b8f76000546040518082815260200191505060405180910390a150565b600180600083815260200190815260200160002060050160166101000a81548160ff0219169083151502179055507fe95591b999a8fa4c23f2d0b426271960c193b5eb71cef3bc673ac5be6cb60df46000546040518082815260200191505060405180910390a150565b60008054905090565b610966600180600084815260200190815260200160002060070154610a1290919063ffffffff16565b60016000838152602001908152602001600020600701819055507fd1ff0de57853f81f969355a26960199cd8211f9d274c6c552a148053125b46116000546040518082815260200191505060405180910390a150565b6000806001600084815260200190815260200160002090506000816006015490508092505050919050565b6000806001600084815260200190815260200160002090506000816004015490508092505050919050565b600080828401905083811015610a90576040517f08c379a000000000000000000000000000000000000000000000000000000000815260040180806020018281038252601b8152602001807f536166654d6174683a206164646974696f6e206f766572666c6f77000000000081525060200191505060405180910390fd5b8091505092915050565b828054600181600116156101000203166002900490600052602060002090601f016020900481019282601f10610adb57805160ff1916838001178555610b09565b82800160010185558215610b09579182015b82811115610b08578251825591602001919060010190610aed565b5b509050610b169190610b1a565b5090565b610b3c91905b80821115610b38576000816000905550600101610b20565b5090565b9056fea165627a7a723058208f67a48bc8a77add3f3c49156164c69c19e45cea2660814d6e377302d246ce240029",
  "source": "pragma solidity >=0.4.21 <0.6.0;\r\n\r\n// Import the library 'Roles' and SafeMath\r\n//import \"../node_modules/openzeppelin-solidity/contracts/access/Roles.sol\";\r\nimport \"../node_modules/openzeppelin-solidity/contracts/math/SafeMath.sol\";\r\n\r\n// Define a contract 'ContributorRole' to manage this role - add, remove, check\r\ncontract Article {\r\n  using SafeMath for uint;\r\n\r\n  // Define events\r\n  event ArticleAdded(uint aticleNum);\r\n  event ArticleRemoved(uint aticleNum);\r\n  event ArticleApproved(uint aticleNum);\r\n  event ArticleChallenged(uint aticleNum);\r\n  //Not sure if we need these below\r\n  event ArticleUpVoted(uint aticleNum);\r\n  event ArticleDownVoted(uint aticleNum);\r\n\r\n  //Define a struct to store contributor information\r\n  struct articleInfo {\r\n      address contributor;\r\n      bytes32 ipfsArticleHash;\r\n      bytes32 ipfsReferenceHash;\r\n      string title;\r\n      uint datePublished;\r\n      address validator;\r\n      bool approved;\r\n      bool challenged;\r\n      bool removed;\r\n      uint upVotes;\r\n      uint downVotes;\r\n      uint stake;\r\n    }\r\n\r\n  //Define a variable to count number of articles.\r\n    uint totalArticles;\r\n\r\n  //Define a mapping to map contributor address and contributor info\r\n  mapping(uint => articleInfo) allArticles;\r\n\r\n  // In the constructor make the address that deploys this contract the 1st Contributor\r\n  //   constructor() public {\r\n //   }\r\n\r\n  // Define a function 'addArticle' that adds the article\r\n  function add(address _contributor, bytes32 _ipfsArticleHash, bytes32 _ipfsReferenceHash,\r\n                        string memory _title, uint _datePublished, uint _stake) public returns(uint){\r\n    totalArticles = totalArticles.add(1);\r\n    allArticles[totalArticles] = articleInfo({contributor: _contributor, ipfsArticleHash: _ipfsArticleHash,\r\n                                             ipfsReferenceHash: _ipfsReferenceHash, title: _title, datePublished: _datePublished,\r\n                                            validator: address(0), approved: false, challenged:false, removed: false, upVotes: 0, downVotes: 0, stake: _stake});\r\n    emit ArticleAdded(totalArticles);\r\n    return totalArticles;\r\n  }\r\n\r\n  // Define a function to return article title\r\n  function getArticleTitle(uint articleNumber) public view returns (string memory title){\r\n    articleInfo storage article = allArticles[articleNumber];\r\n    string memory articleTitle = article.title;\r\n    return articleTitle;\r\n  }\r\n\r\n  // Define a function to return article date published\r\n  function getArticleDatePublished(uint articleNumber) public view returns (uint datePublished){\r\n    articleInfo storage article = allArticles[articleNumber];\r\n    uint articleDatePublished = article.datePublished;\r\n    return articleDatePublished;\r\n  }\r\n\r\n  // Define a function to return article upvotes\r\n  function getArticleUpvotes(uint articleNumber) public view returns (uint upVotes){\r\n    articleInfo storage article = allArticles[articleNumber];\r\n    uint articleUpvotes = article.upVotes;\r\n    return articleUpvotes;\r\n  }\r\n\r\n  // Define a function to return article downvotes\r\n  function getArticleDownvotes(uint articleNumber) public view returns (uint downVotes){\r\n    articleInfo storage article = allArticles[articleNumber];\r\n    uint articleDownvotes = article.downVotes;\r\n    return articleDownvotes;\r\n  }\r\n\r\n  //Define a function to return number of articles\r\n  function getNumberOfArticles() public view returns (uint noOfArticles) {\r\n    return totalArticles;\r\n  }\r\n\r\n  // Define a function 'approved' that updates the approved flag\r\n  function approved(uint articleNumber) public {\r\n    allArticles[articleNumber].approved = true;\r\n    emit ArticleApproved(totalArticles);\r\n  }\r\n\r\n  // Define a function 'challenged' that updates the challenged flag\r\n  function challenged(uint articleNumber) public {\r\n    allArticles[articleNumber].challenged = true;\r\n    emit ArticleChallenged(totalArticles);\r\n  }\r\n\r\n  // Define a function 'removed' that updates the removed flag\r\n  function removed(uint articleNumber) public {\r\n    allArticles[articleNumber].removed = true;\r\n    emit ArticleRemoved(totalArticles);\r\n  }\r\n\r\n  // Define a function 'upVoted' that updates the upVote count\r\n  function upVoted(uint articleNumber) public {\r\n    allArticles[articleNumber].upVotes = allArticles[articleNumber].upVotes.add(1);\r\n    emit ArticleUpVoted(totalArticles);\r\n  }\r\n\r\n  // Define a function 'downVoted' that updates the upVote count\r\n  function downVoted(uint articleNumber) public {\r\n    allArticles[articleNumber].downVotes = allArticles[articleNumber].downVotes.add(1);\r\n    emit ArticleDownVoted(totalArticles);\r\n  }\r\n}",
  "sourcePath": "C:\\Users\\rva\\Documents\\hackathon\\honest_media\\contracts\\Article.sol",
  "compiler": {
    "name": "solc",
    "version": "0.5.8+commit.23d335f2.Emscripten.clang"
  },
  "schemaVersion": "3.0.10",
  "updatedAt": "2019-07-03T11:33:02.563Z",
  "devdoc": {
    "methods": {}
  },
  "userdoc": {
    "methods": {}
  }
}