{
  "contractName": "Article",
  "abi": [
    {
      "anonymous": false,
      "inputs": [
        {
          "indexed": false,
          "name": "aticleNum",
          "type": "uint256"
        }
      ],
      "name": "ArticleAdded",
      "type": "event",
      "signature": "0x9ed508f9dd7c730fd307b1ca38355cf4d9c00f58a2acfa5167b497c51a859e4c"
    },
    {
      "anonymous": false,
      "inputs": [
        {
          "indexed": false,
          "name": "aticleNum",
          "type": "uint256"
        }
      ],
      "name": "ArticleRemoved",
      "type": "event",
      "signature": "0xe95591b999a8fa4c23f2d0b426271960c193b5eb71cef3bc673ac5be6cb60df4"
    },
    {
      "anonymous": false,
      "inputs": [
        {
          "indexed": false,
          "name": "aticleNum",
          "type": "uint256"
        }
      ],
      "name": "ArticleApproved",
      "type": "event",
      "signature": "0x60bd4c6e468dd35d1c78b03ddc704f2f270ad2ed13b45bf571438f433db9b8f7"
    },
    {
      "anonymous": false,
      "inputs": [
        {
          "indexed": false,
          "name": "aticleNum",
          "type": "uint256"
        }
      ],
      "name": "ArticleChallenged",
      "type": "event",
      "signature": "0x7794351528fe7be520769ebfe19d7275d2a0ecb197e1bbc23afa224134887ba2"
    },
    {
      "anonymous": false,
      "inputs": [
        {
          "indexed": false,
          "name": "aticleNum",
          "type": "uint256"
        }
      ],
      "name": "ArticleUpVoted",
      "type": "event",
      "signature": "0xeb5a35545b0a45240a67898d2f6187c764da2eaca5c11a0e75e615dd80d9458d"
    },
    {
      "anonymous": false,
      "inputs": [
        {
          "indexed": false,
          "name": "aticleNum",
          "type": "uint256"
        }
      ],
      "name": "ArticleDownVoted",
      "type": "event",
      "signature": "0xd1ff0de57853f81f969355a26960199cd8211f9d274c6c552a148053125b4611"
    },
    {
      "constant": false,
      "inputs": [
        {
          "name": "_contributor",
          "type": "address"
        },
        {
          "name": "_ipfsArticleHash",
          "type": "bytes32"
        },
        {
          "name": "_ipfsReferenceHash",
          "type": "bytes32"
        },
        {
          "name": "_title",
          "type": "string"
        },
        {
          "name": "_datePublished",
          "type": "uint256"
        },
        {
          "name": "_stake",
          "type": "uint256"
        }
      ],
      "name": "add",
      "outputs": [
        {
          "name": "",
          "type": "uint256"
        }
      ],
      "payable": false,
      "stateMutability": "nonpayable",
      "type": "function",
      "signature": "0x2d85b283"
    },
    {
      "constant": false,
      "inputs": [
        {
          "name": "articleNumber",
          "type": "uint256"
        }
      ],
      "name": "approved",
      "outputs": [],
      "payable": false,
      "stateMutability": "nonpayable",
      "type": "function",
      "signature": "0x7d4061e6"
    },
    {
      "constant": false,
      "inputs": [
        {
          "name": "articleNumber",
          "type": "uint256"
        }
      ],
      "name": "challenged",
      "outputs": [],
      "payable": false,
      "stateMutability": "nonpayable",
      "type": "function",
      "signature": "0x45e73685"
    },
    {
      "constant": false,
      "inputs": [
        {
          "name": "articleNumber",
          "type": "uint256"
        }
      ],
      "name": "removed",
      "outputs": [],
      "payable": false,
      "stateMutability": "nonpayable",
      "type": "function",
      "signature": "0x8255899d"
    },
    {
      "constant": false,
      "inputs": [
        {
          "name": "articleNumber",
          "type": "uint256"
        }
      ],
      "name": "upVoted",
      "outputs": [],
      "payable": false,
      "stateMutability": "nonpayable",
      "type": "function",
      "signature": "0x01c97c57"
    },
    {
      "constant": false,
      "inputs": [
        {
          "name": "articleNumber",
          "type": "uint256"
        }
      ],
      "name": "downVoted",
      "outputs": [],
      "payable": false,
      "stateMutability": "nonpayable",
      "type": "function",
      "signature": "0x9d0c8a9f"
    }
  ],
  "bytecode": "0x608060405234801561001057600080fd5b506108b2806100206000396000f3fe608060405260043610610078576000357c0100000000000000000000000000000000000000000000000000000000900463ffffffff16806301c97c571461007d5780632d85b283146100b857806345e73685146101dc5780637d4061e6146102175780638255899d146102525780639d0c8a9f1461028d575b600080fd5b34801561008957600080fd5b506100b6600480360360208110156100a057600080fd5b81019080803590602001909291905050506102c8565b005b3480156100c457600080fd5b506101c6600480360360c08110156100db57600080fd5b81019080803573ffffffffffffffffffffffffffffffffffffffff16906020019092919080359060200190929190803590602001909291908035906020019064010000000081111561012c57600080fd5b82018360208201111561013e57600080fd5b8035906020019184600183028401116401000000008311171561016057600080fd5b91908080601f016020809104026020016040519081016040528093929190818152602001838380828437600081840152601f19601f8201169050808301925050505050505091929192908035906020019092919080359060200190929190505050610347565b6040518082815260200191505060405180910390f35b3480156101e857600080fd5b50610215600480360360208110156101ff57600080fd5b810190808035906020019092919050505061059a565b005b34801561022357600080fd5b506102506004803603602081101561023a57600080fd5b8101908080359060200190929190505050610604565b005b34801561025e57600080fd5b5061028b6004803603602081101561027557600080fd5b810190808035906020019092919050505061066e565b005b34801561029957600080fd5b506102c6600480360360208110156102b057600080fd5b81019080803590602001909291905050506106d8565b005b6102f160018060008481526020019081526020016000206006015461075790919063ffffffff16565b60016000838152602001908152602001600020600601819055507feb5a35545b0a45240a67898d2f6187c764da2eaca5c11a0e75e615dd80d9458d6000546040518082815260200191505060405180910390a150565b600061035f600160005461075790919063ffffffff16565b600081905550610180604051908101604052808873ffffffffffffffffffffffffffffffffffffffff168152602001878152602001868152602001858152602001848152602001600073ffffffffffffffffffffffffffffffffffffffff168152602001600015158152602001600015158152602001600015158152602001600081526020016000815260200183815250600160008054815260200190815260200160002060008201518160000160006101000a81548173ffffffffffffffffffffffffffffffffffffffff021916908373ffffffffffffffffffffffffffffffffffffffff1602179055506020820151816001015560408201518160020155606082015181600301908051906020019061047b9291906107e1565b506080820151816004015560a08201518160050160006101000a81548173ffffffffffffffffffffffffffffffffffffffff021916908373ffffffffffffffffffffffffffffffffffffffff16021790555060c08201518160050160146101000a81548160ff02191690831515021790555060e08201518160050160156101000a81548160ff0219169083151502179055506101008201518160050160166101000a81548160ff0219169083151502179055506101208201518160060155610140820151816007015561016082015181600801559050507f9ed508f9dd7c730fd307b1ca38355cf4d9c00f58a2acfa5167b497c51a859e4c6000546040518082815260200191505060405180910390a160005490509695505050505050565b600180600083815260200190815260200160002060050160156101000a81548160ff0219169083151502179055507f7794351528fe7be520769ebfe19d7275d2a0ecb197e1bbc23afa224134887ba26000546040518082815260200191505060405180910390a150565b600180600083815260200190815260200160002060050160146101000a81548160ff0219169083151502179055507f60bd4c6e468dd35d1c78b03ddc704f2f270ad2ed13b45bf571438f433db9b8f76000546040518082815260200191505060405180910390a150565b600180600083815260200190815260200160002060050160166101000a81548160ff0219169083151502179055507fe95591b999a8fa4c23f2d0b426271960c193b5eb71cef3bc673ac5be6cb60df46000546040518082815260200191505060405180910390a150565b61070160018060008481526020019081526020016000206007015461075790919063ffffffff16565b60016000838152602001908152602001600020600701819055507fd1ff0de57853f81f969355a26960199cd8211f9d274c6c552a148053125b46116000546040518082815260200191505060405180910390a150565b60008082840190508381101515156107d7576040517f08c379a000000000000000000000000000000000000000000000000000000000815260040180806020018281038252601b8152602001807f536166654d6174683a206164646974696f6e206f766572666c6f77000000000081525060200191505060405180910390fd5b8091505092915050565b828054600181600116156101000203166002900490600052602060002090601f016020900481019282601f1061082257805160ff1916838001178555610850565b82800160010185558215610850579182015b8281111561084f578251825591602001919060010190610834565b5b50905061085d9190610861565b5090565b61088391905b8082111561087f576000816000905550600101610867565b5090565b9056fea165627a7a72305820f331f829433f0cce3d13dd3717acb700341aa25b0d08c94ad5976be9cd57c1a10029",
  "source": "pragma solidity >=0.4.21 <0.6.0;\r\n\r\n// Import the library 'Roles' and SafeMath\r\n//import \"../node_modules/openzeppelin-solidity/contracts/access/Roles.sol\";\r\nimport \"../node_modules/openzeppelin-solidity/contracts/math/SafeMath.sol\";\r\n\r\n// Define a contract 'ContributorRole' to manage this role - add, remove, check\r\ncontract Article {\r\n  using SafeMath for uint;\r\n\r\n  // Define events\r\n  event ArticleAdded(uint aticleNum);\r\n  event ArticleRemoved(uint aticleNum);\r\n  event ArticleApproved(uint aticleNum);\r\n  event ArticleChallenged(uint aticleNum);\r\n  //Not sure if we need these below\r\n  event ArticleUpVoted(uint aticleNum);\r\n  event ArticleDownVoted(uint aticleNum);\r\n\r\n  //Define a struct to store contributor information\r\n  struct articleInfo {\r\n      address contributor;\r\n      bytes32 ipfsArticleHash;\r\n      bytes32 ipfsReferenceHash;\r\n      string title;\r\n      uint datePublished;\r\n      address validator;\r\n      bool approved;\r\n      bool challenged;\r\n      bool removed;\r\n      uint upVotes;\r\n      uint downVotes;\r\n      uint stake;\r\n    }\r\n\r\n  //Define a variable to count number of articles.\r\n    uint totalArticles;\r\n\r\n  //Define a mapping to map contributor address and contributor info\r\n  mapping(uint => articleInfo) allArticles;\r\n\r\n  // In the constructor make the address that deploys this contract the 1st Contributor\r\n  //   constructor() public {\r\n //   }\r\n\r\n  // Define a function 'addArticle' that adds the article\r\n  function add(address _contributor, bytes32 _ipfsArticleHash, bytes32 _ipfsReferenceHash,\r\n                        string memory _title, uint _datePublished, uint _stake) public returns(uint){\r\n    totalArticles = totalArticles.add(1);\r\n    allArticles[totalArticles] = articleInfo({contributor: _contributor, ipfsArticleHash: _ipfsArticleHash,\r\n                                             ipfsReferenceHash: _ipfsReferenceHash, title: _title, datePublished: _datePublished,\r\n                                            validator: address(0), approved: false, challenged:false, removed: false, upVotes: 0, downVotes: 0, stake: _stake});\r\n    emit ArticleAdded(totalArticles);\r\n    return totalArticles;\r\n  }\r\n\r\n  // Define a function 'approved' that updates the approved flag\r\n  function approved(uint articleNumber) public {\r\n    allArticles[articleNumber].approved = true;\r\n    emit ArticleApproved(totalArticles);\r\n  }\r\n\r\n  // Define a function 'challenged' that updates the challenged flag\r\n  function challenged(uint articleNumber) public {\r\n    allArticles[articleNumber].challenged = true;\r\n    emit ArticleChallenged(totalArticles);\r\n  }\r\n\r\n  // Define a function 'removed' that updates the removed flag\r\n  function removed(uint articleNumber) public {\r\n    allArticles[articleNumber].removed = true;\r\n    emit ArticleRemoved(totalArticles);\r\n  }\r\n\r\n  // Define a function 'upVoted' that updates the upVote count\r\n  function upVoted(uint articleNumber) public {\r\n    allArticles[articleNumber].upVotes = allArticles[articleNumber].upVotes.add(1);\r\n    emit ArticleUpVoted(totalArticles);\r\n  }\r\n\r\n  // Define a function 'downVoted' that updates the upVote count\r\n  function downVoted(uint articleNumber) public {\r\n    allArticles[articleNumber].downVotes = allArticles[articleNumber].downVotes.add(1);\r\n    emit ArticleDownVoted(totalArticles);\r\n  }\r\n}",
  "sourcePath": "C:\\Users\\avant\\Desktop\\honest_media\\contracts\\Article.sol",
  "compiler": {
    "name": "solc",
    "version": "0.5.0+commit.1d4f565a.Emscripten.clang"
  },
  "schemaVersion": "3.0.5",
  "updatedAt": "2019-07-02T15:39:32.042Z",
  "devdoc": {
    "methods": {}
  },
  "userdoc": {
    "methods": {}
  }
}