{
  "contractName": "ContributorRole",
  "abi": [
    {
      "inputs": [],
      "payable": false,
      "stateMutability": "nonpayable",
      "type": "constructor",
      "signature": "constructor"
    },
    {
      "anonymous": false,
      "inputs": [
        {
          "indexed": true,
          "name": "account",
          "type": "address"
        }
      ],
      "name": "ContributorAdded",
      "type": "event",
      "signature": "0x07681ffd9d424587412481b41d2ee582bb7bca757f626b0477051f3029470272"
    },
    {
      "anonymous": false,
      "inputs": [
        {
          "indexed": true,
          "name": "account",
          "type": "address"
        }
      ],
      "name": "ContributorRemoved",
      "type": "event",
      "signature": "0x665b9b7911d6a3e5a789e2be1ed4f9ffa84c1259e3b896752347195211122191"
    },
    {
      "constant": true,
      "inputs": [
        {
          "name": "account",
          "type": "address"
        }
      ],
      "name": "isContributor",
      "outputs": [
        {
          "name": "",
          "type": "bool"
        }
      ],
      "payable": false,
      "stateMutability": "view",
      "type": "function",
      "signature": "0x1d0d35f5"
    },
    {
      "constant": false,
      "inputs": [
        {
          "name": "account",
          "type": "address"
        },
        {
          "name": "fund",
          "type": "uint256"
        }
      ],
      "name": "addContributor",
      "outputs": [],
      "payable": false,
      "stateMutability": "nonpayable",
      "type": "function",
      "signature": "0xe0bd7d15"
    },
    {
      "constant": false,
      "inputs": [],
      "name": "renounceContributor",
      "outputs": [],
      "payable": false,
      "stateMutability": "nonpayable",
      "type": "function",
      "signature": "0xc462c423"
    },
    {
      "constant": false,
      "inputs": [],
      "name": "publish",
      "outputs": [],
      "payable": false,
      "stateMutability": "nonpayable",
      "type": "function",
      "signature": "0x075d4782"
    },
    {
      "constant": false,
      "inputs": [],
      "name": "updateChallenge",
      "outputs": [],
      "payable": false,
      "stateMutability": "nonpayable",
      "type": "function",
      "signature": "0xef361e50"
    },
    {
      "constant": false,
      "inputs": [
        {
          "name": "account",
          "type": "address"
        },
        {
          "name": "ranking",
          "type": "uint256"
        }
      ],
      "name": "setRating",
      "outputs": [],
      "payable": false,
      "stateMutability": "nonpayable",
      "type": "function",
      "signature": "0x80a24631"
    },
    {
      "constant": false,
      "inputs": [
        {
          "name": "articleId",
          "type": "uint256"
        }
      ],
      "name": "addArticle",
      "outputs": [],
      "payable": false,
      "stateMutability": "nonpayable",
      "type": "function",
      "signature": "0xd453609a"
    }
  ],
  "bytecode": "0x608060405234801561001057600080fd5b5061002b336000610030640100000000026401000000009004565b6102ee565b6100518260006100df64010000000002610912179091906401000000009004565b80600160008473ffffffffffffffffffffffffffffffffffffffff1673ffffffffffffffffffffffffffffffffffffffff168152602001908152602001600020600101819055508173ffffffffffffffffffffffffffffffffffffffff167f07681ffd9d424587412481b41d2ee582bb7bca757f626b0477051f302947027260405160405180910390a25050565b6100f882826101cb640100000000026401000000009004565b15151561016d576040517f08c379a000000000000000000000000000000000000000000000000000000000815260040180806020018281038252601f8152602001807f526f6c65733a206163636f756e7420616c72656164792068617320726f6c650081525060200191505060405180910390fd5b60018260000160008373ffffffffffffffffffffffffffffffffffffffff1673ffffffffffffffffffffffffffffffffffffffff16815260200190815260200160002060006101000a81548160ff0219169083151502179055505050565b60008073ffffffffffffffffffffffffffffffffffffffff168273ffffffffffffffffffffffffffffffffffffffff1614151515610297576040517f08c379a00000000000000000000000000000000000000000000000000000000081526004018080602001828103825260228152602001807f526f6c65733a206163636f756e7420697320746865207a65726f20616464726581526020017f737300000000000000000000000000000000000000000000000000000000000081525060400191505060405180910390fd5b8260000160008373ffffffffffffffffffffffffffffffffffffffff1673ffffffffffffffffffffffffffffffffffffffff16815260200190815260200160002060009054906101000a900460ff16905092915050565b610a4b806102fd6000396000f3fe608060405260043610610083576000357c0100000000000000000000000000000000000000000000000000000000900463ffffffff168063075d4782146100885780631d0d35f51461009f57806380a2463114610108578063c462c42314610163578063d453609a1461017a578063e0bd7d15146101b5578063ef361e5014610210575b600080fd5b34801561009457600080fd5b5061009d610227565b005b3480156100ab57600080fd5b506100ee600480360360208110156100c257600080fd5b81019080803573ffffffffffffffffffffffffffffffffffffffff1690602001909291905050506102c4565b604051808215151515815260200191505060405180910390f35b34801561011457600080fd5b506101616004803603604081101561012b57600080fd5b81019080803573ffffffffffffffffffffffffffffffffffffffff169060200190929190803590602001909291905050506102e1565b005b34801561016f57600080fd5b506101786103c5565b005b34801561018657600080fd5b506101b36004803603602081101561019d57600080fd5b81019080803590602001909291905050506103d0565b005b3480156101c157600080fd5b5061020e600480360360408110156101d857600080fd5b81019080803573ffffffffffffffffffffffffffffffffffffffff1690602001909291908035906020019092919050505061043f565b005b34801561021c57600080fd5b506102256104ca565b005b61027c60018060003373ffffffffffffffffffffffffffffffffffffffff1673ffffffffffffffffffffffffffffffffffffffff1681526020019081526020016000206002015461056790919063ffffffff16565b600160003373ffffffffffffffffffffffffffffffffffffffff1673ffffffffffffffffffffffffffffffffffffffff16815260200190815260200160002060020181905550565b60006102da8260006105f190919063ffffffff16565b9050919050565b6102e96109ef565b600160008473ffffffffffffffffffffffffffffffffffffffff1673ffffffffffffffffffffffffffffffffffffffff16815260200190815260200160002060a0604051908101604052908160008201548152602001600182015481526020016002820154815260200160038201548152602001600482018054806020026020016040519081016040528092919081815260200182805480156103ab57602002820191906000526020600020905b815481526020019060010190808311610397575b505050505081525050905081816000018181525050505050565b6103ce33610714565b565b600160003373ffffffffffffffffffffffffffffffffffffffff1673ffffffffffffffffffffffffffffffffffffffff16815260200190815260200160002060040181908060018154018082558091505090600182039060005260206000200160009091929091909150555050565b610448336102c4565b15156104bc576040517f08c379a000000000000000000000000000000000000000000000000000000000815260040180806020018281038252601b8152602001807f43616c6c6572206973206e6f74206120436f6e7472696275746f72000000000081525060200191505060405180910390fd5b6104c6828261076e565b5050565b61051f60018060003373ffffffffffffffffffffffffffffffffffffffff1673ffffffffffffffffffffffffffffffffffffffff1681526020019081526020016000206003015461056790919063ffffffff16565b600160003373ffffffffffffffffffffffffffffffffffffffff1673ffffffffffffffffffffffffffffffffffffffff16815260200190815260200160002060030181905550565b60008082840190508381101515156105e7576040517f08c379a000000000000000000000000000000000000000000000000000000000815260040180806020018281038252601b8152602001807f536166654d6174683a206164646974696f6e206f766572666c6f77000000000081525060200191505060405180910390fd5b8091505092915050565b60008073ffffffffffffffffffffffffffffffffffffffff168273ffffffffffffffffffffffffffffffffffffffff16141515156106bd576040517f08c379a00000000000000000000000000000000000000000000000000000000081526004018080602001828103825260228152602001807f526f6c65733a206163636f756e7420697320746865207a65726f20616464726581526020017f737300000000000000000000000000000000000000000000000000000000000081525060400191505060405180910390fd5b8260000160008373ffffffffffffffffffffffffffffffffffffffff1673ffffffffffffffffffffffffffffffffffffffff16815260200190815260200160002060009054906101000a900460ff16905092915050565b61072881600061081090919063ffffffff16565b8073ffffffffffffffffffffffffffffffffffffffff167f665b9b7911d6a3e5a789e2be1ed4f9ffa84c1259e3b89675234719521112219160405160405180910390a250565b61078282600061091290919063ffffffff16565b80600160008473ffffffffffffffffffffffffffffffffffffffff1673ffffffffffffffffffffffffffffffffffffffff168152602001908152602001600020600101819055508173ffffffffffffffffffffffffffffffffffffffff167f07681ffd9d424587412481b41d2ee582bb7bca757f626b0477051f302947027260405160405180910390a25050565b61081a82826105f1565b15156108b4576040517f08c379a00000000000000000000000000000000000000000000000000000000081526004018080602001828103825260218152602001807f526f6c65733a206163636f756e7420646f6573206e6f74206861766520726f6c81526020017f650000000000000000000000000000000000000000000000000000000000000081525060400191505060405180910390fd5b60008260000160008373ffffffffffffffffffffffffffffffffffffffff1673ffffffffffffffffffffffffffffffffffffffff16815260200190815260200160002060006101000a81548160ff0219169083151502179055505050565b61091c82826105f1565b151515610991576040517f08c379a000000000000000000000000000000000000000000000000000000000815260040180806020018281038252601f8152602001807f526f6c65733a206163636f756e7420616c72656164792068617320726f6c650081525060200191505060405180910390fd5b60018260000160008373ffffffffffffffffffffffffffffffffffffffff1673ffffffffffffffffffffffffffffffffffffffff16815260200190815260200160002060006101000a81548160ff0219169083151502179055505050565b60a0604051908101604052806000815260200160008152602001600081526020016000815260200160608152509056fea165627a7a72305820b4311d785177ef7bf481f84e56e7f7f508eb01445fad8d334e4acf08334564040029",
  "source": "pragma solidity >=0.4.21 <0.6.0;\n\n// Import the library 'Roles' and SafeMath\nimport \"../../node_modules/openzeppelin-solidity/contracts/access/Roles.sol\";\nimport \"../../node_modules/openzeppelin-solidity/contracts/math/SafeMath.sol\";\n\n// Define a contract 'ContributorRole' to manage this role - add, remove, check\ncontract ContributorRole {\n  using Roles for Roles.Role;\n  using SafeMath for uint;\n\n  // Define 2 events, one for Adding, and other for Removing\n  event ContributorAdded(address indexed account);\n  event ContributorRemoved(address indexed account);\n\n  // Define a struct 'Contributors' by inheriting from 'Roles' library, struct Role\n  Roles.Role private contributors;\n\n  //Define a struct to store contributor information\n  struct contributorInfo {\n      uint rating;\n      uint balance;\n      uint articlesPublished;\n      uint challengesLost;\n      uint[] articles; //to store Ids of articles published\n  }\n  //Define a mapping to map contributor address and contributor info\n  mapping(address => contributorInfo) allContributors;\n\n  // In the constructor make the address that deploys this contract the 1st Contributor\n  constructor() public {\n    _addContributor(msg.sender, 0);\n  }\n\n  // Define a modifier that checks to see if msg.sender has the appropriate role\n  modifier onlyContributor() {\n    require(isContributor(msg.sender), \"Caller is not a Contributor\");\n    _;\n  }\n\n  // Define a function 'isContributor' to check this role\n  function isContributor(address account) public view returns (bool) {\n    return contributors.has(account);\n  }\n\n  // Define a function 'addContributor' that adds this role\n  function addContributor(address account, uint fund) public onlyContributor {\n    _addContributor(account, fund);\n  }\n\n  // Define a function 'renounceContributor' to renounce this role\n  function renounceContributor() public {\n    _removeContributor(msg.sender);\n  }\n\n  //Define a function to increase number of articles published\n  function publish() external {\n    allContributors[msg.sender].articlesPublished = allContributors[msg.sender].articlesPublished.add(1);\n  }\n\n  //Define a function to increase number of challenges\n  function updateChallenge() external {\n    allContributors[msg.sender].challengesLost = allContributors[msg.sender].challengesLost.add(1);\n  }\n\n  //set ranking of contributor\n  function setRating(address account, uint ranking) public {\n    contributorInfo memory contributor = allContributors[account];\n    contributor.rating = ranking;\n  }\n\n  //Add articleId to articles array\n  function addArticle(uint articleId) public {\n    allContributors[msg.sender].articles.push(articleId);\n  }\n\n  // Define an internal function '_addContributor' to add this role, called by 'addContributor'\n  function _addContributor(address account, uint fund) internal {\n    contributors.add(account);\n    allContributors[account].balance = fund;\n    emit ContributorAdded(account);\n  }\n\n  // Define an internal function '_removeContributor' to remove this role, called by 'removeContributor'\n  function _removeContributor(address account) internal {\n    contributors.remove(account);\n    emit ContributorRemoved(account);\n  }\n}",
  "sourcePath": "/Users/ringaile/Documents/hackathon/contracts/accessControl/ContributorRole.sol",
  "compiler": {
    "name": "solc",
    "version": "0.5.0+commit.1d4f565a.Emscripten.clang"
  },
  "schemaVersion": "3.0.5",
  "updatedAt": "2019-07-07T09:15:40.460Z",
  "devdoc": {
    "methods": {}
  },
  "userdoc": {
    "methods": {}
  }
}