{
  "contractName": "ContributorRole",
  "abi": [
    {
      "inputs": [],
      "payable": false,
      "stateMutability": "nonpayable",
      "type": "constructor",
      "signature": "constructor"
    },
    {
      "anonymous": false,
      "inputs": [
        {
          "indexed": true,
          "name": "account",
          "type": "address"
        }
      ],
      "name": "ContributorAdded",
      "type": "event",
      "signature": "0x07681ffd9d424587412481b41d2ee582bb7bca757f626b0477051f3029470272"
    },
    {
      "anonymous": false,
      "inputs": [
        {
          "indexed": true,
          "name": "account",
          "type": "address"
        }
      ],
      "name": "ContributorRemoved",
      "type": "event",
      "signature": "0x665b9b7911d6a3e5a789e2be1ed4f9ffa84c1259e3b896752347195211122191"
    },
    {
      "constant": true,
      "inputs": [
        {
          "name": "account",
          "type": "address"
        }
      ],
      "name": "isContributor",
      "outputs": [
        {
          "name": "",
          "type": "bool"
        }
      ],
      "payable": false,
      "stateMutability": "view",
      "type": "function",
      "signature": "0x1d0d35f5"
    },
    {
      "constant": false,
      "inputs": [
        {
          "name": "account",
          "type": "address"
        },
        {
          "name": "fund",
          "type": "uint256"
        }
      ],
      "name": "addContributor",
      "outputs": [],
      "payable": false,
      "stateMutability": "nonpayable",
      "type": "function",
      "signature": "0xe0bd7d15"
    },
    {
      "constant": false,
      "inputs": [],
      "name": "renounceContributor",
      "outputs": [],
      "payable": false,
      "stateMutability": "nonpayable",
      "type": "function",
      "signature": "0xc462c423"
    },
    {
      "constant": false,
      "inputs": [],
      "name": "publish",
      "outputs": [],
      "payable": false,
      "stateMutability": "nonpayable",
      "type": "function",
      "signature": "0x075d4782"
    },
    {
      "constant": false,
      "inputs": [],
      "name": "updateChallenge",
      "outputs": [],
      "payable": false,
      "stateMutability": "nonpayable",
      "type": "function",
      "signature": "0xef361e50"
    },
    {
      "constant": false,
      "inputs": [
        {
          "name": "account",
          "type": "address"
        },
        {
          "name": "ranking",
          "type": "uint256"
        }
      ],
      "name": "setRating",
      "outputs": [],
      "payable": false,
      "stateMutability": "nonpayable",
      "type": "function",
      "signature": "0x80a24631"
    }
  ],
  "bytecode": "0x608060405234801561001057600080fd5b5061002b336000610030640100000000026401000000009004565b6102ee565b6100518260006100df64010000000002610805179091906401000000009004565b80600160008473ffffffffffffffffffffffffffffffffffffffff1673ffffffffffffffffffffffffffffffffffffffff168152602001908152602001600020600101819055508173ffffffffffffffffffffffffffffffffffffffff167f07681ffd9d424587412481b41d2ee582bb7bca757f626b0477051f302947027260405160405180910390a25050565b6100f882826101cb640100000000026401000000009004565b15151561016d576040517f08c379a000000000000000000000000000000000000000000000000000000000815260040180806020018281038252601f8152602001807f526f6c65733a206163636f756e7420616c72656164792068617320726f6c650081525060200191505060405180910390fd5b60018260000160008373ffffffffffffffffffffffffffffffffffffffff1673ffffffffffffffffffffffffffffffffffffffff16815260200190815260200160002060006101000a81548160ff0219169083151502179055505050565b60008073ffffffffffffffffffffffffffffffffffffffff168273ffffffffffffffffffffffffffffffffffffffff1614151515610297576040517f08c379a00000000000000000000000000000000000000000000000000000000081526004018080602001828103825260228152602001807f526f6c65733a206163636f756e7420697320746865207a65726f20616464726581526020017f737300000000000000000000000000000000000000000000000000000000000081525060400191505060405180910390fd5b8260000160008373ffffffffffffffffffffffffffffffffffffffff1673ffffffffffffffffffffffffffffffffffffffff16815260200190815260200160002060009054906101000a900460ff16905092915050565b610937806102fd6000396000f3fe608060405260043610610078576000357c0100000000000000000000000000000000000000000000000000000000900463ffffffff168063075d47821461007d5780631d0d35f51461009457806380a24631146100fd578063c462c42314610158578063e0bd7d151461016f578063ef361e50146101ca575b600080fd5b34801561008957600080fd5b506100926101e1565b005b3480156100a057600080fd5b506100e3600480360360208110156100b757600080fd5b81019080803573ffffffffffffffffffffffffffffffffffffffff16906020019092919050505061027e565b604051808215151515815260200191505060405180910390f35b34801561010957600080fd5b506101566004803603604081101561012057600080fd5b81019080803573ffffffffffffffffffffffffffffffffffffffff1690602001909291908035906020019092919050505061029b565b005b34801561016457600080fd5b5061016d610327565b005b34801561017b57600080fd5b506101c86004803603604081101561019257600080fd5b81019080803573ffffffffffffffffffffffffffffffffffffffff16906020019092919080359060200190929190505050610332565b005b3480156101d657600080fd5b506101df6103bd565b005b61023660018060003373ffffffffffffffffffffffffffffffffffffffff1673ffffffffffffffffffffffffffffffffffffffff1681526020019081526020016000206002015461045a90919063ffffffff16565b600160003373ffffffffffffffffffffffffffffffffffffffff1673ffffffffffffffffffffffffffffffffffffffff16815260200190815260200160002060020181905550565b60006102948260006104e490919063ffffffff16565b9050919050565b6102a36108e2565b600160008473ffffffffffffffffffffffffffffffffffffffff1673ffffffffffffffffffffffffffffffffffffffff16815260200190815260200160002060806040519081016040529081600082015481526020016001820154815260200160028201548152602001600382015481525050905081816000018181525050505050565b61033033610607565b565b61033b3361027e565b15156103af576040517f08c379a000000000000000000000000000000000000000000000000000000000815260040180806020018281038252601b8152602001807f43616c6c6572206973206e6f74206120436f6e7472696275746f72000000000081525060200191505060405180910390fd5b6103b98282610661565b5050565b61041260018060003373ffffffffffffffffffffffffffffffffffffffff1673ffffffffffffffffffffffffffffffffffffffff1681526020019081526020016000206003015461045a90919063ffffffff16565b600160003373ffffffffffffffffffffffffffffffffffffffff1673ffffffffffffffffffffffffffffffffffffffff16815260200190815260200160002060030181905550565b60008082840190508381101515156104da576040517f08c379a000000000000000000000000000000000000000000000000000000000815260040180806020018281038252601b8152602001807f536166654d6174683a206164646974696f6e206f766572666c6f77000000000081525060200191505060405180910390fd5b8091505092915050565b60008073ffffffffffffffffffffffffffffffffffffffff168273ffffffffffffffffffffffffffffffffffffffff16141515156105b0576040517f08c379a00000000000000000000000000000000000000000000000000000000081526004018080602001828103825260228152602001807f526f6c65733a206163636f756e7420697320746865207a65726f20616464726581526020017f737300000000000000000000000000000000000000000000000000000000000081525060400191505060405180910390fd5b8260000160008373ffffffffffffffffffffffffffffffffffffffff1673ffffffffffffffffffffffffffffffffffffffff16815260200190815260200160002060009054906101000a900460ff16905092915050565b61061b81600061070390919063ffffffff16565b8073ffffffffffffffffffffffffffffffffffffffff167f665b9b7911d6a3e5a789e2be1ed4f9ffa84c1259e3b89675234719521112219160405160405180910390a250565b61067582600061080590919063ffffffff16565b80600160008473ffffffffffffffffffffffffffffffffffffffff1673ffffffffffffffffffffffffffffffffffffffff168152602001908152602001600020600101819055508173ffffffffffffffffffffffffffffffffffffffff167f07681ffd9d424587412481b41d2ee582bb7bca757f626b0477051f302947027260405160405180910390a25050565b61070d82826104e4565b15156107a7576040517f08c379a00000000000000000000000000000000000000000000000000000000081526004018080602001828103825260218152602001807f526f6c65733a206163636f756e7420646f6573206e6f74206861766520726f6c81526020017f650000000000000000000000000000000000000000000000000000000000000081525060400191505060405180910390fd5b60008260000160008373ffffffffffffffffffffffffffffffffffffffff1673ffffffffffffffffffffffffffffffffffffffff16815260200190815260200160002060006101000a81548160ff0219169083151502179055505050565b61080f82826104e4565b151515610884576040517f08c379a000000000000000000000000000000000000000000000000000000000815260040180806020018281038252601f8152602001807f526f6c65733a206163636f756e7420616c72656164792068617320726f6c650081525060200191505060405180910390fd5b60018260000160008373ffffffffffffffffffffffffffffffffffffffff1673ffffffffffffffffffffffffffffffffffffffff16815260200190815260200160002060006101000a81548160ff0219169083151502179055505050565b60806040519081016040528060008152602001600081526020016000815260200160008152509056fea165627a7a723058209443fc9d5ce0259c7c0ea323b8c2484ed6a74efb23382fc6bd9d13ce118f82b90029",
  "source": "pragma solidity >=0.4.21 <0.6.0;\n\n// Import the library 'Roles' and SafeMath\nimport \"../../node_modules/openzeppelin-solidity/contracts/access/Roles.sol\";\nimport \"../../node_modules/openzeppelin-solidity/contracts/math/SafeMath.sol\";\n\n// Define a contract 'ContributorRole' to manage this role - add, remove, check\ncontract ContributorRole {\n  using Roles for Roles.Role;\n  using SafeMath for uint;\n\n  // Define 2 events, one for Adding, and other for Removing\n  event ContributorAdded(address indexed account);\n  event ContributorRemoved(address indexed account);\n\n  // Define a struct 'Contributors' by inheriting from 'Roles' library, struct Role\n  Roles.Role private contributors;\n\n  //Define a struct to store contributor information\n  struct contributorInfo {\n      uint rating;\n      uint balance;\n      uint articlesPublished;\n      uint challengesLost;\n  }\n  //Define a mapping to map contributor address and contributor info\n  mapping(address => contributorInfo) allContributors;\n\n  // In the constructor make the address that deploys this contract the 1st Contributor\n  constructor() public {\n    _addContributor(msg.sender, 0);\n  }\n\n  // Define a modifier that checks to see if msg.sender has the appropriate role\n  modifier onlyContributor() {\n    require(isContributor(msg.sender), \"Caller is not a Contributor\");\n    _;\n  }\n\n  // Define a function 'isContributor' to check this role\n  function isContributor(address account) public view returns (bool) {\n    return contributors.has(account);\n  }\n\n  // Define a function 'addContributor' that adds this role\n  function addContributor(address account, uint fund) public onlyContributor {\n    _addContributor(account, fund);\n  }\n\n  // Define a function 'renounceContributor' to renounce this role\n  function renounceContributor() public {\n    _removeContributor(msg.sender);\n  }\n\n  //Define a function to increase number of articles published\n  function publish() external {\n    allContributors[msg.sender].articlesPublished = allContributors[msg.sender].articlesPublished.add(1);\n  }\n\n  //Define a function to increase number of challenges\n  function updateChallenge() external {\n    allContributors[msg.sender].challengesLost = allContributors[msg.sender].challengesLost.add(1);\n  }\n\n  //set ranking of contributor\n  function setRating(address account, uint ranking) public {\n    contributorInfo memory contributor = allContributors[account];\n    contributor.rating = ranking;\n  }\n\n  // Define an internal function '_addContributor' to add this role, called by 'addContributor'\n  function _addContributor(address account, uint fund) internal {\n    contributors.add(account);\n    allContributors[account].balance = fund;\n    emit ContributorAdded(account);\n  }\n\n  // Define an internal function '_removeContributor' to remove this role, called by 'removeContributor'\n  function _removeContributor(address account) internal {\n    contributors.remove(account);\n    emit ContributorRemoved(account);\n  }\n}",
  "sourcePath": "/Users/ringaile/Documents/hackathon/contracts/accessControl/ContributorRole.sol",
  "compiler": {
    "name": "solc",
    "version": "0.5.0+commit.1d4f565a.Emscripten.clang"
  },
  "schemaVersion": "3.0.5",
  "updatedAt": "2019-06-30T16:54:34.266Z",
  "devdoc": {
    "methods": {}
  },
  "userdoc": {
    "methods": {}
  }
}