{
  "contractName": "Honestmedia",
  "abi": [
    {
      "constant": false,
      "inputs": [
        {
          "name": "articleNumber",
          "type": "uint256"
        }
      ],
      "name": "upVoted",
      "outputs": [],
      "payable": false,
      "stateMutability": "nonpayable",
      "type": "function",
      "signature": "0x01c97c57"
    },
    {
      "constant": false,
      "inputs": [],
      "name": "publish",
      "outputs": [],
      "payable": false,
      "stateMutability": "nonpayable",
      "type": "function",
      "signature": "0x075d4782"
    },
    {
      "constant": false,
      "inputs": [],
      "name": "ruleOnChallenge",
      "outputs": [],
      "payable": false,
      "stateMutability": "nonpayable",
      "type": "function",
      "signature": "0x0a75d745"
    },
    {
      "constant": true,
      "inputs": [
        {
          "name": "account",
          "type": "address"
        }
      ],
      "name": "isContributor",
      "outputs": [
        {
          "name": "",
          "type": "bool"
        }
      ],
      "payable": false,
      "stateMutability": "view",
      "type": "function",
      "signature": "0x1d0d35f5"
    },
    {
      "constant": false,
      "inputs": [
        {
          "name": "_contributor",
          "type": "address"
        },
        {
          "name": "_ipfsArticleHash",
          "type": "bytes32"
        },
        {
          "name": "_ipfsReferenceHash",
          "type": "bytes32"
        },
        {
          "name": "_title",
          "type": "string"
        },
        {
          "name": "_datePublished",
          "type": "uint256"
        },
        {
          "name": "_stake",
          "type": "uint256"
        }
      ],
      "name": "add",
      "outputs": [
        {
          "name": "",
          "type": "uint256"
        }
      ],
      "payable": false,
      "stateMutability": "nonpayable",
      "type": "function",
      "signature": "0x2d85b283"
    },
    {
      "constant": false,
      "inputs": [
        {
          "name": "articleNumber",
          "type": "uint256"
        }
      ],
      "name": "challenged",
      "outputs": [],
      "payable": false,
      "stateMutability": "nonpayable",
      "type": "function",
      "signature": "0x45e73685"
    },
    {
      "constant": true,
      "inputs": [
        {
          "name": "account",
          "type": "address"
        }
      ],
      "name": "isReader",
      "outputs": [
        {
          "name": "",
          "type": "bool"
        }
      ],
      "payable": false,
      "stateMutability": "view",
      "type": "function",
      "signature": "0x69a7ddf7"
    },
    {
      "constant": false,
      "inputs": [
        {
          "name": "articleNumber",
          "type": "uint256"
        }
      ],
      "name": "approved",
      "outputs": [],
      "payable": false,
      "stateMutability": "nonpayable",
      "type": "function",
      "signature": "0x7d4061e6"
    },
    {
      "constant": false,
      "inputs": [
        {
          "name": "account",
          "type": "address"
        },
        {
          "name": "ranking",
          "type": "uint256"
        }
      ],
      "name": "setRating",
      "outputs": [],
      "payable": false,
      "stateMutability": "nonpayable",
      "type": "function",
      "signature": "0x80a24631"
    },
    {
      "constant": false,
      "inputs": [
        {
          "name": "articleNumber",
          "type": "uint256"
        }
      ],
      "name": "removed",
      "outputs": [],
      "payable": false,
      "stateMutability": "nonpayable",
      "type": "function",
      "signature": "0x8255899d"
    },
    {
      "constant": true,
      "inputs": [
        {
          "name": "",
          "type": "uint256"
        }
      ],
      "name": "validatorIds",
      "outputs": [
        {
          "name": "",
          "type": "address"
        }
      ],
      "payable": false,
      "stateMutability": "view",
      "type": "function",
      "signature": "0x919165aa"
    },
    {
      "constant": false,
      "inputs": [
        {
          "name": "articleNumber",
          "type": "uint256"
        }
      ],
      "name": "downVoted",
      "outputs": [],
      "payable": false,
      "stateMutability": "nonpayable",
      "type": "function",
      "signature": "0x9d0c8a9f"
    },
    {
      "constant": false,
      "inputs": [],
      "name": "renounceReader",
      "outputs": [],
      "payable": false,
      "stateMutability": "nonpayable",
      "type": "function",
      "signature": "0xaf938fc2"
    },
    {
      "constant": false,
      "inputs": [],
      "name": "renounceContributor",
      "outputs": [],
      "payable": false,
      "stateMutability": "nonpayable",
      "type": "function",
      "signature": "0xc462c423"
    },
    {
      "constant": true,
      "inputs": [],
      "name": "totalValidators",
      "outputs": [
        {
          "name": "",
          "type": "uint256"
        }
      ],
      "payable": false,
      "stateMutability": "view",
      "type": "function",
      "signature": "0xc81b356b"
    },
    {
      "constant": false,
      "inputs": [
        {
          "name": "articleId",
          "type": "uint256"
        },
        {
          "name": "contributor",
          "type": "address"
        },
        {
          "name": "proofHash",
          "type": "bytes32"
        },
        {
          "name": "stake",
          "type": "uint256"
        },
        {
          "name": "account",
          "type": "address"
        }
      ],
      "name": "challenge",
      "outputs": [],
      "payable": false,
      "stateMutability": "nonpayable",
      "type": "function",
      "signature": "0xcee7d9d7"
    },
    {
      "constant": true,
      "inputs": [],
      "name": "totalChallenges",
      "outputs": [
        {
          "name": "",
          "type": "uint256"
        }
      ],
      "payable": false,
      "stateMutability": "view",
      "type": "function",
      "signature": "0xd17defcb"
    },
    {
      "constant": false,
      "inputs": [
        {
          "name": "account",
          "type": "address"
        },
        {
          "name": "fund",
          "type": "uint256"
        }
      ],
      "name": "addContributor",
      "outputs": [],
      "payable": false,
      "stateMutability": "nonpayable",
      "type": "function",
      "signature": "0xe0bd7d15"
    },
    {
      "constant": false,
      "inputs": [
        {
          "name": "account",
          "type": "address"
        },
        {
          "name": "funds",
          "type": "uint256"
        }
      ],
      "name": "addReader",
      "outputs": [],
      "payable": false,
      "stateMutability": "nonpayable",
      "type": "function",
      "signature": "0xe5fef7cd"
    },
    {
      "constant": false,
      "inputs": [],
      "name": "updateChallenge",
      "outputs": [],
      "payable": false,
      "stateMutability": "nonpayable",
      "type": "function",
      "signature": "0xef361e50"
    },
    {
      "constant": false,
      "inputs": [],
      "name": "renounceValidator",
      "outputs": [],
      "payable": false,
      "stateMutability": "nonpayable",
      "type": "function",
      "signature": "0xf0c043ee"
    },
    {
      "constant": true,
      "inputs": [],
      "name": "totalRulings",
      "outputs": [
        {
          "name": "",
          "type": "uint256"
        }
      ],
      "payable": false,
      "stateMutability": "view",
      "type": "function",
      "signature": "0xf8f2ba84"
    },
    {
      "constant": true,
      "inputs": [
        {
          "name": "account",
          "type": "address"
        }
      ],
      "name": "isValidator",
      "outputs": [
        {
          "name": "",
          "type": "bool"
        }
      ],
      "payable": false,
      "stateMutability": "view",
      "type": "function",
      "signature": "0xfacd743b"
    },
    {
      "constant": false,
      "inputs": [
        {
          "name": "account",
          "type": "address"
        },
        {
          "name": "funds",
          "type": "uint256"
        }
      ],
      "name": "addValidator",
      "outputs": [],
      "payable": false,
      "stateMutability": "nonpayable",
      "type": "function",
      "signature": "0xfc6c1f02"
    },
    {
      "inputs": [],
      "payable": false,
      "stateMutability": "nonpayable",
      "type": "constructor",
      "signature": "constructor"
    },
    {
      "payable": true,
      "stateMutability": "payable",
      "type": "fallback"
    },
    {
      "anonymous": false,
      "inputs": [
        {
          "indexed": false,
          "name": "aticleNum",
          "type": "uint256"
        }
      ],
      "name": "ArticleAdded",
      "type": "event",
      "signature": "0x9ed508f9dd7c730fd307b1ca38355cf4d9c00f58a2acfa5167b497c51a859e4c"
    },
    {
      "anonymous": false,
      "inputs": [
        {
          "indexed": false,
          "name": "aticleNum",
          "type": "uint256"
        }
      ],
      "name": "ArticleRemoved",
      "type": "event",
      "signature": "0xe95591b999a8fa4c23f2d0b426271960c193b5eb71cef3bc673ac5be6cb60df4"
    },
    {
      "anonymous": false,
      "inputs": [
        {
          "indexed": false,
          "name": "aticleNum",
          "type": "uint256"
        }
      ],
      "name": "ArticleApproved",
      "type": "event",
      "signature": "0x60bd4c6e468dd35d1c78b03ddc704f2f270ad2ed13b45bf571438f433db9b8f7"
    },
    {
      "anonymous": false,
      "inputs": [
        {
          "indexed": false,
          "name": "aticleNum",
          "type": "uint256"
        }
      ],
      "name": "ArticleChallenged",
      "type": "event",
      "signature": "0x7794351528fe7be520769ebfe19d7275d2a0ecb197e1bbc23afa224134887ba2"
    },
    {
      "anonymous": false,
      "inputs": [
        {
          "indexed": false,
          "name": "aticleNum",
          "type": "uint256"
        }
      ],
      "name": "ArticleUpVoted",
      "type": "event",
      "signature": "0xeb5a35545b0a45240a67898d2f6187c764da2eaca5c11a0e75e615dd80d9458d"
    },
    {
      "anonymous": false,
      "inputs": [
        {
          "indexed": false,
          "name": "aticleNum",
          "type": "uint256"
        }
      ],
      "name": "ArticleDownVoted",
      "type": "event",
      "signature": "0xd1ff0de57853f81f969355a26960199cd8211f9d274c6c552a148053125b4611"
    },
    {
      "anonymous": false,
      "inputs": [
        {
          "indexed": true,
          "name": "account",
          "type": "address"
        }
      ],
      "name": "ValidatorAdded",
      "type": "event",
      "signature": "0xe366c1c0452ed8eec96861e9e54141ebff23c9ec89fe27b996b45f5ec3884987"
    },
    {
      "anonymous": false,
      "inputs": [
        {
          "indexed": true,
          "name": "account",
          "type": "address"
        }
      ],
      "name": "ValidatorRemoved",
      "type": "event",
      "signature": "0xe1434e25d6611e0db941968fdc97811c982ac1602e951637d206f5fdda9dd8f1"
    },
    {
      "anonymous": false,
      "inputs": [
        {
          "indexed": true,
          "name": "account",
          "type": "address"
        }
      ],
      "name": "ReaderAdded",
      "type": "event",
      "signature": "0xb7724d890d2888af5a3fc456edb667e2c82c4441449ebcac301c618759e4f86d"
    },
    {
      "anonymous": false,
      "inputs": [
        {
          "indexed": true,
          "name": "account",
          "type": "address"
        }
      ],
      "name": "ReaderRemoved",
      "type": "event",
      "signature": "0xe933431644458f1217f9e93d3e000e03c9bbbe55761046d0985c2e4d157bcbaa"
    },
    {
      "anonymous": false,
      "inputs": [
        {
          "indexed": false,
          "name": "account",
          "type": "address"
        },
        {
          "indexed": false,
          "name": "challengeId",
          "type": "uint256"
        }
      ],
      "name": "ChallengeAdded",
      "type": "event",
      "signature": "0x71658dcd30af2516252b609c834023d8729aab62422a55f9559c3c854f3a8803"
    },
    {
      "anonymous": false,
      "inputs": [
        {
          "indexed": true,
          "name": "account",
          "type": "address"
        }
      ],
      "name": "ContributorAdded",
      "type": "event",
      "signature": "0x07681ffd9d424587412481b41d2ee582bb7bca757f626b0477051f3029470272"
    },
    {
      "anonymous": false,
      "inputs": [
        {
          "indexed": true,
          "name": "account",
          "type": "address"
        }
      ],
      "name": "ContributorRemoved",
      "type": "event",
      "signature": "0x665b9b7911d6a3e5a789e2be1ed4f9ffa84c1259e3b896752347195211122191"
    },
    {
      "constant": true,
      "inputs": [],
      "name": "isOperational",
      "outputs": [
        {
          "name": "",
          "type": "bool"
        }
      ],
      "payable": false,
      "stateMutability": "view",
      "type": "function",
      "signature": "0xcd905dff"
    },
    {
      "constant": false,
      "inputs": [
        {
          "name": "mode",
          "type": "bool"
        }
      ],
      "name": "setOperatingStatus",
      "outputs": [],
      "payable": false,
      "stateMutability": "nonpayable",
      "type": "function",
      "signature": "0x110466ed"
    },
    {
      "constant": false,
      "inputs": [
        {
          "name": "_address",
          "type": "address"
        },
        {
          "name": "rank",
          "type": "uint256"
        }
      ],
      "name": "setContributorRating",
      "outputs": [],
      "payable": false,
      "stateMutability": "nonpayable",
      "type": "function",
      "signature": "0x57773bfc"
    },
    {
      "constant": false,
      "inputs": [
        {
          "name": "_address",
          "type": "address"
        },
        {
          "name": "rank",
          "type": "uint256"
        }
      ],
      "name": "setReaderRating",
      "outputs": [],
      "payable": false,
      "stateMutability": "nonpayable",
      "type": "function",
      "signature": "0x24567a7e"
    },
    {
      "constant": false,
      "inputs": [
        {
          "name": "_address",
          "type": "address"
        },
        {
          "name": "rank",
          "type": "uint256"
        }
      ],
      "name": "setValidatorRating",
      "outputs": [],
      "payable": false,
      "stateMutability": "nonpayable",
      "type": "function",
      "signature": "0xd6f57009"
    },
    {
      "constant": false,
      "inputs": [
        {
          "name": "articleId",
          "type": "uint256"
        }
      ],
      "name": "addArticle",
      "outputs": [],
      "payable": false,
      "stateMutability": "nonpayable",
      "type": "function",
      "signature": "0xd453609a"
    },
    {
      "constant": false,
      "inputs": [
        {
          "name": "_ipfsArticleHash",
          "type": "bytes32"
        },
        {
          "name": "_ipfsReferenceHash",
          "type": "bytes32"
        },
        {
          "name": "_title",
          "type": "string"
        },
        {
          "name": "_datePublished",
          "type": "uint256"
        },
        {
          "name": "_stake",
          "type": "uint256"
        }
      ],
      "name": "addArticle",
      "outputs": [],
      "payable": false,
      "stateMutability": "nonpayable",
      "type": "function",
      "signature": "0xd94cd260"
    },
    {
      "constant": false,
      "inputs": [],
      "name": "approve",
      "outputs": [],
      "payable": false,
      "stateMutability": "nonpayable",
      "type": "function",
      "signature": "0x12424e3f"
    },
    {
      "constant": false,
      "inputs": [
        {
          "name": "vote",
          "type": "bool"
        },
        {
          "name": "challengeLost",
          "type": "bool"
        },
        {
          "name": "_contributor",
          "type": "address"
        },
        {
          "name": "articleId",
          "type": "uint256"
        }
      ],
      "name": "updateContributorRating",
      "outputs": [],
      "payable": false,
      "stateMutability": "nonpayable",
      "type": "function",
      "signature": "0x841afbc3"
    },
    {
      "constant": false,
      "inputs": [
        {
          "name": "proofHash",
          "type": "bytes32"
        },
        {
          "name": "stake",
          "type": "uint256"
        },
        {
          "name": "articleId",
          "type": "uint256"
        }
      ],
      "name": "challengeArticle",
      "outputs": [],
      "payable": false,
      "stateMutability": "nonpayable",
      "type": "function",
      "signature": "0x95f4f4ce"
    },
    {
      "constant": false,
      "inputs": [
        {
          "name": "rulingId",
          "type": "uint256"
        },
        {
          "name": "vote",
          "type": "bool"
        },
        {
          "name": "challengeId",
          "type": "uint256"
        }
      ],
      "name": "voteOnChallenge",
      "outputs": [],
      "payable": false,
      "stateMutability": "nonpayable",
      "type": "function",
      "signature": "0x1d8de4f7"
    }
  ],
  "bytecode": "0x60806040526001600c60146101000a81548160ff0219169083151502179055503480156200002c57600080fd5b5062000049336000620000c8640100000000026401000000009004565b620000653360006200017a640100000000026401000000009004565b620000813360006200022c640100000000026401000000009004565b33600c60006101000a81548173ffffffffffffffffffffffffffffffffffffffff021916908373ffffffffffffffffffffffffffffffffffffffff160217905550620005fc565b620000ec8260006200035e640100000000026200325e179091906401000000009004565b80600160008473ffffffffffffffffffffffffffffffffffffffff1673ffffffffffffffffffffffffffffffffffffffff168152602001908152602001600020600101819055508173ffffffffffffffffffffffffffffffffffffffff167f07681ffd9d424587412481b41d2ee582bb7bca757f626b0477051f302947027260405160405180910390a25050565b6200019e8260026200035e640100000000026200325e179091906401000000009004565b80600360008473ffffffffffffffffffffffffffffffffffffffff1673ffffffffffffffffffffffffffffffffffffffff168152602001908152602001600020600101819055508173ffffffffffffffffffffffffffffffffffffffff167fb7724d890d2888af5a3fc456edb667e2c82c4441449ebcac301c618759e4f86d60405160405180910390a25050565b620002508260066200035e640100000000026200325e179091906401000000009004565b80600760008473ffffffffffffffffffffffffffffffffffffffff1673ffffffffffffffffffffffffffffffffffffffff16815260200190815260200160002060010181905550620002bd60016008546200044d6401000000000262002510179091906401000000009004565b6008819055508160096000600854815260200190815260200160002060006101000a81548173ffffffffffffffffffffffffffffffffffffffff021916908373ffffffffffffffffffffffffffffffffffffffff1602179055508173ffffffffffffffffffffffffffffffffffffffff167fe366c1c0452ed8eec96861e9e54141ebff23c9ec89fe27b996b45f5ec388498760405160405180910390a25050565b620003798282620004d8640100000000026401000000009004565b151515620003ef576040517f08c379a000000000000000000000000000000000000000000000000000000000815260040180806020018281038252601f8152602001807f526f6c65733a206163636f756e7420616c72656164792068617320726f6c650081525060200191505060405180910390fd5b60018260000160008373ffffffffffffffffffffffffffffffffffffffff1673ffffffffffffffffffffffffffffffffffffffff16815260200190815260200160002060006101000a81548160ff0219169083151502179055505050565b6000808284019050838110151515620004ce576040517f08c379a000000000000000000000000000000000000000000000000000000000815260040180806020018281038252601b8152602001807f536166654d6174683a206164646974696f6e206f766572666c6f77000000000081525060200191505060405180910390fd5b8091505092915050565b60008073ffffffffffffffffffffffffffffffffffffffff168273ffffffffffffffffffffffffffffffffffffffff1614151515620005a5576040517f08c379a00000000000000000000000000000000000000000000000000000000081526004018080602001828103825260228152602001807f526f6c65733a206163636f756e7420697320746865207a65726f20616464726581526020017f737300000000000000000000000000000000000000000000000000000000000081525060400191505060405180910390fd5b8260000160008373ffffffffffffffffffffffffffffffffffffffff1673ffffffffffffffffffffffffffffffffffffffff16815260200190815260200160002060009054906101000a900460ff16905092915050565b613571806200060c6000396000f3fe6080604052600436106101b7576000357c0100000000000000000000000000000000000000000000000000000000900463ffffffff16806301c97c57146101b9578063075d4782146101f45780630a75d7451461020b578063110466ed1461022257806312424e3f1461025f5780631d0d35f5146102765780631d8de4f7146102df57806324567a7e146103305780632d85b2831461038b57806345e73685146104af57806357773bfc146104ea57806369a7ddf7146105455780637d4061e6146105ae57806380a24631146105e95780638255899d14610644578063841afbc31461067f578063919165aa146106f257806395f4f4ce1461076d5780639d0c8a9f146107bc578063af938fc2146107f7578063c462c4231461080e578063c81b356b14610825578063cd905dff14610850578063cee7d9d71461087f578063d17defcb1461090e578063d453609a14610939578063d6f5700914610974578063d94cd260146109cf578063e0bd7d1514610abf578063e5fef7cd14610b1a578063ef361e5014610b75578063f0c043ee14610b8c578063f8f2ba8414610ba3578063facd743b14610bce578063fc6c1f0214610c37575b005b3480156101c557600080fd5b506101f2600480360360208110156101dc57600080fd5b8101908080359060200190929190505050610c92565b005b34801561020057600080fd5b50610209610d12565b005b34801561021757600080fd5b50610220610daf565b005b34801561022e57600080fd5b5061025d6004803603602081101561024557600080fd5b81019080803515159060200190929190505050610eca565b005b34801561026b57600080fd5b50610274610fac565b005b34801561028257600080fd5b506102c56004803603602081101561029957600080fd5b81019080803573ffffffffffffffffffffffffffffffffffffffff1690602001909291905050506110c7565b604051808215151515815260200191505060405180910390f35b3480156102eb57600080fd5b5061032e6004803603606081101561030257600080fd5b8101908080359060200190929190803515159060200190929190803590602001909291905050506110e4565b005b34801561033c57600080fd5b506103896004803603604081101561035357600080fd5b81019080803573ffffffffffffffffffffffffffffffffffffffff1690602001909291908035906020019092919050505061141b565b005b34801561039757600080fd5b50610499600480360360c08110156103ae57600080fd5b81019080803573ffffffffffffffffffffffffffffffffffffffff1690602001909291908035906020019092919080359060200190929190803590602001906401000000008111156103ff57600080fd5b82018360208201111561041157600080fd5b8035906020019184600183028401116401000000008311171561043357600080fd5b91908080601f016020809104026020016040519081016040528093929190818152602001838380828437600081840152601f19601f8201169050808301925050505050505091929192908035906020019092919080359060200190929190505050611429565b6040518082815260200191505060405180910390f35b3480156104bb57600080fd5b506104e8600480360360208110156104d257600080fd5b810190808035906020019092919050505061167d565b005b3480156104f657600080fd5b506105436004803603604081101561050d57600080fd5b81019080803573ffffffffffffffffffffffffffffffffffffffff169060200190929190803590602001909291905050506116e8565b005b34801561055157600080fd5b506105946004803603602081101561056857600080fd5b81019080803573ffffffffffffffffffffffffffffffffffffffff1690602001909291905050506116f6565b604051808215151515815260200191505060405180910390f35b3480156105ba57600080fd5b506105e7600480360360208110156105d157600080fd5b8101908080359060200190929190505050611713565b005b3480156105f557600080fd5b506106426004803603604081101561060c57600080fd5b81019080803573ffffffffffffffffffffffffffffffffffffffff1690602001909291908035906020019092919050505061177e565b005b34801561065057600080fd5b5061067d6004803603602081101561066757600080fd5b810190808035906020019092919050505061180a565b005b34801561068b57600080fd5b506106f0600480360360808110156106a257600080fd5b81019080803515159060200190929190803515159060200190929190803573ffffffffffffffffffffffffffffffffffffffff16906020019092919080359060200190929190505050611875565b005b3480156106fe57600080fd5b5061072b6004803603602081101561071557600080fd5b8101908080359060200190929190505050611b76565b604051808273ffffffffffffffffffffffffffffffffffffffff1673ffffffffffffffffffffffffffffffffffffffff16815260200191505060405180910390f35b34801561077957600080fd5b506107ba6004803603606081101561079057600080fd5b81019080803590602001909291908035906020019092919080359060200190929190505050611ba9565b005b3480156107c857600080fd5b506107f5600480360360208110156107df57600080fd5b8101908080359060200190929190505050611c80565b005b34801561080357600080fd5b5061080c611d00565b005b34801561081a57600080fd5b50610823611d0b565b005b34801561083157600080fd5b5061083a611d16565b6040518082815260200191505060405180910390f35b34801561085c57600080fd5b50610865611d1c565b604051808215151515815260200191505060405180910390f35b34801561088b57600080fd5b5061090c600480360360a08110156108a257600080fd5b8101908080359060200190929190803573ffffffffffffffffffffffffffffffffffffffff1690602001909291908035906020019092919080359060200190929190803573ffffffffffffffffffffffffffffffffffffffff169060200190929190505050611d33565b005b34801561091a57600080fd5b5061092361200e565b6040518082815260200191505060405180910390f35b34801561094557600080fd5b506109726004803603602081101561095c57600080fd5b8101908080359060200190929190505050612014565b005b34801561098057600080fd5b506109cd6004803603604081101561099757600080fd5b81019080803573ffffffffffffffffffffffffffffffffffffffff16906020019092919080359060200190929190505050612083565b005b3480156109db57600080fd5b50610abd600480360360a08110156109f257600080fd5b81019080803590602001909291908035906020019092919080359060200190640100000000811115610a2357600080fd5b820183602082011115610a3557600080fd5b80359060200191846001830284011164010000000083111715610a5757600080fd5b91908080601f016020809104026020016040519081016040528093929190818152602001838380828437600081840152601f19601f8201169050808301925050505050505091929192908035906020019092919080359060200190929190505050612091565b005b348015610acb57600080fd5b50610b1860048036036040811015610ae257600080fd5b81019080803573ffffffffffffffffffffffffffffffffffffffff169060200190929190803590602001909291905050506122a4565b005b348015610b2657600080fd5b50610b7360048036036040811015610b3d57600080fd5b81019080803573ffffffffffffffffffffffffffffffffffffffff1690602001909291908035906020019092919050505061232f565b005b348015610b8157600080fd5b50610b8a6123ba565b005b348015610b9857600080fd5b50610ba1612457565b005b348015610baf57600080fd5b50610bb8612462565b6040518082815260200191505060405180910390f35b348015610bda57600080fd5b50610c1d60048036036020811015610bf157600080fd5b81019080803573ffffffffffffffffffffffffffffffffffffffff169060200190929190505050612468565b604051808215151515815260200191505060405180910390f35b348015610c4357600080fd5b50610c9060048036036040811015610c5a57600080fd5b81019080803573ffffffffffffffffffffffffffffffffffffffff16906020019092919080359060200190929190505050612485565b005b610cbc6001600b60008481526020019081526020016000206006015461251090919063ffffffff16565b600b6000838152602001908152602001600020600601819055507feb5a35545b0a45240a67898d2f6187c764da2eaca5c11a0e75e615dd80d9458d600a546040518082815260200191505060405180910390a150565b610d6760018060003373ffffffffffffffffffffffffffffffffffffffff1673ffffffffffffffffffffffffffffffffffffffff1681526020019081526020016000206002015461251090919063ffffffff16565b600160003373ffffffffffffffffffffffffffffffffffffffff1673ffffffffffffffffffffffffffffffffffffffff16815260200190815260200160002060020181905550565b610db833612468565b1515610e2c576040517f08c379a00000000000000000000000000000000000000000000000000000000081526004018080602001828103825260198152602001807f43616c6c6572206973206e6f7420612056616c696461746f720000000000000081525060200191505060405180910390fd5b610e826001600760003373ffffffffffffffffffffffffffffffffffffffff1673ffffffffffffffffffffffffffffffffffffffff1681526020019081526020016000206003015461251090919063ffffffff16565b600760003373ffffffffffffffffffffffffffffffffffffffff1673ffffffffffffffffffffffffffffffffffffffff16815260200190815260200160002060030181905550565b600c60009054906101000a900473ffffffffffffffffffffffffffffffffffffffff1673ffffffffffffffffffffffffffffffffffffffff163373ffffffffffffffffffffffffffffffffffffffff16141515610f8f576040517f08c379a00000000000000000000000000000000000000000000000000000000081526004018080602001828103825260138152602001807f43616c6c6572206973206e6f742061646d696e0000000000000000000000000081525060200191505060405180910390fd5b80600c60146101000a81548160ff02191690831515021790555050565b610fb533612468565b1515611029576040517f08c379a00000000000000000000000000000000000000000000000000000000081526004018080602001828103825260198152602001807f43616c6c6572206973206e6f7420612056616c696461746f720000000000000081525060200191505060405180910390fd5b61107f6001600760003373ffffffffffffffffffffffffffffffffffffffff1673ffffffffffffffffffffffffffffffffffffffff1681526020019081526020016000206002015461251090919063ffffffff16565b600760003373ffffffffffffffffffffffffffffffffffffffff1673ffffffffffffffffffffffffffffffffffffffff16815260200190815260200160002060020181905550565b60006110dd82600061259a90919063ffffffff16565b9050919050565b6110ed33612468565b1515611161576040517f08c379a00000000000000000000000000000000000000000000000000000000081526004018080602001828103825260198152602001807f43616c6c6572206973206e6f7420612056616c696461746f720000000000000081525060200191505060405180910390fd5b600080600090505b60038110156112af573373ffffffffffffffffffffffffffffffffffffffff16600e6000878152602001908152602001600020600201826003811015156111ac57fe5b0160009054906101000a900473ffffffffffffffffffffffffffffffffffffffff1673ffffffffffffffffffffffffffffffffffffffff1614156112545783600e60008781526020019081526020016000206005018260038110151561120e57fe5b602091828204019190066101000a81548160ff021916908315150217905550600e6000868152602001908152602001600020600601600081548092919060010191905055505b60011515600e60008781526020019081526020016000206005018260038110151561127b57fe5b602091828204019190069054906101000a900460ff16151514156112a25781806001019250505b8080600101915050611169565b506002811015156113c55760016005600084815260200190815260200160002060050160006101000a81548160ff02191690831515021790555060006005600084815260200190815260200160002060010160009054906101000a900473ffffffffffffffffffffffffffffffffffffffff16905061137960018060008473ffffffffffffffffffffffffffffffffffffffff1673ffffffffffffffffffffffffffffffffffffffff1681526020019081526020016000206003015461251090919063ffffffff16565b600160008373ffffffffffffffffffffffffffffffffffffffff1673ffffffffffffffffffffffffffffffffffffffff1681526020019081526020016000206003018190555050611415565b6003600e60008681526020019081526020016000206006015414156114145760006005600084815260200190815260200160002060050160006101000a81548160ff0219169083151502179055505b5b50505050565b61142582826126bd565b5050565b60006114416001600a5461251090919063ffffffff16565b600a81905550610180604051908101604052808873ffffffffffffffffffffffffffffffffffffffff168152602001878152602001868152602001858152602001848152602001600073ffffffffffffffffffffffffffffffffffffffff168152602001600015158152602001600015158152602001600015158152602001600081526020016000815260200183815250600b6000600a54815260200190815260200160002060008201518160000160006101000a81548173ffffffffffffffffffffffffffffffffffffffff021916908373ffffffffffffffffffffffffffffffffffffffff1602179055506020820151816001015560408201518160020155606082015181600301908051906020019061155e92919061333b565b506080820151816004015560a08201518160050160006101000a81548173ffffffffffffffffffffffffffffffffffffffff021916908373ffffffffffffffffffffffffffffffffffffffff16021790555060c08201518160050160146101000a81548160ff02191690831515021790555060e08201518160050160156101000a81548160ff0219169083151502179055506101008201518160050160166101000a81548160ff0219169083151502179055506101208201518160060155610140820151816007015561016082015181600801559050507f9ed508f9dd7c730fd307b1ca38355cf4d9c00f58a2acfa5167b497c51a859e4c600a546040518082815260200191505060405180910390a1600a5490509695505050505050565b6001600b600083815260200190815260200160002060050160156101000a81548160ff0219169083151502179055507f7794351528fe7be520769ebfe19d7275d2a0ecb197e1bbc23afa224134887ba2600a546040518082815260200191505060405180910390a150565b6116f28282612797565b5050565b600061170c82600261259a90919063ffffffff16565b9050919050565b6001600b600083815260200190815260200160002060050160146101000a81548160ff0219169083151502179055507f60bd4c6e468dd35d1c78b03ddc704f2f270ad2ed13b45bf571438f433db9b8f7600a546040518082815260200191505060405180910390a150565b6117866133bb565b600760008473ffffffffffffffffffffffffffffffffffffffff1673ffffffffffffffffffffffffffffffffffffffff16815260200190815260200160002060806040519081016040529081600082015481526020016001820154815260200160028201548152602001600382015481525050905081816000018181525050505050565b6001600b600083815260200190815260200160002060050160166101000a81548160ff0219169083151502179055507fe95591b999a8fa4c23f2d0b426271960c193b5eb71cef3bc673ac5be6cb60df4600a546040518082815260200191505060405180910390a150565b600115158315151415611a09576000600160008473ffffffffffffffffffffffffffffffffffffffff1673ffffffffffffffffffffffffffffffffffffffff1681526020019081526020016000206000015411156119695761192260018060008573ffffffffffffffffffffffffffffffffffffffff1673ffffffffffffffffffffffffffffffffffffffff1681526020019081526020016000206000015461287b90919063ffffffff16565b600160008473ffffffffffffffffffffffffffffffffffffffff1673ffffffffffffffffffffffffffffffffffffffff168152602001908152602001600020600001819055505b6119be60018060008573ffffffffffffffffffffffffffffffffffffffff1673ffffffffffffffffffffffffffffffffffffffff1681526020019081526020016000206003015461251090919063ffffffff16565b600160008473ffffffffffffffffffffffffffffffffffffffff1673ffffffffffffffffffffffffffffffffffffffff16815260200190815260200160002060030181905550611b70565b600115158415151415611a5f57611a406001600b60008481526020019081526020016000206006015461251090919063ffffffff16565b600b600083815260200190815260200160002060060181905550611aa4565b611a896001600b60008481526020019081526020016000206007015461251090919063ffffffff16565b600b6000838152602001908152602001600020600701819055505b6000611b62600160008573ffffffffffffffffffffffffffffffffffffffff1673ffffffffffffffffffffffffffffffffffffffff16815260200190815260200160002060000154600b600085815260200190815260200160002060060154600b600086815260200190815260200160002060070154600160008873ffffffffffffffffffffffffffffffffffffffff1673ffffffffffffffffffffffffffffffffffffffff16815260200190815260200160002060020154612906565b9050611b6e83826116e8565b505b50505050565b60096020528060005260406000206000915054906101000a900473ffffffffffffffffffffffffffffffffffffffff1681565b611bb2336116f6565b1515611c26576040517f08c379a00000000000000000000000000000000000000000000000000000000081526004018080602001828103825260168152602001807f43616c6c6572206973206e6f742061205265616465720000000000000000000081525060200191505060405180910390fd5b6000600b600083815260200190815260200160002060000160009054906101000a900473ffffffffffffffffffffffffffffffffffffffff169050611c6e8282868633611d33565b611c7a826004546129ad565b50505050565b611caa6001600b60008481526020019081526020016000206007015461251090919063ffffffff16565b600b6000838152602001908152602001600020600701819055507fd1ff0de57853f81f969355a26960199cd8211f9d274c6c552a148053125b4611600a546040518082815260200191505060405180910390a150565b611d0933612ada565b565b611d1433612b34565b565b60085481565b6000600c60149054906101000a900460ff16905090565b611d49600160045461251090919063ffffffff16565b60048190555060c0604051908101604052808681526020018573ffffffffffffffffffffffffffffffffffffffff1681526020018273ffffffffffffffffffffffffffffffffffffffff168152602001848152602001838152602001600015158152506005600060045481526020019081526020016000206000820151816000015560208201518160010160006101000a81548173ffffffffffffffffffffffffffffffffffffffff021916908373ffffffffffffffffffffffffffffffffffffffff16021790555060408201518160020160006101000a81548173ffffffffffffffffffffffffffffffffffffffff021916908373ffffffffffffffffffffffffffffffffffffffff160217905550606082015181600301556080820151816004015560a08201518160050160006101000a81548160ff021916908315150217905550905050611ee66001600360008473ffffffffffffffffffffffffffffffffffffffff1673ffffffffffffffffffffffffffffffffffffffff1681526020019081526020016000206002015461251090919063ffffffff16565b600360008373ffffffffffffffffffffffffffffffffffffffff1673ffffffffffffffffffffffffffffffffffffffff16815260200190815260200160002060020181905550600360008273ffffffffffffffffffffffffffffffffffffffff1673ffffffffffffffffffffffffffffffffffffffff16815260200190815260200160002060030160045490806001815401808255809150509060018203906000526020600020016000909192909190915055507f71658dcd30af2516252b609c834023d8729aab62422a55f9559c3c854f3a880381600454604051808373ffffffffffffffffffffffffffffffffffffffff1673ffffffffffffffffffffffffffffffffffffffff1681526020018281526020019250505060405180910390a15050505050565b60045481565b600160003373ffffffffffffffffffffffffffffffffffffffff1673ffffffffffffffffffffffffffffffffffffffff16815260200190815260200160002060040181908060018154018082558091505090600182039060005260206000200160009091929091909150555050565b61208d828261177e565b5050565b61209a336110c7565b151561210e576040517f08c379a000000000000000000000000000000000000000000000000000000000815260040180806020018281038252601b8152602001807f43616c6c6572206973206e6f74206120436f6e7472696275746f72000000000081525060200191505060405180910390fd5b600160003373ffffffffffffffffffffffffffffffffffffffff1673ffffffffffffffffffffffffffffffffffffffff168152602001908152602001600020600101548111151515612214576040517f08c379a00000000000000000000000000000000000000000000000000000000081526004018080602001828103825260598152602001807f496e73756666696369656e742066756e647320746f207075626c69736820617281526020017f7469636c652e20416d6f756e74207374616b65642073686f756c64206265206c81526020017f657373207468616e206163636f756e742062616c616e63652e0000000000000081525060600191505060405180910390fd5b6000612224338787878787611429565b9050600160003373ffffffffffffffffffffffffffffffffffffffff1673ffffffffffffffffffffffffffffffffffffffff16815260200190815260200160002060040181908060018154018082558091505090600182039060005260206000200160009091929091909150555061229c8133612b8e565b505050505050565b6122ad336110c7565b1515612321576040517f08c379a000000000000000000000000000000000000000000000000000000000815260040180806020018281038252601b8152602001807f43616c6c6572206973206e6f74206120436f6e7472696275746f72000000000081525060200191505060405180910390fd5b61232b8282612ca2565b5050565b612338336116f6565b15156123ac576040517f08c379a00000000000000000000000000000000000000000000000000000000081526004018080602001828103825260168152602001807f43616c6c6572206973206e6f742061205265616465720000000000000000000081525060200191505060405180910390fd5b6123b68282612d44565b5050565b61240f60018060003373ffffffffffffffffffffffffffffffffffffffff1673ffffffffffffffffffffffffffffffffffffffff1681526020019081526020016000206003015461251090919063ffffffff16565b600160003373ffffffffffffffffffffffffffffffffffffffff1673ffffffffffffffffffffffffffffffffffffffff16815260200190815260200160002060030181905550565b61246033612de6565b565b600f5481565b600061247e82600661259a90919063ffffffff16565b9050919050565b61248e33612468565b1515612502576040517f08c379a00000000000000000000000000000000000000000000000000000000081526004018080602001828103825260198152602001807f43616c6c6572206973206e6f7420612056616c696461746f720000000000000081525060200191505060405180910390fd5b61250c8282612e40565b5050565b6000808284019050838110151515612590576040517f08c379a000000000000000000000000000000000000000000000000000000000815260040180806020018281038252601b8152602001807f536166654d6174683a206164646974696f6e206f766572666c6f77000000000081525060200191505060405180910390fd5b8091505092915050565b60008073ffffffffffffffffffffffffffffffffffffffff168273ffffffffffffffffffffffffffffffffffffffff1614151515612666576040517f08c379a00000000000000000000000000000000000000000000000000000000081526004018080602001828103825260228152602001807f526f6c65733a206163636f756e7420697320746865207a65726f20616464726581526020017f737300000000000000000000000000000000000000000000000000000000000081525060400191505060405180910390fd5b8260000160008373ffffffffffffffffffffffffffffffffffffffff1673ffffffffffffffffffffffffffffffffffffffff16815260200190815260200160002060009054906101000a900460ff16905092915050565b6126c56133e4565b600360008473ffffffffffffffffffffffffffffffffffffffff1673ffffffffffffffffffffffffffffffffffffffff168152602001908152602001600020608060405190810160405290816000820154815260200160018201548152602001600282015481526020016003820180548060200260200160405190810160405280929190818152602001828054801561277d57602002820191906000526020600020905b815481526020019060010190808311612769575b505050505081525050905081816000018181525050505050565b61279f61340d565b600160008473ffffffffffffffffffffffffffffffffffffffff1673ffffffffffffffffffffffffffffffffffffffff16815260200190815260200160002060a06040519081016040529081600082015481526020016001820154815260200160028201548152602001600382015481526020016004820180548060200260200160405190810160405280929190818152602001828054801561286157602002820191906000526020600020905b81548152602001906001019080831161284d575b505050505081525050905081816000018181525050505050565b60008282111515156128f5576040517f08c379a000000000000000000000000000000000000000000000000000000000815260040180806020018281038252601e8152602001807f536166654d6174683a207375627472616374696f6e206f766572666c6f77000081525060200191505060405180910390fd5b600082840390508091505092915050565b60008061291c848661251090919063ffffffff16565b9050600061294660056129388489612f5290919063ffffffff16565b612fe590919063ffffffff16565b9050600061295e60018661287b90919063ffffffff16565b90506129738882612fe590919063ffffffff16565b9050612988828261251090919063ffffffff16565b905061299d8582612f5290919063ffffffff16565b9050809350505050949350505050565b6129c36001600f5461251090919063ffffffff16565b600f819055506129d161343d565b6000600190505b6004811015612a7257600960006129ee836130b2565b815260200190815260200160002060009054906101000a900473ffffffffffffffffffffffffffffffffffffffff168260018303600381101515612a2e57fe5b602002019073ffffffffffffffffffffffffffffffffffffffff16908173ffffffffffffffffffffffffffffffffffffffff168152505080806001019150506129d8565b5080600e6000600f548152602001908152602001600020600201906003612a9a929190613460565b5082600e6000600f5481526020019081526020016000206000018190555081600e6000600f54815260200190815260200160002060010181905550505050565b612aee81600261315c90919063ffffffff16565b8073ffffffffffffffffffffffffffffffffffffffff167fe933431644458f1217f9e93d3e000e03c9bbbe55761046d0985c2e4d157bcbaa60405160405180910390a250565b612b4881600061315c90919063ffffffff16565b8073ffffffffffffffffffffffffffffffffffffffff167f665b9b7911d6a3e5a789e2be1ed4f9ffa84c1259e3b89675234719521112219160405160405180910390a250565b600060096000612b9e60016130b2565b815260200190815260200160002060009054906101000a900473ffffffffffffffffffffffffffffffffffffffff1690505b8173ffffffffffffffffffffffffffffffffffffffff168173ffffffffffffffffffffffffffffffffffffffff161415612c485760096000612c1260016130b2565b815260200190815260200160002060009054906101000a900473ffffffffffffffffffffffffffffffffffffffff169050612bd0565b80600b600085815260200190815260200160002060050160006101000a81548173ffffffffffffffffffffffffffffffffffffffff021916908373ffffffffffffffffffffffffffffffffffffffff160217905550505050565b612cb682600061325e90919063ffffffff16565b80600160008473ffffffffffffffffffffffffffffffffffffffff1673ffffffffffffffffffffffffffffffffffffffff168152602001908152602001600020600101819055508173ffffffffffffffffffffffffffffffffffffffff167f07681ffd9d424587412481b41d2ee582bb7bca757f626b0477051f302947027260405160405180910390a25050565b612d5882600261325e90919063ffffffff16565b80600360008473ffffffffffffffffffffffffffffffffffffffff1673ffffffffffffffffffffffffffffffffffffffff168152602001908152602001600020600101819055508173ffffffffffffffffffffffffffffffffffffffff167fb7724d890d2888af5a3fc456edb667e2c82c4441449ebcac301c618759e4f86d60405160405180910390a25050565b612dfa81600661315c90919063ffffffff16565b8073ffffffffffffffffffffffffffffffffffffffff167fe1434e25d6611e0db941968fdc97811c982ac1602e951637d206f5fdda9dd8f160405160405180910390a250565b612e5482600661325e90919063ffffffff16565b80600760008473ffffffffffffffffffffffffffffffffffffffff1673ffffffffffffffffffffffffffffffffffffffff16815260200190815260200160002060010181905550612eb1600160085461251090919063ffffffff16565b6008819055508160096000600854815260200190815260200160002060006101000a81548173ffffffffffffffffffffffffffffffffffffffff021916908373ffffffffffffffffffffffffffffffffffffffff1602179055508173ffffffffffffffffffffffffffffffffffffffff167fe366c1c0452ed8eec96861e9e54141ebff23c9ec89fe27b996b45f5ec388498760405160405180910390a25050565b60008082111515612fcb576040517f08c379a000000000000000000000000000000000000000000000000000000000815260040180806020018281038252601a8152602001807f536166654d6174683a206469766973696f6e206279207a65726f00000000000081525060200191505060405180910390fd5b60008284811515612fd857fe5b0490508091505092915050565b600080831415612ff857600090506130ac565b6000828402905082848281151561300b57fe5b041415156130a7576040517f08c379a00000000000000000000000000000000000000000000000000000000081526004018080602001828103825260218152602001807f536166654d6174683a206d756c7469706c69636174696f6e206f766572666c6f81526020017f770000000000000000000000000000000000000000000000000000000000000081525060400191505060405180910390fd5b809150505b92915050565b60008060085490506000423385604051602001808481526020018373ffffffffffffffffffffffffffffffffffffffff1673ffffffffffffffffffffffffffffffffffffffff166c0100000000000000000000000002815260140182815260200193505050506040516020818303038152906040528051906020012060019004905060006131498383612f5290919063ffffffff16565b9050600081905080945050505050919050565b613166828261259a565b1515613200576040517f08c379a00000000000000000000000000000000000000000000000000000000081526004018080602001828103825260218152602001807f526f6c65733a206163636f756e7420646f6573206e6f74206861766520726f6c81526020017f650000000000000000000000000000000000000000000000000000000000000081525060400191505060405180910390fd5b60008260000160008373ffffffffffffffffffffffffffffffffffffffff1673ffffffffffffffffffffffffffffffffffffffff16815260200190815260200160002060006101000a81548160ff0219169083151502179055505050565b613268828261259a565b1515156132dd576040517f08c379a000000000000000000000000000000000000000000000000000000000815260040180806020018281038252601f8152602001807f526f6c65733a206163636f756e7420616c72656164792068617320726f6c650081525060200191505060405180910390fd5b60018260000160008373ffffffffffffffffffffffffffffffffffffffff1673ffffffffffffffffffffffffffffffffffffffff16815260200190815260200160002060006101000a81548160ff0219169083151502179055505050565b828054600181600116156101000203166002900490600052602060002090601f016020900481019282601f1061337c57805160ff19168380011785556133aa565b828001600101855582156133aa579182015b828111156133a957825182559160200191906001019061338e565b5b5090506133b791906134dd565b5090565b608060405190810160405280600081526020016000815260200160008152602001600081525090565b608060405190810160405280600081526020016000815260200160008152602001606081525090565b60a06040519081016040528060008152602001600081526020016000815260200160008152602001606081525090565b606060405190810160405280600390602082028038833980820191505090505090565b82600381019282156134cc579160200282015b828111156134cb5782518260006101000a81548173ffffffffffffffffffffffffffffffffffffffff021916908373ffffffffffffffffffffffffffffffffffffffff16021790555091602001919060010190613473565b5b5090506134d99190613502565b5090565b6134ff91905b808211156134fb5760008160009055506001016134e3565b5090565b90565b61354291905b8082111561353e57600081816101000a81549073ffffffffffffffffffffffffffffffffffffffff021916905550600101613508565b5090565b9056fea165627a7a72305820203406d9f0fe13b4dfa2c69ce6ac9d9ac95f30fc1046c20f7d84f1d1652f84370029",
  "source": "pragma solidity >=0.4.21 <0.6.0;\r\nimport \"./accessControl/ContributorRole.sol\";\r\nimport \"./accessControl/ReaderRole.sol\";\r\nimport \"./accessControl/ValidatorRole.sol\";\r\nimport \"./Article.sol\";\r\n// Import the library 'Roles' and SafeMath\r\nimport \"../node_modules/openzeppelin-solidity/contracts/math/SafeMath.sol\";\r\n\r\n\r\ncontract Honestmedia is ContributorRole, ReaderRole, ValidatorRole, Article  {\r\n    using SafeMath for uint;\r\n\r\n\taddress owner;\r\n\r\n\t//check if contract operational\r\n    bool private operational = true;\r\n\r\n    //variables to define minimum funding amounts for validators and contributors.\r\n    //These should be checked when adding new actors.\r\n    uint constant MIN_FUNDING_VALIDATOR = 1 ether; //we can decide a different amount\r\n    uint constant MIN_FUNDING_CONTRIBUTOR = 2 ether; //we can decide a different amount\r\n\r\n    //mapping to store available withdrawals\r\n    mapping(address => uint) availableWithdrawls;\r\n\r\n    //Struct to store ruling\r\n    struct ruling {\r\n        uint articleId;\r\n        uint challengeId;\r\n        address[3] validators;\r\n        bool[3] votes;\r\n        uint voted;\r\n    }\r\n\r\n    //Mapping to save ruling for challenges\r\n    mapping(uint => ruling) allRulings;\r\n\r\n    //Variable to save totalRulings\r\n    uint public totalRulings;\r\n\r\n\tconstructor() public {\r\n        owner = msg.sender;\r\n    }\r\n\r\n     modifier requireIsOperational() {\r\n        require(operational, \"Contract is currently not operational\");\r\n        _;  // All modifiers require an \"_\" which indicates where the function body will be added\r\n    }\r\n\r\n    modifier requireContractOwner() {\r\n        require((msg.sender == owner), \"Caller is not admin\");\r\n        _;\r\n    }\r\n\r\n    function isOperational() \r\n                            public \r\n                            view \r\n                            returns(bool) {\r\n        return operational;\r\n    }\r\n\r\n    function setOperatingStatus\r\n                            (\r\n                                bool mode\r\n                            ) \r\n                            external\r\n                            requireContractOwner {\r\n        operational = mode;\r\n    }\r\n\r\n    //seting ranking\r\n    function setContributorRating(address _address, uint rank) public {\r\n    \tContributorRole.setRating(_address, rank);\r\n    }\r\n\r\n    function setReaderRating(address _address, uint rank) external {\r\n    \tReaderRole.setRating(_address, rank);\r\n    }\r\n\r\n    function setValidatorRating(address _address, uint rank) external {\r\n    \tValidatorRole.setRating(_address, rank);\r\n    }\r\n\r\n    //Function to store the article etc\r\n    function addArticle(bytes32 _ipfsArticleHash, bytes32 _ipfsReferenceHash, string memory _title,\r\n                        uint _datePublished, uint _stake) public onlyContributor\r\n    {\r\n        //Check if Amount staked is greater than balance of contributor\r\n        require(_stake <= ContributorRole.allContributors[msg.sender].balance,\r\n                         \"Insufficient funds to publish article. Amount staked should be less than account balance.\");\r\n        uint articleNum = Article.add(msg.sender, _ipfsArticleHash, _ipfsReferenceHash, _title, _datePublished, _stake);\r\n        ContributorRole.allContributors[msg.sender].articles.push(articleNum);\r\n        assignValidator(articleNum, msg.sender);\r\n    }\r\n\r\n    //Assign validator to approve article\r\n    function assignValidator(uint articleId, address contributor) internal {\r\n        //check to see if random validator is also contributor\r\n        address randomValidator = ValidatorRole.validatorIds[random(1)];\r\n        while (randomValidator == contributor){\r\n           randomValidator = ValidatorRole.validatorIds[random(1)];\r\n        }\r\n        Article.allArticles[articleId].validator = randomValidator;\r\n    }\r\n\r\n\r\n    //approve article\r\n    function approve(uint articleId) internal onlyValidator {\r\n        require(Article.allArticles[articleId].validator == msg.sender, \"Validator not authorised\");\r\n        Article.allArticles[articleId].approved = true;\r\n    }\r\n\r\n    //Function to update rating for Contributors\r\n    function updateContributorRating(bool vote, bool challengeLost, address _contributor, uint articleId) public {\r\n        //change rating after challenge lost\r\n        if(challengeLost == true){\r\n            if(ContributorRole.allContributors[_contributor].rating > 0){\r\n                ContributorRole.allContributors[_contributor].rating = ContributorRole.allContributors[_contributor].rating.sub(1);\r\n            }\r\n            ContributorRole.allContributors[_contributor].challengesLost = ContributorRole.allContributors[_contributor].challengesLost.add(1);\r\n        }else {\r\n        //change rating after reader vote\r\n            if(vote == true){\r\n                Article.allArticles[articleId].upVotes = Article.allArticles[articleId].upVotes.add(1);\r\n            }else {\r\n                Article.allArticles[articleId].downVotes = Article.allArticles[articleId].downVotes.add(1);\r\n            }\r\n            uint newRating = contributorRatingCalculator(ContributorRole.allContributors[_contributor].rating, Article.allArticles[articleId].upVotes,\r\n                                                        Article.allArticles[articleId].downVotes, ContributorRole.allContributors[_contributor].articlesPublished);\r\n            setContributorRating(_contributor, newRating);\r\n        }\r\n    }\r\n\r\n    //Function to calculate rating for Contributors\r\n    function contributorRatingCalculator(uint currentRating, uint upVotes, uint downVotes, uint articles) internal pure returns(uint){\r\n        uint totalRatings = upVotes.add(downVotes);\r\n        uint recentRating = upVotes.div(totalRatings).mul(5);\r\n        uint newRating = articles.sub(1);\r\n        newRating = newRating.mul(currentRating);\r\n        newRating = newRating.add(recentRating);\r\n        newRating = newRating.div(articles);\r\n        return newRating;\r\n    }\r\n\r\n    //Function to challenge an article\r\n    function challengeArticle(bytes32 proofHash, uint stake, uint articleId) external onlyReader {\r\n        address contributor = Article.allArticles[articleId].contributor;\r\n        ReaderRole.challenge(articleId, contributor, proofHash, stake, msg.sender);\r\n        assignValidators(articleId, ReaderRole.totalChallenges);\r\n    }\r\n\r\n    //function to find random validators to vote on challenge\r\n    function assignValidators(uint _articleId, uint _challengeId) internal {\r\n        totalRulings = totalRulings.add(1);\r\n        address[3] memory validators;\r\n        for(uint i = 1; i < 4; i++)\r\n        {\r\n            validators[i-1] = ValidatorRole.validatorIds[random(i)];\r\n        }\r\n        allRulings[totalRulings].validators = validators;\r\n        allRulings[totalRulings].articleId = _articleId;\r\n        allRulings[totalRulings].challengeId = _challengeId;\r\n    }\r\n\r\n    //Random number generator\r\n    function random(uint nonce) internal view returns (uint) {\r\n        uint MAX = ValidatorRole.totalValidators;\r\n        uint seed = uint(keccak256(abi.encodePacked(now, msg.sender, nonce)));\r\n        uint scaled = seed.div(MAX);\r\n        uint adjusted = scaled;\r\n        return adjusted;\r\n    }\r\n\r\n    //function to register validator votes on challenge. Will also check if 2 of 3 consensus is reached\r\n    function voteOnChallenge(uint rulingId, bool vote, uint challengeId) external onlyValidator {\r\n        uint numOfYesVotes;\r\n        for(uint i = 0; i < 3; i++){\r\n            if (allRulings[rulingId].validators[i] == msg.sender) {\r\n                allRulings[rulingId].votes[i] = vote;\r\n                allRulings[rulingId].voted++;\r\n            }\r\n            if(allRulings[rulingId].votes[i] == true)\r\n                numOfYesVotes++;\r\n        }\r\n        if(numOfYesVotes >= 2){\r\n            ReaderRole.allChallenges[challengeId].success = true;\r\n            // update contributor's challenges lost\r\n            address contributor = ReaderRole.allChallenges[challengeId].contributor;\r\n            ContributorRole.allContributors[contributor].challengesLost = ContributorRole.allContributors[contributor].challengesLost.add(1);\r\n            // Distribute Amount staked by contributor to reader and validators\r\n        }else\r\n        {\r\n            if(allRulings[rulingId].voted == 3) {\r\n                ReaderRole.allChallenges[challengeId].success = false;\r\n                // Distribute Amount staked by reader to contributor and validators\r\n            }\r\n        }\r\n    }\r\n\r\n    //TODO: function that allows to withdraw funds. For Validators and Contributors their balance should not be less than the minimum funding amount.\r\n\r\n    //Fallback function\r\n    function () external payable {\r\n    }\r\n\r\n\r\n\r\n}",
  "sourcePath": "C:/Users/avant/Desktop/honest_media/contracts/Honestmedia.sol",
  "compiler": {
    "name": "solc",
    "version": "0.5.0+commit.1d4f565a.Emscripten.clang"
  },
  "schemaVersion": "3.0.5",
  "updatedAt": "2019-07-02T15:39:32.108Z",
  "devdoc": {
    "methods": {}
  },
  "userdoc": {
    "methods": {}
  }
}