{
  "contractName": "Honestmedia",
  "abi": [
    {
      "constant": false,
      "inputs": [
        {
          "name": "articleNumber",
          "type": "uint256"
        }
      ],
      "name": "upVoted",
      "outputs": [],
      "payable": false,
      "stateMutability": "nonpayable",
      "type": "function",
      "signature": "0x01c97c57"
    },
    {
      "constant": false,
      "inputs": [],
      "name": "publish",
      "outputs": [],
      "payable": false,
      "stateMutability": "nonpayable",
      "type": "function",
      "signature": "0x075d4782"
    },
    {
      "constant": false,
      "inputs": [],
      "name": "ruleOnChallenge",
      "outputs": [],
      "payable": false,
      "stateMutability": "nonpayable",
      "type": "function",
      "signature": "0x0a75d745"
    },
    {
      "constant": true,
      "inputs": [
        {
          "name": "account",
          "type": "address"
        }
      ],
      "name": "isContributor",
      "outputs": [
        {
          "name": "",
          "type": "bool"
        }
      ],
      "payable": false,
      "stateMutability": "view",
      "type": "function",
      "signature": "0x1d0d35f5"
    },
    {
      "constant": false,
      "inputs": [
        {
          "name": "_contributor",
          "type": "address"
        },
        {
          "name": "_ipfsArticleHash",
          "type": "bytes32"
        },
        {
          "name": "_ipfsReferenceHash",
          "type": "bytes32"
        },
        {
          "name": "_title",
          "type": "string"
        },
        {
          "name": "_datePublished",
          "type": "uint256"
        },
        {
          "name": "_stake",
          "type": "uint256"
        }
      ],
      "name": "add",
      "outputs": [
        {
          "name": "",
          "type": "uint256"
        }
      ],
      "payable": false,
      "stateMutability": "nonpayable",
      "type": "function",
      "signature": "0x2d85b283"
    },
    {
      "constant": false,
      "inputs": [
        {
          "name": "articleNumber",
          "type": "uint256"
        }
      ],
      "name": "challenged",
      "outputs": [],
      "payable": false,
      "stateMutability": "nonpayable",
      "type": "function",
      "signature": "0x45e73685"
    },
    {
      "constant": true,
      "inputs": [
        {
          "name": "account",
          "type": "address"
        }
      ],
      "name": "isReader",
      "outputs": [
        {
          "name": "",
          "type": "bool"
        }
      ],
      "payable": false,
      "stateMutability": "view",
      "type": "function",
      "signature": "0x69a7ddf7"
    },
    {
      "constant": true,
      "inputs": [
        {
          "name": "articleNumber",
          "type": "uint256"
        }
      ],
      "name": "getArticleTitle",
      "outputs": [
        {
          "name": "title",
          "type": "string"
        }
      ],
      "payable": false,
      "stateMutability": "view",
      "type": "function",
      "signature": "0x744d5c65"
    },
    {
      "constant": false,
      "inputs": [
        {
          "name": "account",
          "type": "address"
        }
      ],
      "name": "updateChallengesWon",
      "outputs": [],
      "payable": false,
      "stateMutability": "nonpayable",
      "type": "function",
      "signature": "0x793be013"
    },
    {
      "constant": true,
      "inputs": [
        {
          "name": "articleNumber",
          "type": "uint256"
        }
      ],
      "name": "getArticleDownvotes",
      "outputs": [
        {
          "name": "downVotes",
          "type": "uint256"
        }
      ],
      "payable": false,
      "stateMutability": "view",
      "type": "function",
      "signature": "0x7c224df8"
    },
    {
      "constant": false,
      "inputs": [
        {
          "name": "articleNumber",
          "type": "uint256"
        }
      ],
      "name": "approved",
      "outputs": [],
      "payable": false,
      "stateMutability": "nonpayable",
      "type": "function",
      "signature": "0x7d4061e6"
    },
    {
      "constant": false,
      "inputs": [
        {
          "name": "account",
          "type": "address"
        },
        {
          "name": "ranking",
          "type": "uint256"
        }
      ],
      "name": "setRating",
      "outputs": [],
      "payable": false,
      "stateMutability": "nonpayable",
      "type": "function",
      "signature": "0x80a24631"
    },
    {
      "constant": false,
      "inputs": [
        {
          "name": "articleNumber",
          "type": "uint256"
        }
      ],
      "name": "removed",
      "outputs": [],
      "payable": false,
      "stateMutability": "nonpayable",
      "type": "function",
      "signature": "0x8255899d"
    },
    {
      "constant": true,
      "inputs": [
        {
          "name": "",
          "type": "uint256"
        }
      ],
      "name": "validatorIds",
      "outputs": [
        {
          "name": "",
          "type": "address"
        }
      ],
      "payable": false,
      "stateMutability": "view",
      "type": "function",
      "signature": "0x919165aa"
    },
    {
      "constant": false,
      "inputs": [
        {
          "name": "articleNumber",
          "type": "uint256"
        }
      ],
      "name": "downVoted",
      "outputs": [],
      "payable": false,
      "stateMutability": "nonpayable",
      "type": "function",
      "signature": "0x9d0c8a9f"
    },
    {
      "constant": false,
      "inputs": [],
      "name": "renounceReader",
      "outputs": [],
      "payable": false,
      "stateMutability": "nonpayable",
      "type": "function",
      "signature": "0xaf938fc2"
    },
    {
      "constant": false,
      "inputs": [],
      "name": "renounceContributor",
      "outputs": [],
      "payable": false,
      "stateMutability": "nonpayable",
      "type": "function",
      "signature": "0xc462c423"
    },
    {
      "constant": true,
      "inputs": [],
      "name": "totalValidators",
      "outputs": [
        {
          "name": "",
          "type": "uint256"
        }
      ],
      "payable": false,
      "stateMutability": "view",
      "type": "function",
      "signature": "0xc81b356b"
    },
    {
      "constant": true,
      "inputs": [
        {
          "name": "articleNumber",
          "type": "uint256"
        }
      ],
      "name": "getArticleUpvotes",
      "outputs": [
        {
          "name": "upVotes",
          "type": "uint256"
        }
      ],
      "payable": false,
      "stateMutability": "view",
      "type": "function",
      "signature": "0xcd0b1300"
    },
    {
      "constant": false,
      "inputs": [
        {
          "name": "articleId",
          "type": "uint256"
        },
        {
          "name": "contributor",
          "type": "address"
        },
        {
          "name": "proofHash",
          "type": "bytes32"
        },
        {
          "name": "stake",
          "type": "uint256"
        },
        {
          "name": "account",
          "type": "address"
        }
      ],
      "name": "challenge",
      "outputs": [],
      "payable": false,
      "stateMutability": "nonpayable",
      "type": "function",
      "signature": "0xcee7d9d7"
    },
    {
      "constant": true,
      "inputs": [],
      "name": "totalChallenges",
      "outputs": [
        {
          "name": "",
          "type": "uint256"
        }
      ],
      "payable": false,
      "stateMutability": "view",
      "type": "function",
      "signature": "0xd17defcb"
    },
    {
      "constant": false,
      "inputs": [
        {
          "name": "account",
          "type": "address"
        }
      ],
      "name": "updateChallengesLost",
      "outputs": [],
      "payable": false,
      "stateMutability": "nonpayable",
      "type": "function",
      "signature": "0xe0b7663e"
    },
    {
      "constant": false,
      "inputs": [
        {
          "name": "account",
          "type": "address"
        },
        {
          "name": "fund",
          "type": "uint256"
        }
      ],
      "name": "addContributor",
      "outputs": [],
      "payable": false,
      "stateMutability": "nonpayable",
      "type": "function",
      "signature": "0xe0bd7d15"
    },
    {
      "constant": false,
      "inputs": [
        {
          "name": "account",
          "type": "address"
        },
        {
          "name": "funds",
          "type": "uint256"
        }
      ],
      "name": "addReader",
      "outputs": [],
      "payable": false,
      "stateMutability": "nonpayable",
      "type": "function",
      "signature": "0xe5fef7cd"
    },
    {
      "constant": false,
      "inputs": [],
      "name": "updateChallenge",
      "outputs": [],
      "payable": false,
      "stateMutability": "nonpayable",
      "type": "function",
      "signature": "0xef361e50"
    },
    {
      "constant": false,
      "inputs": [],
      "name": "renounceValidator",
      "outputs": [],
      "payable": false,
      "stateMutability": "nonpayable",
      "type": "function",
      "signature": "0xf0c043ee"
    },
    {
      "constant": true,
      "inputs": [],
      "name": "totalRulings",
      "outputs": [
        {
          "name": "",
          "type": "uint256"
        }
      ],
      "payable": false,
      "stateMutability": "view",
      "type": "function",
      "signature": "0xf8f2ba84"
    },
    {
      "constant": true,
      "inputs": [
        {
          "name": "account",
          "type": "address"
        }
      ],
      "name": "isValidator",
      "outputs": [
        {
          "name": "",
          "type": "bool"
        }
      ],
      "payable": false,
      "stateMutability": "view",
      "type": "function",
      "signature": "0xfacd743b"
    },
    {
      "constant": false,
      "inputs": [
        {
          "name": "account",
          "type": "address"
        },
        {
          "name": "funds",
          "type": "uint256"
        }
      ],
      "name": "addValidator",
      "outputs": [],
      "payable": false,
      "stateMutability": "nonpayable",
      "type": "function",
      "signature": "0xfc6c1f02"
    },
    {
      "constant": true,
      "inputs": [
        {
          "name": "articleNumber",
          "type": "uint256"
        }
      ],
      "name": "getArticleDatePublished",
      "outputs": [
        {
          "name": "datePublished",
          "type": "uint256"
        }
      ],
      "payable": false,
      "stateMutability": "view",
      "type": "function",
      "signature": "0xfc96a826"
    },
    {
      "inputs": [],
      "payable": false,
      "stateMutability": "nonpayable",
      "type": "constructor",
      "signature": "constructor"
    },
    {
      "payable": true,
      "stateMutability": "payable",
      "type": "fallback"
    },
    {
      "anonymous": false,
      "inputs": [
        {
          "indexed": false,
          "name": "aticleNum",
          "type": "uint256"
        }
      ],
      "name": "ArticleAdded",
      "type": "event",
      "signature": "0x9ed508f9dd7c730fd307b1ca38355cf4d9c00f58a2acfa5167b497c51a859e4c"
    },
    {
      "anonymous": false,
      "inputs": [
        {
          "indexed": false,
          "name": "aticleNum",
          "type": "uint256"
        }
      ],
      "name": "ArticleRemoved",
      "type": "event",
      "signature": "0xe95591b999a8fa4c23f2d0b426271960c193b5eb71cef3bc673ac5be6cb60df4"
    },
    {
      "anonymous": false,
      "inputs": [
        {
          "indexed": false,
          "name": "aticleNum",
          "type": "uint256"
        }
      ],
      "name": "ArticleApproved",
      "type": "event",
      "signature": "0x60bd4c6e468dd35d1c78b03ddc704f2f270ad2ed13b45bf571438f433db9b8f7"
    },
    {
      "anonymous": false,
      "inputs": [
        {
          "indexed": false,
          "name": "aticleNum",
          "type": "uint256"
        }
      ],
      "name": "ArticleChallenged",
      "type": "event",
      "signature": "0x7794351528fe7be520769ebfe19d7275d2a0ecb197e1bbc23afa224134887ba2"
    },
    {
      "anonymous": false,
      "inputs": [
        {
          "indexed": false,
          "name": "aticleNum",
          "type": "uint256"
        }
      ],
      "name": "ArticleUpVoted",
      "type": "event",
      "signature": "0xeb5a35545b0a45240a67898d2f6187c764da2eaca5c11a0e75e615dd80d9458d"
    },
    {
      "anonymous": false,
      "inputs": [
        {
          "indexed": false,
          "name": "aticleNum",
          "type": "uint256"
        }
      ],
      "name": "ArticleDownVoted",
      "type": "event",
      "signature": "0xd1ff0de57853f81f969355a26960199cd8211f9d274c6c552a148053125b4611"
    },
    {
      "anonymous": false,
      "inputs": [
        {
          "indexed": true,
          "name": "account",
          "type": "address"
        }
      ],
      "name": "ValidatorAdded",
      "type": "event",
      "signature": "0xe366c1c0452ed8eec96861e9e54141ebff23c9ec89fe27b996b45f5ec3884987"
    },
    {
      "anonymous": false,
      "inputs": [
        {
          "indexed": true,
          "name": "account",
          "type": "address"
        }
      ],
      "name": "ValidatorRemoved",
      "type": "event",
      "signature": "0xe1434e25d6611e0db941968fdc97811c982ac1602e951637d206f5fdda9dd8f1"
    },
    {
      "anonymous": false,
      "inputs": [
        {
          "indexed": true,
          "name": "account",
          "type": "address"
        }
      ],
      "name": "ReaderAdded",
      "type": "event",
      "signature": "0xb7724d890d2888af5a3fc456edb667e2c82c4441449ebcac301c618759e4f86d"
    },
    {
      "anonymous": false,
      "inputs": [
        {
          "indexed": true,
          "name": "account",
          "type": "address"
        }
      ],
      "name": "ReaderRemoved",
      "type": "event",
      "signature": "0xe933431644458f1217f9e93d3e000e03c9bbbe55761046d0985c2e4d157bcbaa"
    },
    {
      "anonymous": false,
      "inputs": [
        {
          "indexed": false,
          "name": "account",
          "type": "address"
        },
        {
          "indexed": false,
          "name": "challengeId",
          "type": "uint256"
        }
      ],
      "name": "ChallengeAdded",
      "type": "event",
      "signature": "0x71658dcd30af2516252b609c834023d8729aab62422a55f9559c3c854f3a8803"
    },
    {
      "anonymous": false,
      "inputs": [
        {
          "indexed": true,
          "name": "account",
          "type": "address"
        }
      ],
      "name": "ContributorAdded",
      "type": "event",
      "signature": "0x07681ffd9d424587412481b41d2ee582bb7bca757f626b0477051f3029470272"
    },
    {
      "anonymous": false,
      "inputs": [
        {
          "indexed": true,
          "name": "account",
          "type": "address"
        }
      ],
      "name": "ContributorRemoved",
      "type": "event",
      "signature": "0x665b9b7911d6a3e5a789e2be1ed4f9ffa84c1259e3b896752347195211122191"
    },
    {
      "constant": true,
      "inputs": [],
      "name": "isOperational",
      "outputs": [
        {
          "name": "",
          "type": "bool"
        }
      ],
      "payable": false,
      "stateMutability": "view",
      "type": "function",
      "signature": "0xcd905dff"
    },
    {
      "constant": false,
      "inputs": [
        {
          "name": "mode",
          "type": "bool"
        }
      ],
      "name": "setOperatingStatus",
      "outputs": [],
      "payable": false,
      "stateMutability": "nonpayable",
      "type": "function",
      "signature": "0x110466ed"
    },
    {
      "constant": false,
      "inputs": [
        {
          "name": "_address",
          "type": "address"
        },
        {
          "name": "_fund",
          "type": "uint256"
        }
      ],
      "name": "registerContributor",
      "outputs": [],
      "payable": false,
      "stateMutability": "nonpayable",
      "type": "function",
      "signature": "0x472f0bcc"
    },
    {
      "constant": false,
      "inputs": [
        {
          "name": "_address",
          "type": "address"
        },
        {
          "name": "_fund",
          "type": "uint256"
        }
      ],
      "name": "registerReader",
      "outputs": [],
      "payable": false,
      "stateMutability": "nonpayable",
      "type": "function",
      "signature": "0xf5301758"
    },
    {
      "constant": false,
      "inputs": [
        {
          "name": "_address",
          "type": "address"
        },
        {
          "name": "_fund",
          "type": "uint256"
        }
      ],
      "name": "registerValidator",
      "outputs": [],
      "payable": false,
      "stateMutability": "nonpayable",
      "type": "function",
      "signature": "0x9abee7d0"
    },
    {
      "constant": false,
      "inputs": [
        {
          "name": "_ipfsArticleHash",
          "type": "bytes32"
        },
        {
          "name": "_ipfsReferenceHash",
          "type": "bytes32"
        },
        {
          "name": "_title",
          "type": "string"
        },
        {
          "name": "_datePublished",
          "type": "uint256"
        },
        {
          "name": "_stake",
          "type": "uint256"
        }
      ],
      "name": "addArticle",
      "outputs": [],
      "payable": false,
      "stateMutability": "nonpayable",
      "type": "function",
      "signature": "0xd94cd260"
    },
    {
      "constant": false,
      "inputs": [
        {
          "name": "articleId",
          "type": "uint256"
        }
      ],
      "name": "addArticle",
      "outputs": [],
      "payable": false,
      "stateMutability": "nonpayable",
      "type": "function",
      "signature": "0xd453609a"
    },
    {
      "constant": true,
      "inputs": [],
      "name": "getNumberOfArticles",
      "outputs": [
        {
          "name": "noOfArticles",
          "type": "uint256"
        }
      ],
      "payable": false,
      "stateMutability": "view",
      "type": "function",
      "signature": "0x89da85d3"
    },
    {
      "constant": true,
      "inputs": [
        {
          "name": "articleNumber",
          "type": "uint256"
        }
      ],
      "name": "isArticleChallenged",
      "outputs": [
        {
          "name": "isChallenged",
          "type": "bool"
        }
      ],
      "payable": false,
      "stateMutability": "view",
      "type": "function",
      "signature": "0xa6876a33"
    },
    {
      "constant": true,
      "inputs": [
        {
          "name": "_articleNumber",
          "type": "uint256"
        }
      ],
      "name": "getArticle",
      "outputs": [
        {
          "name": "title",
          "type": "string"
        },
        {
          "name": "datePublished",
          "type": "uint256"
        },
        {
          "name": "upvotes",
          "type": "uint256"
        },
        {
          "name": "downvotes",
          "type": "uint256"
        }
      ],
      "payable": false,
      "stateMutability": "view",
      "type": "function",
      "signature": "0xbd85d867"
    },
    {
      "constant": false,
      "inputs": [],
      "name": "approve",
      "outputs": [],
      "payable": false,
      "stateMutability": "nonpayable",
      "type": "function",
      "signature": "0x12424e3f"
    },
    {
      "constant": false,
      "inputs": [
        {
          "name": "vote",
          "type": "bool"
        },
        {
          "name": "challengeLost",
          "type": "bool"
        },
        {
          "name": "_contributor",
          "type": "address"
        },
        {
          "name": "articleId",
          "type": "uint256"
        }
      ],
      "name": "updateContributorRating",
      "outputs": [],
      "payable": false,
      "stateMutability": "nonpayable",
      "type": "function",
      "signature": "0x841afbc3"
    },
    {
      "constant": false,
      "inputs": [
        {
          "name": "proofHash",
          "type": "bytes32"
        },
        {
          "name": "stake",
          "type": "uint256"
        },
        {
          "name": "articleId",
          "type": "uint256"
        }
      ],
      "name": "challengeArticle",
      "outputs": [],
      "payable": false,
      "stateMutability": "nonpayable",
      "type": "function",
      "signature": "0x95f4f4ce"
    },
    {
      "constant": false,
      "inputs": [
        {
          "name": "rulingId",
          "type": "uint256"
        },
        {
          "name": "vote",
          "type": "bool"
        },
        {
          "name": "challengeId",
          "type": "uint256"
        }
      ],
      "name": "voteOnChallenge",
      "outputs": [],
      "payable": false,
      "stateMutability": "nonpayable",
      "type": "function",
      "signature": "0x1d8de4f7"
    },
    {
      "constant": false,
      "inputs": [
        {
          "name": "amount",
          "type": "uint256"
        }
      ],
      "name": "withdraw",
      "outputs": [],
      "payable": true,
      "stateMutability": "payable",
      "type": "function",
      "signature": "0x2e1a7d4d"
    }
  ],
  "bytecode": "0x60806040526001600d60146101000a81548160ff0219169083151502179055503480156200002c57600080fd5b5062000049336000620000c8640100000000026401000000009004565b620000653360006200017a640100000000026401000000009004565b620000813360006200022c640100000000026401000000009004565b33600d60006101000a81548173ffffffffffffffffffffffffffffffffffffffff021916908373ffffffffffffffffffffffffffffffffffffffff160217905550620006f1565b620000ec8260006200037a64010000000002620048eb179091906401000000009004565b80600160008473ffffffffffffffffffffffffffffffffffffffff1673ffffffffffffffffffffffffffffffffffffffff168152602001908152602001600020600101819055508173ffffffffffffffffffffffffffffffffffffffff167f07681ffd9d424587412481b41d2ee582bb7bca757f626b0477051f302947027260405160405180910390a25050565b6200019e8260026200037a64010000000002620048eb179091906401000000009004565b80600360008473ffffffffffffffffffffffffffffffffffffffff1673ffffffffffffffffffffffffffffffffffffffff168152602001908152602001600020600101819055508173ffffffffffffffffffffffffffffffffffffffff167fb7724d890d2888af5a3fc456edb667e2c82c4441449ebcac301c618759e4f86d60405160405180910390a25050565b620002508260066200037a64010000000002620048eb179091906401000000009004565b80600760008473ffffffffffffffffffffffffffffffffffffffff1673ffffffffffffffffffffffffffffffffffffffff16815260200190815260200160002060010181905550620002bd6001600854620004696401000000000262002ebf179091906401000000009004565b6008819055508160096000600854815260200190815260200160002060006101000a81548173ffffffffffffffffffffffffffffffffffffffff021916908373ffffffffffffffffffffffffffffffffffffffff16021790555062000333826002620004f4640100000000026401000000009004565b8173ffffffffffffffffffffffffffffffffffffffff167fe366c1c0452ed8eec96861e9e54141ebff23c9ec89fe27b996b45f5ec388498760405160405180910390a25050565b62000395828262000596640100000000026401000000009004565b1515156200040b576040517f08c379a000000000000000000000000000000000000000000000000000000000815260040180806020018281038252601f8152602001807f526f6c65733a206163636f756e7420616c72656164792068617320726f6c650081525060200191505060405180910390fd5b60018260000160008373ffffffffffffffffffffffffffffffffffffffff1673ffffffffffffffffffffffffffffffffffffffff16815260200190815260200160002060006101000a81548160ff0219169083151502179055505050565b6000808284019050838110151515620004ea576040517f08c379a000000000000000000000000000000000000000000000000000000000815260040180806020018281038252601b8152602001807f536166654d6174683a206164646974696f6e206f766572666c6f77000000000081525060200191505060405180910390fd5b8091505092915050565b620004fe620006ba565b600760008473ffffffffffffffffffffffffffffffffffffffff1673ffffffffffffffffffffffffffffffffffffffff16815260200190815260200160002060c060405190810160405290816000820154815260200160018201548152602001600282015481526020016003820154815260200160048201548152602001600582015481525050905081816000018181525050505050565b60008073ffffffffffffffffffffffffffffffffffffffff168273ffffffffffffffffffffffffffffffffffffffff161415151562000663576040517f08c379a00000000000000000000000000000000000000000000000000000000081526004018080602001828103825260228152602001807f526f6c65733a206163636f756e7420697320746865207a65726f20616464726581526020017f737300000000000000000000000000000000000000000000000000000000000081525060400191505060405180910390fd5b8260000160008373ffffffffffffffffffffffffffffffffffffffff1673ffffffffffffffffffffffffffffffffffffffff16815260200190815260200160002060009054906101000a900460ff16905092915050565b60c0604051908101604052806000815260200160008152602001600081526020016000815260200160008152602001600081525090565b614d6680620007016000396000f3fe608060405260043610610225576000357c0100000000000000000000000000000000000000000000000000000000900463ffffffff16806301c97c5714610227578063075d4782146102625780630a75d74514610279578063110466ed1461029057806312424e3f146102cd5780631d0d35f5146102e45780631d8de4f71461034d5780632d85b2831461039e5780632e1a7d4d146104c257806345e73685146104f0578063472f0bcc1461052b57806369a7ddf714610586578063744d5c65146105ef578063793be013146106a35780637c224df8146106f45780637d4061e61461074357806380a246311461077e5780638255899d146107d9578063841afbc31461081457806389da85d314610887578063919165aa146108b257806395f4f4ce1461092d5780639abee7d01461097c5780639d0c8a9f146109d7578063a6876a3314610a12578063af938fc214610a65578063bd85d86714610a7c578063c462c42314610b45578063c81b356b14610b5c578063cd0b130014610b87578063cd905dff14610bd6578063cee7d9d714610c05578063d17defcb14610c94578063d453609a14610cbf578063d94cd26014610cfa578063e0b7663e14610dea578063e0bd7d1514610e3b578063e5fef7cd14610e96578063ef361e5014610ef1578063f0c043ee14610f08578063f530175814610f1f578063f8f2ba8414610f7a578063facd743b14610fa5578063fc6c1f021461100e578063fc96a82614611069575b005b34801561023357600080fd5b506102606004803603602081101561024a57600080fd5b81019080803590602001909291905050506110b8565b005b34801561026e57600080fd5b50610277611138565b005b34801561028557600080fd5b5061028e6111d5565b005b34801561029c57600080fd5b506102cb600480360360208110156102b357600080fd5b810190808035151590602001909291905050506112f0565b005b3480156102d957600080fd5b506102e26113d2565b005b3480156102f057600080fd5b506103336004803603602081101561030757600080fd5b81019080803573ffffffffffffffffffffffffffffffffffffffff1690602001909291905050506114ed565b604051808215151515815260200191505060405180910390f35b34801561035957600080fd5b5061039c6004803603606081101561037057600080fd5b81019080803590602001909291908035151590602001909291908035906020019092919050505061150a565b005b3480156103aa57600080fd5b506104ac600480360360c08110156103c157600080fd5b81019080803573ffffffffffffffffffffffffffffffffffffffff16906020019092919080359060200190929190803590602001909291908035906020019064010000000081111561041257600080fd5b82018360208201111561042457600080fd5b8035906020019184600183028401116401000000008311171561044657600080fd5b91908080601f016020809104026020016040519081016040528093929190818152602001838380828437600081840152601f19601f8201169050808301925050505050505091929192908035906020019092919080359060200190929190505050611720565b6040518082815260200191505060405180910390f35b6104ee600480360360208110156104d857600080fd5b8101908080359060200190929190505050611974565b005b3480156104fc57600080fd5b506105296004803603602081101561051357600080fd5b8101908080359060200190929190505050611e48565b005b34801561053757600080fd5b506105846004803603604081101561054e57600080fd5b81019080803573ffffffffffffffffffffffffffffffffffffffff16906020019092919080359060200190929190505050611eb3565b005b34801561059257600080fd5b506105d5600480360360208110156105a957600080fd5b81019080803573ffffffffffffffffffffffffffffffffffffffff169060200190929190505050611ec1565b604051808215151515815260200191505060405180910390f35b3480156105fb57600080fd5b506106286004803603602081101561061257600080fd5b8101908080359060200190929190505050611ede565b6040518080602001828103825283818151815260200191508051906020019080838360005b8381101561066857808201518184015260208101905061064d565b50505050905090810190601f1680156106955780820380516001836020036101000a031916815260200191505b509250505060405180910390f35b3480156106af57600080fd5b506106f2600480360360208110156106c657600080fd5b81019080803573ffffffffffffffffffffffffffffffffffffffff169060200190929190505050611fa2565b005b34801561070057600080fd5b5061072d6004803603602081101561071757600080fd5b8101908080359060200190929190505050612041565b6040518082815260200191505060405180910390f35b34801561074f57600080fd5b5061077c6004803603602081101561076657600080fd5b810190808035906020019092919050505061206c565b005b34801561078a57600080fd5b506107d7600480360360408110156107a157600080fd5b81019080803573ffffffffffffffffffffffffffffffffffffffff169060200190929190803590602001909291905050506120d7565b005b3480156107e557600080fd5b50610812600480360360208110156107fc57600080fd5b8101908080359060200190929190505050612177565b005b34801561082057600080fd5b506108856004803603608081101561083757600080fd5b81019080803515159060200190929190803515159060200190929190803573ffffffffffffffffffffffffffffffffffffffff169060200190929190803590602001909291905050506121e2565b005b34801561089357600080fd5b5061089c6124a9565b6040518082815260200191505060405180910390f35b3480156108be57600080fd5b506108eb600480360360208110156108d557600080fd5b81019080803590602001909291905050506124b8565b604051808273ffffffffffffffffffffffffffffffffffffffff1673ffffffffffffffffffffffffffffffffffffffff16815260200191505060405180910390f35b34801561093957600080fd5b5061097a6004803603606081101561095057600080fd5b810190808035906020019092919080359060200190929190803590602001909291905050506124eb565b005b34801561098857600080fd5b506109d56004803603604081101561099f57600080fd5b81019080803573ffffffffffffffffffffffffffffffffffffffff169060200190929190803590602001909291905050506126a2565b005b3480156109e357600080fd5b50610a10600480360360208110156109fa57600080fd5b81019080803590602001909291905050506126b0565b005b348015610a1e57600080fd5b50610a4b60048036036020811015610a3557600080fd5b8101908080359060200190929190505050612730565b604051808215151515815260200191505060405180910390f35b348015610a7157600080fd5b50610a7a612742565b005b348015610a8857600080fd5b50610ab560048036036020811015610a9f57600080fd5b810190808035906020019092919050505061274d565b6040518080602001858152602001848152602001838152602001828103825286818151815260200191508051906020019080838360005b83811015610b07578082015181840152602081019050610aec565b50505050905090810190601f168015610b345780820380516001836020036101000a031916815260200191505b509550505050505060405180910390f35b348015610b5157600080fd5b50610b5a61279f565b005b348015610b6857600080fd5b50610b716127aa565b6040518082815260200191505060405180910390f35b348015610b9357600080fd5b50610bc060048036036020811015610baa57600080fd5b81019080803590602001909291905050506127b0565b6040518082815260200191505060405180910390f35b348015610be257600080fd5b50610beb6127db565b604051808215151515815260200191505060405180910390f35b348015610c1157600080fd5b50610c92600480360360a0811015610c2857600080fd5b8101908080359060200190929190803573ffffffffffffffffffffffffffffffffffffffff1690602001909291908035906020019092919080359060200190929190803573ffffffffffffffffffffffffffffffffffffffff1690602001909291905050506127f2565b005b348015610ca057600080fd5b50610ca9612acd565b6040518082815260200191505060405180910390f35b348015610ccb57600080fd5b50610cf860048036036020811015610ce257600080fd5b8101908080359060200190929190505050612ad3565b005b348015610d0657600080fd5b50610de8600480360360a0811015610d1d57600080fd5b81019080803590602001909291908035906020019092919080359060200190640100000000811115610d4e57600080fd5b820183602082011115610d6057600080fd5b80359060200191846001830284011164010000000083111715610d8257600080fd5b91908080601f016020809104026020016040519081016040528093929190818152602001838380828437600081840152601f19601f8201169050808301925050505050505091929192908035906020019092919080359060200190929190505050612b42565b005b348015610df657600080fd5b50610e3960048036036020811015610e0d57600080fd5b81019080803573ffffffffffffffffffffffffffffffffffffffff169060200190929190505050612cf2565b005b348015610e4757600080fd5b50610e9460048036036040811015610e5e57600080fd5b81019080803573ffffffffffffffffffffffffffffffffffffffff16906020019092919080359060200190929190505050612d91565b005b348015610ea257600080fd5b50610eef60048036036040811015610eb957600080fd5b81019080803573ffffffffffffffffffffffffffffffffffffffff16906020019092919080359060200190929190505050612d9f565b005b348015610efd57600080fd5b50610f06612dad565b005b348015610f1457600080fd5b50610f1d612e4a565b005b348015610f2b57600080fd5b50610f7860048036036040811015610f4257600080fd5b81019080803573ffffffffffffffffffffffffffffffffffffffff16906020019092919080359060200190929190505050612e55565b005b348015610f8657600080fd5b50610f8f612e63565b6040518082815260200191505060405180910390f35b348015610fb157600080fd5b50610ff460048036036020811015610fc857600080fd5b81019080803573ffffffffffffffffffffffffffffffffffffffff169060200190929190505050612e69565b604051808215151515815260200191505060405180910390f35b34801561101a57600080fd5b506110676004803603604081101561103157600080fd5b81019080803573ffffffffffffffffffffffffffffffffffffffff16906020019092919080359060200190929190505050612e86565b005b34801561107557600080fd5b506110a26004803603602081101561108c57600080fd5b8101908080359060200190929190505050612e94565b6040518082815260200191505060405180910390f35b6110e26001600c600084815260200190815260200160002060060154612ebf90919063ffffffff16565b600c6000838152602001908152602001600020600601819055507feb5a35545b0a45240a67898d2f6187c764da2eaca5c11a0e75e615dd80d9458d600a546040518082815260200191505060405180910390a150565b61118d60018060003373ffffffffffffffffffffffffffffffffffffffff1673ffffffffffffffffffffffffffffffffffffffff16815260200190815260200160002060020154612ebf90919063ffffffff16565b600160003373ffffffffffffffffffffffffffffffffffffffff1673ffffffffffffffffffffffffffffffffffffffff16815260200190815260200160002060020181905550565b6111de33612e69565b1515611252576040517f08c379a00000000000000000000000000000000000000000000000000000000081526004018080602001828103825260198152602001807f43616c6c6572206973206e6f7420612056616c696461746f720000000000000081525060200191505060405180910390fd5b6112a86001600760003373ffffffffffffffffffffffffffffffffffffffff1673ffffffffffffffffffffffffffffffffffffffff16815260200190815260200160002060030154612ebf90919063ffffffff16565b600760003373ffffffffffffffffffffffffffffffffffffffff1673ffffffffffffffffffffffffffffffffffffffff16815260200190815260200160002060030181905550565b600d60009054906101000a900473ffffffffffffffffffffffffffffffffffffffff1673ffffffffffffffffffffffffffffffffffffffff163373ffffffffffffffffffffffffffffffffffffffff161415156113b5576040517f08c379a00000000000000000000000000000000000000000000000000000000081526004018080602001828103825260138152602001807f43616c6c6572206973206e6f742061646d696e0000000000000000000000000081525060200191505060405180910390fd5b80600d60146101000a81548160ff02191690831515021790555050565b6113db33612e69565b151561144f576040517f08c379a00000000000000000000000000000000000000000000000000000000081526004018080602001828103825260198152602001807f43616c6c6572206973206e6f7420612056616c696461746f720000000000000081525060200191505060405180910390fd5b6114a56001600760003373ffffffffffffffffffffffffffffffffffffffff1673ffffffffffffffffffffffffffffffffffffffff16815260200190815260200160002060020154612ebf90919063ffffffff16565b600760003373ffffffffffffffffffffffffffffffffffffffff1673ffffffffffffffffffffffffffffffffffffffff16815260200190815260200160002060020181905550565b6000611503826000612f4990919063ffffffff16565b9050919050565b61151333612e69565b1515611587576040517f08c379a00000000000000000000000000000000000000000000000000000000081526004018080602001828103825260198152602001807f43616c6c6572206973206e6f7420612056616c696461746f720000000000000081525060200191505060405180910390fd5b600080600090505b60038110156116d5573373ffffffffffffffffffffffffffffffffffffffff16600f6000878152602001908152602001600020600201826003811015156115d257fe5b0160009054906101000a900473ffffffffffffffffffffffffffffffffffffffff1673ffffffffffffffffffffffffffffffffffffffff16141561167a5783600f60008781526020019081526020016000206005018260038110151561163457fe5b602091828204019190066101000a81548160ff021916908315150217905550600f6000868152602001908152602001600020600601600081548092919060010191905055505b60011515600f6000878152602001908152602001600020600501826003811015156116a157fe5b602091828204019190069054906101000a900460ff16151514156116c85781806001019250505b808060010191505061158f565b506002811015156116ef576116ea828561306c565b61171a565b6003600f60008681526020019081526020016000206006015414156117195761171882856132cc565b5b5b50505050565b60006117386001600a54612ebf90919063ffffffff16565b600a81905550610180604051908101604052808873ffffffffffffffffffffffffffffffffffffffff168152602001878152602001868152602001858152602001848152602001600073ffffffffffffffffffffffffffffffffffffffff168152602001600015158152602001600015158152602001600015158152602001600081526020016000815260200183815250600c6000600a54815260200190815260200160002060008201518160000160006101000a81548173ffffffffffffffffffffffffffffffffffffffff021916908373ffffffffffffffffffffffffffffffffffffffff16021790555060208201518160010155604082015181600201556060820151816003019080519060200190611855929190614b29565b506080820151816004015560a08201518160050160006101000a81548173ffffffffffffffffffffffffffffffffffffffff021916908373ffffffffffffffffffffffffffffffffffffffff16021790555060c08201518160050160146101000a81548160ff02191690831515021790555060e08201518160050160156101000a81548160ff0219169083151502179055506101008201518160050160166101000a81548160ff0219169083151502179055506101208201518160060155610140820151816007015561016082015181600801559050507f9ed508f9dd7c730fd307b1ca38355cf4d9c00f58a2acfa5167b497c51a859e4c600a546040518082815260200191505060405180910390a1600a5490509695505050505050565b600e60003373ffffffffffffffffffffffffffffffffffffffff1673ffffffffffffffffffffffffffffffffffffffff168152602001908152602001600020548111151515611a2b576040517f08c379a00000000000000000000000000000000000000000000000000000000081526004018080602001828103825260128152602001807f4e6f7420656e6f7567682062616c616e6365000000000000000000000000000081525060200191505060405180910390fd5b60008060011515611a3b336114ed565b15151415611b6957600160003373ffffffffffffffffffffffffffffffffffffffff1673ffffffffffffffffffffffffffffffffffffffff168152602001908152602001600020600101549050611a9b838261341790919063ffffffff16565b9050671bc16d674ec800008110151515611b1d576040517f08c379a00000000000000000000000000000000000000000000000000000000081526004018080602001828103825260148152602001807f496e73756666696369656e742042616c616e636500000000000000000000000081525060200191505060405180910390fd5b6001915080600160003373ffffffffffffffffffffffffffffffffffffffff1673ffffffffffffffffffffffffffffffffffffffff168152602001908152602001600020600101819055505b60011515611b7633612e69565b15151415611ca457600760003373ffffffffffffffffffffffffffffffffffffffff1673ffffffffffffffffffffffffffffffffffffffff168152602001908152602001600020600101549050611bd6838261341790919063ffffffff16565b9050670de0b6b3a76400008110151515611c58576040517f08c379a00000000000000000000000000000000000000000000000000000000081526004018080602001828103825260148152602001807f496e73756666696369656e742042616c616e636500000000000000000000000081525060200191505060405180910390fd5b6001915080600760003373ffffffffffffffffffffffffffffffffffffffff1673ffffffffffffffffffffffffffffffffffffffff168152602001908152602001600020600101819055505b60011515611cb133611ec1565b15151415611d595760019150611d1283600360003373ffffffffffffffffffffffffffffffffffffffff1673ffffffffffffffffffffffffffffffffffffffff1681526020019081526020016000206001015461341790919063ffffffff16565b600360003373ffffffffffffffffffffffffffffffffffffffff1673ffffffffffffffffffffffffffffffffffffffff168152602001908152602001600020600101819055505b600115158215151415611e4357611db883600e60003373ffffffffffffffffffffffffffffffffffffffff1673ffffffffffffffffffffffffffffffffffffffff1681526020019081526020016000205461341790919063ffffffff16565b600e60003373ffffffffffffffffffffffffffffffffffffffff1673ffffffffffffffffffffffffffffffffffffffff168152602001908152602001600020819055503373ffffffffffffffffffffffffffffffffffffffff166108fc849081150290604051600060405180830381858888f19350505050158015611e41573d6000803e3d6000fd5b505b505050565b6001600c600083815260200190815260200160002060050160156101000a81548160ff0219169083151502179055507f7794351528fe7be520769ebfe19d7275d2a0ecb197e1bbc23afa224134887ba2600a546040518082815260200191505060405180910390a150565b611ebd8282612d91565b5050565b6000611ed7826002612f4990919063ffffffff16565b9050919050565b60606000600c600084815260200190815260200160002090506060816003018054600181600116156101000203166002900480601f016020809104026020016040519081016040528092919081815260200182805460018160011615610100020316600290048015611f915780601f10611f6657610100808354040283529160200191611f91565b820191906000526020600020905b815481529060010190602001808311611f7457829003601f168201915b505050505090508092505050919050565b611ff86001600760008473ffffffffffffffffffffffffffffffffffffffff1673ffffffffffffffffffffffffffffffffffffffff16815260200190815260200160002060050154612ebf90919063ffffffff16565b600760008373ffffffffffffffffffffffffffffffffffffffff1673ffffffffffffffffffffffffffffffffffffffff1681526020019081526020016000206005018190555050565b600080600c600084815260200190815260200160002090506000816007015490508092505050919050565b6001600c600083815260200190815260200160002060050160146101000a81548160ff0219169083151502179055507f60bd4c6e468dd35d1c78b03ddc704f2f270ad2ed13b45bf571438f433db9b8f7600a546040518082815260200191505060405180910390a150565b6120df614ba9565b600760008473ffffffffffffffffffffffffffffffffffffffff1673ffffffffffffffffffffffffffffffffffffffff16815260200190815260200160002060c060405190810160405290816000820154815260200160018201548152602001600282015481526020016003820154815260200160048201548152602001600582015481525050905081816000018181525050505050565b6001600c600083815260200190815260200160002060050160166101000a81548160ff0219169083151502179055507fe95591b999a8fa4c23f2d0b426271960c193b5eb71cef3bc673ac5be6cb60df4600a546040518082815260200191505060405180910390a150565b600060011515841515141561233e576000600160008573ffffffffffffffffffffffffffffffffffffffff1673ffffffffffffffffffffffffffffffffffffffff16815260200190815260200160002060000154111561229e5761229160018060008673ffffffffffffffffffffffffffffffffffffffff1673ffffffffffffffffffffffffffffffffffffffff1681526020019081526020016000206000015461341790919063ffffffff16565b905061229d83826134a2565b5b6122f360018060008673ffffffffffffffffffffffffffffffffffffffff1673ffffffffffffffffffffffffffffffffffffffff16815260200190815260200160002060030154612ebf90919063ffffffff16565b600160008573ffffffffffffffffffffffffffffffffffffffff1673ffffffffffffffffffffffffffffffffffffffff168152602001908152602001600020600301819055506124a2565b600115158515151415612394576123756001600c600085815260200190815260200160002060060154612ebf90919063ffffffff16565b600c6000848152602001908152602001600020600601819055506123d9565b6123be6001600c600085815260200190815260200160002060070154612ebf90919063ffffffff16565b600c6000848152602001908152602001600020600701819055505b612495600160008573ffffffffffffffffffffffffffffffffffffffff1673ffffffffffffffffffffffffffffffffffffffff16815260200190815260200160002060000154600c600085815260200190815260200160002060060154600c600086815260200190815260200160002060070154600160008873ffffffffffffffffffffffffffffffffffffffff1673ffffffffffffffffffffffffffffffffffffffff168152602001908152602001600020600201546134b0565b90506124a183826134a2565b5b5050505050565b60006124b3613557565b905090565b60096020528060005260406000206000915054906101000a900473ffffffffffffffffffffffffffffffffffffffff1681565b6124f433611ec1565b1515612568576040517f08c379a00000000000000000000000000000000000000000000000000000000081526004018080602001828103825260168152602001807f43616c6c6572206973206e6f742061205265616465720000000000000000000081525060200191505060405180910390fd5b600360003373ffffffffffffffffffffffffffffffffffffffff1673ffffffffffffffffffffffffffffffffffffffff168152602001908152602001600020600101548211151515612648576040517f08c379a00000000000000000000000000000000000000000000000000000000081526004018080602001828103825260288152602001807f496e73756666696369656e742066756e647320746f206368616c6c656e67652081526020017f61727469636c652e00000000000000000000000000000000000000000000000081525060400191505060405180910390fd5b6000600c600083815260200190815260200160002060000160009054906101000a900473ffffffffffffffffffffffffffffffffffffffff16905061269082828686336127f2565b61269c82600454613561565b50505050565b6126ac8282612e86565b5050565b6126da6001600c600084815260200190815260200160002060070154612ebf90919063ffffffff16565b600c6000838152602001908152602001600020600701819055507fd1ff0de57853f81f969355a26960199cd8211f9d274c6c552a148053125b4611600a546040518082815260200191505060405180910390a150565b600061273b8261368e565b9050919050565b61274b336136c2565b565b60606000806000606061275f86611ede565b9050600061276c87612e94565b90506000612779886127b0565b9050600061278689612041565b9050838383839750975097509750505050509193509193565b6127a83361371c565b565b60085481565b600080600c600084815260200190815260200160002090506000816006015490508092505050919050565b6000600d60149054906101000a900460ff16905090565b6128086001600454612ebf90919063ffffffff16565b60048190555060c0604051908101604052808681526020018573ffffffffffffffffffffffffffffffffffffffff1681526020018273ffffffffffffffffffffffffffffffffffffffff168152602001848152602001838152602001600015158152506005600060045481526020019081526020016000206000820151816000015560208201518160010160006101000a81548173ffffffffffffffffffffffffffffffffffffffff021916908373ffffffffffffffffffffffffffffffffffffffff16021790555060408201518160020160006101000a81548173ffffffffffffffffffffffffffffffffffffffff021916908373ffffffffffffffffffffffffffffffffffffffff160217905550606082015181600301556080820151816004015560a08201518160050160006101000a81548160ff0219169083151502179055509050506129a56001600360008473ffffffffffffffffffffffffffffffffffffffff1673ffffffffffffffffffffffffffffffffffffffff16815260200190815260200160002060020154612ebf90919063ffffffff16565b600360008373ffffffffffffffffffffffffffffffffffffffff1673ffffffffffffffffffffffffffffffffffffffff168152602001908152602001600020600201819055506000600360008373ffffffffffffffffffffffffffffffffffffffff1673ffffffffffffffffffffffffffffffffffffffff1681526020019081526020016000206003016000600454815260200190815260200160002060006101000a81548160ff0219169083151502179055507f71658dcd30af2516252b609c834023d8729aab62422a55f9559c3c854f3a880381600454604051808373ffffffffffffffffffffffffffffffffffffffff1673ffffffffffffffffffffffffffffffffffffffff1681526020018281526020019250505060405180910390a15050505050565b60045481565b600160003373ffffffffffffffffffffffffffffffffffffffff1673ffffffffffffffffffffffffffffffffffffffff16815260200190815260200160002060040181908060018154018082558091505090600182039060005260206000200160009091929091909150555050565b612b4b336114ed565b1515612bbf576040517f08c379a000000000000000000000000000000000000000000000000000000000815260040180806020018281038252601b8152602001807f43616c6c6572206973206e6f74206120436f6e7472696275746f72000000000081525060200191505060405180910390fd5b600160003373ffffffffffffffffffffffffffffffffffffffff1673ffffffffffffffffffffffffffffffffffffffff168152602001908152602001600020600101548111151515612cc5576040517f08c379a00000000000000000000000000000000000000000000000000000000081526004018080602001828103825260598152602001807f496e73756666696369656e742066756e647320746f207075626c69736820617281526020017f7469636c652e20416d6f756e74207374616b65642073686f756c64206265206c81526020017f657373207468616e206163636f756e742062616c616e63652e0000000000000081525060600191505060405180910390fd5b6000612cd5338787878787611720565b9050612ce081612ad3565b612cea8133613776565b505050505050565b612d486001600760008473ffffffffffffffffffffffffffffffffffffffff1673ffffffffffffffffffffffffffffffffffffffff16815260200190815260200160002060040154612ebf90919063ffffffff16565b600760008373ffffffffffffffffffffffffffffffffffffffff1673ffffffffffffffffffffffffffffffffffffffff1681526020019081526020016000206004018190555050565b612d9b828261388a565b5050565b612da9828261392c565b5050565b612e0260018060003373ffffffffffffffffffffffffffffffffffffffff1673ffffffffffffffffffffffffffffffffffffffff16815260200190815260200160002060030154612ebf90919063ffffffff16565b600160003373ffffffffffffffffffffffffffffffffffffffff1673ffffffffffffffffffffffffffffffffffffffff16815260200190815260200160002060030181905550565b612e53336139ce565b565b612e5f8282612d9f565b5050565b60105481565b6000612e7f826006612f4990919063ffffffff16565b9050919050565b612e908282613a28565b5050565b600080600c600084815260200190815260200160002090506000816004015490508092505050919050565b6000808284019050838110151515612f3f576040517f08c379a000000000000000000000000000000000000000000000000000000000815260040180806020018281038252601b8152602001807f536166654d6174683a206164646974696f6e206f766572666c6f77000000000081525060200191505060405180910390fd5b8091505092915050565b60008073ffffffffffffffffffffffffffffffffffffffff168273ffffffffffffffffffffffffffffffffffffffff1614151515613015576040517f08c379a00000000000000000000000000000000000000000000000000000000081526004018080602001828103825260228152602001807f526f6c65733a206163636f756e7420697320746865207a65726f20616464726581526020017f737300000000000000000000000000000000000000000000000000000000000081525060400191505060405180910390fd5b8260000160008373ffffffffffffffffffffffffffffffffffffffff1673ffffffffffffffffffffffffffffffffffffffff16815260200190815260200160002060009054906101000a900460ff16905092915050565b60016005600084815260200190815260200160002060050160006101000a81548160ff02191690831515021790555060006005600084815260200190815260200160002060010160009054906101000a900473ffffffffffffffffffffffffffffffffffffffff16905061312b60018060008473ffffffffffffffffffffffffffffffffffffffff1673ffffffffffffffffffffffffffffffffffffffff16815260200190815260200160002060030154612ebf90919063ffffffff16565b600160008373ffffffffffffffffffffffffffffffffffffffff1673ffffffffffffffffffffffffffffffffffffffff1681526020019081526020016000206003018190555060006005600085815260200190815260200160002060020160009054906101000a900473ffffffffffffffffffffffffffffffffffffffff1690506001600360008373ffffffffffffffffffffffffffffffffffffffff1673ffffffffffffffffffffffffffffffffffffffff168152602001908152602001600020600301600086815260200190815260200160002060006101000a81548160ff0219169083151502179055506000600560008681526020019081526020016000206000015490506000600c600083815260200190815260200160002060080154905061325c848487846001613b45565b61326a6000600186856121e2565b6132748387614262565b6000600c600084815260200190815260200160002060050160009054906101000a900473ffffffffffffffffffffffffffffffffffffffff1690506132b881611fa2565b6132c38160016143a6565b50505050505050565b60006005600084815260200190815260200160002060020160009054906101000a900473ffffffffffffffffffffffffffffffffffffffff1690506000600560008581526020019081526020016000206000015490506000600c600083815260200190815260200160002060050160009054906101000a900473ffffffffffffffffffffffffffffffffffffffff16905060006005600087815260200190815260200160002060010160009054906101000a900473ffffffffffffffffffffffffffffffffffffffff16905060006005600088815260200190815260200160002060050160006101000a81548160ff0219169083151502179055506000600560008881526020019081526020016000206004015490506133f0828688846000613b45565b6133fa8588614262565b61340383612cf2565b61340e8360006143a6565b50505050505050565b6000828211151515613491576040517f08c379a000000000000000000000000000000000000000000000000000000000815260040180806020018281038252601e8152602001807f536166654d6174683a207375627472616374696f6e206f766572666c6f77000081525060200191505060405180910390fd5b600082840390508091505092915050565b6134ac82826144fb565b5050565b6000806134c68486612ebf90919063ffffffff16565b905060006134f060056134e284896145df90919063ffffffff16565b61467290919063ffffffff16565b9050600061350860018661341790919063ffffffff16565b905061351d888261467290919063ffffffff16565b90506135328282612ebf90919063ffffffff16565b905061354785826145df90919063ffffffff16565b9050809350505050949350505050565b6000600a54905090565b6135776001601054612ebf90919063ffffffff16565b601081905550613585614be0565b6000600190505b600481101561362657600960006135a28361473f565b815260200190815260200160002060009054906101000a900473ffffffffffffffffffffffffffffffffffffffff1682600183036003811015156135e257fe5b602002019073ffffffffffffffffffffffffffffffffffffffff16908173ffffffffffffffffffffffffffffffffffffffff1681525050808060010191505061358c565b5080600f6000601054815260200190815260200160002060020190600361364e929190614c03565b5082600f600060105481526020019081526020016000206000018190555081600f6000601054815260200190815260200160002060010181905550505050565b600060011515600c600084815260200190815260200160002060050160159054906101000a900460ff161515149050919050565b6136d68160026147e990919063ffffffff16565b8073ffffffffffffffffffffffffffffffffffffffff167fe933431644458f1217f9e93d3e000e03c9bbbe55761046d0985c2e4d157bcbaa60405160405180910390a250565b6137308160006147e990919063ffffffff16565b8073ffffffffffffffffffffffffffffffffffffffff167f665b9b7911d6a3e5a789e2be1ed4f9ffa84c1259e3b89675234719521112219160405160405180910390a250565b600060096000613786600161473f565b815260200190815260200160002060009054906101000a900473ffffffffffffffffffffffffffffffffffffffff1690505b8173ffffffffffffffffffffffffffffffffffffffff168173ffffffffffffffffffffffffffffffffffffffff16141561383057600960006137fa600161473f565b815260200190815260200160002060009054906101000a900473ffffffffffffffffffffffffffffffffffffffff1690506137b8565b80600c600085815260200190815260200160002060050160006101000a81548173ffffffffffffffffffffffffffffffffffffffff021916908373ffffffffffffffffffffffffffffffffffffffff160217905550505050565b61389e8260006148eb90919063ffffffff16565b80600160008473ffffffffffffffffffffffffffffffffffffffff1673ffffffffffffffffffffffffffffffffffffffff168152602001908152602001600020600101819055508173ffffffffffffffffffffffffffffffffffffffff167f07681ffd9d424587412481b41d2ee582bb7bca757f626b0477051f302947027260405160405180910390a25050565b6139408260026148eb90919063ffffffff16565b80600360008473ffffffffffffffffffffffffffffffffffffffff1673ffffffffffffffffffffffffffffffffffffffff168152602001908152602001600020600101819055508173ffffffffffffffffffffffffffffffffffffffff167fb7724d890d2888af5a3fc456edb667e2c82c4441449ebcac301c618759e4f86d60405160405180910390a25050565b6139e28160066147e990919063ffffffff16565b8073ffffffffffffffffffffffffffffffffffffffff167fe1434e25d6611e0db941968fdc97811c982ac1602e951637d206f5fdda9dd8f160405160405180910390a250565b613a3c8260066148eb90919063ffffffff16565b80600760008473ffffffffffffffffffffffffffffffffffffffff1673ffffffffffffffffffffffffffffffffffffffff16815260200190815260200160002060010181905550613a996001600854612ebf90919063ffffffff16565b6008819055508160096000600854815260200190815260200160002060006101000a81548173ffffffffffffffffffffffffffffffffffffffff021916908373ffffffffffffffffffffffffffffffffffffffff160217905550613afe8260026120d7565b8173ffffffffffffffffffffffffffffffffffffffff167fe366c1c0452ed8eec96861e9e54141ebff23c9ec89fe27b996b45f5ec388498760405160405180910390a25050565b613b4d614be0565b600f6000858152602001908152602001600020600201600380602002604051908101604052809291908260038015613bd0576020028201915b8160009054906101000a900473ffffffffffffffffffffffffffffffffffffffff1673ffffffffffffffffffffffffffffffffffffffff1681526020019060010190808311613b86575b505050505090506000613bed6004856145df90919063ffffffff16565b90506000600190505b600381111515613d8557613c6782600760008685600381101515613c1657fe5b602002015173ffffffffffffffffffffffffffffffffffffffff1673ffffffffffffffffffffffffffffffffffffffff16815260200190815260200160002060010154612ebf90919063ffffffff16565b600760008584600381101515613c7957fe5b602002015173ffffffffffffffffffffffffffffffffffffffff1673ffffffffffffffffffffffffffffffffffffffff16815260200190815260200160002060010181905550613d2382600e60008685600381101515613cd557fe5b602002015173ffffffffffffffffffffffffffffffffffffffff1673ffffffffffffffffffffffffffffffffffffffff16815260200190815260200160002054612ebf90919063ffffffff16565b600e60008584600381101515613d3557fe5b602002015173ffffffffffffffffffffffffffffffffffffffff1673ffffffffffffffffffffffffffffffffffffffff168152602001908152602001600020819055508080600101915050613bf6565b50600115158315151415613ff857613de884600160008a73ffffffffffffffffffffffffffffffffffffffff1673ffffffffffffffffffffffffffffffffffffffff1681526020019081526020016000206001015461341790919063ffffffff16565b600160008973ffffffffffffffffffffffffffffffffffffffff1673ffffffffffffffffffffffffffffffffffffffff16815260200190815260200160002060010181905550613e8084600e60008a73ffffffffffffffffffffffffffffffffffffffff1673ffffffffffffffffffffffffffffffffffffffff1681526020019081526020016000205461341790919063ffffffff16565b600e60008973ffffffffffffffffffffffffffffffffffffffff1673ffffffffffffffffffffffffffffffffffffffff16815260200190815260200160002081905550613f1581600e60008973ffffffffffffffffffffffffffffffffffffffff1673ffffffffffffffffffffffffffffffffffffffff16815260200190815260200160002054612ebf90919063ffffffff16565b600e60008873ffffffffffffffffffffffffffffffffffffffff1673ffffffffffffffffffffffffffffffffffffffff16815260200190815260200160002081905550613fad81600360008973ffffffffffffffffffffffffffffffffffffffff1673ffffffffffffffffffffffffffffffffffffffff16815260200190815260200160002060010154612ebf90919063ffffffff16565b600360008873ffffffffffffffffffffffffffffffffffffffff1673ffffffffffffffffffffffffffffffffffffffff16815260200190815260200160002060010181905550614259565b61404a84600e60008973ffffffffffffffffffffffffffffffffffffffff1673ffffffffffffffffffffffffffffffffffffffff1681526020019081526020016000205461341790919063ffffffff16565b600e60008873ffffffffffffffffffffffffffffffffffffffff1673ffffffffffffffffffffffffffffffffffffffff168152602001908152602001600020819055506140e284600360008973ffffffffffffffffffffffffffffffffffffffff1673ffffffffffffffffffffffffffffffffffffffff1681526020019081526020016000206001015461341790919063ffffffff16565b600360008873ffffffffffffffffffffffffffffffffffffffff1673ffffffffffffffffffffffffffffffffffffffff1681526020019081526020016000206001018190555061417d81600160008a73ffffffffffffffffffffffffffffffffffffffff1673ffffffffffffffffffffffffffffffffffffffff16815260200190815260200160002060010154612ebf90919063ffffffff16565b600160008973ffffffffffffffffffffffffffffffffffffffff1673ffffffffffffffffffffffffffffffffffffffff1681526020019081526020016000206001018190555061421581600e60008a73ffffffffffffffffffffffffffffffffffffffff1673ffffffffffffffffffffffffffffffffffffffff16815260200190815260200160002054612ebf90919063ffffffff16565b600e60008973ffffffffffffffffffffffffffffffffffffffff1673ffffffffffffffffffffffffffffffffffffffff168152602001908152602001600020819055505b50505050505050565b6000600360008473ffffffffffffffffffffffffffffffffffffffff1673ffffffffffffffffffffffffffffffffffffffff1681526020019081526020016000206000015490506000600360008573ffffffffffffffffffffffffffffffffffffffff1673ffffffffffffffffffffffffffffffffffffffff168152602001908152602001600020600201549050600080600190505b82811115156143845760011515600360008873ffffffffffffffffffffffffffffffffffffffff1673ffffffffffffffffffffffffffffffffffffffff168152602001908152602001600020600301600087815260200190815260200160002060009054906101000a900460ff16151514156143775781806001019250505b80806001019150506142f8565b5060006143928483856149c8565b905061439e8682614a56565b505050505050565b600080600760008573ffffffffffffffffffffffffffffffffffffffff1673ffffffffffffffffffffffffffffffffffffffff168152602001908152602001600020600001549050600080614488600760008873ffffffffffffffffffffffffffffffffffffffff1673ffffffffffffffffffffffffffffffffffffffff16815260200190815260200160002060040154600760008973ffffffffffffffffffffffffffffffffffffffff1673ffffffffffffffffffffffffffffffffffffffff1681526020019081526020016000206005015461341790919063ffffffff16565b905060008111156144e4576001151585151514156144bb576144b460018261341790919063ffffffff16565b91506144d2565b6144cf600182612ebf90919063ffffffff16565b91505b6144dd838383614a64565b93506144e9565b600093505b6144f38685614a99565b505050505050565b614503614c80565b600160008473ffffffffffffffffffffffffffffffffffffffff1673ffffffffffffffffffffffffffffffffffffffff16815260200190815260200160002060a0604051908101604052908160008201548152602001600182015481526020016002820154815260200160038201548152602001600482018054806020026020016040519081016040528092919081815260200182805480156145c557602002820191906000526020600020905b8154815260200190600101908083116145b1575b505050505081525050905081816000018181525050505050565b60008082111515614658576040517f08c379a000000000000000000000000000000000000000000000000000000000815260040180806020018281038252601a8152602001807f536166654d6174683a206469766973696f6e206279207a65726f00000000000081525060200191505060405180910390fd5b6000828481151561466557fe5b0490508091505092915050565b6000808314156146855760009050614739565b6000828402905082848281151561469857fe5b04141515614734576040517f08c379a00000000000000000000000000000000000000000000000000000000081526004018080602001828103825260218152602001807f536166654d6174683a206d756c7469706c69636174696f6e206f766572666c6f81526020017f770000000000000000000000000000000000000000000000000000000000000081525060400191505060405180910390fd5b809150505b92915050565b60008060085490506000423385604051602001808481526020018373ffffffffffffffffffffffffffffffffffffffff1673ffffffffffffffffffffffffffffffffffffffff166c0100000000000000000000000002815260140182815260200193505050506040516020818303038152906040528051906020012060019004905060006147d683836145df90919063ffffffff16565b9050600081905080945050505050919050565b6147f38282612f49565b151561488d576040517f08c379a00000000000000000000000000000000000000000000000000000000081526004018080602001828103825260218152602001807f526f6c65733a206163636f756e7420646f6573206e6f74206861766520726f6c81526020017f650000000000000000000000000000000000000000000000000000000000000081525060400191505060405180910390fd5b60008260000160008373ffffffffffffffffffffffffffffffffffffffff1673ffffffffffffffffffffffffffffffffffffffff16815260200190815260200160002060006101000a81548160ff0219169083151502179055505050565b6148f58282612f49565b15151561496a576040517f08c379a000000000000000000000000000000000000000000000000000000000815260040180806020018281038252601f8152602001807f526f6c65733a206163636f756e7420616c72656164792068617320726f6c650081525060200191505060405180910390fd5b60018260000160008373ffffffffffffffffffffffffffffffffffffffff1673ffffffffffffffffffffffffffffffffffffffff16815260200190815260200160002060006101000a81548160ff0219169083151502179055505050565b6000806149f160056149e385876145df90919063ffffffff16565b61467290919063ffffffff16565b90506000614a0960018561341790919063ffffffff16565b9050614a1e868261467290919063ffffffff16565b9050614a338282612ebf90919063ffffffff16565b9050614a4884826145df90919063ffffffff16565b905080925050509392505050565b614a608282614aa7565b5050565b600080614a8c84614a7e858861467290919063ffffffff16565b6145df90919063ffffffff16565b9050809150509392505050565b614aa382826120d7565b5050565b614aaf614cb0565b600360008473ffffffffffffffffffffffffffffffffffffffff1673ffffffffffffffffffffffffffffffffffffffff168152602001908152602001600020606060405190810160405290816000820154815260200160018201548152602001600282015481525050905081816000018181525050505050565b828054600181600116156101000203166002900490600052602060002090601f016020900481019282601f10614b6a57805160ff1916838001178555614b98565b82800160010185558215614b98579182015b82811115614b97578251825591602001919060010190614b7c565b5b509050614ba59190614cd2565b5090565b60c0604051908101604052806000815260200160008152602001600081526020016000815260200160008152602001600081525090565b606060405190810160405280600390602082028038833980820191505090505090565b8260038101928215614c6f579160200282015b82811115614c6e5782518260006101000a81548173ffffffffffffffffffffffffffffffffffffffff021916908373ffffffffffffffffffffffffffffffffffffffff16021790555091602001919060010190614c16565b5b509050614c7c9190614cf7565b5090565b60a06040519081016040528060008152602001600081526020016000815260200160008152602001606081525090565b6060604051908101604052806000815260200160008152602001600081525090565b614cf491905b80821115614cf0576000816000905550600101614cd8565b5090565b90565b614d3791905b80821115614d3357600081816101000a81549073ffffffffffffffffffffffffffffffffffffffff021916905550600101614cfd565b5090565b9056fea165627a7a72305820de1add1410d2e63e9c695a42cd569db90223d25682ac16dc924e9b056ba358fc0029",
  "source": "pragma solidity >=0.4.21 <0.6.0;\nimport \"./accessControl/ContributorRole.sol\";\nimport \"./accessControl/ReaderRole.sol\";\nimport \"./accessControl/ValidatorRole.sol\";\nimport \"./Article.sol\";\n// Import the library 'Roles' and SafeMath\nimport \"../node_modules/openzeppelin-solidity/contracts/math/SafeMath.sol\";\n\n\ncontract Honestmedia is ContributorRole, ReaderRole, ValidatorRole, Article  {\n    using SafeMath for uint;\n\n\taddress owner;\n\n\t//check if contract operational\n    bool private operational = true;\n\n    //variables to define minimum funding amounts for validators and contributors.\n    //These should be checked when adding new actors.\n    uint constant MIN_FUNDING_VALIDATOR = 1 ether; //we can decide a different amount\n    uint constant MIN_FUNDING_CONTRIBUTOR = 2 ether; //we can decide a different amount\n\n    //mapping to store available withdrawals\n    mapping(address => uint) availableWithdrawls;\n\n    //Struct to store ruling\n    struct ruling {\n        uint articleId;\n        uint challengeId;\n        address[3] validators;\n        bool[3] votes;\n        uint voted;\n    }\n\n    //Mapping to save ruling for challenges\n    mapping(uint => ruling) allRulings;\n\n    //Variable to save totalRulings\n    uint public totalRulings;\n\n\tconstructor() public {\n        owner = msg.sender;\n    }\n\n     modifier requireIsOperational() {\n        require(operational, \"Contract is currently not operational\");\n        _;  // All modifiers require an \"_\" which indicates where the function body will be added\n    }\n\n    modifier requireContractOwner() {\n        require((msg.sender == owner), \"Caller is not admin\");\n        _;\n    }\n\n    function isOperational() \n                            public \n                            view \n                            returns(bool) {\n        return operational;\n    }\n\n    function setOperatingStatus\n                            (\n                                bool mode\n                            ) \n                            external\n                            requireContractOwner {\n        operational = mode;\n    }\n\n    //add contributor\n    function registerContributor(address _address, uint _fund) external {\n        ContributorRole.addContributor(_address, _fund);\n    }\n\n    //add reader\n    function registerReader(address _address, uint _fund) external {\n        ReaderRole.addReader(_address, _fund);\n    }\n\n    //add validator\n    function registerValidator(address _address, uint _fund) external {\n        ValidatorRole.addValidator(_address, _fund);\n    }\n\n    //seting ranking\n    function setContributorRating(address _address, uint rank) internal {\n    \tContributorRole.setRating(_address, rank);\n    }\n\n    function setReaderRating(address _address, uint rank) internal {\n    \tReaderRole.setRating(_address, rank);\n    }\n\n    function setValidatorRating(address _address, uint rank) internal {\n    \tValidatorRole.setRating(_address, rank);\n    }\n\n    //Function to store the article etc\n    function addArticle(bytes32 _ipfsArticleHash, bytes32 _ipfsReferenceHash, string memory _title,\n                        uint _datePublished, uint _stake) public onlyContributor\n    {\n        //Check if Amount staked is greater than balance of contributor\n        require(_stake <= ContributorRole.allContributors[msg.sender].balance,\n                         \"Insufficient funds to publish article. Amount staked should be less than account balance.\");\n        uint articleNum = Article.add(msg.sender, _ipfsArticleHash, _ipfsReferenceHash, _title, _datePublished, _stake);\n        //ContributorRole.allContributors[msg.sender].articles.push(articleNum);\n        ContributorRole.addArticle(articleNum);\n        assignValidator(articleNum, msg.sender);\n    }\n\n    //function get the number of all articles\n    function getNumberOfArticles() public view returns (uint noOfArticles){\n        return Article.getNumberOfArticles();\n    }\n\n      //Define a function if article is challenged\n      function isArticleChallenged(uint articleNumber) public view returns (bool isChallenged){\n        return Article.isArticleChallenged(articleNumber);\n      }\n\n    //function to get the list of all the articles' titles\n    function getArticle(uint _articleNumber) public view returns (string memory title, uint datePublished, uint upvotes, uint downvotes){\n        string memory articleTitle = Article.getArticleTitle(_articleNumber);\n        uint articleDatePublished = Article.getArticleDatePublished(_articleNumber);\n        uint articleUpvotes = Article.getArticleUpvotes(_articleNumber);\n        uint articleDownvotes = Article.getArticleDownvotes(_articleNumber);\n        return (articleTitle, articleDatePublished, articleUpvotes, articleDownvotes);\n    }\n\n    //Assign validator to approve article\n    function assignValidator(uint articleId, address contributor) internal {\n        //check to see if random validator is also contributor\n        address randomValidator = ValidatorRole.validatorIds[random(1)];\n        while (randomValidator == contributor){\n           randomValidator = ValidatorRole.validatorIds[random(1)];\n        }\n        Article.allArticles[articleId].validator = randomValidator;\n    }\n\n\n    //approve article\n    function approve(uint articleId) internal onlyValidator {\n        require(Article.allArticles[articleId].validator == msg.sender, \"Validator not authorised\");\n        Article.allArticles[articleId].approved = true;\n    }\n\n    //Function to update rating for Contributors\n    function updateContributorRating(bool vote, bool challengeLost, address _contributor, uint articleId) public {\n        uint newRating;\n\n        //change rating after challenge lost\n        if(challengeLost == true){\n            if(ContributorRole.allContributors[_contributor].rating > 0){\n                newRating = ContributorRole.allContributors[_contributor].rating.sub(1);\n                setContributorRating(_contributor, newRating);\n            }\n            ContributorRole.allContributors[_contributor].challengesLost = ContributorRole.allContributors[_contributor].challengesLost.add(1);\n        }else {\n        //change rating after reader vote\n            if(vote == true){\n                Article.allArticles[articleId].upVotes = Article.allArticles[articleId].upVotes.add(1);\n            }else {\n                Article.allArticles[articleId].downVotes = Article.allArticles[articleId].downVotes.add(1);\n            }\n            newRating = contributorRatingCalculator(ContributorRole.allContributors[_contributor].rating, Article.allArticles[articleId].upVotes,\n                                                        Article.allArticles[articleId].downVotes, ContributorRole.allContributors[_contributor].articlesPublished);\n            setContributorRating(_contributor, newRating);\n        }\n    }\n\n    //Function to update reader's rating\n    function updateReaderRating(address reader, uint challengeId) internal {\n        uint currentRating = ReaderRole.allReaders[reader].rating;\n        uint totalChallenges = ReaderRole.allReaders[reader].numOfChallenges;\n        uint successful;\n        for(uint i = 1; i <= totalChallenges; i++){\n            if(ReaderRole.allReaders[reader].challenges[challengeId] == true )\n                successful++;\n        }\n        uint newRating = readerRatingCalculator(currentRating, successful, totalChallenges);\n        setReaderRating(reader, newRating);\n    }\n\n    //Function to update validator's rating\n    function updateValidatorRating(address validator, bool result) internal {\n        uint newRating;\n        uint currentRating = ValidatorRole.allValidators[validator].rating;\n        uint prevDiff;\n        uint newDiff = ValidatorRole.allValidators[validator].challengesWon.sub(ValidatorRole.allValidators[validator].challengesLost);\n        if (newDiff > 0){\n            if(result == true) {\n                prevDiff = newDiff.sub(1);\n            }else {\n                prevDiff = newDiff.add(1);\n            }\n            newRating = validatorRatingCalculator(currentRating, prevDiff, newDiff);\n        }else {\n            newRating = 0;\n        }\n        setValidatorRating(validator, newRating);\n    }\n\n    //Function to calculate rating for Contributors\n    function contributorRatingCalculator(uint currentRating, uint upVotes, uint downVotes, uint articles) internal pure returns(uint){\n        uint totalRatings = upVotes.add(downVotes);\n        uint recentRating = upVotes.div(totalRatings).mul(5);\n        uint newRating = articles.sub(1);\n        newRating = newRating.mul(currentRating);\n        newRating = newRating.add(recentRating);\n        newRating = newRating.div(articles);\n        return newRating;\n    }\n\n    //Function to calculate rating for Readers\n    function readerRatingCalculator(uint currentRating, uint successful, uint totalChallenges) internal pure returns(uint){\n        uint recentRating = successful.div(totalChallenges).mul(5);\n        uint newRating = totalChallenges.sub(1);\n        newRating = newRating.mul(currentRating);\n        newRating = newRating.add(recentRating);\n        newRating = newRating.div(totalChallenges);\n        return newRating;\n    }\n\n    //Function to calculate rating for Validators\n    function validatorRatingCalculator(uint currentRating, uint prevDiff, uint newDiff) internal pure returns(uint){\n        uint newRating = currentRating.mul(newDiff).div(prevDiff);\n        return newRating;\n    }\n\n    //Function to challenge an article\n    function challengeArticle(bytes32 proofHash, uint stake, uint articleId) external onlyReader {\n        //Check if Amount staked is greater than balance of Reader\n        require(stake <= ReaderRole.allReaders[msg.sender].balance, \"Insufficient funds to challenge article.\");\n        address contributor = Article.allArticles[articleId].contributor;\n        ReaderRole.challenge(articleId, contributor, proofHash, stake, msg.sender);\n        assignValidators(articleId, ReaderRole.totalChallenges);\n    }\n\n    //function to find random validators to vote on challenge\n    function assignValidators(uint _articleId, uint _challengeId) internal {\n        totalRulings = totalRulings.add(1);\n        address[3] memory validators;\n        for(uint i = 1; i < 4; i++)\n        {\n            validators[i-1] = ValidatorRole.validatorIds[random(i)];\n        }\n        allRulings[totalRulings].validators = validators;\n        allRulings[totalRulings].articleId = _articleId;\n        allRulings[totalRulings].challengeId = _challengeId;\n    }\n\n    //Random number generator\n    function random(uint nonce) internal view returns (uint) {\n        uint MAX = ValidatorRole.totalValidators;\n        uint seed = uint(keccak256(abi.encodePacked(now, msg.sender, nonce)));\n        uint scaled = seed.div(MAX);\n        uint adjusted = scaled;\n        return adjusted;\n    }\n\n    //function to register validator votes on challenge. Will also check if 2 of 3 consensus is reached\n    function voteOnChallenge(uint rulingId, bool vote, uint challengeId) external onlyValidator {\n        uint numOfYesVotes;\n        for(uint i = 0; i < 3; i++){\n            if (allRulings[rulingId].validators[i] == msg.sender) {\n                allRulings[rulingId].votes[i] = vote;\n                allRulings[rulingId].voted++;\n            }\n            if(allRulings[rulingId].votes[i] == true)\n                numOfYesVotes++;\n        }\n        if(numOfYesVotes >= 2){\n            //Challenge is successful if 2 out of 3 validators vote yes\n            challengeSuccessful(challengeId, rulingId);\n        }else\n        {\n            //Check to see if all 3 validators have voted\n            if(allRulings[rulingId].voted == 3) {\n              challengeUnsuccessful(challengeId, rulingId);\n            }\n        }\n    }\n\n    //function called if challenge is sucessful\n    function challengeSuccessful(uint challengeId, uint rulingId) internal {\n        ReaderRole.allChallenges[challengeId].success = true;\n        // update contributor's challenges lost\n        address contributor = ReaderRole.allChallenges[challengeId].contributor;\n        ContributorRole.allContributors[contributor].challengesLost = ContributorRole.allContributors[contributor].challengesLost.add(1);\n        \n        address reader = ReaderRole.allChallenges[challengeId].reader;\n        ReaderRole.allReaders[reader].challenges[challengeId] = true;\n\n        uint articleId = ReaderRole.allChallenges[challengeId].articleId;\n        \n        // Distribute Amount staked by contributor to reader and validators\n        uint amount = Article.allArticles[articleId].stake;\n        divideStake(contributor, reader, rulingId, amount, true);\n\n        // Update Contributor ratings\n        updateContributorRating(false, true, contributor, articleId);\n\n        // Update Reader ratings\n        updateReaderRating(reader, challengeId);\n       \n       // Update Validator ratings\n       address validator = Article.allArticles[articleId].validator;\n       ValidatorRole.updateChallengesWon(validator);\n       updateValidatorRating(validator, true);\n    }\n\n    //function called if challenge is unsucessful\n    function challengeUnsuccessful(uint challengeId, uint rulingId) internal {\n        address reader = ReaderRole.allChallenges[challengeId].reader;\n        uint articleId = ReaderRole.allChallenges[challengeId].articleId;\n        address validator = Article.allArticles[articleId].validator;\n        address contributor = ReaderRole.allChallenges[challengeId].contributor;\n\n        ReaderRole.allChallenges[challengeId].success = false;\n        // Distribute Amount staked by reader to contributor and validators\n        uint amount = ReaderRole.allChallenges[challengeId].stake;\n        divideStake(contributor, reader, rulingId, amount, false);\n\n        // Update Reader ratings\n        updateReaderRating(reader, challengeId);\n       \n       // Update Validator ratings\n       ValidatorRole.updateChallengesLost(validator);\n       updateValidatorRating(validator, false);\n    }\n\n    //Function to divide stake\n    function divideStake(address contributor, address reader, uint rulingId, uint amount, bool success) internal {\n        address[3] memory validators = allRulings[rulingId].validators;\n        uint share = amount.div(4);\n\n        //Reimburse validators\n        for(uint i = 1; i <= 3; i++){\n            ValidatorRole.allValidators[validators[i]].balance = ValidatorRole.allValidators[validators[i]].balance.add(share);\n            availableWithdrawls[validators[i]] = availableWithdrawls[validators[i]].add(share);\n        }\n\n        if(success == true){\n            //Deduct from contributor balance\n            ContributorRole.allContributors[contributor].balance = ContributorRole.allContributors[contributor].balance.sub(amount);\n            availableWithdrawls[contributor] = availableWithdrawls[contributor].sub(amount);\n\n            //Reimburse Reader\n            availableWithdrawls[reader] = availableWithdrawls[reader].add(share);\n            ReaderRole.allReaders[reader].balance = ReaderRole.allReaders[reader].balance.add(share);\n        }else {\n            //Deduct from Reader\n            availableWithdrawls[reader] = availableWithdrawls[reader].sub(amount);\n            ReaderRole.allReaders[reader].balance = ReaderRole.allReaders[reader].balance.sub(amount);\n\n            //Deduct from contributor balance\n            ContributorRole.allContributors[contributor].balance = ContributorRole.allContributors[contributor].balance.add(share);\n            availableWithdrawls[contributor] = availableWithdrawls[contributor].add(share);\n        }\n\n    }\n\n    //function that allows to withdraw funds. For Validators and Contributors their balance should not be less than the minimum funding amount.\n    function withdraw(uint amount) external payable {\n        require(amount <= availableWithdrawls[msg.sender], \"Not enough balance\");\n        bool allow;\n        uint balance;\n        if(ContributorRole.isContributor(msg.sender) == true){\n            balance = ContributorRole.allContributors[msg.sender].balance;\n            balance = balance.sub(amount);\n            require(balance >= MIN_FUNDING_CONTRIBUTOR, \"Insufficient Balance\");\n            allow = true;\n            ContributorRole.allContributors[msg.sender].balance = balance;\n        }\n        if(ValidatorRole.isValidator(msg.sender) == true){\n            balance = ValidatorRole.allValidators[msg.sender].balance;\n            balance = balance.sub(amount);\n            require(balance >= MIN_FUNDING_VALIDATOR, \"Insufficient Balance\");\n            allow = true;\n            ValidatorRole.allValidators[msg.sender].balance = balance;\n        }\n        if(ReaderRole.isReader(msg.sender) == true){\n            allow = true;\n            ReaderRole.allReaders[msg.sender].balance = ReaderRole.allReaders[msg.sender].balance.sub(amount);\n        }\n        if(allow == true){\n            availableWithdrawls[msg.sender] = availableWithdrawls[msg.sender].sub(amount);\n            msg.sender.transfer(amount);\n        }\n    }\n\n    //Fallback function\n    function () external payable {\n    }\n\n\n\n}",
  "sourcePath": "/Users/ringaile/Documents/hackathon/contracts/Honestmedia.sol",
  "compiler": {
    "name": "solc",
    "version": "0.5.0+commit.1d4f565a.Emscripten.clang"
  },
  "schemaVersion": "3.0.5",
  "updatedAt": "2019-07-07T20:13:56.407Z",
  "devdoc": {
    "methods": {}
  },
  "userdoc": {
    "methods": {}
  }
}