{
  "contractName": "Honestmedia",
  "abi": [
    {
      "constant": false,
      "inputs": [
        {
          "name": "articleNumber",
          "type": "uint256"
        }
      ],
      "name": "upVoted",
      "outputs": [],
      "payable": false,
      "stateMutability": "nonpayable",
      "type": "function"
    },
    {
      "constant": false,
      "inputs": [],
      "name": "publish",
      "outputs": [],
      "payable": false,
      "stateMutability": "nonpayable",
      "type": "function"
    },
    {
      "constant": false,
      "inputs": [],
      "name": "ruleOnChallenge",
      "outputs": [],
      "payable": false,
      "stateMutability": "nonpayable",
      "type": "function"
    },
    {
      "constant": false,
      "inputs": [],
      "name": "approve",
      "outputs": [],
      "payable": false,
      "stateMutability": "nonpayable",
      "type": "function"
    },
    {
      "constant": true,
      "inputs": [
        {
          "name": "account",
          "type": "address"
        }
      ],
      "name": "isContributor",
      "outputs": [
        {
          "name": "",
          "type": "bool"
        }
      ],
      "payable": false,
      "stateMutability": "view",
      "type": "function"
    },
    {
      "constant": false,
      "inputs": [
        {
          "name": "articleNumber",
          "type": "uint256"
        }
      ],
      "name": "challenged",
      "outputs": [],
      "payable": false,
      "stateMutability": "nonpayable",
      "type": "function"
    },
    {
      "constant": true,
      "inputs": [
        {
          "name": "account",
          "type": "address"
        }
      ],
      "name": "isReader",
      "outputs": [
        {
          "name": "",
          "type": "bool"
        }
      ],
      "payable": false,
      "stateMutability": "view",
      "type": "function"
    },
    {
      "constant": false,
      "inputs": [
        {
          "name": "articleNumber",
          "type": "uint256"
        }
      ],
      "name": "approved",
      "outputs": [],
      "payable": false,
      "stateMutability": "nonpayable",
      "type": "function"
    },
    {
      "constant": false,
      "inputs": [
        {
          "name": "account",
          "type": "address"
        },
        {
          "name": "ranking",
          "type": "uint256"
        }
      ],
      "name": "setRating",
      "outputs": [],
      "payable": false,
      "stateMutability": "nonpayable",
      "type": "function"
    },
    {
      "constant": false,
      "inputs": [
        {
          "name": "articleNumber",
          "type": "uint256"
        }
      ],
      "name": "removed",
      "outputs": [],
      "payable": false,
      "stateMutability": "nonpayable",
      "type": "function"
    },
    {
      "constant": true,
      "inputs": [
        {
          "name": "",
          "type": "uint256"
        }
      ],
      "name": "validatorIds",
      "outputs": [
        {
          "name": "",
          "type": "address"
        }
      ],
      "payable": false,
      "stateMutability": "view",
      "type": "function"
    },
    {
      "constant": false,
      "inputs": [
        {
          "name": "articleNumber",
          "type": "uint256"
        }
      ],
      "name": "downVoted",
      "outputs": [],
      "payable": false,
      "stateMutability": "nonpayable",
      "type": "function"
    },
    {
      "constant": false,
      "inputs": [],
      "name": "renounceReader",
      "outputs": [],
      "payable": false,
      "stateMutability": "nonpayable",
      "type": "function"
    },
    {
      "constant": false,
      "inputs": [],
      "name": "renounceContributor",
      "outputs": [],
      "payable": false,
      "stateMutability": "nonpayable",
      "type": "function"
    },
    {
      "constant": true,
      "inputs": [],
      "name": "totalValidators",
      "outputs": [
        {
          "name": "",
          "type": "uint256"
        }
      ],
      "payable": false,
      "stateMutability": "view",
      "type": "function"
    },
    {
      "constant": false,
      "inputs": [
        {
          "name": "articleId",
          "type": "uint256"
        },
        {
          "name": "contributor",
          "type": "address"
        },
        {
          "name": "proofHash",
          "type": "bytes32"
        },
        {
          "name": "stake",
          "type": "uint256"
        },
        {
          "name": "account",
          "type": "address"
        }
      ],
      "name": "challenge",
      "outputs": [],
      "payable": false,
      "stateMutability": "nonpayable",
      "type": "function"
    },
    {
      "constant": true,
      "inputs": [],
      "name": "totalChallenges",
      "outputs": [
        {
          "name": "",
          "type": "uint256"
        }
      ],
      "payable": false,
      "stateMutability": "view",
      "type": "function"
    },
    {
      "constant": false,
      "inputs": [
        {
          "name": "account",
          "type": "address"
        },
        {
          "name": "fund",
          "type": "uint256"
        }
      ],
      "name": "addContributor",
      "outputs": [],
      "payable": false,
      "stateMutability": "nonpayable",
      "type": "function"
    },
    {
      "constant": false,
      "inputs": [
        {
          "name": "account",
          "type": "address"
        },
        {
          "name": "funds",
          "type": "uint256"
        }
      ],
      "name": "addReader",
      "outputs": [],
      "payable": false,
      "stateMutability": "nonpayable",
      "type": "function"
    },
    {
      "constant": false,
      "inputs": [],
      "name": "updateChallenge",
      "outputs": [],
      "payable": false,
      "stateMutability": "nonpayable",
      "type": "function"
    },
    {
      "constant": false,
      "inputs": [],
      "name": "renounceValidator",
      "outputs": [],
      "payable": false,
      "stateMutability": "nonpayable",
      "type": "function"
    },
    {
      "constant": true,
      "inputs": [],
      "name": "totalRulings",
      "outputs": [
        {
          "name": "",
          "type": "uint256"
        }
      ],
      "payable": false,
      "stateMutability": "view",
      "type": "function"
    },
    {
      "constant": true,
      "inputs": [
        {
          "name": "account",
          "type": "address"
        }
      ],
      "name": "isValidator",
      "outputs": [
        {
          "name": "",
          "type": "bool"
        }
      ],
      "payable": false,
      "stateMutability": "view",
      "type": "function"
    },
    {
      "constant": false,
      "inputs": [
        {
          "name": "account",
          "type": "address"
        },
        {
          "name": "funds",
          "type": "uint256"
        }
      ],
      "name": "addValidator",
      "outputs": [],
      "payable": false,
      "stateMutability": "nonpayable",
      "type": "function"
    },
    {
      "inputs": [],
      "payable": false,
      "stateMutability": "nonpayable",
      "type": "constructor"
    },
    {
      "anonymous": false,
      "inputs": [
        {
          "indexed": false,
          "name": "aticleNum",
          "type": "uint256"
        }
      ],
      "name": "ArticleAdded",
      "type": "event"
    },
    {
      "anonymous": false,
      "inputs": [
        {
          "indexed": false,
          "name": "aticleNum",
          "type": "uint256"
        }
      ],
      "name": "ArticleRemoved",
      "type": "event"
    },
    {
      "anonymous": false,
      "inputs": [
        {
          "indexed": false,
          "name": "aticleNum",
          "type": "uint256"
        }
      ],
      "name": "ArticleApproved",
      "type": "event"
    },
    {
      "anonymous": false,
      "inputs": [
        {
          "indexed": false,
          "name": "aticleNum",
          "type": "uint256"
        }
      ],
      "name": "ArticleChallenged",
      "type": "event"
    },
    {
      "anonymous": false,
      "inputs": [
        {
          "indexed": false,
          "name": "aticleNum",
          "type": "uint256"
        }
      ],
      "name": "ArticleUpVoted",
      "type": "event"
    },
    {
      "anonymous": false,
      "inputs": [
        {
          "indexed": false,
          "name": "aticleNum",
          "type": "uint256"
        }
      ],
      "name": "ArticleDownVoted",
      "type": "event"
    },
    {
      "anonymous": false,
      "inputs": [
        {
          "indexed": true,
          "name": "account",
          "type": "address"
        }
      ],
      "name": "ValidatorAdded",
      "type": "event"
    },
    {
      "anonymous": false,
      "inputs": [
        {
          "indexed": true,
          "name": "account",
          "type": "address"
        }
      ],
      "name": "ValidatorRemoved",
      "type": "event"
    },
    {
      "anonymous": false,
      "inputs": [
        {
          "indexed": true,
          "name": "account",
          "type": "address"
        }
      ],
      "name": "ReaderAdded",
      "type": "event"
    },
    {
      "anonymous": false,
      "inputs": [
        {
          "indexed": true,
          "name": "account",
          "type": "address"
        }
      ],
      "name": "ReaderRemoved",
      "type": "event"
    },
    {
      "anonymous": false,
      "inputs": [
        {
          "indexed": false,
          "name": "account",
          "type": "address"
        },
        {
          "indexed": false,
          "name": "challengeId",
          "type": "uint256"
        }
      ],
      "name": "ChallengeAdded",
      "type": "event"
    },
    {
      "anonymous": false,
      "inputs": [
        {
          "indexed": true,
          "name": "account",
          "type": "address"
        }
      ],
      "name": "ContributorAdded",
      "type": "event"
    },
    {
      "anonymous": false,
      "inputs": [
        {
          "indexed": true,
          "name": "account",
          "type": "address"
        }
      ],
      "name": "ContributorRemoved",
      "type": "event"
    },
    {
      "constant": true,
      "inputs": [],
      "name": "isOperational",
      "outputs": [
        {
          "name": "",
          "type": "bool"
        }
      ],
      "payable": false,
      "stateMutability": "view",
      "type": "function"
    },
    {
      "constant": false,
      "inputs": [
        {
          "name": "mode",
          "type": "bool"
        }
      ],
      "name": "setOperatingStatus",
      "outputs": [],
      "payable": false,
      "stateMutability": "nonpayable",
      "type": "function"
    },
    {
      "constant": false,
      "inputs": [
        {
          "name": "_address",
          "type": "address"
        },
        {
          "name": "rank",
          "type": "uint256"
        }
      ],
      "name": "setContributorRating",
      "outputs": [],
      "payable": false,
      "stateMutability": "nonpayable",
      "type": "function"
    },
    {
      "constant": false,
      "inputs": [
        {
          "name": "_address",
          "type": "address"
        },
        {
          "name": "rank",
          "type": "uint256"
        }
      ],
      "name": "setReaderRating",
      "outputs": [],
      "payable": false,
      "stateMutability": "nonpayable",
      "type": "function"
    },
    {
      "constant": false,
      "inputs": [
        {
          "name": "_address",
          "type": "address"
        },
        {
          "name": "rank",
          "type": "uint256"
        }
      ],
      "name": "setValidatorRating",
      "outputs": [],
      "payable": false,
      "stateMutability": "nonpayable",
      "type": "function"
    },
    {
      "constant": false,
      "inputs": [
        {
          "name": "_contributor",
          "type": "address"
        },
        {
          "name": "_ipfsArticleHash",
          "type": "bytes32"
        },
        {
          "name": "_ipfsReferenceHash",
          "type": "bytes32"
        },
        {
          "name": "_title",
          "type": "string"
        },
        {
          "name": "_datePublished",
          "type": "uint256"
        },
        {
          "name": "_stake",
          "type": "uint256"
        }
      ],
      "name": "addArticle",
      "outputs": [
        {
          "name": "",
          "type": "uint256"
        }
      ],
      "payable": false,
      "stateMutability": "nonpayable",
      "type": "function"
    },
    {
      "constant": false,
      "inputs": [
        {
          "name": "_ipfsArticleHash",
          "type": "bytes32"
        },
        {
          "name": "_ipfsReferenceHash",
          "type": "bytes32"
        },
        {
          "name": "_title",
          "type": "string"
        },
        {
          "name": "_datePublished",
          "type": "uint256"
        },
        {
          "name": "_stake",
          "type": "uint256"
        },
        {
          "name": "_contributor",
          "type": "address"
        }
      ],
      "name": "addArticle",
      "outputs": [],
      "payable": false,
      "stateMutability": "nonpayable",
      "type": "function"
    },
    {
      "constant": false,
      "inputs": [
        {
          "name": "articleId",
          "type": "uint256"
        }
      ],
      "name": "addArticle",
      "outputs": [],
      "payable": false,
      "stateMutability": "nonpayable",
      "type": "function"
    },
    {
      "constant": false,
      "inputs": [
        {
          "name": "vote",
          "type": "bool"
        },
        {
          "name": "challengeLost",
          "type": "bool"
        },
        {
          "name": "_contributor",
          "type": "address"
        },
        {
          "name": "articleId",
          "type": "uint256"
        }
      ],
      "name": "updateContributorRating",
      "outputs": [],
      "payable": false,
      "stateMutability": "nonpayable",
      "type": "function"
    },
    {
      "constant": false,
      "inputs": [
        {
          "name": "proofHash",
          "type": "bytes32"
        },
        {
          "name": "stake",
          "type": "uint256"
        },
        {
          "name": "articleId",
          "type": "uint256"
        }
      ],
      "name": "challengeArticle",
      "outputs": [],
      "payable": false,
      "stateMutability": "nonpayable",
      "type": "function"
    },
    {
      "constant": false,
      "inputs": [
        {
          "name": "rulingId",
          "type": "uint256"
        },
        {
          "name": "vote",
          "type": "bool"
        },
        {
          "name": "challengeId",
          "type": "uint256"
        }
      ],
      "name": "voteOnChallenge",
      "outputs": [],
      "payable": false,
      "stateMutability": "nonpayable",
      "type": "function"
    }
  ],
  "bytecode": "0x60806040526001600c60146101000a81548160ff0219169083151502179055503480156200002c57600080fd5b5062000049336000620000c8640100000000026401000000009004565b620000653360006200017a640100000000026401000000009004565b620000813360006200022c640100000000026401000000009004565b33600c60006101000a81548173ffffffffffffffffffffffffffffffffffffffff021916908373ffffffffffffffffffffffffffffffffffffffff160217905550620005fc565b620000ec8260006200035e6401000000000262003082179091906401000000009004565b80600160008473ffffffffffffffffffffffffffffffffffffffff1673ffffffffffffffffffffffffffffffffffffffff168152602001908152602001600020600101819055508173ffffffffffffffffffffffffffffffffffffffff167f07681ffd9d424587412481b41d2ee582bb7bca757f626b0477051f302947027260405160405180910390a25050565b6200019e8260026200035e6401000000000262003082179091906401000000009004565b80600360008473ffffffffffffffffffffffffffffffffffffffff1673ffffffffffffffffffffffffffffffffffffffff168152602001908152602001600020600101819055508173ffffffffffffffffffffffffffffffffffffffff167fb7724d890d2888af5a3fc456edb667e2c82c4441449ebcac301c618759e4f86d60405160405180910390a25050565b620002508260066200035e6401000000000262003082179091906401000000009004565b80600760008473ffffffffffffffffffffffffffffffffffffffff1673ffffffffffffffffffffffffffffffffffffffff16815260200190815260200160002060010181905550620002bd60016008546200044d6401000000000262002448179091906401000000009004565b6008819055508160096000600854815260200190815260200160002060006101000a81548173ffffffffffffffffffffffffffffffffffffffff021916908373ffffffffffffffffffffffffffffffffffffffff1602179055508173ffffffffffffffffffffffffffffffffffffffff167fe366c1c0452ed8eec96861e9e54141ebff23c9ec89fe27b996b45f5ec388498760405160405180910390a25050565b620003798282620004d8640100000000026401000000009004565b151515620003ef576040517f08c379a000000000000000000000000000000000000000000000000000000000815260040180806020018281038252601f8152602001807f526f6c65733a206163636f756e7420616c72656164792068617320726f6c650081525060200191505060405180910390fd5b60018260000160008373ffffffffffffffffffffffffffffffffffffffff1673ffffffffffffffffffffffffffffffffffffffff16815260200190815260200160002060006101000a81548160ff0219169083151502179055505050565b6000808284019050838110151515620004ce576040517f08c379a000000000000000000000000000000000000000000000000000000000815260040180806020018281038252601b8152602001807f536166654d6174683a206164646974696f6e206f766572666c6f77000000000081525060200191505060405180910390fd5b8091505092915050565b60008073ffffffffffffffffffffffffffffffffffffffff168273ffffffffffffffffffffffffffffffffffffffff1614151515620005a5576040517f08c379a00000000000000000000000000000000000000000000000000000000081526004018080602001828103825260228152602001807f526f6c65733a206163636f756e7420697320746865207a65726f20616464726581526020017f737300000000000000000000000000000000000000000000000000000000000081525060400191505060405180910390fd5b8260000160008373ffffffffffffffffffffffffffffffffffffffff1673ffffffffffffffffffffffffffffffffffffffff16815260200190815260200160002060009054906101000a900460ff16905092915050565b613395806200060c6000396000f3fe6080604052600436106101b7576000357c0100000000000000000000000000000000000000000000000000000000900463ffffffff16806301c97c57146101bc578063075d4782146101f75780630a75d7451461020e578063110466ed1461022557806312424e3f146102625780631d0d35f5146102795780631d8de4f7146102e257806324567a7e14610333578063357198dc1461038e57806345e736851461049e57806357773bfc146104d957806369a7ddf7146105345780637d4061e61461059d57806380a24631146105d85780638255899d14610633578063841afbc31461066e578063919165aa146106e157806395f4f4ce1461075c5780639d0c8a9f146107ab578063af938fc2146107e6578063c33994fb146107fd578063c462c42314610921578063c81b356b14610938578063cd905dff14610963578063cee7d9d714610992578063d17defcb14610a21578063d453609a14610a4c578063d6f5700914610a87578063e0bd7d1514610ae2578063e5fef7cd14610b3d578063ef361e5014610b98578063f0c043ee14610baf578063f8f2ba8414610bc6578063facd743b14610bf1578063fc6c1f0214610c5a575b600080fd5b3480156101c857600080fd5b506101f5600480360360208110156101df57600080fd5b8101908080359060200190929190505050610cb5565b005b34801561020357600080fd5b5061020c610d35565b005b34801561021a57600080fd5b50610223610dd2565b005b34801561023157600080fd5b506102606004803603602081101561024857600080fd5b81019080803515159060200190929190505050610eed565b005b34801561026e57600080fd5b50610277610fcf565b005b34801561028557600080fd5b506102c86004803603602081101561029c57600080fd5b81019080803573ffffffffffffffffffffffffffffffffffffffff1690602001909291905050506110ea565b604051808215151515815260200191505060405180910390f35b3480156102ee57600080fd5b506103316004803603606081101561030557600080fd5b810190808035906020019092919080351515906020019092919080359060200190929190505050611107565b005b34801561033f57600080fd5b5061038c6004803603604081101561035657600080fd5b81019080803573ffffffffffffffffffffffffffffffffffffffff169060200190929190803590602001909291905050506113c1565b005b34801561039a57600080fd5b5061049c600480360360c08110156103b157600080fd5b810190808035906020019092919080359060200190929190803590602001906401000000008111156103e257600080fd5b8201836020820111156103f457600080fd5b8035906020019184600183028401116401000000008311171561041657600080fd5b91908080601f016020809104026020016040519081016040528093929190818152602001838380828437600081840152601f19601f8201169050808301925050505050505091929192908035906020019092919080359060200190929190803573ffffffffffffffffffffffffffffffffffffffff1690602001909291905050506113cf565b005b3480156104aa57600080fd5b506104d7600480360360208110156104c157600080fd5b81019080803590602001909291905050506115d9565b005b3480156104e557600080fd5b50610532600480360360408110156104fc57600080fd5b81019080803573ffffffffffffffffffffffffffffffffffffffff16906020019092919080359060200190929190505050611644565b005b34801561054057600080fd5b506105836004803603602081101561055757600080fd5b81019080803573ffffffffffffffffffffffffffffffffffffffff169060200190929190505050611652565b604051808215151515815260200191505060405180910390f35b3480156105a957600080fd5b506105d6600480360360208110156105c057600080fd5b810190808035906020019092919050505061166f565b005b3480156105e457600080fd5b50610631600480360360408110156105fb57600080fd5b81019080803573ffffffffffffffffffffffffffffffffffffffff169060200190929190803590602001909291905050506116da565b005b34801561063f57600080fd5b5061066c6004803603602081101561065657600080fd5b8101908080359060200190929190505050611766565b005b34801561067a57600080fd5b506106df6004803603608081101561069157600080fd5b81019080803515159060200190929190803515159060200190929190803573ffffffffffffffffffffffffffffffffffffffff169060200190929190803590602001909291905050506117d1565b005b3480156106ed57600080fd5b5061071a6004803603602081101561070457600080fd5b8101908080359060200190929190505050611ad2565b604051808273ffffffffffffffffffffffffffffffffffffffff1673ffffffffffffffffffffffffffffffffffffffff16815260200191505060405180910390f35b34801561076857600080fd5b506107a96004803603606081101561077f57600080fd5b81019080803590602001909291908035906020019092919080359060200190929190505050611b05565b005b3480156107b757600080fd5b506107e4600480360360208110156107ce57600080fd5b8101908080359060200190929190505050611bdc565b005b3480156107f257600080fd5b506107fb611c5c565b005b34801561080957600080fd5b5061090b600480360360c081101561082057600080fd5b81019080803573ffffffffffffffffffffffffffffffffffffffff16906020019092919080359060200190929190803590602001909291908035906020019064010000000081111561087157600080fd5b82018360208201111561088357600080fd5b803590602001918460018302840111640100000000831117156108a557600080fd5b91908080601f016020809104026020016040519081016040528093929190818152602001838380828437600081840152601f19601f8201169050808301925050505050505091929192908035906020019092919080359060200190929190505050611c67565b6040518082815260200191505060405180910390f35b34801561092d57600080fd5b50610936611e56565b005b34801561094457600080fd5b5061094d611e61565b6040518082815260200191505060405180910390f35b34801561096f57600080fd5b50610978611e67565b604051808215151515815260200191505060405180910390f35b34801561099e57600080fd5b50610a1f600480360360a08110156109b557600080fd5b8101908080359060200190929190803573ffffffffffffffffffffffffffffffffffffffff1690602001909291908035906020019092919080359060200190929190803573ffffffffffffffffffffffffffffffffffffffff169060200190929190505050611e7e565b005b348015610a2d57600080fd5b50610a36612159565b6040518082815260200191505060405180910390f35b348015610a5857600080fd5b50610a8560048036036020811015610a6f57600080fd5b810190808035906020019092919050505061215f565b005b348015610a9357600080fd5b50610ae060048036036040811015610aaa57600080fd5b81019080803573ffffffffffffffffffffffffffffffffffffffff169060200190929190803590602001909291905050506121ce565b005b348015610aee57600080fd5b50610b3b60048036036040811015610b0557600080fd5b81019080803573ffffffffffffffffffffffffffffffffffffffff169060200190929190803590602001909291905050506121dc565b005b348015610b4957600080fd5b50610b9660048036036040811015610b6057600080fd5b81019080803573ffffffffffffffffffffffffffffffffffffffff16906020019092919080359060200190929190505050612267565b005b348015610ba457600080fd5b50610bad6122f2565b005b348015610bbb57600080fd5b50610bc461238f565b005b348015610bd257600080fd5b50610bdb61239a565b6040518082815260200191505060405180910390f35b348015610bfd57600080fd5b50610c4060048036036020811015610c1457600080fd5b81019080803573ffffffffffffffffffffffffffffffffffffffff1690602001909291905050506123a0565b604051808215151515815260200191505060405180910390f35b348015610c6657600080fd5b50610cb360048036036040811015610c7d57600080fd5b81019080803573ffffffffffffffffffffffffffffffffffffffff169060200190929190803590602001909291905050506123bd565b005b610cdf6001600b60008481526020019081526020016000206006015461244890919063ffffffff16565b600b6000838152602001908152602001600020600601819055507feb5a35545b0a45240a67898d2f6187c764da2eaca5c11a0e75e615dd80d9458d600a546040518082815260200191505060405180910390a150565b610d8a60018060003373ffffffffffffffffffffffffffffffffffffffff1673ffffffffffffffffffffffffffffffffffffffff1681526020019081526020016000206002015461244890919063ffffffff16565b600160003373ffffffffffffffffffffffffffffffffffffffff1673ffffffffffffffffffffffffffffffffffffffff16815260200190815260200160002060020181905550565b610ddb336123a0565b1515610e4f576040517f08c379a00000000000000000000000000000000000000000000000000000000081526004018080602001828103825260198152602001807f43616c6c6572206973206e6f7420612056616c696461746f720000000000000081525060200191505060405180910390fd5b610ea56001600760003373ffffffffffffffffffffffffffffffffffffffff1673ffffffffffffffffffffffffffffffffffffffff1681526020019081526020016000206003015461244890919063ffffffff16565b600760003373ffffffffffffffffffffffffffffffffffffffff1673ffffffffffffffffffffffffffffffffffffffff16815260200190815260200160002060030181905550565b600c60009054906101000a900473ffffffffffffffffffffffffffffffffffffffff1673ffffffffffffffffffffffffffffffffffffffff163373ffffffffffffffffffffffffffffffffffffffff16141515610fb2576040517f08c379a00000000000000000000000000000000000000000000000000000000081526004018080602001828103825260138152602001807f43616c6c6572206973206e6f742061646d696e0000000000000000000000000081525060200191505060405180910390fd5b80600c60146101000a81548160ff02191690831515021790555050565b610fd8336123a0565b151561104c576040517f08c379a00000000000000000000000000000000000000000000000000000000081526004018080602001828103825260198152602001807f43616c6c6572206973206e6f7420612056616c696461746f720000000000000081525060200191505060405180910390fd5b6110a26001600760003373ffffffffffffffffffffffffffffffffffffffff1673ffffffffffffffffffffffffffffffffffffffff1681526020019081526020016000206002015461244890919063ffffffff16565b600760003373ffffffffffffffffffffffffffffffffffffffff1673ffffffffffffffffffffffffffffffffffffffff16815260200190815260200160002060020181905550565b60006111008260006124d290919063ffffffff16565b9050919050565b600080600090505b6003811015611255573373ffffffffffffffffffffffffffffffffffffffff16600e60008781526020019081526020016000206002018260038110151561115257fe5b0160009054906101000a900473ffffffffffffffffffffffffffffffffffffffff1673ffffffffffffffffffffffffffffffffffffffff1614156111fa5783600e6000878152602001908152602001600020600501826003811015156111b457fe5b602091828204019190066101000a81548160ff021916908315150217905550600e6000868152602001908152602001600020600601600081548092919060010191905055505b60011515600e60008781526020019081526020016000206005018260038110151561122157fe5b602091828204019190069054906101000a900460ff16151514156112485781806001019250505b808060010191505061110f565b5060028110151561136b5760016005600084815260200190815260200160002060050160006101000a81548160ff02191690831515021790555060006005600084815260200190815260200160002060010160009054906101000a900473ffffffffffffffffffffffffffffffffffffffff16905061131f60018060008473ffffffffffffffffffffffffffffffffffffffff1673ffffffffffffffffffffffffffffffffffffffff1681526020019081526020016000206003015461244890919063ffffffff16565b600160008373ffffffffffffffffffffffffffffffffffffffff1673ffffffffffffffffffffffffffffffffffffffff16815260200190815260200160002060030181905550506113bb565b6003600e60008681526020019081526020016000206006015414156113ba5760006005600084815260200190815260200160002060050160006101000a81548160ff0219169083151502179055505b5b50505050565b6113cb82826125f5565b5050565b6113d8336110ea565b151561144c576040517f08c379a000000000000000000000000000000000000000000000000000000000815260040180806020018281038252601b8152602001807f43616c6c6572206973206e6f74206120436f6e7472696275746f72000000000081525060200191505060405180910390fd5b600160003373ffffffffffffffffffffffffffffffffffffffff1673ffffffffffffffffffffffffffffffffffffffff168152602001908152602001600020600101548211151515611552576040517f08c379a00000000000000000000000000000000000000000000000000000000081526004018080602001828103825260598152602001807f496e73756666696369656e742066756e647320746f207075626c69736820617281526020017f7469636c652e20416d6f756e74207374616b65642073686f756c64206265206c81526020017f657373207468616e206163636f756e742062616c616e63652e0000000000000081525060600191505060405180910390fd5b6000611562338888888888611c67565b9050600160008373ffffffffffffffffffffffffffffffffffffffff1673ffffffffffffffffffffffffffffffffffffffff16815260200190815260200160002060040181908060018154018082558091505090600182039060005260206000200160009091929091909150555050505050505050565b6001600b600083815260200190815260200160002060050160016101000a81548160ff0219169083151502179055507f7794351528fe7be520769ebfe19d7275d2a0ecb197e1bbc23afa224134887ba2600a546040518082815260200191505060405180910390a150565b61164e82826126cf565b5050565b60006116688260026124d290919063ffffffff16565b9050919050565b6001600b600083815260200190815260200160002060050160006101000a81548160ff0219169083151502179055507f60bd4c6e468dd35d1c78b03ddc704f2f270ad2ed13b45bf571438f433db9b8f7600a546040518082815260200191505060405180910390a150565b6116e261315f565b600760008473ffffffffffffffffffffffffffffffffffffffff1673ffffffffffffffffffffffffffffffffffffffff16815260200190815260200160002060806040519081016040529081600082015481526020016001820154815260200160028201548152602001600382015481525050905081816000018181525050505050565b6001600b600083815260200190815260200160002060050160026101000a81548160ff0219169083151502179055507fe95591b999a8fa4c23f2d0b426271960c193b5eb71cef3bc673ac5be6cb60df4600a546040518082815260200191505060405180910390a150565b600115158315151415611965576000600160008473ffffffffffffffffffffffffffffffffffffffff1673ffffffffffffffffffffffffffffffffffffffff1681526020019081526020016000206000015411156118c55761187e60018060008573ffffffffffffffffffffffffffffffffffffffff1673ffffffffffffffffffffffffffffffffffffffff168152602001908152602001600020600001546127b390919063ffffffff16565b600160008473ffffffffffffffffffffffffffffffffffffffff1673ffffffffffffffffffffffffffffffffffffffff168152602001908152602001600020600001819055505b61191a60018060008573ffffffffffffffffffffffffffffffffffffffff1673ffffffffffffffffffffffffffffffffffffffff1681526020019081526020016000206003015461244890919063ffffffff16565b600160008473ffffffffffffffffffffffffffffffffffffffff1673ffffffffffffffffffffffffffffffffffffffff16815260200190815260200160002060030181905550611acc565b6001151584151514156119bb5761199c6001600b60008481526020019081526020016000206006015461244890919063ffffffff16565b600b600083815260200190815260200160002060060181905550611a00565b6119e56001600b60008481526020019081526020016000206007015461244890919063ffffffff16565b600b6000838152602001908152602001600020600701819055505b6000611abe600160008573ffffffffffffffffffffffffffffffffffffffff1673ffffffffffffffffffffffffffffffffffffffff16815260200190815260200160002060000154600b600085815260200190815260200160002060060154600b600086815260200190815260200160002060070154600160008873ffffffffffffffffffffffffffffffffffffffff1673ffffffffffffffffffffffffffffffffffffffff1681526020019081526020016000206002015461283e565b9050611aca8382611644565b505b50505050565b60096020528060005260406000206000915054906101000a900473ffffffffffffffffffffffffffffffffffffffff1681565b611b0e33611652565b1515611b82576040517f08c379a00000000000000000000000000000000000000000000000000000000081526004018080602001828103825260168152602001807f43616c6c6572206973206e6f742061205265616465720000000000000000000081525060200191505060405180910390fd5b6000600b600083815260200190815260200160002060000160009054906101000a900473ffffffffffffffffffffffffffffffffffffffff169050611bca8282868633611e7e565b611bd6826004546128e5565b50505050565b611c066001600b60008481526020019081526020016000206007015461244890919063ffffffff16565b600b6000838152602001908152602001600020600701819055507fd1ff0de57853f81f969355a26960199cd8211f9d274c6c552a148053125b4611600a546040518082815260200191505060405180910390a150565b611c6533612a12565b565b6000611c7f6001600a5461244890919063ffffffff16565b600a81905550610160604051908101604052808873ffffffffffffffffffffffffffffffffffffffff168152602001878152602001868152602001858152602001848152602001600015158152602001600015158152602001600015158152602001600081526020016000815260200183815250600b6000600a54815260200190815260200160002060008201518160000160006101000a81548173ffffffffffffffffffffffffffffffffffffffff021916908373ffffffffffffffffffffffffffffffffffffffff16021790555060208201518160010155604082015181600201556060820151816003019080519060200190611d7f929190613188565b506080820151816004015560a08201518160050160006101000a81548160ff02191690831515021790555060c08201518160050160016101000a81548160ff02191690831515021790555060e08201518160050160026101000a81548160ff0219169083151502179055506101008201518160060155610120820151816007015561014082015181600801559050507f9ed508f9dd7c730fd307b1ca38355cf4d9c00f58a2acfa5167b497c51a859e4c600a546040518082815260200191505060405180910390a1600a5490509695505050505050565b611e5f33612a6c565b565b60085481565b6000600c60149054906101000a900460ff16905090565b611e94600160045461244890919063ffffffff16565b60048190555060c0604051908101604052808681526020018573ffffffffffffffffffffffffffffffffffffffff1681526020018273ffffffffffffffffffffffffffffffffffffffff168152602001848152602001838152602001600015158152506005600060045481526020019081526020016000206000820151816000015560208201518160010160006101000a81548173ffffffffffffffffffffffffffffffffffffffff021916908373ffffffffffffffffffffffffffffffffffffffff16021790555060408201518160020160006101000a81548173ffffffffffffffffffffffffffffffffffffffff021916908373ffffffffffffffffffffffffffffffffffffffff160217905550606082015181600301556080820151816004015560a08201518160050160006101000a81548160ff0219169083151502179055509050506120316001600360008473ffffffffffffffffffffffffffffffffffffffff1673ffffffffffffffffffffffffffffffffffffffff1681526020019081526020016000206002015461244890919063ffffffff16565b600360008373ffffffffffffffffffffffffffffffffffffffff1673ffffffffffffffffffffffffffffffffffffffff16815260200190815260200160002060020181905550600360008273ffffffffffffffffffffffffffffffffffffffff1673ffffffffffffffffffffffffffffffffffffffff16815260200190815260200160002060030160045490806001815401808255809150509060018203906000526020600020016000909192909190915055507f71658dcd30af2516252b609c834023d8729aab62422a55f9559c3c854f3a880381600454604051808373ffffffffffffffffffffffffffffffffffffffff1673ffffffffffffffffffffffffffffffffffffffff1681526020018281526020019250505060405180910390a15050505050565b60045481565b600160003373ffffffffffffffffffffffffffffffffffffffff1673ffffffffffffffffffffffffffffffffffffffff16815260200190815260200160002060040181908060018154018082558091505090600182039060005260206000200160009091929091909150555050565b6121d882826116da565b5050565b6121e5336110ea565b1515612259576040517f08c379a000000000000000000000000000000000000000000000000000000000815260040180806020018281038252601b8152602001807f43616c6c6572206973206e6f74206120436f6e7472696275746f72000000000081525060200191505060405180910390fd5b6122638282612ac6565b5050565b61227033611652565b15156122e4576040517f08c379a00000000000000000000000000000000000000000000000000000000081526004018080602001828103825260168152602001807f43616c6c6572206973206e6f742061205265616465720000000000000000000081525060200191505060405180910390fd5b6122ee8282612b68565b5050565b61234760018060003373ffffffffffffffffffffffffffffffffffffffff1673ffffffffffffffffffffffffffffffffffffffff1681526020019081526020016000206003015461244890919063ffffffff16565b600160003373ffffffffffffffffffffffffffffffffffffffff1673ffffffffffffffffffffffffffffffffffffffff16815260200190815260200160002060030181905550565b61239833612c0a565b565b600f5481565b60006123b68260066124d290919063ffffffff16565b9050919050565b6123c6336123a0565b151561243a576040517f08c379a00000000000000000000000000000000000000000000000000000000081526004018080602001828103825260198152602001807f43616c6c6572206973206e6f7420612056616c696461746f720000000000000081525060200191505060405180910390fd5b6124448282612c64565b5050565b60008082840190508381101515156124c8576040517f08c379a000000000000000000000000000000000000000000000000000000000815260040180806020018281038252601b8152602001807f536166654d6174683a206164646974696f6e206f766572666c6f77000000000081525060200191505060405180910390fd5b8091505092915050565b60008073ffffffffffffffffffffffffffffffffffffffff168273ffffffffffffffffffffffffffffffffffffffff161415151561259e576040517f08c379a00000000000000000000000000000000000000000000000000000000081526004018080602001828103825260228152602001807f526f6c65733a206163636f756e7420697320746865207a65726f20616464726581526020017f737300000000000000000000000000000000000000000000000000000000000081525060400191505060405180910390fd5b8260000160008373ffffffffffffffffffffffffffffffffffffffff1673ffffffffffffffffffffffffffffffffffffffff16815260200190815260200160002060009054906101000a900460ff16905092915050565b6125fd613208565b600360008473ffffffffffffffffffffffffffffffffffffffff1673ffffffffffffffffffffffffffffffffffffffff16815260200190815260200160002060806040519081016040529081600082015481526020016001820154815260200160028201548152602001600382018054806020026020016040519081016040528092919081815260200182805480156126b557602002820191906000526020600020905b8154815260200190600101908083116126a1575b505050505081525050905081816000018181525050505050565b6126d7613231565b600160008473ffffffffffffffffffffffffffffffffffffffff1673ffffffffffffffffffffffffffffffffffffffff16815260200190815260200160002060a06040519081016040529081600082015481526020016001820154815260200160028201548152602001600382015481526020016004820180548060200260200160405190810160405280929190818152602001828054801561279957602002820191906000526020600020905b815481526020019060010190808311612785575b505050505081525050905081816000018181525050505050565b600082821115151561282d576040517f08c379a000000000000000000000000000000000000000000000000000000000815260040180806020018281038252601e8152602001807f536166654d6174683a207375627472616374696f6e206f766572666c6f77000081525060200191505060405180910390fd5b600082840390508091505092915050565b600080612854848661244890919063ffffffff16565b9050600061287e60056128708489612d7690919063ffffffff16565b612e0990919063ffffffff16565b905060006128966001866127b390919063ffffffff16565b90506128ab8882612e0990919063ffffffff16565b90506128c0828261244890919063ffffffff16565b90506128d58582612d7690919063ffffffff16565b9050809350505050949350505050565b6128fb6001600f5461244890919063ffffffff16565b600f81905550612909613261565b6000600190505b60048110156129aa576009600061292683612ed6565b815260200190815260200160002060009054906101000a900473ffffffffffffffffffffffffffffffffffffffff16826001830360038110151561296657fe5b602002019073ffffffffffffffffffffffffffffffffffffffff16908173ffffffffffffffffffffffffffffffffffffffff16815250508080600101915050612910565b5080600e6000600f5481526020019081526020016000206002019060036129d2929190613284565b5082600e6000600f5481526020019081526020016000206000018190555081600e6000600f54815260200190815260200160002060010181905550505050565b612a26816002612f8090919063ffffffff16565b8073ffffffffffffffffffffffffffffffffffffffff167fe933431644458f1217f9e93d3e000e03c9bbbe55761046d0985c2e4d157bcbaa60405160405180910390a250565b612a80816000612f8090919063ffffffff16565b8073ffffffffffffffffffffffffffffffffffffffff167f665b9b7911d6a3e5a789e2be1ed4f9ffa84c1259e3b89675234719521112219160405160405180910390a250565b612ada82600061308290919063ffffffff16565b80600160008473ffffffffffffffffffffffffffffffffffffffff1673ffffffffffffffffffffffffffffffffffffffff168152602001908152602001600020600101819055508173ffffffffffffffffffffffffffffffffffffffff167f07681ffd9d424587412481b41d2ee582bb7bca757f626b0477051f302947027260405160405180910390a25050565b612b7c82600261308290919063ffffffff16565b80600360008473ffffffffffffffffffffffffffffffffffffffff1673ffffffffffffffffffffffffffffffffffffffff168152602001908152602001600020600101819055508173ffffffffffffffffffffffffffffffffffffffff167fb7724d890d2888af5a3fc456edb667e2c82c4441449ebcac301c618759e4f86d60405160405180910390a25050565b612c1e816006612f8090919063ffffffff16565b8073ffffffffffffffffffffffffffffffffffffffff167fe1434e25d6611e0db941968fdc97811c982ac1602e951637d206f5fdda9dd8f160405160405180910390a250565b612c7882600661308290919063ffffffff16565b80600760008473ffffffffffffffffffffffffffffffffffffffff1673ffffffffffffffffffffffffffffffffffffffff16815260200190815260200160002060010181905550612cd5600160085461244890919063ffffffff16565b6008819055508160096000600854815260200190815260200160002060006101000a81548173ffffffffffffffffffffffffffffffffffffffff021916908373ffffffffffffffffffffffffffffffffffffffff1602179055508173ffffffffffffffffffffffffffffffffffffffff167fe366c1c0452ed8eec96861e9e54141ebff23c9ec89fe27b996b45f5ec388498760405160405180910390a25050565b60008082111515612def576040517f08c379a000000000000000000000000000000000000000000000000000000000815260040180806020018281038252601a8152602001807f536166654d6174683a206469766973696f6e206279207a65726f00000000000081525060200191505060405180910390fd5b60008284811515612dfc57fe5b0490508091505092915050565b600080831415612e1c5760009050612ed0565b60008284029050828482811515612e2f57fe5b04141515612ecb576040517f08c379a00000000000000000000000000000000000000000000000000000000081526004018080602001828103825260218152602001807f536166654d6174683a206d756c7469706c69636174696f6e206f766572666c6f81526020017f770000000000000000000000000000000000000000000000000000000000000081525060400191505060405180910390fd5b809150505b92915050565b60008060085490506000423385604051602001808481526020018373ffffffffffffffffffffffffffffffffffffffff1673ffffffffffffffffffffffffffffffffffffffff166c010000000000000000000000000281526014018281526020019350505050604051602081830303815290604052805190602001206001900490506000612f6d8383612d7690919063ffffffff16565b9050600081905080945050505050919050565b612f8a82826124d2565b1515613024576040517f08c379a00000000000000000000000000000000000000000000000000000000081526004018080602001828103825260218152602001807f526f6c65733a206163636f756e7420646f6573206e6f74206861766520726f6c81526020017f650000000000000000000000000000000000000000000000000000000000000081525060400191505060405180910390fd5b60008260000160008373ffffffffffffffffffffffffffffffffffffffff1673ffffffffffffffffffffffffffffffffffffffff16815260200190815260200160002060006101000a81548160ff0219169083151502179055505050565b61308c82826124d2565b151515613101576040517f08c379a000000000000000000000000000000000000000000000000000000000815260040180806020018281038252601f8152602001807f526f6c65733a206163636f756e7420616c72656164792068617320726f6c650081525060200191505060405180910390fd5b60018260000160008373ffffffffffffffffffffffffffffffffffffffff1673ffffffffffffffffffffffffffffffffffffffff16815260200190815260200160002060006101000a81548160ff0219169083151502179055505050565b608060405190810160405280600081526020016000815260200160008152602001600081525090565b828054600181600116156101000203166002900490600052602060002090601f016020900481019282601f106131c957805160ff19168380011785556131f7565b828001600101855582156131f7579182015b828111156131f65782518255916020019190600101906131db565b5b5090506132049190613301565b5090565b608060405190810160405280600081526020016000815260200160008152602001606081525090565b60a06040519081016040528060008152602001600081526020016000815260200160008152602001606081525090565b606060405190810160405280600390602082028038833980820191505090505090565b82600381019282156132f0579160200282015b828111156132ef5782518260006101000a81548173ffffffffffffffffffffffffffffffffffffffff021916908373ffffffffffffffffffffffffffffffffffffffff16021790555091602001919060010190613297565b5b5090506132fd9190613326565b5090565b61332391905b8082111561331f576000816000905550600101613307565b5090565b90565b61336691905b8082111561336257600081816101000a81549073ffffffffffffffffffffffffffffffffffffffff02191690555060010161332c565b5090565b9056fea165627a7a7230582081c7922cdcbe47cd56932321b3b5262d141fadb2ae54e364a6ab0e87ac8ca80b0029",
  "source": "pragma solidity >=0.4.21 <0.6.0;\r\nimport \"./accessControl/ContributorRole.sol\";\r\nimport \"./accessControl/ReaderRole.sol\";\r\nimport \"./accessControl/ValidatorRole.sol\";\r\nimport \"./Article.sol\";\r\n// Import the library 'Roles' and SafeMath\r\nimport \"../node_modules/openzeppelin-solidity/contracts/math/SafeMath.sol\";\r\n\r\n\r\ncontract Honestmedia is ContributorRole, ReaderRole, ValidatorRole, Article  {\r\n    using SafeMath for uint;\r\n\r\n\taddress owner;\r\n\r\n\t//check if contract operational\r\n    bool private operational = true;\r\n\r\n    //variables to define minimum funding amounts for validators and contributors.\r\n    //These should be checked when adding new actors.\r\n    uint constant MIN_FUNDING_VALIDATOR = 1 ether; //we can decide a different amount\r\n    uint constant MIN_FUNDING_CONTRIBUTOR = 2 ether; //we can decide a different amount\r\n\r\n    //mapping to store available withdrawals\r\n    mapping(address => uint) availableWithdrawls;\r\n\r\n    //Struct to store ruling\r\n    struct ruling {\r\n        uint articleId;\r\n        uint challengeId;\r\n        address[3] validators;\r\n        bool[3] votes;\r\n        uint voted;\r\n    }\r\n\r\n    //Mapping to save ruling for challenges\r\n    mapping(uint => ruling) allRulings;\r\n\r\n    //Variable to save totalRulings\r\n    uint public totalRulings;\r\n\r\n\tconstructor() public {\r\n        owner = msg.sender;\r\n    }\r\n\r\n     modifier requireIsOperational() {\r\n        require(operational, \"Contract is currently not operational\");\r\n        _;  // All modifiers require an \"_\" which indicates where the function body will be added\r\n    }\r\n\r\n    modifier requireContractOwner() {\r\n        require((msg.sender == owner), \"Caller is not admin\");\r\n        _;\r\n    }\r\n\r\n    function isOperational() \r\n                            public \r\n                            view \r\n                            returns(bool) {\r\n        return operational;\r\n    }\r\n\r\n    function setOperatingStatus\r\n                            (\r\n                                bool mode\r\n                            ) \r\n                            external\r\n                            requireContractOwner {\r\n        operational = mode;\r\n    }\r\n\r\n    //seting ranking\r\n    function setContributorRating(address _address, uint rank) public {\r\n    \tContributorRole.setRating(_address, rank);\r\n    }\r\n\r\n    function setReaderRating(address _address, uint rank) external {\r\n    \tReaderRole.setRating(_address, rank);\r\n    }\r\n\r\n    function setValidatorRating(address _address, uint rank) external {\r\n    \tValidatorRole.setRating(_address, rank);\r\n    }\r\n\r\n    //Function to store the article etc\r\n    function addArticle(bytes32 _ipfsArticleHash, bytes32 _ipfsReferenceHash, string memory _title,\r\n                        uint _datePublished, uint _stake, address _contributor) public onlyContributor\r\n    {\r\n        //Check if Amount staked is greater than balance of contributor\r\n        require(_stake <= ContributorRole.allContributors[msg.sender].balance,\r\n                         \"Insufficient funds to publish article. Amount staked should be less than account balance.\");\r\n        uint articleNum = Article.addArticle(msg.sender, _ipfsArticleHash, _ipfsReferenceHash, _title, _datePublished, _stake);\r\n        ContributorRole.allContributors[_contributor].articles.push(articleNum);\r\n        //Assign validator to approve article\r\n    }\r\n\r\n    //Function to update rating for Contributors\r\n    function updateContributorRating(bool vote, bool challengeLost, address _contributor, uint articleId) public {\r\n        if(challengeLost == true){\r\n            if(ContributorRole.allContributors[_contributor].rating > 0){\r\n                ContributorRole.allContributors[_contributor].rating = ContributorRole.allContributors[_contributor].rating.sub(1);\r\n            }\r\n            ContributorRole.allContributors[_contributor].challengesLost = ContributorRole.allContributors[_contributor].challengesLost.add(1);\r\n        }else {\r\n            if(vote == true){\r\n                Article.allArticles[articleId].upVotes = Article.allArticles[articleId].upVotes.add(1);\r\n            }else {\r\n                Article.allArticles[articleId].downVotes = Article.allArticles[articleId].downVotes.add(1);\r\n            }\r\n            uint newRating = contributorRatingCalculator(ContributorRole.allContributors[_contributor].rating, Article.allArticles[articleId].upVotes,\r\n                                                        Article.allArticles[articleId].downVotes, ContributorRole.allContributors[_contributor].articlesPublished);\r\n            setContributorRating(_contributor, newRating);\r\n        }\r\n    }\r\n\r\n    //Function to calculate rating for Contributors\r\n    function contributorRatingCalculator(uint currentRating, uint upVotes, uint downVotes, uint articles) internal pure returns(uint){\r\n        uint totalRatings = upVotes.add(downVotes);\r\n        uint recentRating = upVotes.div(totalRatings).mul(5);\r\n        uint newRating = articles.sub(1);\r\n        newRating = newRating.mul(currentRating);\r\n        newRating = newRating.add(recentRating);\r\n        newRating = newRating.div(articles);\r\n        return newRating;\r\n    }\r\n\r\n    //Function to challenge an article\r\n    function challengeArticle(bytes32 proofHash, uint stake, uint articleId) external onlyReader {\r\n        address contributor = Article.allArticles[articleId].contributor;\r\n        ReaderRole.challenge(articleId, contributor, proofHash, stake, msg.sender);\r\n        assignValidators(articleId, ReaderRole.totalChallenges);\r\n    }\r\n\r\n    //function to find random validators to vote on challenge\r\n    function assignValidators(uint _articleId, uint _challengeId) internal {\r\n        totalRulings = totalRulings.add(1);\r\n        address[3] memory validators;\r\n        for(uint i = 1; i < 4; i++)\r\n        {\r\n            validators[i-1] = ValidatorRole.validatorIds[random(i)];\r\n        }\r\n        allRulings[totalRulings].validators = validators;\r\n        allRulings[totalRulings].articleId = _articleId;\r\n        allRulings[totalRulings].challengeId = _challengeId;\r\n    }\r\n\r\n    //Random number generator\r\n    function random(uint nonce) internal view returns (uint) {\r\n        uint MAX = ValidatorRole.totalValidators;\r\n        uint seed = uint(keccak256(abi.encodePacked(now, msg.sender, nonce)));\r\n        uint scaled = seed.div(MAX);\r\n        uint adjusted = scaled;\r\n        return adjusted;\r\n    }\r\n\r\n    //function to register validator votes on challenge. Will also check if 2 of 3 consensus is reached\r\n    function voteOnChallenge(uint rulingId, bool vote, uint challengeId) external {\r\n        uint numOfYesVotes;\r\n        for(uint i = 0; i < 3; i++){\r\n            if (allRulings[rulingId].validators[i] == msg.sender) {\r\n                allRulings[rulingId].votes[i] = vote;\r\n                allRulings[rulingId].voted++;\r\n            }\r\n            if(allRulings[rulingId].votes[i] == true)\r\n                numOfYesVotes++;\r\n        }\r\n        if(numOfYesVotes >= 2){\r\n            ReaderRole.allChallenges[challengeId].success = true;\r\n            // update contributor's challenges lost\r\n            address contributor = ReaderRole.allChallenges[challengeId].contributor;\r\n            ContributorRole.allContributors[contributor].challengesLost = ContributorRole.allContributors[contributor].challengesLost.add(1);\r\n            // Distribute Amount staked by contributor to reader and validators\r\n        }else\r\n        {\r\n            if(allRulings[rulingId].voted == 3) {\r\n                ReaderRole.allChallenges[challengeId].success = false;\r\n                // Distribute Amount staked by reader to contributor and validators\r\n            }\r\n        }\r\n    }\r\n\r\n    //TODO: function that allows to withdraw funds. For Validators and Contributors their balance should not be less than the minimum funding amount.\r\n\r\n    \r\n\r\n\r\n\r\n}",
  "sourcePath": "C:/Users/avant/Desktop/honest_media/contracts/Honestmedia.sol",
  "compiler": {
    "name": "solc",
    "version": "0.5.0+commit.1d4f565a.Emscripten.clang"
  },
  "schemaVersion": "3.0.5",
  "updatedAt": "2019-07-01T19:17:27.214Z",
  "devdoc": {
    "methods": {}
  },
  "userdoc": {
    "methods": {}
  }
}