{
  "contractName": "Honestmedia",
  "abi": [
    {
      "constant": false,
      "inputs": [
        {
          "name": "articleNumber",
          "type": "uint256"
        }
      ],
      "name": "upVoted",
      "outputs": [],
      "payable": false,
      "stateMutability": "nonpayable",
      "type": "function"
    },
    {
      "constant": false,
      "inputs": [],
      "name": "publish",
      "outputs": [],
      "payable": false,
      "stateMutability": "nonpayable",
      "type": "function"
    },
    {
      "constant": false,
      "inputs": [],
      "name": "ruleOnChallenge",
      "outputs": [],
      "payable": false,
      "stateMutability": "nonpayable",
      "type": "function"
    },
    {
      "constant": true,
      "inputs": [
        {
          "name": "account",
          "type": "address"
        }
      ],
      "name": "isContributor",
      "outputs": [
        {
          "name": "",
          "type": "bool"
        }
      ],
      "payable": false,
      "stateMutability": "view",
      "type": "function"
    },
    {
      "constant": false,
      "inputs": [
        {
          "name": "_contributor",
          "type": "address"
        },
        {
          "name": "_ipfsArticleHash",
          "type": "bytes32"
        },
        {
          "name": "_ipfsReferenceHash",
          "type": "bytes32"
        },
        {
          "name": "_title",
          "type": "string"
        },
        {
          "name": "_datePublished",
          "type": "uint256"
        },
        {
          "name": "_stake",
          "type": "uint256"
        }
      ],
      "name": "add",
      "outputs": [
        {
          "name": "",
          "type": "uint256"
        }
      ],
      "payable": false,
      "stateMutability": "nonpayable",
      "type": "function"
    },
    {
      "constant": false,
      "inputs": [
        {
          "name": "articleNumber",
          "type": "uint256"
        }
      ],
      "name": "challenged",
      "outputs": [],
      "payable": false,
      "stateMutability": "nonpayable",
      "type": "function"
    },
    {
      "constant": true,
      "inputs": [
        {
          "name": "account",
          "type": "address"
        }
      ],
      "name": "isReader",
      "outputs": [
        {
          "name": "",
          "type": "bool"
        }
      ],
      "payable": false,
      "stateMutability": "view",
      "type": "function"
    },
    {
      "constant": true,
      "inputs": [
        {
          "name": "articleNumber",
          "type": "uint256"
        }
      ],
      "name": "getArticleTitle",
      "outputs": [
        {
          "name": "title",
          "type": "string"
        }
      ],
      "payable": false,
      "stateMutability": "view",
      "type": "function"
    },
    {
      "constant": true,
      "inputs": [
        {
          "name": "articleNumber",
          "type": "uint256"
        }
      ],
      "name": "getArticleDownvotes",
      "outputs": [
        {
          "name": "downVotes",
          "type": "uint256"
        }
      ],
      "payable": false,
      "stateMutability": "view",
      "type": "function"
    },
    {
      "constant": false,
      "inputs": [
        {
          "name": "articleNumber",
          "type": "uint256"
        }
      ],
      "name": "approved",
      "outputs": [],
      "payable": false,
      "stateMutability": "nonpayable",
      "type": "function"
    },
    {
      "constant": false,
      "inputs": [
        {
          "name": "account",
          "type": "address"
        },
        {
          "name": "ranking",
          "type": "uint256"
        }
      ],
      "name": "setRating",
      "outputs": [],
      "payable": false,
      "stateMutability": "nonpayable",
      "type": "function"
    },
    {
      "constant": false,
      "inputs": [
        {
          "name": "articleNumber",
          "type": "uint256"
        }
      ],
      "name": "removed",
      "outputs": [],
      "payable": false,
      "stateMutability": "nonpayable",
      "type": "function"
    },
    {
      "constant": true,
      "inputs": [
        {
          "name": "",
          "type": "uint256"
        }
      ],
      "name": "validatorIds",
      "outputs": [
        {
          "name": "",
          "type": "address"
        }
      ],
      "payable": false,
      "stateMutability": "view",
      "type": "function"
    },
    {
      "constant": false,
      "inputs": [
        {
          "name": "articleNumber",
          "type": "uint256"
        }
      ],
      "name": "downVoted",
      "outputs": [],
      "payable": false,
      "stateMutability": "nonpayable",
      "type": "function"
    },
    {
      "constant": false,
      "inputs": [],
      "name": "renounceReader",
      "outputs": [],
      "payable": false,
      "stateMutability": "nonpayable",
      "type": "function"
    },
    {
      "constant": false,
      "inputs": [],
      "name": "renounceContributor",
      "outputs": [],
      "payable": false,
      "stateMutability": "nonpayable",
      "type": "function"
    },
    {
      "constant": true,
      "inputs": [],
      "name": "totalValidators",
      "outputs": [
        {
          "name": "",
          "type": "uint256"
        }
      ],
      "payable": false,
      "stateMutability": "view",
      "type": "function"
    },
    {
      "constant": true,
      "inputs": [
        {
          "name": "articleNumber",
          "type": "uint256"
        }
      ],
      "name": "getArticleUpvotes",
      "outputs": [
        {
          "name": "upVotes",
          "type": "uint256"
        }
      ],
      "payable": false,
      "stateMutability": "view",
      "type": "function"
    },
    {
      "constant": false,
      "inputs": [
        {
          "name": "articleId",
          "type": "uint256"
        },
        {
          "name": "contributor",
          "type": "address"
        },
        {
          "name": "proofHash",
          "type": "bytes32"
        },
        {
          "name": "stake",
          "type": "uint256"
        },
        {
          "name": "account",
          "type": "address"
        }
      ],
      "name": "challenge",
      "outputs": [],
      "payable": false,
      "stateMutability": "nonpayable",
      "type": "function"
    },
    {
      "constant": true,
      "inputs": [],
      "name": "totalChallenges",
      "outputs": [
        {
          "name": "",
          "type": "uint256"
        }
      ],
      "payable": false,
      "stateMutability": "view",
      "type": "function"
    },
    {
      "constant": false,
      "inputs": [
        {
          "name": "account",
          "type": "address"
        },
        {
          "name": "fund",
          "type": "uint256"
        }
      ],
      "name": "addContributor",
      "outputs": [],
      "payable": false,
      "stateMutability": "nonpayable",
      "type": "function"
    },
    {
      "constant": false,
      "inputs": [
        {
          "name": "account",
          "type": "address"
        },
        {
          "name": "funds",
          "type": "uint256"
        }
      ],
      "name": "addReader",
      "outputs": [],
      "payable": false,
      "stateMutability": "nonpayable",
      "type": "function"
    },
    {
      "constant": false,
      "inputs": [],
      "name": "updateChallenge",
      "outputs": [],
      "payable": false,
      "stateMutability": "nonpayable",
      "type": "function"
    },
    {
      "constant": false,
      "inputs": [],
      "name": "renounceValidator",
      "outputs": [],
      "payable": false,
      "stateMutability": "nonpayable",
      "type": "function"
    },
    {
      "constant": true,
      "inputs": [],
      "name": "totalRulings",
      "outputs": [
        {
          "name": "",
          "type": "uint256"
        }
      ],
      "payable": false,
      "stateMutability": "view",
      "type": "function"
    },
    {
      "constant": true,
      "inputs": [
        {
          "name": "account",
          "type": "address"
        }
      ],
      "name": "isValidator",
      "outputs": [
        {
          "name": "",
          "type": "bool"
        }
      ],
      "payable": false,
      "stateMutability": "view",
      "type": "function"
    },
    {
      "constant": false,
      "inputs": [
        {
          "name": "account",
          "type": "address"
        },
        {
          "name": "funds",
          "type": "uint256"
        }
      ],
      "name": "addValidator",
      "outputs": [],
      "payable": false,
      "stateMutability": "nonpayable",
      "type": "function"
    },
    {
      "constant": true,
      "inputs": [
        {
          "name": "articleNumber",
          "type": "uint256"
        }
      ],
      "name": "getArticleDatePublished",
      "outputs": [
        {
          "name": "datePublished",
          "type": "uint256"
        }
      ],
      "payable": false,
      "stateMutability": "view",
      "type": "function"
    },
    {
      "inputs": [],
      "payable": false,
      "stateMutability": "nonpayable",
      "type": "constructor"
    },
    {
      "payable": true,
      "stateMutability": "payable",
      "type": "fallback"
    },
    {
      "anonymous": false,
      "inputs": [
        {
          "indexed": false,
          "name": "aticleNum",
          "type": "uint256"
        }
      ],
      "name": "ArticleAdded",
      "type": "event"
    },
    {
      "anonymous": false,
      "inputs": [
        {
          "indexed": false,
          "name": "aticleNum",
          "type": "uint256"
        }
      ],
      "name": "ArticleRemoved",
      "type": "event"
    },
    {
      "anonymous": false,
      "inputs": [
        {
          "indexed": false,
          "name": "aticleNum",
          "type": "uint256"
        }
      ],
      "name": "ArticleApproved",
      "type": "event"
    },
    {
      "anonymous": false,
      "inputs": [
        {
          "indexed": false,
          "name": "aticleNum",
          "type": "uint256"
        }
      ],
      "name": "ArticleChallenged",
      "type": "event"
    },
    {
      "anonymous": false,
      "inputs": [
        {
          "indexed": false,
          "name": "aticleNum",
          "type": "uint256"
        }
      ],
      "name": "ArticleUpVoted",
      "type": "event"
    },
    {
      "anonymous": false,
      "inputs": [
        {
          "indexed": false,
          "name": "aticleNum",
          "type": "uint256"
        }
      ],
      "name": "ArticleDownVoted",
      "type": "event"
    },
    {
      "anonymous": false,
      "inputs": [
        {
          "indexed": true,
          "name": "account",
          "type": "address"
        }
      ],
      "name": "ValidatorAdded",
      "type": "event"
    },
    {
      "anonymous": false,
      "inputs": [
        {
          "indexed": true,
          "name": "account",
          "type": "address"
        }
      ],
      "name": "ValidatorRemoved",
      "type": "event"
    },
    {
      "anonymous": false,
      "inputs": [
        {
          "indexed": true,
          "name": "account",
          "type": "address"
        }
      ],
      "name": "ReaderAdded",
      "type": "event"
    },
    {
      "anonymous": false,
      "inputs": [
        {
          "indexed": true,
          "name": "account",
          "type": "address"
        }
      ],
      "name": "ReaderRemoved",
      "type": "event"
    },
    {
      "anonymous": false,
      "inputs": [
        {
          "indexed": false,
          "name": "account",
          "type": "address"
        },
        {
          "indexed": false,
          "name": "challengeId",
          "type": "uint256"
        }
      ],
      "name": "ChallengeAdded",
      "type": "event"
    },
    {
      "anonymous": false,
      "inputs": [
        {
          "indexed": true,
          "name": "account",
          "type": "address"
        }
      ],
      "name": "ContributorAdded",
      "type": "event"
    },
    {
      "anonymous": false,
      "inputs": [
        {
          "indexed": true,
          "name": "account",
          "type": "address"
        }
      ],
      "name": "ContributorRemoved",
      "type": "event"
    },
    {
      "constant": true,
      "inputs": [],
      "name": "isOperational",
      "outputs": [
        {
          "name": "",
          "type": "bool"
        }
      ],
      "payable": false,
      "stateMutability": "view",
      "type": "function"
    },
    {
      "constant": false,
      "inputs": [
        {
          "name": "mode",
          "type": "bool"
        }
      ],
      "name": "setOperatingStatus",
      "outputs": [],
      "payable": false,
      "stateMutability": "nonpayable",
      "type": "function"
    },
    {
      "constant": false,
      "inputs": [
        {
          "name": "_address",
          "type": "address"
        },
        {
          "name": "_fund",
          "type": "uint256"
        }
      ],
      "name": "registerContributor",
      "outputs": [],
      "payable": false,
      "stateMutability": "nonpayable",
      "type": "function"
    },
    {
      "constant": false,
      "inputs": [
        {
          "name": "_address",
          "type": "address"
        },
        {
          "name": "_fund",
          "type": "uint256"
        }
      ],
      "name": "registerReader",
      "outputs": [],
      "payable": false,
      "stateMutability": "nonpayable",
      "type": "function"
    },
    {
      "constant": false,
      "inputs": [
        {
          "name": "_address",
          "type": "address"
        },
        {
          "name": "_fund",
          "type": "uint256"
        }
      ],
      "name": "registerValidator",
      "outputs": [],
      "payable": false,
      "stateMutability": "nonpayable",
      "type": "function"
    },
    {
      "constant": false,
      "inputs": [
        {
          "name": "_address",
          "type": "address"
        },
        {
          "name": "rank",
          "type": "uint256"
        }
      ],
      "name": "setContributorRating",
      "outputs": [],
      "payable": false,
      "stateMutability": "nonpayable",
      "type": "function"
    },
    {
      "constant": false,
      "inputs": [
        {
          "name": "_address",
          "type": "address"
        },
        {
          "name": "rank",
          "type": "uint256"
        }
      ],
      "name": "setReaderRating",
      "outputs": [],
      "payable": false,
      "stateMutability": "nonpayable",
      "type": "function"
    },
    {
      "constant": false,
      "inputs": [
        {
          "name": "_address",
          "type": "address"
        },
        {
          "name": "rank",
          "type": "uint256"
        }
      ],
      "name": "setValidatorRating",
      "outputs": [],
      "payable": false,
      "stateMutability": "nonpayable",
      "type": "function"
    },
    {
      "constant": false,
      "inputs": [
        {
          "name": "_ipfsArticleHash",
          "type": "bytes32"
        },
        {
          "name": "_ipfsReferenceHash",
          "type": "bytes32"
        },
        {
          "name": "_title",
          "type": "string"
        },
        {
          "name": "_datePublished",
          "type": "uint256"
        },
        {
          "name": "_stake",
          "type": "uint256"
        }
      ],
      "name": "addArticle",
      "outputs": [],
      "payable": false,
      "stateMutability": "nonpayable",
      "type": "function"
    },
    {
      "constant": false,
      "inputs": [
        {
          "name": "articleId",
          "type": "uint256"
        }
      ],
      "name": "addArticle",
      "outputs": [],
      "payable": false,
      "stateMutability": "nonpayable",
      "type": "function"
    },
    {
      "constant": true,
      "inputs": [],
      "name": "getNumberOfArticles",
      "outputs": [
        {
          "name": "noOfArticles",
          "type": "uint256"
        }
      ],
      "payable": false,
      "stateMutability": "view",
      "type": "function"
    },
    {
      "constant": true,
      "inputs": [
        {
          "name": "_articleNumber",
          "type": "uint256"
        }
      ],
      "name": "getArticle",
      "outputs": [
        {
          "name": "title",
          "type": "string"
        },
        {
          "name": "datePublished",
          "type": "uint256"
        },
        {
          "name": "upvotes",
          "type": "uint256"
        },
        {
          "name": "downvotes",
          "type": "uint256"
        }
      ],
      "payable": false,
      "stateMutability": "view",
      "type": "function"
    },
    {
      "constant": false,
      "inputs": [],
      "name": "approve",
      "outputs": [],
      "payable": false,
      "stateMutability": "nonpayable",
      "type": "function"
    },
    {
      "constant": false,
      "inputs": [
        {
          "name": "articleId",
          "type": "uint256"
        }
      ],
      "name": "upVoteArticle",
      "outputs": [],
      "payable": false,
      "stateMutability": "nonpayable",
      "type": "function"
    },
    {
      "constant": false,
      "inputs": [
        {
          "name": "articleId",
          "type": "uint256"
        }
      ],
      "name": "downVoteArticle",
      "outputs": [],
      "payable": false,
      "stateMutability": "nonpayable",
      "type": "function"
    },
    {
      "constant": false,
      "inputs": [
        {
          "name": "vote",
          "type": "bool"
        },
        {
          "name": "challengeLost",
          "type": "bool"
        },
        {
          "name": "_contributor",
          "type": "address"
        },
        {
          "name": "articleId",
          "type": "uint256"
        }
      ],
      "name": "updateContributorRating",
      "outputs": [],
      "payable": false,
      "stateMutability": "nonpayable",
      "type": "function"
    },
    {
      "constant": false,
      "inputs": [
        {
          "name": "proofHash",
          "type": "bytes32"
        },
        {
          "name": "stake",
          "type": "uint256"
        },
        {
          "name": "articleId",
          "type": "uint256"
        }
      ],
      "name": "challengeArticle",
      "outputs": [],
      "payable": false,
      "stateMutability": "nonpayable",
      "type": "function"
    },
    {
      "constant": false,
      "inputs": [
        {
          "name": "rulingId",
          "type": "uint256"
        },
        {
          "name": "vote",
          "type": "bool"
        },
        {
          "name": "challengeId",
          "type": "uint256"
        }
      ],
      "name": "voteOnChallenge",
      "outputs": [],
      "payable": false,
      "stateMutability": "nonpayable",
      "type": "function"
    },
    {
      "constant": false,
      "inputs": [
        {
          "name": "amount",
          "type": "uint256"
        }
      ],
      "name": "withdraw",
      "outputs": [],
      "payable": true,
      "stateMutability": "payable",
      "type": "function"
    }
  ],
  "bytecode": "0x60806040526001600c60146101000a81548160ff0219169083151502179055503480156200002c57600080fd5b5062000040336000620000ad60201b60201c565b620000533360006200015660201b60201c565b62000066336000620001ff60201b60201c565b33600c60006101000a81548173ffffffffffffffffffffffffffffffffffffffff021916908373ffffffffffffffffffffffffffffffffffffffff1602179055506200056c565b620000c88260006200031f60201b62003c201790919060201c565b80600160008473ffffffffffffffffffffffffffffffffffffffff1673ffffffffffffffffffffffffffffffffffffffff168152602001908152602001600020600101819055508173ffffffffffffffffffffffffffffffffffffffff167f07681ffd9d424587412481b41d2ee582bb7bca757f626b0477051f302947027260405160405180910390a25050565b620001718260026200031f60201b62003c201790919060201c565b80600360008473ffffffffffffffffffffffffffffffffffffffff1673ffffffffffffffffffffffffffffffffffffffff168152602001908152602001600020600101819055508173ffffffffffffffffffffffffffffffffffffffff167fb7724d890d2888af5a3fc456edb667e2c82c4441449ebcac301c618759e4f86d60405160405180910390a25050565b6200021a8260066200031f60201b62003c201790919060201c565b80600760008473ffffffffffffffffffffffffffffffffffffffff1673ffffffffffffffffffffffffffffffffffffffff168152602001908152602001600020600101819055506200027e60016008546200040360201b62002fb21790919060201c565b6008819055508160096000600854815260200190815260200160002060006101000a81548173ffffffffffffffffffffffffffffffffffffffff021916908373ffffffffffffffffffffffffffffffffffffffff1602179055508173ffffffffffffffffffffffffffffffffffffffff167fe366c1c0452ed8eec96861e9e54141ebff23c9ec89fe27b996b45f5ec388498760405160405180910390a25050565b6200033182826200048c60201b60201c565b15620003a5576040517f08c379a000000000000000000000000000000000000000000000000000000000815260040180806020018281038252601f8152602001807f526f6c65733a206163636f756e7420616c72656164792068617320726f6c650081525060200191505060405180910390fd5b60018260000160008373ffffffffffffffffffffffffffffffffffffffff1673ffffffffffffffffffffffffffffffffffffffff16815260200190815260200160002060006101000a81548160ff0219169083151502179055505050565b60008082840190508381101562000482576040517f08c379a000000000000000000000000000000000000000000000000000000000815260040180806020018281038252601b8152602001807f536166654d6174683a206164646974696f6e206f766572666c6f77000000000081525060200191505060405180910390fd5b8091505092915050565b60008073ffffffffffffffffffffffffffffffffffffffff168273ffffffffffffffffffffffffffffffffffffffff16141562000515576040517f08c379a0000000000000000000000000000000000000000000000000000000008152600401808060200182810382526022815260200180620045666022913960400191505060405180910390fd5b8260000160008373ffffffffffffffffffffffffffffffffffffffff1673ffffffffffffffffffffffffffffffffffffffff16815260200190815260200160002060009054906101000a900460ff16905092915050565b613fea806200057c6000396000f3fe6080604052600436106102885760003560e01c806395f4f4ce1161015a578063d453609a116100c1578063f0c043ee1161007a578063f0c043ee14610ffd578063f530175814611014578063f8f2ba841461106f578063facd743b1461109a578063fc6c1f0214611103578063fc96a8261461115e57610288565b8063d453609a14610daa578063d6f5700914610de5578063d94cd26014610e40578063e0bd7d1514610f30578063e5fef7cd14610f8b578063ef361e5014610fe657610288565b8063c462c42311610113578063c462c42314610c30578063c81b356b14610c47578063cd0b130014610c72578063cd905dff14610cc1578063cee7d9d714610cf0578063d17defcb14610d7f57610288565b806395f4f4ce14610a305780639abee7d014610a7f5780639d0c8a9f14610ada578063af938fc214610b15578063bd85d86714610b2c578063be57e95914610bf557610288565b8063472f0bcc116101fe5780637d4061e6116101b75780637d4061e61461084657806380a24631146108815780638255899d146108dc578063841afbc31461091757806389da85d31461098a578063919165aa146109b557610288565b8063472f0bcc146105e957806357773bfc14610644578063590944d41461069f57806369a7ddf7146106da578063744d5c65146107435780637c224df8146107f757610288565b80631d0d35f5116102505780631d0d35f5146103475780631d8de4f7146103b057806324567a7e146104015780632d85b2831461045c5780632e1a7d4d1461058057806345e73685146105ae57610288565b806301c97c571461028a578063075d4782146102c55780630a75d745146102dc578063110466ed146102f357806312424e3f14610330575b005b34801561029657600080fd5b506102c3600480360360208110156102ad57600080fd5b81019080803590602001909291905050506111ad565b005b3480156102d157600080fd5b506102da611221565b005b3480156102e857600080fd5b506102f16112be565b005b3480156102ff57600080fd5b5061032e6004803603602081101561031657600080fd5b810190808035151590602001909291905050506113d7565b005b34801561033c57600080fd5b506103456114b7565b005b34801561035357600080fd5b506103966004803603602081101561036a57600080fd5b81019080803573ffffffffffffffffffffffffffffffffffffffff1690602001909291905050506115d0565b604051808215151515815260200191505060405180910390f35b3480156103bc57600080fd5b506103ff600480360360608110156103d357600080fd5b8101908080359060200190929190803515159060200190929190803590602001909291905050506115ed565b005b34801561040d57600080fd5b5061045a6004803603604081101561042457600080fd5b81019080803573ffffffffffffffffffffffffffffffffffffffff1690602001909291908035906020019092919050505061191a565b005b34801561046857600080fd5b5061056a600480360360c081101561047f57600080fd5b81019080803573ffffffffffffffffffffffffffffffffffffffff1690602001909291908035906020019092919080359060200190929190803590602001906401000000008111156104d057600080fd5b8201836020820111156104e257600080fd5b8035906020019184600183028401116401000000008311171561050457600080fd5b91908080601f016020809104026020016040519081016040528093929190818152602001838380828437600081840152601f19601f8201169050808301925050505050505091929192908035906020019092919080359060200190929190505050611928565b6040518082815260200191505060405180910390f35b6105ac6004803603602081101561059657600080fd5b8101908080359060200190929190505050611b7b565b005b3480156105ba57600080fd5b506105e7600480360360208110156105d157600080fd5b8101908080359060200190929190505050611fae565b005b3480156105f557600080fd5b506106426004803603604081101561060c57600080fd5b81019080803573ffffffffffffffffffffffffffffffffffffffff16906020019092919080359060200190929190505050612019565b005b34801561065057600080fd5b5061069d6004803603604081101561066757600080fd5b81019080803573ffffffffffffffffffffffffffffffffffffffff16906020019092919080359060200190929190505050612027565b005b3480156106ab57600080fd5b506106d8600480360360208110156106c257600080fd5b8101908080359060200190929190505050612035565b005b3480156106e657600080fd5b50610729600480360360208110156106fd57600080fd5b81019080803573ffffffffffffffffffffffffffffffffffffffff169060200190929190505050612041565b604051808215151515815260200191505060405180910390f35b34801561074f57600080fd5b5061077c6004803603602081101561076657600080fd5b810190808035906020019092919050505061205e565b6040518080602001828103825283818151815260200191508051906020019080838360005b838110156107bc5780820151818401526020810190506107a1565b50505050905090810190601f1680156107e95780820380516001836020036101000a031916815260200191505b509250505060405180910390f35b34801561080357600080fd5b506108306004803603602081101561081a57600080fd5b8101908080359060200190929190505050612122565b6040518082815260200191505060405180910390f35b34801561085257600080fd5b5061087f6004803603602081101561086957600080fd5b810190808035906020019092919050505061214d565b005b34801561088d57600080fd5b506108da600480360360408110156108a457600080fd5b81019080803573ffffffffffffffffffffffffffffffffffffffff169060200190929190803590602001909291905050506121b8565b005b3480156108e857600080fd5b50610915600480360360208110156108ff57600080fd5b8101908080359060200190929190505050612243565b005b34801561092357600080fd5b506109886004803603608081101561093a57600080fd5b81019080803515159060200190929190803515159060200190929190803573ffffffffffffffffffffffffffffffffffffffff169060200190929190803590602001909291905050506122ae565b005b34801561099657600080fd5b5061099f6125af565b6040518082815260200191505060405180910390f35b3480156109c157600080fd5b506109ee600480360360208110156109d857600080fd5b81019080803590602001909291905050506125be565b604051808273ffffffffffffffffffffffffffffffffffffffff1673ffffffffffffffffffffffffffffffffffffffff16815260200191505060405180910390f35b348015610a3c57600080fd5b50610a7d60048036036060811015610a5357600080fd5b810190808035906020019092919080359060200190929190803590602001909291905050506125f1565b005b348015610a8b57600080fd5b50610ad860048036036040811015610aa257600080fd5b81019080803573ffffffffffffffffffffffffffffffffffffffff169060200190929190803590602001909291905050506126c6565b005b348015610ae657600080fd5b50610b1360048036036020811015610afd57600080fd5b81019080803590602001909291905050506126d4565b005b348015610b2157600080fd5b50610b2a612754565b005b348015610b3857600080fd5b50610b6560048036036020811015610b4f57600080fd5b810190808035906020019092919050505061275f565b6040518080602001858152602001848152602001838152602001828103825286818151815260200191508051906020019080838360005b83811015610bb7578082015181840152602081019050610b9c565b50505050905090810190601f168015610be45780820380516001836020036101000a031916815260200191505b509550505050505060405180910390f35b348015610c0157600080fd5b50610c2e60048036036020811015610c1857600080fd5b81019080803590602001909291905050506127b1565b005b348015610c3c57600080fd5b50610c456127bd565b005b348015610c5357600080fd5b50610c5c6127c8565b6040518082815260200191505060405180910390f35b348015610c7e57600080fd5b50610cab60048036036020811015610c9557600080fd5b81019080803590602001909291905050506127ce565b6040518082815260200191505060405180910390f35b348015610ccd57600080fd5b50610cd66127f9565b604051808215151515815260200191505060405180910390f35b348015610cfc57600080fd5b50610d7d600480360360a0811015610d1357600080fd5b8101908080359060200190929190803573ffffffffffffffffffffffffffffffffffffffff1690602001909291908035906020019092919080359060200190929190803573ffffffffffffffffffffffffffffffffffffffff169060200190929190505050612810565b005b348015610d8b57600080fd5b50610d94612aea565b6040518082815260200191505060405180910390f35b348015610db657600080fd5b50610de360048036036020811015610dcd57600080fd5b8101908080359060200190929190505050612af0565b005b348015610df157600080fd5b50610e3e60048036036040811015610e0857600080fd5b81019080803573ffffffffffffffffffffffffffffffffffffffff16906020019092919080359060200190929190505050612b5f565b005b348015610e4c57600080fd5b50610f2e600480360360a0811015610e6357600080fd5b81019080803590602001909291908035906020019092919080359060200190640100000000811115610e9457600080fd5b820183602082011115610ea657600080fd5b80359060200191846001830284011164010000000083111715610ec857600080fd5b91908080601f016020809104026020016040519081016040528093929190818152602001838380828437600081840152601f19601f8201169050808301925050505050505091929192908035906020019092919080359060200190929190505050612b6d565b005b348015610f3c57600080fd5b50610f8960048036036040811015610f5357600080fd5b81019080803573ffffffffffffffffffffffffffffffffffffffff16906020019092919080359060200190929190505050612d13565b005b348015610f9757600080fd5b50610fe460048036036040811015610fae57600080fd5b81019080803573ffffffffffffffffffffffffffffffffffffffff16906020019092919080359060200190929190505050612d9c565b005b348015610ff257600080fd5b50610ffb612e25565b005b34801561100957600080fd5b50611012612ec2565b005b34801561102057600080fd5b5061106d6004803603604081101561103757600080fd5b81019080803573ffffffffffffffffffffffffffffffffffffffff16906020019092919080359060200190929190505050612ecd565b005b34801561107b57600080fd5b50611084612edb565b6040518082815260200191505060405180910390f35b3480156110a657600080fd5b506110e9600480360360208110156110bd57600080fd5b81019080803573ffffffffffffffffffffffffffffffffffffffff169060200190929190505050612ee1565b604051808215151515815260200191505060405180910390f35b34801561110f57600080fd5b5061115c6004803603604081101561112657600080fd5b81019080803573ffffffffffffffffffffffffffffffffffffffff16906020019092919080359060200190929190505050612efe565b005b34801561116a57600080fd5b506111976004803603602081101561118157600080fd5b8101908080359060200190929190505050612f87565b6040518082815260200191505060405180910390f35b6000600b600083815260200190815260200160002090506111dc60018260060154612fb290919063ffffffff16565b81600601819055507feb5a35545b0a45240a67898d2f6187c764da2eaca5c11a0e75e615dd80d9458d600a546040518082815260200191505060405180910390a15050565b61127660018060003373ffffffffffffffffffffffffffffffffffffffff1673ffffffffffffffffffffffffffffffffffffffff16815260200190815260200160002060020154612fb290919063ffffffff16565b600160003373ffffffffffffffffffffffffffffffffffffffff1673ffffffffffffffffffffffffffffffffffffffff16815260200190815260200160002060020181905550565b6112c733612ee1565b611339576040517f08c379a00000000000000000000000000000000000000000000000000000000081526004018080602001828103825260198152602001807f43616c6c6572206973206e6f7420612056616c696461746f720000000000000081525060200191505060405180910390fd5b61138f6001600760003373ffffffffffffffffffffffffffffffffffffffff1673ffffffffffffffffffffffffffffffffffffffff16815260200190815260200160002060030154612fb290919063ffffffff16565b600760003373ffffffffffffffffffffffffffffffffffffffff1673ffffffffffffffffffffffffffffffffffffffff16815260200190815260200160002060030181905550565b600c60009054906101000a900473ffffffffffffffffffffffffffffffffffffffff1673ffffffffffffffffffffffffffffffffffffffff163373ffffffffffffffffffffffffffffffffffffffff161461149a576040517f08c379a00000000000000000000000000000000000000000000000000000000081526004018080602001828103825260138152602001807f43616c6c6572206973206e6f742061646d696e0000000000000000000000000081525060200191505060405180910390fd5b80600c60146101000a81548160ff02191690831515021790555050565b6114c033612ee1565b611532576040517f08c379a00000000000000000000000000000000000000000000000000000000081526004018080602001828103825260198152602001807f43616c6c6572206973206e6f7420612056616c696461746f720000000000000081525060200191505060405180910390fd5b6115886001600760003373ffffffffffffffffffffffffffffffffffffffff1673ffffffffffffffffffffffffffffffffffffffff16815260200190815260200160002060020154612fb290919063ffffffff16565b600760003373ffffffffffffffffffffffffffffffffffffffff1673ffffffffffffffffffffffffffffffffffffffff16815260200190815260200160002060020181905550565b60006115e682600061303a90919063ffffffff16565b9050919050565b6115f633612ee1565b611668576040517f08c379a00000000000000000000000000000000000000000000000000000000081526004018080602001828103825260198152602001807f43616c6c6572206973206e6f7420612056616c696461746f720000000000000081525060200191505060405180910390fd5b600080600090505b60038110156117b0573373ffffffffffffffffffffffffffffffffffffffff16600e600087815260200190815260200160002060020182600381106116b157fe5b0160009054906101000a900473ffffffffffffffffffffffffffffffffffffffff1673ffffffffffffffffffffffffffffffffffffffff1614156117575783600e6000878152602001908152602001600020600501826003811061171157fe5b602091828204019190066101000a81548160ff021916908315150217905550600e6000868152602001908152602001600020600601600081548092919060010191905055505b60011515600e6000878152602001908152602001600020600501826003811061177c57fe5b602091828204019190069054906101000a900460ff16151514156117a35781806001019250505b8080600101915050611670565b50600281106118c45760016005600084815260200190815260200160002060050160006101000a81548160ff02191690831515021790555060006005600084815260200190815260200160002060010160009054906101000a900473ffffffffffffffffffffffffffffffffffffffff16905061187860018060008473ffffffffffffffffffffffffffffffffffffffff1673ffffffffffffffffffffffffffffffffffffffff16815260200190815260200160002060030154612fb290919063ffffffff16565b600160008373ffffffffffffffffffffffffffffffffffffffff1673ffffffffffffffffffffffffffffffffffffffff1681526020019081526020016000206003018190555050611914565b6003600e60008681526020019081526020016000206006015414156119135760006005600084815260200190815260200160002060050160006101000a81548160ff0219169083151502179055505b5b50505050565b6119248282613118565b5050565b60006119406001600a54612fb290919063ffffffff16565b600a819055506040518061018001604052808873ffffffffffffffffffffffffffffffffffffffff168152602001878152602001868152602001858152602001848152602001600073ffffffffffffffffffffffffffffffffffffffff168152602001600015158152602001600015158152602001600015158152602001600081526020016000815260200183815250600b6000600a54815260200190815260200160002060008201518160000160006101000a81548173ffffffffffffffffffffffffffffffffffffffff021916908373ffffffffffffffffffffffffffffffffffffffff16021790555060208201518160010155604082015181600201556060820151816003019080519060200190611a5c929190613cfb565b506080820151816004015560a08201518160050160006101000a81548173ffffffffffffffffffffffffffffffffffffffff021916908373ffffffffffffffffffffffffffffffffffffffff16021790555060c08201518160050160146101000a81548160ff02191690831515021790555060e08201518160050160156101000a81548160ff0219169083151502179055506101008201518160050160166101000a81548160ff0219169083151502179055506101208201518160060155610140820151816007015561016082015181600801559050507f9ed508f9dd7c730fd307b1ca38355cf4d9c00f58a2acfa5167b497c51a859e4c600a546040518082815260200191505060405180910390a1600a5490509695505050505050565b600d60003373ffffffffffffffffffffffffffffffffffffffff1673ffffffffffffffffffffffffffffffffffffffff16815260200190815260200160002054811115611c30576040517f08c379a00000000000000000000000000000000000000000000000000000000081526004018080602001828103825260128152602001807f4e6f7420656e6f7567682062616c616e6365000000000000000000000000000081525060200191505060405180910390fd5b60008060011515611c40336115d0565b15151415611d6c57600160003373ffffffffffffffffffffffffffffffffffffffff1673ffffffffffffffffffffffffffffffffffffffff168152602001908152602001600020600101549050611ca083826131f190919063ffffffff16565b9050671bc16d674ec80000811015611d20576040517f08c379a00000000000000000000000000000000000000000000000000000000081526004018080602001828103825260148152602001807f496e73756666696369656e742042616c616e636500000000000000000000000081525060200191505060405180910390fd5b6001915080600160003373ffffffffffffffffffffffffffffffffffffffff1673ffffffffffffffffffffffffffffffffffffffff168152602001908152602001600020600101819055505b60011515611d7933612ee1565b15151415611ea557600760003373ffffffffffffffffffffffffffffffffffffffff1673ffffffffffffffffffffffffffffffffffffffff168152602001908152602001600020600101549050611dd983826131f190919063ffffffff16565b9050670de0b6b3a7640000811015611e59576040517f08c379a00000000000000000000000000000000000000000000000000000000081526004018080602001828103825260148152602001807f496e73756666696369656e742042616c616e636500000000000000000000000081525060200191505060405180910390fd5b6001915080600760003373ffffffffffffffffffffffffffffffffffffffff1673ffffffffffffffffffffffffffffffffffffffff168152602001908152602001600020600101819055505b60011515611eb233612041565b15151415611ebf57600191505b600115158215151415611fa957611f1e83600d60003373ffffffffffffffffffffffffffffffffffffffff1673ffffffffffffffffffffffffffffffffffffffff168152602001908152602001600020546131f190919063ffffffff16565b600d60003373ffffffffffffffffffffffffffffffffffffffff1673ffffffffffffffffffffffffffffffffffffffff168152602001908152602001600020819055503373ffffffffffffffffffffffffffffffffffffffff166108fc849081150290604051600060405180830381858888f19350505050158015611fa7573d6000803e3d6000fd5b505b505050565b6001600b600083815260200190815260200160002060050160156101000a81548160ff0219169083151502179055507f7794351528fe7be520769ebfe19d7275d2a0ecb197e1bbc23afa224134887ba2600a546040518082815260200191505060405180910390a150565b6120238282612d13565b5050565b612031828261327a565b5050565b61203e816111ad565b50565b600061205782600261303a90919063ffffffff16565b9050919050565b60606000600b600084815260200190815260200160002090506060816003018054600181600116156101000203166002900480601f0160208091040260200160405190810160405280929190818152602001828054600181600116156101000203166002900480156121115780601f106120e657610100808354040283529160200191612111565b820191906000526020600020905b8154815290600101906020018083116120f457829003601f168201915b505050505090508092505050919050565b600080600b600084815260200190815260200160002090506000816007015490508092505050919050565b6001600b600083815260200190815260200160002060050160146101000a81548160ff0219169083151502179055507f60bd4c6e468dd35d1c78b03ddc704f2f270ad2ed13b45bf571438f433db9b8f7600a546040518082815260200191505060405180910390a150565b6121c0613d7b565b600760008473ffffffffffffffffffffffffffffffffffffffff1673ffffffffffffffffffffffffffffffffffffffff168152602001908152602001600020604051806080016040529081600082015481526020016001820154815260200160028201548152602001600382015481525050905081816000018181525050505050565b6001600b600083815260200190815260200160002060050160166101000a81548160ff0219169083151502179055507fe95591b999a8fa4c23f2d0b426271960c193b5eb71cef3bc673ac5be6cb60df4600a546040518082815260200191505060405180910390a150565b600115158315151415612442576000600160008473ffffffffffffffffffffffffffffffffffffffff1673ffffffffffffffffffffffffffffffffffffffff1681526020019081526020016000206000015411156123a25761235b60018060008573ffffffffffffffffffffffffffffffffffffffff1673ffffffffffffffffffffffffffffffffffffffff168152602001908152602001600020600001546131f190919063ffffffff16565b600160008473ffffffffffffffffffffffffffffffffffffffff1673ffffffffffffffffffffffffffffffffffffffff168152602001908152602001600020600001819055505b6123f760018060008573ffffffffffffffffffffffffffffffffffffffff1673ffffffffffffffffffffffffffffffffffffffff16815260200190815260200160002060030154612fb290919063ffffffff16565b600160008473ffffffffffffffffffffffffffffffffffffffff1673ffffffffffffffffffffffffffffffffffffffff168152602001908152602001600020600301819055506125a9565b600115158415151415612498576124796001600b600084815260200190815260200160002060060154612fb290919063ffffffff16565b600b6000838152602001908152602001600020600601819055506124dd565b6124c26001600b600084815260200190815260200160002060070154612fb290919063ffffffff16565b600b6000838152602001908152602001600020600701819055505b600061259b600160008573ffffffffffffffffffffffffffffffffffffffff1673ffffffffffffffffffffffffffffffffffffffff16815260200190815260200160002060000154600b600085815260200190815260200160002060060154600b600086815260200190815260200160002060070154600160008873ffffffffffffffffffffffffffffffffffffffff1673ffffffffffffffffffffffffffffffffffffffff1681526020019081526020016000206002015461335d565b90506125a78382612027565b505b50505050565b60006125b9613404565b905090565b60096020528060005260406000206000915054906101000a900473ffffffffffffffffffffffffffffffffffffffff1681565b6125fa33612041565b61266c576040517f08c379a00000000000000000000000000000000000000000000000000000000081526004018080602001828103825260168152602001807f43616c6c6572206973206e6f742061205265616465720000000000000000000081525060200191505060405180910390fd5b6000600b600083815260200190815260200160002060000160009054906101000a900473ffffffffffffffffffffffffffffffffffffffff1690506126b48282868633612810565b6126c08260045461340e565b50505050565b6126d08282612efe565b5050565b6126fe6001600b600084815260200190815260200160002060070154612fb290919063ffffffff16565b600b6000838152602001908152602001600020600701819055507fd1ff0de57853f81f969355a26960199cd8211f9d274c6c552a148053125b4611600a546040518082815260200191505060405180910390a150565b61275d33613539565b565b6060600080600060606127718661205e565b9050600061277e87612f87565b9050600061278b886127ce565b9050600061279889612122565b9050838383839750975097509750505050509193509193565b6127ba816126d4565b50565b6127c633613593565b565b60085481565b600080600b600084815260200190815260200160002090506000816006015490508092505050919050565b6000600c60149054906101000a900460ff16905090565b6128266001600454612fb290919063ffffffff16565b6004819055506040518060c001604052808681526020018573ffffffffffffffffffffffffffffffffffffffff1681526020018273ffffffffffffffffffffffffffffffffffffffff168152602001848152602001838152602001600015158152506005600060045481526020019081526020016000206000820151816000015560208201518160010160006101000a81548173ffffffffffffffffffffffffffffffffffffffff021916908373ffffffffffffffffffffffffffffffffffffffff16021790555060408201518160020160006101000a81548173ffffffffffffffffffffffffffffffffffffffff021916908373ffffffffffffffffffffffffffffffffffffffff160217905550606082015181600301556080820151816004015560a08201518160050160006101000a81548160ff0219169083151502179055509050506129c26001600360008473ffffffffffffffffffffffffffffffffffffffff1673ffffffffffffffffffffffffffffffffffffffff16815260200190815260200160002060020154612fb290919063ffffffff16565b600360008373ffffffffffffffffffffffffffffffffffffffff1673ffffffffffffffffffffffffffffffffffffffff16815260200190815260200160002060020181905550600360008273ffffffffffffffffffffffffffffffffffffffff1673ffffffffffffffffffffffffffffffffffffffff16815260200190815260200160002060030160045490806001815401808255809150509060018203906000526020600020016000909192909190915055507f71658dcd30af2516252b609c834023d8729aab62422a55f9559c3c854f3a880381600454604051808373ffffffffffffffffffffffffffffffffffffffff1673ffffffffffffffffffffffffffffffffffffffff1681526020018281526020019250505060405180910390a15050505050565b60045481565b600160003373ffffffffffffffffffffffffffffffffffffffff1673ffffffffffffffffffffffffffffffffffffffff16815260200190815260200160002060040181908060018154018082558091505090600182039060005260206000200160009091929091909150555050565b612b6982826121b8565b5050565b612b76336115d0565b612be8576040517f08c379a000000000000000000000000000000000000000000000000000000000815260040180806020018281038252601b8152602001807f43616c6c6572206973206e6f74206120436f6e7472696275746f72000000000081525060200191505060405180910390fd5b600160003373ffffffffffffffffffffffffffffffffffffffff1673ffffffffffffffffffffffffffffffffffffffff16815260200190815260200160002060010154811115612c83576040517f08c379a0000000000000000000000000000000000000000000000000000000008152600401808060200182810382526059815260200180613f026059913960600191505060405180910390fd5b6000612c93338787878787611928565b9050600160003373ffffffffffffffffffffffffffffffffffffffff1673ffffffffffffffffffffffffffffffffffffffff168152602001908152602001600020600401819080600181540180825580915050906001820390600052602060002001600090919290919091505550612d0b81336135ed565b505050505050565b612d1c336115d0565b612d8e576040517f08c379a000000000000000000000000000000000000000000000000000000000815260040180806020018281038252601b8152602001807f43616c6c6572206973206e6f74206120436f6e7472696275746f72000000000081525060200191505060405180910390fd5b612d988282613701565b5050565b612da533612041565b612e17576040517f08c379a00000000000000000000000000000000000000000000000000000000081526004018080602001828103825260168152602001807f43616c6c6572206973206e6f742061205265616465720000000000000000000081525060200191505060405180910390fd5b612e2182826137a3565b5050565b612e7a60018060003373ffffffffffffffffffffffffffffffffffffffff1673ffffffffffffffffffffffffffffffffffffffff16815260200190815260200160002060030154612fb290919063ffffffff16565b600160003373ffffffffffffffffffffffffffffffffffffffff1673ffffffffffffffffffffffffffffffffffffffff16815260200190815260200160002060030181905550565b612ecb33613845565b565b612ed78282612d9c565b5050565b600f5481565b6000612ef782600661303a90919063ffffffff16565b9050919050565b612f0733612ee1565b612f79576040517f08c379a00000000000000000000000000000000000000000000000000000000081526004018080602001828103825260198152602001807f43616c6c6572206973206e6f7420612056616c696461746f720000000000000081525060200191505060405180910390fd5b612f83828261389f565b5050565b600080600b600084815260200190815260200160002090506000816004015490508092505050919050565b600080828401905083811015613030576040517f08c379a000000000000000000000000000000000000000000000000000000000815260040180806020018281038252601b8152602001807f536166654d6174683a206164646974696f6e206f766572666c6f77000000000081525060200191505060405180910390fd5b8091505092915050565b60008073ffffffffffffffffffffffffffffffffffffffff168273ffffffffffffffffffffffffffffffffffffffff1614156130c1576040517f08c379a0000000000000000000000000000000000000000000000000000000008152600401808060200182810382526022815260200180613f9d6022913960400191505060405180910390fd5b8260000160008373ffffffffffffffffffffffffffffffffffffffff1673ffffffffffffffffffffffffffffffffffffffff16815260200190815260200160002060009054906101000a900460ff16905092915050565b613120613da3565b600360008473ffffffffffffffffffffffffffffffffffffffff1673ffffffffffffffffffffffffffffffffffffffff168152602001908152602001600020604051806080016040529081600082015481526020016001820154815260200160028201548152602001600382018054806020026020016040519081016040528092919081815260200182805480156131d757602002820191906000526020600020905b8154815260200190600101908083116131c3575b505050505081525050905081816000018181525050505050565b600082821115613269576040517f08c379a000000000000000000000000000000000000000000000000000000000815260040180806020018281038252601e8152602001807f536166654d6174683a207375627472616374696f6e206f766572666c6f77000081525060200191505060405180910390fd5b600082840390508091505092915050565b613282613dcb565b600160008473ffffffffffffffffffffffffffffffffffffffff1673ffffffffffffffffffffffffffffffffffffffff1681526020019081526020016000206040518060a0016040529081600082015481526020016001820154815260200160028201548152602001600382015481526020016004820180548060200260200160405190810160405280929190818152602001828054801561334357602002820191906000526020600020905b81548152602001906001019080831161332f575b505050505081525050905081816000018181525050505050565b6000806133738486612fb290919063ffffffff16565b9050600061339d600561338f84896139b190919063ffffffff16565b613a4090919063ffffffff16565b905060006133b56001866131f190919063ffffffff16565b90506133ca8882613a4090919063ffffffff16565b90506133df8282612fb290919063ffffffff16565b90506133f485826139b190919063ffffffff16565b9050809350505050949350505050565b6000600a54905090565b6134246001600f54612fb290919063ffffffff16565b600f81905550613432613dfa565b6000600190505b60048110156134d1576009600061344f83613ac6565b815260200190815260200160002060009054906101000a900473ffffffffffffffffffffffffffffffffffffffff1682600183036003811061348d57fe5b602002019073ffffffffffffffffffffffffffffffffffffffff16908173ffffffffffffffffffffffffffffffffffffffff16815250508080600101915050613439565b5080600e6000600f5481526020019081526020016000206002019060036134f9929190613e1c565b5082600e6000600f5481526020019081526020016000206000018190555081600e6000600f54815260200190815260200160002060010181905550505050565b61354d816002613b6390919063ffffffff16565b8073ffffffffffffffffffffffffffffffffffffffff167fe933431644458f1217f9e93d3e000e03c9bbbe55761046d0985c2e4d157bcbaa60405160405180910390a250565b6135a7816000613b6390919063ffffffff16565b8073ffffffffffffffffffffffffffffffffffffffff167f665b9b7911d6a3e5a789e2be1ed4f9ffa84c1259e3b89675234719521112219160405160405180910390a250565b6000600960006135fd6001613ac6565b815260200190815260200160002060009054906101000a900473ffffffffffffffffffffffffffffffffffffffff1690505b8173ffffffffffffffffffffffffffffffffffffffff168173ffffffffffffffffffffffffffffffffffffffff1614156136a757600960006136716001613ac6565b815260200190815260200160002060009054906101000a900473ffffffffffffffffffffffffffffffffffffffff16905061362f565b80600b600085815260200190815260200160002060050160006101000a81548173ffffffffffffffffffffffffffffffffffffffff021916908373ffffffffffffffffffffffffffffffffffffffff160217905550505050565b613715826000613c2090919063ffffffff16565b80600160008473ffffffffffffffffffffffffffffffffffffffff1673ffffffffffffffffffffffffffffffffffffffff168152602001908152602001600020600101819055508173ffffffffffffffffffffffffffffffffffffffff167f07681ffd9d424587412481b41d2ee582bb7bca757f626b0477051f302947027260405160405180910390a25050565b6137b7826002613c2090919063ffffffff16565b80600360008473ffffffffffffffffffffffffffffffffffffffff1673ffffffffffffffffffffffffffffffffffffffff168152602001908152602001600020600101819055508173ffffffffffffffffffffffffffffffffffffffff167fb7724d890d2888af5a3fc456edb667e2c82c4441449ebcac301c618759e4f86d60405160405180910390a25050565b613859816006613b6390919063ffffffff16565b8073ffffffffffffffffffffffffffffffffffffffff167fe1434e25d6611e0db941968fdc97811c982ac1602e951637d206f5fdda9dd8f160405160405180910390a250565b6138b3826006613c2090919063ffffffff16565b80600760008473ffffffffffffffffffffffffffffffffffffffff1673ffffffffffffffffffffffffffffffffffffffff168152602001908152602001600020600101819055506139106001600854612fb290919063ffffffff16565b6008819055508160096000600854815260200190815260200160002060006101000a81548173ffffffffffffffffffffffffffffffffffffffff021916908373ffffffffffffffffffffffffffffffffffffffff1602179055508173ffffffffffffffffffffffffffffffffffffffff167fe366c1c0452ed8eec96861e9e54141ebff23c9ec89fe27b996b45f5ec388498760405160405180910390a25050565b6000808211613a28576040517f08c379a000000000000000000000000000000000000000000000000000000000815260040180806020018281038252601a8152602001807f536166654d6174683a206469766973696f6e206279207a65726f00000000000081525060200191505060405180910390fd5b6000828481613a3357fe5b0490508091505092915050565b600080831415613a535760009050613ac0565b6000828402905082848281613a6457fe5b0414613abb576040517f08c379a0000000000000000000000000000000000000000000000000000000008152600401808060200182810382526021815260200180613f7c6021913960400191505060405180910390fd5b809150505b92915050565b60008060085490506000423385604051602001808481526020018373ffffffffffffffffffffffffffffffffffffffff1673ffffffffffffffffffffffffffffffffffffffff1660601b815260140182815260200193505050506040516020818303038152906040528051906020012060001c90506000613b5083836139b190919063ffffffff16565b9050600081905080945050505050919050565b613b6d828261303a565b613bc2576040517f08c379a0000000000000000000000000000000000000000000000000000000008152600401808060200182810382526021815260200180613f5b6021913960400191505060405180910390fd5b60008260000160008373ffffffffffffffffffffffffffffffffffffffff1673ffffffffffffffffffffffffffffffffffffffff16815260200190815260200160002060006101000a81548160ff0219169083151502179055505050565b613c2a828261303a565b15613c9d576040517f08c379a000000000000000000000000000000000000000000000000000000000815260040180806020018281038252601f8152602001807f526f6c65733a206163636f756e7420616c72656164792068617320726f6c650081525060200191505060405180910390fd5b60018260000160008373ffffffffffffffffffffffffffffffffffffffff1673ffffffffffffffffffffffffffffffffffffffff16815260200190815260200160002060006101000a81548160ff0219169083151502179055505050565b828054600181600116156101000203166002900490600052602060002090601f016020900481019282601f10613d3c57805160ff1916838001178555613d6a565b82800160010185558215613d6a579182015b82811115613d69578251825591602001919060010190613d4e565b5b509050613d779190613e99565b5090565b6040518060800160405280600081526020016000815260200160008152602001600081525090565b6040518060800160405280600081526020016000815260200160008152602001606081525090565b6040518060a0016040528060008152602001600081526020016000815260200160008152602001606081525090565b6040518060600160405280600390602082028038833980820191505090505090565b8260038101928215613e88579160200282015b82811115613e875782518260006101000a81548173ffffffffffffffffffffffffffffffffffffffff021916908373ffffffffffffffffffffffffffffffffffffffff16021790555091602001919060010190613e2f565b5b509050613e959190613ebe565b5090565b613ebb91905b80821115613eb7576000816000905550600101613e9f565b5090565b90565b613efe91905b80821115613efa57600081816101000a81549073ffffffffffffffffffffffffffffffffffffffff021916905550600101613ec4565b5090565b9056fe496e73756666696369656e742066756e647320746f207075626c6973682061727469636c652e20416d6f756e74207374616b65642073686f756c64206265206c657373207468616e206163636f756e742062616c616e63652e526f6c65733a206163636f756e7420646f6573206e6f74206861766520726f6c65536166654d6174683a206d756c7469706c69636174696f6e206f766572666c6f77526f6c65733a206163636f756e7420697320746865207a65726f2061646472657373a165627a7a72305820d0806920bf60ce118148cb210fae024de72a3fadced984f05c8cf3d0a1fd11110029526f6c65733a206163636f756e7420697320746865207a65726f2061646472657373",
  "source": "pragma solidity >=0.4.21 <0.6.0;\r\nimport \"./accessControl/ContributorRole.sol\";\r\nimport \"./accessControl/ReaderRole.sol\";\r\nimport \"./accessControl/ValidatorRole.sol\";\r\nimport \"./Article.sol\";\r\n// Import the library 'Roles' and SafeMath\r\nimport \"../node_modules/openzeppelin-solidity/contracts/math/SafeMath.sol\";\r\n\r\n\r\ncontract Honestmedia is ContributorRole, ReaderRole, ValidatorRole, Article  {\r\n    using SafeMath for uint;\r\n\r\n\taddress owner;\r\n\r\n\t//check if contract operational\r\n    bool private operational = true;\r\n\r\n    //variables to define minimum funding amounts for validators and contributors.\r\n    //These should be checked when adding new actors.\r\n    uint constant MIN_FUNDING_VALIDATOR = 1 ether; //we can decide a different amount\r\n    uint constant MIN_FUNDING_CONTRIBUTOR = 2 ether; //we can decide a different amount\r\n\r\n    //mapping to store available withdrawals\r\n    mapping(address => uint) availableWithdrawls;\r\n\r\n    //Struct to store ruling\r\n    struct ruling {\r\n        uint articleId;\r\n        uint challengeId;\r\n        address[3] validators;\r\n        bool[3] votes;\r\n        uint voted;\r\n    }\r\n\r\n    //Mapping to save ruling for challenges\r\n    mapping(uint => ruling) allRulings;\r\n\r\n    //Variable to save totalRulings\r\n    uint public totalRulings;\r\n\r\n\tconstructor() public {\r\n        owner = msg.sender;\r\n    }\r\n\r\n     modifier requireIsOperational() {\r\n        require(operational, \"Contract is currently not operational\");\r\n        _;  // All modifiers require an \"_\" which indicates where the function body will be added\r\n    }\r\n\r\n    modifier requireContractOwner() {\r\n        require((msg.sender == owner), \"Caller is not admin\");\r\n        _;\r\n    }\r\n\r\n    function isOperational() \r\n                            public \r\n                            view \r\n                            returns(bool) {\r\n        return operational;\r\n    }\r\n\r\n    function setOperatingStatus\r\n                            (\r\n                                bool mode\r\n                            ) \r\n                            external\r\n                            requireContractOwner {\r\n        operational = mode;\r\n    }\r\n\r\n    //add contributor\r\n    function registerContributor(address _address, uint _fund) external {\r\n        ContributorRole.addContributor(_address, _fund);\r\n    }\r\n\r\n    //add reader\r\n    function registerReader(address _address, uint _fund) external {\r\n        ReaderRole.addReader(_address, _fund);\r\n    }\r\n\r\n    //add validator\r\n    function registerValidator(address _address, uint _fund) external {\r\n        ValidatorRole.addValidator(_address, _fund);\r\n    }\r\n\r\n    //seting ranking\r\n    function setContributorRating(address _address, uint rank) public {\r\n    \tContributorRole.setRating(_address, rank);\r\n    }\r\n\r\n    function setReaderRating(address _address, uint rank) external {\r\n    \tReaderRole.setRating(_address, rank);\r\n    }\r\n\r\n    function setValidatorRating(address _address, uint rank) external {\r\n    \tValidatorRole.setRating(_address, rank);\r\n    }\r\n\r\n    //Function to store the article etc\r\n    function addArticle(bytes32 _ipfsArticleHash, bytes32 _ipfsReferenceHash, string memory _title,\r\n                        uint _datePublished, uint _stake) public onlyContributor\r\n    {\r\n        //Check if Amount staked is greater than balance of contributor\r\n        require(_stake <= ContributorRole.allContributors[msg.sender].balance,\r\n                         \"Insufficient funds to publish article. Amount staked should be less than account balance.\");\r\n        uint articleNum = Article.add(msg.sender, _ipfsArticleHash, _ipfsReferenceHash, _title, _datePublished, _stake);\r\n        ContributorRole.allContributors[msg.sender].articles.push(articleNum);\r\n        assignValidator(articleNum, msg.sender);\r\n    }\r\n\r\n    //function get the number of all articles\r\n    function getNumberOfArticles() public view returns (uint noOfArticles){\r\n        return Article.getNumberOfArticles();\r\n    }\r\n\r\n    //function to get the list of all the articles' titles\r\n    function getArticle(uint _articleNumber) public view returns (string memory title, uint datePublished, uint upvotes, uint downvotes){\r\n        string memory articleTitle = Article.getArticleTitle(_articleNumber);\r\n        uint articleDatePublished = Article.getArticleDatePublished(_articleNumber);\r\n        uint articleUpvotes = Article.getArticleUpvotes(_articleNumber);\r\n        uint articleDownvotes = Article.getArticleDownvotes(_articleNumber);\r\n        return (articleTitle, articleDatePublished, articleUpvotes, articleDownvotes);\r\n    }\r\n\r\n    //Assign validator to approve article\r\n    function assignValidator(uint articleId, address contributor) internal {\r\n        //check to see if random validator is also contributor\r\n        address randomValidator = ValidatorRole.validatorIds[random(1)];\r\n        while (randomValidator == contributor){\r\n           randomValidator = ValidatorRole.validatorIds[random(1)];\r\n        }\r\n        Article.allArticles[articleId].validator = randomValidator;\r\n    }\r\n\r\n\r\n    //approve article\r\n    function approve(uint articleId) internal onlyValidator {\r\n        require(Article.allArticles[articleId].validator == msg.sender, \"Validator not authorised\");\r\n        Article.allArticles[articleId].approved = true;\r\n    }\r\n\r\n    //upvote article\r\n    function upVoteArticle(uint articleId) public {\r\n        Article.upVoted(articleId);\r\n    }\r\n\r\n    //downvote article\r\n    function downVoteArticle(uint articleId) public {\r\n        Article.downVoted(articleId);\r\n    }\r\n\r\n    //Function to update rating for Contributors\r\n    function updateContributorRating(bool vote, bool challengeLost, address _contributor, uint articleId) public {\r\n        //change rating after challenge lost\r\n        if(challengeLost == true){\r\n            if(ContributorRole.allContributors[_contributor].rating > 0){\r\n                ContributorRole.allContributors[_contributor].rating = ContributorRole.allContributors[_contributor].rating.sub(1);\r\n            }\r\n            ContributorRole.allContributors[_contributor].challengesLost = ContributorRole.allContributors[_contributor].challengesLost.add(1);\r\n        }else {\r\n        //change rating after reader vote\r\n            if(vote == true){\r\n                Article.allArticles[articleId].upVotes = Article.allArticles[articleId].upVotes.add(1);\r\n            }else {\r\n                Article.allArticles[articleId].downVotes = Article.allArticles[articleId].downVotes.add(1);\r\n            }\r\n            uint newRating = contributorRatingCalculator(ContributorRole.allContributors[_contributor].rating, Article.allArticles[articleId].upVotes,\r\n                                                        Article.allArticles[articleId].downVotes, ContributorRole.allContributors[_contributor].articlesPublished);\r\n            setContributorRating(_contributor, newRating);\r\n        }\r\n    }\r\n\r\n    //Function to calculate rating for Contributors\r\n    function contributorRatingCalculator(uint currentRating, uint upVotes, uint downVotes, uint articles) internal pure returns(uint){\r\n        uint totalRatings = upVotes.add(downVotes);\r\n        uint recentRating = upVotes.div(totalRatings).mul(5);\r\n        uint newRating = articles.sub(1);\r\n        newRating = newRating.mul(currentRating);\r\n        newRating = newRating.add(recentRating);\r\n        newRating = newRating.div(articles);\r\n        return newRating;\r\n    }\r\n\r\n    //Function to challenge an article\r\n    function challengeArticle(bytes32 proofHash, uint stake, uint articleId) external onlyReader {\r\n        address contributor = Article.allArticles[articleId].contributor;\r\n        ReaderRole.challenge(articleId, contributor, proofHash, stake, msg.sender);\r\n        assignValidators(articleId, ReaderRole.totalChallenges);\r\n    }\r\n\r\n    //function to find random validators to vote on challenge\r\n    function assignValidators(uint _articleId, uint _challengeId) internal {\r\n        totalRulings = totalRulings.add(1);\r\n        address[3] memory validators;\r\n        for(uint i = 1; i < 4; i++)\r\n        {\r\n            validators[i-1] = ValidatorRole.validatorIds[random(i)];\r\n        }\r\n        allRulings[totalRulings].validators = validators;\r\n        allRulings[totalRulings].articleId = _articleId;\r\n        allRulings[totalRulings].challengeId = _challengeId;\r\n    }\r\n\r\n    //Random number generator\r\n    function random(uint nonce) internal view returns (uint) {\r\n        uint MAX = ValidatorRole.totalValidators;\r\n        uint seed = uint(keccak256(abi.encodePacked(now, msg.sender, nonce)));\r\n        uint scaled = seed.div(MAX);\r\n        uint adjusted = scaled;\r\n        return adjusted;\r\n    }\r\n\r\n    //function to register validator votes on challenge. Will also check if 2 of 3 consensus is reached\r\n    function voteOnChallenge(uint rulingId, bool vote, uint challengeId) external onlyValidator {\r\n        uint numOfYesVotes;\r\n        for(uint i = 0; i < 3; i++){\r\n            if (allRulings[rulingId].validators[i] == msg.sender) {\r\n                allRulings[rulingId].votes[i] = vote;\r\n                allRulings[rulingId].voted++;\r\n            }\r\n            if(allRulings[rulingId].votes[i] == true)\r\n                numOfYesVotes++;\r\n        }\r\n        if(numOfYesVotes >= 2){\r\n            ReaderRole.allChallenges[challengeId].success = true;\r\n            // update contributor's challenges lost\r\n            address contributor = ReaderRole.allChallenges[challengeId].contributor;\r\n            ContributorRole.allContributors[contributor].challengesLost = ContributorRole.allContributors[contributor].challengesLost.add(1);\r\n            // Distribute Amount staked by contributor to reader and validators\r\n        }else\r\n        {\r\n            if(allRulings[rulingId].voted == 3) {\r\n                ReaderRole.allChallenges[challengeId].success = false;\r\n                // Distribute Amount staked by reader to contributor and validators\r\n            }\r\n        }\r\n    }\r\n\r\n    //function that allows to withdraw funds. For Validators and Contributors their balance should not be less than the minimum funding amount.\r\n    function withdraw(uint amount) external payable {\r\n        require(amount <= availableWithdrawls[msg.sender], \"Not enough balance\");\r\n        bool allow;\r\n        uint balance;\r\n        if(ContributorRole.isContributor(msg.sender) == true){\r\n            balance = ContributorRole.allContributors[msg.sender].balance;\r\n            balance = balance.sub(amount);\r\n            require(balance >= MIN_FUNDING_CONTRIBUTOR, \"Insufficient Balance\");\r\n            allow = true;\r\n            ContributorRole.allContributors[msg.sender].balance = balance;\r\n        }\r\n        if(ValidatorRole.isValidator(msg.sender) == true){\r\n            balance = ValidatorRole.allValidators[msg.sender].balance;\r\n            balance = balance.sub(amount);\r\n            require(balance >= MIN_FUNDING_VALIDATOR, \"Insufficient Balance\");\r\n            allow = true;\r\n            ValidatorRole.allValidators[msg.sender].balance = balance;\r\n        }\r\n        if(ReaderRole.isReader(msg.sender) == true){\r\n            allow = true;\r\n        }\r\n        if(allow == true){\r\n            availableWithdrawls[msg.sender] = availableWithdrawls[msg.sender].sub(amount);\r\n            msg.sender.transfer(amount);\r\n        }\r\n    }\r\n\r\n    //Fallback function\r\n    function () external payable {\r\n    }\r\n\r\n\r\n\r\n}",
  "sourcePath": "C:/Users/rva/Documents/hackathon/honest_media/contracts/Honestmedia.sol",
  "compiler": {
    "name": "solc",
    "version": "0.5.8+commit.23d335f2.Emscripten.clang"
  },
  "schemaVersion": "3.0.10",
  "updatedAt": "2019-07-03T11:22:43.002Z",
  "devdoc": {
    "methods": {}
  },
  "userdoc": {
    "methods": {}
  }
}