{
  "contractName": "Honestmedia",
  "abi": [
    {
      "constant": false,
      "inputs": [
        {
          "name": "articleNumber",
          "type": "uint256"
        }
      ],
      "name": "upVoted",
      "outputs": [],
      "payable": false,
      "stateMutability": "nonpayable",
      "type": "function"
    },
    {
      "constant": false,
      "inputs": [],
      "name": "publish",
      "outputs": [],
      "payable": false,
      "stateMutability": "nonpayable",
      "type": "function"
    },
    {
      "constant": false,
      "inputs": [],
      "name": "ruleOnChallenge",
      "outputs": [],
      "payable": false,
      "stateMutability": "nonpayable",
      "type": "function"
    },
    {
      "constant": true,
      "inputs": [
        {
          "name": "account",
          "type": "address"
        }
      ],
      "name": "isContributor",
      "outputs": [
        {
          "name": "",
          "type": "bool"
        }
      ],
      "payable": false,
      "stateMutability": "view",
      "type": "function"
    },
    {
      "constant": false,
      "inputs": [
        {
          "name": "articleNumber",
          "type": "uint256"
        }
      ],
      "name": "challenged",
      "outputs": [],
      "payable": false,
      "stateMutability": "nonpayable",
      "type": "function"
    },
    {
      "constant": true,
      "inputs": [
        {
          "name": "account",
          "type": "address"
        }
      ],
      "name": "isReader",
      "outputs": [
        {
          "name": "",
          "type": "bool"
        }
      ],
      "payable": false,
      "stateMutability": "view",
      "type": "function"
    },
    {
      "constant": false,
      "inputs": [
        {
          "name": "articleNumber",
          "type": "uint256"
        }
      ],
      "name": "approved",
      "outputs": [],
      "payable": false,
      "stateMutability": "nonpayable",
      "type": "function"
    },
    {
      "constant": false,
      "inputs": [
        {
          "name": "account",
          "type": "address"
        },
        {
          "name": "ranking",
          "type": "uint256"
        }
      ],
      "name": "setRating",
      "outputs": [],
      "payable": false,
      "stateMutability": "nonpayable",
      "type": "function"
    },
    {
      "constant": false,
      "inputs": [
        {
          "name": "articleNumber",
          "type": "uint256"
        }
      ],
      "name": "removed",
      "outputs": [],
      "payable": false,
      "stateMutability": "nonpayable",
      "type": "function"
    },
    {
      "constant": true,
      "inputs": [
        {
          "name": "",
          "type": "uint256"
        }
      ],
      "name": "validatorIds",
      "outputs": [
        {
          "name": "",
          "type": "address"
        }
      ],
      "payable": false,
      "stateMutability": "view",
      "type": "function"
    },
    {
      "constant": false,
      "inputs": [
        {
          "name": "articleNumber",
          "type": "uint256"
        }
      ],
      "name": "downVoted",
      "outputs": [],
      "payable": false,
      "stateMutability": "nonpayable",
      "type": "function"
    },
    {
      "constant": false,
      "inputs": [],
      "name": "renounceReader",
      "outputs": [],
      "payable": false,
      "stateMutability": "nonpayable",
      "type": "function"
    },
    {
      "constant": false,
      "inputs": [],
      "name": "renounceContributor",
      "outputs": [],
      "payable": false,
      "stateMutability": "nonpayable",
      "type": "function"
    },
    {
      "constant": true,
      "inputs": [],
      "name": "totalValidators",
      "outputs": [
        {
          "name": "",
          "type": "uint256"
        }
      ],
      "payable": false,
      "stateMutability": "view",
      "type": "function"
    },
    {
      "constant": false,
      "inputs": [
        {
          "name": "articleId",
          "type": "uint256"
        },
        {
          "name": "contributor",
          "type": "address"
        },
        {
          "name": "proofHash",
          "type": "bytes32"
        },
        {
          "name": "stake",
          "type": "uint256"
        },
        {
          "name": "account",
          "type": "address"
        }
      ],
      "name": "challenge",
      "outputs": [],
      "payable": false,
      "stateMutability": "nonpayable",
      "type": "function"
    },
    {
      "constant": true,
      "inputs": [],
      "name": "totalChallenges",
      "outputs": [
        {
          "name": "",
          "type": "uint256"
        }
      ],
      "payable": false,
      "stateMutability": "view",
      "type": "function"
    },
    {
      "constant": false,
      "inputs": [
        {
          "name": "account",
          "type": "address"
        },
        {
          "name": "fund",
          "type": "uint256"
        }
      ],
      "name": "addContributor",
      "outputs": [],
      "payable": false,
      "stateMutability": "nonpayable",
      "type": "function"
    },
    {
      "constant": false,
      "inputs": [
        {
          "name": "account",
          "type": "address"
        },
        {
          "name": "funds",
          "type": "uint256"
        }
      ],
      "name": "addReader",
      "outputs": [],
      "payable": false,
      "stateMutability": "nonpayable",
      "type": "function"
    },
    {
      "constant": false,
      "inputs": [],
      "name": "updateChallenge",
      "outputs": [],
      "payable": false,
      "stateMutability": "nonpayable",
      "type": "function"
    },
    {
      "constant": false,
      "inputs": [],
      "name": "renounceValidator",
      "outputs": [],
      "payable": false,
      "stateMutability": "nonpayable",
      "type": "function"
    },
    {
      "constant": true,
      "inputs": [],
      "name": "totalRulings",
      "outputs": [
        {
          "name": "",
          "type": "uint256"
        }
      ],
      "payable": false,
      "stateMutability": "view",
      "type": "function"
    },
    {
      "constant": true,
      "inputs": [
        {
          "name": "account",
          "type": "address"
        }
      ],
      "name": "isValidator",
      "outputs": [
        {
          "name": "",
          "type": "bool"
        }
      ],
      "payable": false,
      "stateMutability": "view",
      "type": "function"
    },
    {
      "constant": false,
      "inputs": [
        {
          "name": "account",
          "type": "address"
        },
        {
          "name": "funds",
          "type": "uint256"
        }
      ],
      "name": "addValidator",
      "outputs": [],
      "payable": false,
      "stateMutability": "nonpayable",
      "type": "function"
    },
    {
      "inputs": [],
      "payable": false,
      "stateMutability": "nonpayable",
      "type": "constructor"
    },
    {
      "anonymous": false,
      "inputs": [
        {
          "indexed": false,
          "name": "aticleNum",
          "type": "uint256"
        }
      ],
      "name": "ArticleAdded",
      "type": "event"
    },
    {
      "anonymous": false,
      "inputs": [
        {
          "indexed": false,
          "name": "aticleNum",
          "type": "uint256"
        }
      ],
      "name": "ArticleRemoved",
      "type": "event"
    },
    {
      "anonymous": false,
      "inputs": [
        {
          "indexed": false,
          "name": "aticleNum",
          "type": "uint256"
        }
      ],
      "name": "ArticleApproved",
      "type": "event"
    },
    {
      "anonymous": false,
      "inputs": [
        {
          "indexed": false,
          "name": "aticleNum",
          "type": "uint256"
        }
      ],
      "name": "ArticleChallenged",
      "type": "event"
    },
    {
      "anonymous": false,
      "inputs": [
        {
          "indexed": false,
          "name": "aticleNum",
          "type": "uint256"
        }
      ],
      "name": "ArticleUpVoted",
      "type": "event"
    },
    {
      "anonymous": false,
      "inputs": [
        {
          "indexed": false,
          "name": "aticleNum",
          "type": "uint256"
        }
      ],
      "name": "ArticleDownVoted",
      "type": "event"
    },
    {
      "anonymous": false,
      "inputs": [
        {
          "indexed": true,
          "name": "account",
          "type": "address"
        }
      ],
      "name": "ValidatorAdded",
      "type": "event"
    },
    {
      "anonymous": false,
      "inputs": [
        {
          "indexed": true,
          "name": "account",
          "type": "address"
        }
      ],
      "name": "ValidatorRemoved",
      "type": "event"
    },
    {
      "anonymous": false,
      "inputs": [
        {
          "indexed": true,
          "name": "account",
          "type": "address"
        }
      ],
      "name": "ReaderAdded",
      "type": "event"
    },
    {
      "anonymous": false,
      "inputs": [
        {
          "indexed": true,
          "name": "account",
          "type": "address"
        }
      ],
      "name": "ReaderRemoved",
      "type": "event"
    },
    {
      "anonymous": false,
      "inputs": [
        {
          "indexed": false,
          "name": "account",
          "type": "address"
        },
        {
          "indexed": false,
          "name": "challengeId",
          "type": "uint256"
        }
      ],
      "name": "ChallengeAdded",
      "type": "event"
    },
    {
      "anonymous": false,
      "inputs": [
        {
          "indexed": true,
          "name": "account",
          "type": "address"
        }
      ],
      "name": "ContributorAdded",
      "type": "event"
    },
    {
      "anonymous": false,
      "inputs": [
        {
          "indexed": true,
          "name": "account",
          "type": "address"
        }
      ],
      "name": "ContributorRemoved",
      "type": "event"
    },
    {
      "constant": true,
      "inputs": [],
      "name": "isOperational",
      "outputs": [
        {
          "name": "",
          "type": "bool"
        }
      ],
      "payable": false,
      "stateMutability": "view",
      "type": "function"
    },
    {
      "constant": false,
      "inputs": [
        {
          "name": "mode",
          "type": "bool"
        }
      ],
      "name": "setOperatingStatus",
      "outputs": [],
      "payable": false,
      "stateMutability": "nonpayable",
      "type": "function"
    },
    {
      "constant": false,
      "inputs": [
        {
          "name": "_address",
          "type": "address"
        },
        {
          "name": "rank",
          "type": "uint256"
        }
      ],
      "name": "setContributorRating",
      "outputs": [],
      "payable": false,
      "stateMutability": "nonpayable",
      "type": "function"
    },
    {
      "constant": false,
      "inputs": [
        {
          "name": "_address",
          "type": "address"
        },
        {
          "name": "rank",
          "type": "uint256"
        }
      ],
      "name": "setReaderRating",
      "outputs": [],
      "payable": false,
      "stateMutability": "nonpayable",
      "type": "function"
    },
    {
      "constant": false,
      "inputs": [
        {
          "name": "_address",
          "type": "address"
        },
        {
          "name": "rank",
          "type": "uint256"
        }
      ],
      "name": "setValidatorRating",
      "outputs": [],
      "payable": false,
      "stateMutability": "nonpayable",
      "type": "function"
    },
    {
      "constant": false,
      "inputs": [
        {
          "name": "articleId",
          "type": "uint256"
        }
      ],
      "name": "addArticle",
      "outputs": [],
      "payable": false,
      "stateMutability": "nonpayable",
      "type": "function"
    },
    {
      "constant": false,
      "inputs": [
        {
          "name": "_ipfsArticleHash",
          "type": "bytes32"
        },
        {
          "name": "_ipfsReferenceHash",
          "type": "bytes32"
        },
        {
          "name": "_title",
          "type": "string"
        },
        {
          "name": "_datePublished",
          "type": "uint256"
        },
        {
          "name": "_stake",
          "type": "uint256"
        }
      ],
      "name": "addArticle",
      "outputs": [],
      "payable": false,
      "stateMutability": "nonpayable",
      "type": "function"
    },
    {
      "constant": false,
      "inputs": [
        {
          "name": "_contributor",
          "type": "address"
        },
        {
          "name": "_ipfsArticleHash",
          "type": "bytes32"
        },
        {
          "name": "_ipfsReferenceHash",
          "type": "bytes32"
        },
        {
          "name": "_title",
          "type": "string"
        },
        {
          "name": "_datePublished",
          "type": "uint256"
        },
        {
          "name": "_stake",
          "type": "uint256"
        }
      ],
      "name": "addArticle",
      "outputs": [
        {
          "name": "",
          "type": "uint256"
        }
      ],
      "payable": false,
      "stateMutability": "nonpayable",
      "type": "function"
    },
    {
      "constant": false,
      "inputs": [],
      "name": "approve",
      "outputs": [],
      "payable": false,
      "stateMutability": "nonpayable",
      "type": "function"
    },
    {
      "constant": false,
      "inputs": [
        {
          "name": "vote",
          "type": "bool"
        },
        {
          "name": "challengeLost",
          "type": "bool"
        },
        {
          "name": "_contributor",
          "type": "address"
        },
        {
          "name": "articleId",
          "type": "uint256"
        }
      ],
      "name": "updateContributorRating",
      "outputs": [],
      "payable": false,
      "stateMutability": "nonpayable",
      "type": "function"
    },
    {
      "constant": false,
      "inputs": [
        {
          "name": "proofHash",
          "type": "bytes32"
        },
        {
          "name": "stake",
          "type": "uint256"
        },
        {
          "name": "articleId",
          "type": "uint256"
        }
      ],
      "name": "challengeArticle",
      "outputs": [],
      "payable": false,
      "stateMutability": "nonpayable",
      "type": "function"
    },
    {
      "constant": false,
      "inputs": [
        {
          "name": "rulingId",
          "type": "uint256"
        },
        {
          "name": "vote",
          "type": "bool"
        },
        {
          "name": "challengeId",
          "type": "uint256"
        }
      ],
      "name": "voteOnChallenge",
      "outputs": [],
      "payable": false,
      "stateMutability": "nonpayable",
      "type": "function"
    }
  ],
  "bytecode": "0x60806040526001600c60146101000a81548160ff0219169083151502179055503480156200002c57600080fd5b5062000049336000620000c8640100000000026401000000009004565b620000653360006200017a640100000000026401000000009004565b620000813360006200022c640100000000026401000000009004565b33600c60006101000a81548173ffffffffffffffffffffffffffffffffffffffff021916908373ffffffffffffffffffffffffffffffffffffffff160217905550620005fc565b620000ec8260006200035e6401000000000262003261179091906401000000009004565b80600160008473ffffffffffffffffffffffffffffffffffffffff1673ffffffffffffffffffffffffffffffffffffffff168152602001908152602001600020600101819055508173ffffffffffffffffffffffffffffffffffffffff167f07681ffd9d424587412481b41d2ee582bb7bca757f626b0477051f302947027260405160405180910390a25050565b6200019e8260026200035e6401000000000262003261179091906401000000009004565b80600360008473ffffffffffffffffffffffffffffffffffffffff1673ffffffffffffffffffffffffffffffffffffffff168152602001908152602001600020600101819055508173ffffffffffffffffffffffffffffffffffffffff167fb7724d890d2888af5a3fc456edb667e2c82c4441449ebcac301c618759e4f86d60405160405180910390a25050565b620002508260066200035e6401000000000262003261179091906401000000009004565b80600760008473ffffffffffffffffffffffffffffffffffffffff1673ffffffffffffffffffffffffffffffffffffffff16815260200190815260200160002060010181905550620002bd60016008546200044d6401000000000262002513179091906401000000009004565b6008819055508160096000600854815260200190815260200160002060006101000a81548173ffffffffffffffffffffffffffffffffffffffff021916908373ffffffffffffffffffffffffffffffffffffffff1602179055508173ffffffffffffffffffffffffffffffffffffffff167fe366c1c0452ed8eec96861e9e54141ebff23c9ec89fe27b996b45f5ec388498760405160405180910390a25050565b620003798282620004d8640100000000026401000000009004565b151515620003ef576040517f08c379a000000000000000000000000000000000000000000000000000000000815260040180806020018281038252601f8152602001807f526f6c65733a206163636f756e7420616c72656164792068617320726f6c650081525060200191505060405180910390fd5b60018260000160008373ffffffffffffffffffffffffffffffffffffffff1673ffffffffffffffffffffffffffffffffffffffff16815260200190815260200160002060006101000a81548160ff0219169083151502179055505050565b6000808284019050838110151515620004ce576040517f08c379a000000000000000000000000000000000000000000000000000000000815260040180806020018281038252601b8152602001807f536166654d6174683a206164646974696f6e206f766572666c6f77000000000081525060200191505060405180910390fd5b8091505092915050565b60008073ffffffffffffffffffffffffffffffffffffffff168273ffffffffffffffffffffffffffffffffffffffff1614151515620005a5576040517f08c379a00000000000000000000000000000000000000000000000000000000081526004018080602001828103825260228152602001807f526f6c65733a206163636f756e7420697320746865207a65726f20616464726581526020017f737300000000000000000000000000000000000000000000000000000000000081525060400191505060405180910390fd5b8260000160008373ffffffffffffffffffffffffffffffffffffffff1673ffffffffffffffffffffffffffffffffffffffff16815260200190815260200160002060009054906101000a900460ff16905092915050565b613574806200060c6000396000f3fe6080604052600436106101b7576000357c0100000000000000000000000000000000000000000000000000000000900463ffffffff16806301c97c57146101bc578063075d4782146101f75780630a75d7451461020e578063110466ed1461022557806312424e3f146102625780631d0d35f5146102795780631d8de4f7146102e257806324567a7e1461033357806345e736851461038e57806357773bfc146103c957806369a7ddf7146104245780637d4061e61461048d57806380a24631146104c85780638255899d14610523578063841afbc31461055e578063919165aa146105d157806395f4f4ce1461064c5780639d0c8a9f1461069b578063af938fc2146106d6578063c33994fb146106ed578063c462c42314610811578063c81b356b14610828578063cd905dff14610853578063cee7d9d714610882578063d17defcb14610911578063d453609a1461093c578063d6f5700914610977578063d94cd260146109d2578063e0bd7d1514610ac2578063e5fef7cd14610b1d578063ef361e5014610b78578063f0c043ee14610b8f578063f8f2ba8414610ba6578063facd743b14610bd1578063fc6c1f0214610c3a575b600080fd5b3480156101c857600080fd5b506101f5600480360360208110156101df57600080fd5b8101908080359060200190929190505050610c95565b005b34801561020357600080fd5b5061020c610d15565b005b34801561021a57600080fd5b50610223610db2565b005b34801561023157600080fd5b506102606004803603602081101561024857600080fd5b81019080803515159060200190929190505050610ecd565b005b34801561026e57600080fd5b50610277610faf565b005b34801561028557600080fd5b506102c86004803603602081101561029c57600080fd5b81019080803573ffffffffffffffffffffffffffffffffffffffff1690602001909291905050506110ca565b604051808215151515815260200191505060405180910390f35b3480156102ee57600080fd5b506103316004803603606081101561030557600080fd5b8101908080359060200190929190803515159060200190929190803590602001909291905050506110e7565b005b34801561033f57600080fd5b5061038c6004803603604081101561035657600080fd5b81019080803573ffffffffffffffffffffffffffffffffffffffff1690602001909291908035906020019092919050505061141e565b005b34801561039a57600080fd5b506103c7600480360360208110156103b157600080fd5b810190808035906020019092919050505061142c565b005b3480156103d557600080fd5b50610422600480360360408110156103ec57600080fd5b81019080803573ffffffffffffffffffffffffffffffffffffffff16906020019092919080359060200190929190505050611497565b005b34801561043057600080fd5b506104736004803603602081101561044757600080fd5b81019080803573ffffffffffffffffffffffffffffffffffffffff1690602001909291905050506114a5565b604051808215151515815260200191505060405180910390f35b34801561049957600080fd5b506104c6600480360360208110156104b057600080fd5b81019080803590602001909291905050506114c2565b005b3480156104d457600080fd5b50610521600480360360408110156104eb57600080fd5b81019080803573ffffffffffffffffffffffffffffffffffffffff1690602001909291908035906020019092919050505061152d565b005b34801561052f57600080fd5b5061055c6004803603602081101561054657600080fd5b81019080803590602001909291905050506115b9565b005b34801561056a57600080fd5b506105cf6004803603608081101561058157600080fd5b81019080803515159060200190929190803515159060200190929190803573ffffffffffffffffffffffffffffffffffffffff16906020019092919080359060200190929190505050611624565b005b3480156105dd57600080fd5b5061060a600480360360208110156105f457600080fd5b8101908080359060200190929190505050611925565b604051808273ffffffffffffffffffffffffffffffffffffffff1673ffffffffffffffffffffffffffffffffffffffff16815260200191505060405180910390f35b34801561065857600080fd5b506106996004803603606081101561066f57600080fd5b81019080803590602001909291908035906020019092919080359060200190929190505050611958565b005b3480156106a757600080fd5b506106d4600480360360208110156106be57600080fd5b8101908080359060200190929190505050611a2f565b005b3480156106e257600080fd5b506106eb611aaf565b005b3480156106f957600080fd5b506107fb600480360360c081101561071057600080fd5b81019080803573ffffffffffffffffffffffffffffffffffffffff16906020019092919080359060200190929190803590602001909291908035906020019064010000000081111561076157600080fd5b82018360208201111561077357600080fd5b8035906020019184600183028401116401000000008311171561079557600080fd5b91908080601f016020809104026020016040519081016040528093929190818152602001838380828437600081840152601f19601f8201169050808301925050505050505091929192908035906020019092919080359060200190929190505050611aba565b6040518082815260200191505060405180910390f35b34801561081d57600080fd5b50610826611d0e565b005b34801561083457600080fd5b5061083d611d19565b6040518082815260200191505060405180910390f35b34801561085f57600080fd5b50610868611d1f565b604051808215151515815260200191505060405180910390f35b34801561088e57600080fd5b5061090f600480360360a08110156108a557600080fd5b8101908080359060200190929190803573ffffffffffffffffffffffffffffffffffffffff1690602001909291908035906020019092919080359060200190929190803573ffffffffffffffffffffffffffffffffffffffff169060200190929190505050611d36565b005b34801561091d57600080fd5b50610926612011565b6040518082815260200191505060405180910390f35b34801561094857600080fd5b506109756004803603602081101561095f57600080fd5b8101908080359060200190929190505050612017565b005b34801561098357600080fd5b506109d06004803603604081101561099a57600080fd5b81019080803573ffffffffffffffffffffffffffffffffffffffff16906020019092919080359060200190929190505050612086565b005b3480156109de57600080fd5b50610ac0600480360360a08110156109f557600080fd5b81019080803590602001909291908035906020019092919080359060200190640100000000811115610a2657600080fd5b820183602082011115610a3857600080fd5b80359060200191846001830284011164010000000083111715610a5a57600080fd5b91908080601f016020809104026020016040519081016040528093929190818152602001838380828437600081840152601f19601f8201169050808301925050505050505091929192908035906020019092919080359060200190929190505050612094565b005b348015610ace57600080fd5b50610b1b60048036036040811015610ae557600080fd5b81019080803573ffffffffffffffffffffffffffffffffffffffff169060200190929190803590602001909291905050506122a7565b005b348015610b2957600080fd5b50610b7660048036036040811015610b4057600080fd5b81019080803573ffffffffffffffffffffffffffffffffffffffff16906020019092919080359060200190929190505050612332565b005b348015610b8457600080fd5b50610b8d6123bd565b005b348015610b9b57600080fd5b50610ba461245a565b005b348015610bb257600080fd5b50610bbb612465565b6040518082815260200191505060405180910390f35b348015610bdd57600080fd5b50610c2060048036036020811015610bf457600080fd5b81019080803573ffffffffffffffffffffffffffffffffffffffff16906020019092919050505061246b565b604051808215151515815260200191505060405180910390f35b348015610c4657600080fd5b50610c9360048036036040811015610c5d57600080fd5b81019080803573ffffffffffffffffffffffffffffffffffffffff16906020019092919080359060200190929190505050612488565b005b610cbf6001600b60008481526020019081526020016000206006015461251390919063ffffffff16565b600b6000838152602001908152602001600020600601819055507feb5a35545b0a45240a67898d2f6187c764da2eaca5c11a0e75e615dd80d9458d600a546040518082815260200191505060405180910390a150565b610d6a60018060003373ffffffffffffffffffffffffffffffffffffffff1673ffffffffffffffffffffffffffffffffffffffff1681526020019081526020016000206002015461251390919063ffffffff16565b600160003373ffffffffffffffffffffffffffffffffffffffff1673ffffffffffffffffffffffffffffffffffffffff16815260200190815260200160002060020181905550565b610dbb3361246b565b1515610e2f576040517f08c379a00000000000000000000000000000000000000000000000000000000081526004018080602001828103825260198152602001807f43616c6c6572206973206e6f7420612056616c696461746f720000000000000081525060200191505060405180910390fd5b610e856001600760003373ffffffffffffffffffffffffffffffffffffffff1673ffffffffffffffffffffffffffffffffffffffff1681526020019081526020016000206003015461251390919063ffffffff16565b600760003373ffffffffffffffffffffffffffffffffffffffff1673ffffffffffffffffffffffffffffffffffffffff16815260200190815260200160002060030181905550565b600c60009054906101000a900473ffffffffffffffffffffffffffffffffffffffff1673ffffffffffffffffffffffffffffffffffffffff163373ffffffffffffffffffffffffffffffffffffffff16141515610f92576040517f08c379a00000000000000000000000000000000000000000000000000000000081526004018080602001828103825260138152602001807f43616c6c6572206973206e6f742061646d696e0000000000000000000000000081525060200191505060405180910390fd5b80600c60146101000a81548160ff02191690831515021790555050565b610fb83361246b565b151561102c576040517f08c379a00000000000000000000000000000000000000000000000000000000081526004018080602001828103825260198152602001807f43616c6c6572206973206e6f7420612056616c696461746f720000000000000081525060200191505060405180910390fd5b6110826001600760003373ffffffffffffffffffffffffffffffffffffffff1673ffffffffffffffffffffffffffffffffffffffff1681526020019081526020016000206002015461251390919063ffffffff16565b600760003373ffffffffffffffffffffffffffffffffffffffff1673ffffffffffffffffffffffffffffffffffffffff16815260200190815260200160002060020181905550565b60006110e082600061259d90919063ffffffff16565b9050919050565b6110f03361246b565b1515611164576040517f08c379a00000000000000000000000000000000000000000000000000000000081526004018080602001828103825260198152602001807f43616c6c6572206973206e6f7420612056616c696461746f720000000000000081525060200191505060405180910390fd5b600080600090505b60038110156112b2573373ffffffffffffffffffffffffffffffffffffffff16600e6000878152602001908152602001600020600201826003811015156111af57fe5b0160009054906101000a900473ffffffffffffffffffffffffffffffffffffffff1673ffffffffffffffffffffffffffffffffffffffff1614156112575783600e60008781526020019081526020016000206005018260038110151561121157fe5b602091828204019190066101000a81548160ff021916908315150217905550600e6000868152602001908152602001600020600601600081548092919060010191905055505b60011515600e60008781526020019081526020016000206005018260038110151561127e57fe5b602091828204019190069054906101000a900460ff16151514156112a55781806001019250505b808060010191505061116c565b506002811015156113c85760016005600084815260200190815260200160002060050160006101000a81548160ff02191690831515021790555060006005600084815260200190815260200160002060010160009054906101000a900473ffffffffffffffffffffffffffffffffffffffff16905061137c60018060008473ffffffffffffffffffffffffffffffffffffffff1673ffffffffffffffffffffffffffffffffffffffff1681526020019081526020016000206003015461251390919063ffffffff16565b600160008373ffffffffffffffffffffffffffffffffffffffff1673ffffffffffffffffffffffffffffffffffffffff1681526020019081526020016000206003018190555050611418565b6003600e60008681526020019081526020016000206006015414156114175760006005600084815260200190815260200160002060050160006101000a81548160ff0219169083151502179055505b5b50505050565b61142882826126c0565b5050565b6001600b600083815260200190815260200160002060050160156101000a81548160ff0219169083151502179055507f7794351528fe7be520769ebfe19d7275d2a0ecb197e1bbc23afa224134887ba2600a546040518082815260200191505060405180910390a150565b6114a1828261279a565b5050565b60006114bb82600261259d90919063ffffffff16565b9050919050565b6001600b600083815260200190815260200160002060050160146101000a81548160ff0219169083151502179055507f60bd4c6e468dd35d1c78b03ddc704f2f270ad2ed13b45bf571438f433db9b8f7600a546040518082815260200191505060405180910390a150565b61153561333e565b600760008473ffffffffffffffffffffffffffffffffffffffff1673ffffffffffffffffffffffffffffffffffffffff16815260200190815260200160002060806040519081016040529081600082015481526020016001820154815260200160028201548152602001600382015481525050905081816000018181525050505050565b6001600b600083815260200190815260200160002060050160166101000a81548160ff0219169083151502179055507fe95591b999a8fa4c23f2d0b426271960c193b5eb71cef3bc673ac5be6cb60df4600a546040518082815260200191505060405180910390a150565b6001151583151514156117b8576000600160008473ffffffffffffffffffffffffffffffffffffffff1673ffffffffffffffffffffffffffffffffffffffff168152602001908152602001600020600001541115611718576116d160018060008573ffffffffffffffffffffffffffffffffffffffff1673ffffffffffffffffffffffffffffffffffffffff1681526020019081526020016000206000015461287e90919063ffffffff16565b600160008473ffffffffffffffffffffffffffffffffffffffff1673ffffffffffffffffffffffffffffffffffffffff168152602001908152602001600020600001819055505b61176d60018060008573ffffffffffffffffffffffffffffffffffffffff1673ffffffffffffffffffffffffffffffffffffffff1681526020019081526020016000206003015461251390919063ffffffff16565b600160008473ffffffffffffffffffffffffffffffffffffffff1673ffffffffffffffffffffffffffffffffffffffff1681526020019081526020016000206003018190555061191f565b60011515841515141561180e576117ef6001600b60008481526020019081526020016000206006015461251390919063ffffffff16565b600b600083815260200190815260200160002060060181905550611853565b6118386001600b60008481526020019081526020016000206007015461251390919063ffffffff16565b600b6000838152602001908152602001600020600701819055505b6000611911600160008573ffffffffffffffffffffffffffffffffffffffff1673ffffffffffffffffffffffffffffffffffffffff16815260200190815260200160002060000154600b600085815260200190815260200160002060060154600b600086815260200190815260200160002060070154600160008873ffffffffffffffffffffffffffffffffffffffff1673ffffffffffffffffffffffffffffffffffffffff16815260200190815260200160002060020154612909565b905061191d8382611497565b505b50505050565b60096020528060005260406000206000915054906101000a900473ffffffffffffffffffffffffffffffffffffffff1681565b611961336114a5565b15156119d5576040517f08c379a00000000000000000000000000000000000000000000000000000000081526004018080602001828103825260168152602001807f43616c6c6572206973206e6f742061205265616465720000000000000000000081525060200191505060405180910390fd5b6000600b600083815260200190815260200160002060000160009054906101000a900473ffffffffffffffffffffffffffffffffffffffff169050611a1d8282868633611d36565b611a29826004546129b0565b50505050565b611a596001600b60008481526020019081526020016000206007015461251390919063ffffffff16565b600b6000838152602001908152602001600020600701819055507fd1ff0de57853f81f969355a26960199cd8211f9d274c6c552a148053125b4611600a546040518082815260200191505060405180910390a150565b611ab833612add565b565b6000611ad26001600a5461251390919063ffffffff16565b600a81905550610180604051908101604052808873ffffffffffffffffffffffffffffffffffffffff168152602001878152602001868152602001858152602001848152602001600073ffffffffffffffffffffffffffffffffffffffff168152602001600015158152602001600015158152602001600015158152602001600081526020016000815260200183815250600b6000600a54815260200190815260200160002060008201518160000160006101000a81548173ffffffffffffffffffffffffffffffffffffffff021916908373ffffffffffffffffffffffffffffffffffffffff16021790555060208201518160010155604082015181600201556060820151816003019080519060200190611bef929190613367565b506080820151816004015560a08201518160050160006101000a81548173ffffffffffffffffffffffffffffffffffffffff021916908373ffffffffffffffffffffffffffffffffffffffff16021790555060c08201518160050160146101000a81548160ff02191690831515021790555060e08201518160050160156101000a81548160ff0219169083151502179055506101008201518160050160166101000a81548160ff0219169083151502179055506101208201518160060155610140820151816007015561016082015181600801559050507f9ed508f9dd7c730fd307b1ca38355cf4d9c00f58a2acfa5167b497c51a859e4c600a546040518082815260200191505060405180910390a1600a5490509695505050505050565b611d1733612b37565b565b60085481565b6000600c60149054906101000a900460ff16905090565b611d4c600160045461251390919063ffffffff16565b60048190555060c0604051908101604052808681526020018573ffffffffffffffffffffffffffffffffffffffff1681526020018273ffffffffffffffffffffffffffffffffffffffff168152602001848152602001838152602001600015158152506005600060045481526020019081526020016000206000820151816000015560208201518160010160006101000a81548173ffffffffffffffffffffffffffffffffffffffff021916908373ffffffffffffffffffffffffffffffffffffffff16021790555060408201518160020160006101000a81548173ffffffffffffffffffffffffffffffffffffffff021916908373ffffffffffffffffffffffffffffffffffffffff160217905550606082015181600301556080820151816004015560a08201518160050160006101000a81548160ff021916908315150217905550905050611ee96001600360008473ffffffffffffffffffffffffffffffffffffffff1673ffffffffffffffffffffffffffffffffffffffff1681526020019081526020016000206002015461251390919063ffffffff16565b600360008373ffffffffffffffffffffffffffffffffffffffff1673ffffffffffffffffffffffffffffffffffffffff16815260200190815260200160002060020181905550600360008273ffffffffffffffffffffffffffffffffffffffff1673ffffffffffffffffffffffffffffffffffffffff16815260200190815260200160002060030160045490806001815401808255809150509060018203906000526020600020016000909192909190915055507f71658dcd30af2516252b609c834023d8729aab62422a55f9559c3c854f3a880381600454604051808373ffffffffffffffffffffffffffffffffffffffff1673ffffffffffffffffffffffffffffffffffffffff1681526020018281526020019250505060405180910390a15050505050565b60045481565b600160003373ffffffffffffffffffffffffffffffffffffffff1673ffffffffffffffffffffffffffffffffffffffff16815260200190815260200160002060040181908060018154018082558091505090600182039060005260206000200160009091929091909150555050565b612090828261152d565b5050565b61209d336110ca565b1515612111576040517f08c379a000000000000000000000000000000000000000000000000000000000815260040180806020018281038252601b8152602001807f43616c6c6572206973206e6f74206120436f6e7472696275746f72000000000081525060200191505060405180910390fd5b600160003373ffffffffffffffffffffffffffffffffffffffff1673ffffffffffffffffffffffffffffffffffffffff168152602001908152602001600020600101548111151515612217576040517f08c379a00000000000000000000000000000000000000000000000000000000081526004018080602001828103825260598152602001807f496e73756666696369656e742066756e647320746f207075626c69736820617281526020017f7469636c652e20416d6f756e74207374616b65642073686f756c64206265206c81526020017f657373207468616e206163636f756e742062616c616e63652e0000000000000081525060600191505060405180910390fd5b6000612227338787878787611aba565b9050600160003373ffffffffffffffffffffffffffffffffffffffff1673ffffffffffffffffffffffffffffffffffffffff16815260200190815260200160002060040181908060018154018082558091505090600182039060005260206000200160009091929091909150555061229f8133612b91565b505050505050565b6122b0336110ca565b1515612324576040517f08c379a000000000000000000000000000000000000000000000000000000000815260040180806020018281038252601b8152602001807f43616c6c6572206973206e6f74206120436f6e7472696275746f72000000000081525060200191505060405180910390fd5b61232e8282612ca5565b5050565b61233b336114a5565b15156123af576040517f08c379a00000000000000000000000000000000000000000000000000000000081526004018080602001828103825260168152602001807f43616c6c6572206973206e6f742061205265616465720000000000000000000081525060200191505060405180910390fd5b6123b98282612d47565b5050565b61241260018060003373ffffffffffffffffffffffffffffffffffffffff1673ffffffffffffffffffffffffffffffffffffffff1681526020019081526020016000206003015461251390919063ffffffff16565b600160003373ffffffffffffffffffffffffffffffffffffffff1673ffffffffffffffffffffffffffffffffffffffff16815260200190815260200160002060030181905550565b61246333612de9565b565b600f5481565b600061248182600661259d90919063ffffffff16565b9050919050565b6124913361246b565b1515612505576040517f08c379a00000000000000000000000000000000000000000000000000000000081526004018080602001828103825260198152602001807f43616c6c6572206973206e6f7420612056616c696461746f720000000000000081525060200191505060405180910390fd5b61250f8282612e43565b5050565b6000808284019050838110151515612593576040517f08c379a000000000000000000000000000000000000000000000000000000000815260040180806020018281038252601b8152602001807f536166654d6174683a206164646974696f6e206f766572666c6f77000000000081525060200191505060405180910390fd5b8091505092915050565b60008073ffffffffffffffffffffffffffffffffffffffff168273ffffffffffffffffffffffffffffffffffffffff1614151515612669576040517f08c379a00000000000000000000000000000000000000000000000000000000081526004018080602001828103825260228152602001807f526f6c65733a206163636f756e7420697320746865207a65726f20616464726581526020017f737300000000000000000000000000000000000000000000000000000000000081525060400191505060405180910390fd5b8260000160008373ffffffffffffffffffffffffffffffffffffffff1673ffffffffffffffffffffffffffffffffffffffff16815260200190815260200160002060009054906101000a900460ff16905092915050565b6126c86133e7565b600360008473ffffffffffffffffffffffffffffffffffffffff1673ffffffffffffffffffffffffffffffffffffffff168152602001908152602001600020608060405190810160405290816000820154815260200160018201548152602001600282015481526020016003820180548060200260200160405190810160405280929190818152602001828054801561278057602002820191906000526020600020905b81548152602001906001019080831161276c575b505050505081525050905081816000018181525050505050565b6127a2613410565b600160008473ffffffffffffffffffffffffffffffffffffffff1673ffffffffffffffffffffffffffffffffffffffff16815260200190815260200160002060a06040519081016040529081600082015481526020016001820154815260200160028201548152602001600382015481526020016004820180548060200260200160405190810160405280929190818152602001828054801561286457602002820191906000526020600020905b815481526020019060010190808311612850575b505050505081525050905081816000018181525050505050565b60008282111515156128f8576040517f08c379a000000000000000000000000000000000000000000000000000000000815260040180806020018281038252601e8152602001807f536166654d6174683a207375627472616374696f6e206f766572666c6f77000081525060200191505060405180910390fd5b600082840390508091505092915050565b60008061291f848661251390919063ffffffff16565b90506000612949600561293b8489612f5590919063ffffffff16565b612fe890919063ffffffff16565b9050600061296160018661287e90919063ffffffff16565b90506129768882612fe890919063ffffffff16565b905061298b828261251390919063ffffffff16565b90506129a08582612f5590919063ffffffff16565b9050809350505050949350505050565b6129c66001600f5461251390919063ffffffff16565b600f819055506129d4613440565b6000600190505b6004811015612a7557600960006129f1836130b5565b815260200190815260200160002060009054906101000a900473ffffffffffffffffffffffffffffffffffffffff168260018303600381101515612a3157fe5b602002019073ffffffffffffffffffffffffffffffffffffffff16908173ffffffffffffffffffffffffffffffffffffffff168152505080806001019150506129db565b5080600e6000600f548152602001908152602001600020600201906003612a9d929190613463565b5082600e6000600f5481526020019081526020016000206000018190555081600e6000600f54815260200190815260200160002060010181905550505050565b612af181600261315f90919063ffffffff16565b8073ffffffffffffffffffffffffffffffffffffffff167fe933431644458f1217f9e93d3e000e03c9bbbe55761046d0985c2e4d157bcbaa60405160405180910390a250565b612b4b81600061315f90919063ffffffff16565b8073ffffffffffffffffffffffffffffffffffffffff167f665b9b7911d6a3e5a789e2be1ed4f9ffa84c1259e3b89675234719521112219160405160405180910390a250565b600060096000612ba160016130b5565b815260200190815260200160002060009054906101000a900473ffffffffffffffffffffffffffffffffffffffff1690505b8173ffffffffffffffffffffffffffffffffffffffff168173ffffffffffffffffffffffffffffffffffffffff161415612c4b5760096000612c1560016130b5565b815260200190815260200160002060009054906101000a900473ffffffffffffffffffffffffffffffffffffffff169050612bd3565b80600b600085815260200190815260200160002060050160006101000a81548173ffffffffffffffffffffffffffffffffffffffff021916908373ffffffffffffffffffffffffffffffffffffffff160217905550505050565b612cb982600061326190919063ffffffff16565b80600160008473ffffffffffffffffffffffffffffffffffffffff1673ffffffffffffffffffffffffffffffffffffffff168152602001908152602001600020600101819055508173ffffffffffffffffffffffffffffffffffffffff167f07681ffd9d424587412481b41d2ee582bb7bca757f626b0477051f302947027260405160405180910390a25050565b612d5b82600261326190919063ffffffff16565b80600360008473ffffffffffffffffffffffffffffffffffffffff1673ffffffffffffffffffffffffffffffffffffffff168152602001908152602001600020600101819055508173ffffffffffffffffffffffffffffffffffffffff167fb7724d890d2888af5a3fc456edb667e2c82c4441449ebcac301c618759e4f86d60405160405180910390a25050565b612dfd81600661315f90919063ffffffff16565b8073ffffffffffffffffffffffffffffffffffffffff167fe1434e25d6611e0db941968fdc97811c982ac1602e951637d206f5fdda9dd8f160405160405180910390a250565b612e5782600661326190919063ffffffff16565b80600760008473ffffffffffffffffffffffffffffffffffffffff1673ffffffffffffffffffffffffffffffffffffffff16815260200190815260200160002060010181905550612eb4600160085461251390919063ffffffff16565b6008819055508160096000600854815260200190815260200160002060006101000a81548173ffffffffffffffffffffffffffffffffffffffff021916908373ffffffffffffffffffffffffffffffffffffffff1602179055508173ffffffffffffffffffffffffffffffffffffffff167fe366c1c0452ed8eec96861e9e54141ebff23c9ec89fe27b996b45f5ec388498760405160405180910390a25050565b60008082111515612fce576040517f08c379a000000000000000000000000000000000000000000000000000000000815260040180806020018281038252601a8152602001807f536166654d6174683a206469766973696f6e206279207a65726f00000000000081525060200191505060405180910390fd5b60008284811515612fdb57fe5b0490508091505092915050565b600080831415612ffb57600090506130af565b6000828402905082848281151561300e57fe5b041415156130aa576040517f08c379a00000000000000000000000000000000000000000000000000000000081526004018080602001828103825260218152602001807f536166654d6174683a206d756c7469706c69636174696f6e206f766572666c6f81526020017f770000000000000000000000000000000000000000000000000000000000000081525060400191505060405180910390fd5b809150505b92915050565b60008060085490506000423385604051602001808481526020018373ffffffffffffffffffffffffffffffffffffffff1673ffffffffffffffffffffffffffffffffffffffff166c01000000000000000000000000028152601401828152602001935050505060405160208183030381529060405280519060200120600190049050600061314c8383612f5590919063ffffffff16565b9050600081905080945050505050919050565b613169828261259d565b1515613203576040517f08c379a00000000000000000000000000000000000000000000000000000000081526004018080602001828103825260218152602001807f526f6c65733a206163636f756e7420646f6573206e6f74206861766520726f6c81526020017f650000000000000000000000000000000000000000000000000000000000000081525060400191505060405180910390fd5b60008260000160008373ffffffffffffffffffffffffffffffffffffffff1673ffffffffffffffffffffffffffffffffffffffff16815260200190815260200160002060006101000a81548160ff0219169083151502179055505050565b61326b828261259d565b1515156132e0576040517f08c379a000000000000000000000000000000000000000000000000000000000815260040180806020018281038252601f8152602001807f526f6c65733a206163636f756e7420616c72656164792068617320726f6c650081525060200191505060405180910390fd5b60018260000160008373ffffffffffffffffffffffffffffffffffffffff1673ffffffffffffffffffffffffffffffffffffffff16815260200190815260200160002060006101000a81548160ff0219169083151502179055505050565b608060405190810160405280600081526020016000815260200160008152602001600081525090565b828054600181600116156101000203166002900490600052602060002090601f016020900481019282601f106133a857805160ff19168380011785556133d6565b828001600101855582156133d6579182015b828111156133d55782518255916020019190600101906133ba565b5b5090506133e391906134e0565b5090565b608060405190810160405280600081526020016000815260200160008152602001606081525090565b60a06040519081016040528060008152602001600081526020016000815260200160008152602001606081525090565b606060405190810160405280600390602082028038833980820191505090505090565b82600381019282156134cf579160200282015b828111156134ce5782518260006101000a81548173ffffffffffffffffffffffffffffffffffffffff021916908373ffffffffffffffffffffffffffffffffffffffff16021790555091602001919060010190613476565b5b5090506134dc9190613505565b5090565b61350291905b808211156134fe5760008160009055506001016134e6565b5090565b90565b61354591905b8082111561354157600081816101000a81549073ffffffffffffffffffffffffffffffffffffffff02191690555060010161350b565b5090565b9056fea165627a7a72305820063fcd0f01b3cfd87831d77fc88c15d7e5e32a150a3d96c50b6fb1feb416370d0029",
  "source": "pragma solidity >=0.4.21 <0.6.0;\r\nimport \"./accessControl/ContributorRole.sol\";\r\nimport \"./accessControl/ReaderRole.sol\";\r\nimport \"./accessControl/ValidatorRole.sol\";\r\nimport \"./Article.sol\";\r\n// Import the library 'Roles' and SafeMath\r\nimport \"../node_modules/openzeppelin-solidity/contracts/math/SafeMath.sol\";\r\n\r\n\r\ncontract Honestmedia is ContributorRole, ReaderRole, ValidatorRole, Article  {\r\n    using SafeMath for uint;\r\n\r\n\taddress owner;\r\n\r\n\t//check if contract operational\r\n    bool private operational = true;\r\n\r\n    //variables to define minimum funding amounts for validators and contributors.\r\n    //These should be checked when adding new actors.\r\n    uint constant MIN_FUNDING_VALIDATOR = 1 ether; //we can decide a different amount\r\n    uint constant MIN_FUNDING_CONTRIBUTOR = 2 ether; //we can decide a different amount\r\n\r\n    //mapping to store available withdrawals\r\n    mapping(address => uint) availableWithdrawls;\r\n\r\n    //Struct to store ruling\r\n    struct ruling {\r\n        uint articleId;\r\n        uint challengeId;\r\n        address[3] validators;\r\n        bool[3] votes;\r\n        uint voted;\r\n    }\r\n\r\n    //Mapping to save ruling for challenges\r\n    mapping(uint => ruling) allRulings;\r\n\r\n    //Variable to save totalRulings\r\n    uint public totalRulings;\r\n\r\n\tconstructor() public {\r\n        owner = msg.sender;\r\n    }\r\n\r\n     modifier requireIsOperational() {\r\n        require(operational, \"Contract is currently not operational\");\r\n        _;  // All modifiers require an \"_\" which indicates where the function body will be added\r\n    }\r\n\r\n    modifier requireContractOwner() {\r\n        require((msg.sender == owner), \"Caller is not admin\");\r\n        _;\r\n    }\r\n\r\n    function isOperational() \r\n                            public \r\n                            view \r\n                            returns(bool) {\r\n        return operational;\r\n    }\r\n\r\n    function setOperatingStatus\r\n                            (\r\n                                bool mode\r\n                            ) \r\n                            external\r\n                            requireContractOwner {\r\n        operational = mode;\r\n    }\r\n\r\n    //seting ranking\r\n    function setContributorRating(address _address, uint rank) public {\r\n    \tContributorRole.setRating(_address, rank);\r\n    }\r\n\r\n    function setReaderRating(address _address, uint rank) external {\r\n    \tReaderRole.setRating(_address, rank);\r\n    }\r\n\r\n    function setValidatorRating(address _address, uint rank) external {\r\n    \tValidatorRole.setRating(_address, rank);\r\n    }\r\n\r\n    //Function to store the article etc\r\n    function addArticle(bytes32 _ipfsArticleHash, bytes32 _ipfsReferenceHash, string memory _title,\r\n                        uint _datePublished, uint _stake) public onlyContributor\r\n    {\r\n        //Check if Amount staked is greater than balance of contributor\r\n        require(_stake <= ContributorRole.allContributors[msg.sender].balance,\r\n                         \"Insufficient funds to publish article. Amount staked should be less than account balance.\");\r\n        uint articleNum = Article.addArticle(msg.sender, _ipfsArticleHash, _ipfsReferenceHash, _title, _datePublished, _stake);\r\n        ContributorRole.allContributors[msg.sender].articles.push(articleNum);\r\n        assignValidator(articleNum, msg.sender);\r\n    }\r\n\r\n    //Assign validator to approve article\r\n    function assignValidator(uint articleId, address contributor) internal {\r\n        //check to see if random validator is also contributor\r\n        address randomValidator = ValidatorRole.validatorIds[random(1)];\r\n        while (randomValidator == contributor){\r\n           randomValidator = ValidatorRole.validatorIds[random(1)];\r\n        }\r\n        Article.allArticles[articleId].validator = randomValidator;\r\n    }\r\n\r\n\r\n    //approve article\r\n    function approve(uint articleId) internal onlyValidator {\r\n        require(Article.allArticles[articleId].validator == msg.sender, \"Validator not authorised\");\r\n        Article.allArticles[articleId].approved = true;\r\n    }\r\n\r\n    //Function to update rating for Contributors\r\n    function updateContributorRating(bool vote, bool challengeLost, address _contributor, uint articleId) public {\r\n        //change rating after challenge lost\r\n        if(challengeLost == true){\r\n            if(ContributorRole.allContributors[_contributor].rating > 0){\r\n                ContributorRole.allContributors[_contributor].rating = ContributorRole.allContributors[_contributor].rating.sub(1);\r\n            }\r\n            ContributorRole.allContributors[_contributor].challengesLost = ContributorRole.allContributors[_contributor].challengesLost.add(1);\r\n        }else {\r\n        //change rating after reader vote\r\n            if(vote == true){\r\n                Article.allArticles[articleId].upVotes = Article.allArticles[articleId].upVotes.add(1);\r\n            }else {\r\n                Article.allArticles[articleId].downVotes = Article.allArticles[articleId].downVotes.add(1);\r\n            }\r\n            uint newRating = contributorRatingCalculator(ContributorRole.allContributors[_contributor].rating, Article.allArticles[articleId].upVotes,\r\n                                                        Article.allArticles[articleId].downVotes, ContributorRole.allContributors[_contributor].articlesPublished);\r\n            setContributorRating(_contributor, newRating);\r\n        }\r\n    }\r\n\r\n    //Function to calculate rating for Contributors\r\n    function contributorRatingCalculator(uint currentRating, uint upVotes, uint downVotes, uint articles) internal pure returns(uint){\r\n        uint totalRatings = upVotes.add(downVotes);\r\n        uint recentRating = upVotes.div(totalRatings).mul(5);\r\n        uint newRating = articles.sub(1);\r\n        newRating = newRating.mul(currentRating);\r\n        newRating = newRating.add(recentRating);\r\n        newRating = newRating.div(articles);\r\n        return newRating;\r\n    }\r\n\r\n    //Function to challenge an article\r\n    function challengeArticle(bytes32 proofHash, uint stake, uint articleId) external onlyReader {\r\n        address contributor = Article.allArticles[articleId].contributor;\r\n        ReaderRole.challenge(articleId, contributor, proofHash, stake, msg.sender);\r\n        assignValidators(articleId, ReaderRole.totalChallenges);\r\n    }\r\n\r\n    //function to find random validators to vote on challenge\r\n    function assignValidators(uint _articleId, uint _challengeId) internal {\r\n        totalRulings = totalRulings.add(1);\r\n        address[3] memory validators;\r\n        for(uint i = 1; i < 4; i++)\r\n        {\r\n            validators[i-1] = ValidatorRole.validatorIds[random(i)];\r\n        }\r\n        allRulings[totalRulings].validators = validators;\r\n        allRulings[totalRulings].articleId = _articleId;\r\n        allRulings[totalRulings].challengeId = _challengeId;\r\n    }\r\n\r\n    //Random number generator\r\n    function random(uint nonce) internal view returns (uint) {\r\n        uint MAX = ValidatorRole.totalValidators;\r\n        uint seed = uint(keccak256(abi.encodePacked(now, msg.sender, nonce)));\r\n        uint scaled = seed.div(MAX);\r\n        uint adjusted = scaled;\r\n        return adjusted;\r\n    }\r\n\r\n    //function to register validator votes on challenge. Will also check if 2 of 3 consensus is reached\r\n    function voteOnChallenge(uint rulingId, bool vote, uint challengeId) external onlyValidator {\r\n        uint numOfYesVotes;\r\n        for(uint i = 0; i < 3; i++){\r\n            if (allRulings[rulingId].validators[i] == msg.sender) {\r\n                allRulings[rulingId].votes[i] = vote;\r\n                allRulings[rulingId].voted++;\r\n            }\r\n            if(allRulings[rulingId].votes[i] == true)\r\n                numOfYesVotes++;\r\n        }\r\n        if(numOfYesVotes >= 2){\r\n            ReaderRole.allChallenges[challengeId].success = true;\r\n            // update contributor's challenges lost\r\n            address contributor = ReaderRole.allChallenges[challengeId].contributor;\r\n            ContributorRole.allContributors[contributor].challengesLost = ContributorRole.allContributors[contributor].challengesLost.add(1);\r\n            // Distribute Amount staked by contributor to reader and validators\r\n        }else\r\n        {\r\n            if(allRulings[rulingId].voted == 3) {\r\n                ReaderRole.allChallenges[challengeId].success = false;\r\n                // Distribute Amount staked by reader to contributor and validators\r\n            }\r\n        }\r\n    }\r\n\r\n    //TODO: function that allows to withdraw funds. For Validators and Contributors their balance should not be less than the minimum funding amount.\r\n\r\n    \r\n\r\n\r\n\r\n}",
  "sourcePath": "C:/Users/avant/Desktop/honest_media/contracts/Honestmedia.sol",
  "compiler": {
    "name": "solc",
    "version": "0.5.0+commit.1d4f565a.Emscripten.clang"
  },
  "schemaVersion": "3.0.5",
  "updatedAt": "2019-07-01T23:23:28.596Z",
  "devdoc": {
    "methods": {}
  },
  "userdoc": {
    "methods": {}
  }
}