{
  "contractName": "Honestmedia",
  "abi": [
    {
      "constant": false,
      "inputs": [
        {
          "name": "articleNumber",
          "type": "uint256"
        }
      ],
      "name": "upVoted",
      "outputs": [],
      "payable": false,
      "stateMutability": "nonpayable",
      "type": "function",
      "signature": "0x01c97c57"
    },
    {
      "constant": false,
      "inputs": [],
      "name": "publish",
      "outputs": [],
      "payable": false,
      "stateMutability": "nonpayable",
      "type": "function",
      "signature": "0x075d4782"
    },
    {
      "constant": false,
      "inputs": [],
      "name": "ruleOnChallenge",
      "outputs": [],
      "payable": false,
      "stateMutability": "nonpayable",
      "type": "function",
      "signature": "0x0a75d745"
    },
    {
      "constant": true,
      "inputs": [
        {
          "name": "account",
          "type": "address"
        }
      ],
      "name": "isContributor",
      "outputs": [
        {
          "name": "",
          "type": "bool"
        }
      ],
      "payable": false,
      "stateMutability": "view",
      "type": "function",
      "signature": "0x1d0d35f5"
    },
    {
      "constant": false,
      "inputs": [
        {
          "name": "_contributor",
          "type": "address"
        },
        {
          "name": "_ipfsArticleHash",
          "type": "bytes32"
        },
        {
          "name": "_ipfsReferenceHash",
          "type": "bytes32"
        },
        {
          "name": "_title",
          "type": "string"
        },
        {
          "name": "_datePublished",
          "type": "uint256"
        },
        {
          "name": "_stake",
          "type": "uint256"
        }
      ],
      "name": "add",
      "outputs": [
        {
          "name": "",
          "type": "uint256"
        }
      ],
      "payable": false,
      "stateMutability": "nonpayable",
      "type": "function",
      "signature": "0x2d85b283"
    },
    {
      "constant": false,
      "inputs": [
        {
          "name": "articleNumber",
          "type": "uint256"
        }
      ],
      "name": "challenged",
      "outputs": [],
      "payable": false,
      "stateMutability": "nonpayable",
      "type": "function",
      "signature": "0x45e73685"
    },
    {
      "constant": true,
      "inputs": [
        {
          "name": "account",
          "type": "address"
        }
      ],
      "name": "isReader",
      "outputs": [
        {
          "name": "",
          "type": "bool"
        }
      ],
      "payable": false,
      "stateMutability": "view",
      "type": "function",
      "signature": "0x69a7ddf7"
    },
    {
      "constant": true,
      "inputs": [
        {
          "name": "articleNumber",
          "type": "uint256"
        }
      ],
      "name": "getArticleTitle",
      "outputs": [
        {
          "name": "title",
          "type": "string"
        }
      ],
      "payable": false,
      "stateMutability": "view",
      "type": "function",
      "signature": "0x744d5c65"
    },
    {
      "constant": true,
      "inputs": [
        {
          "name": "articleNumber",
          "type": "uint256"
        }
      ],
      "name": "getArticleDownvotes",
      "outputs": [
        {
          "name": "downVotes",
          "type": "uint256"
        }
      ],
      "payable": false,
      "stateMutability": "view",
      "type": "function",
      "signature": "0x7c224df8"
    },
    {
      "constant": false,
      "inputs": [
        {
          "name": "articleNumber",
          "type": "uint256"
        }
      ],
      "name": "approved",
      "outputs": [],
      "payable": false,
      "stateMutability": "nonpayable",
      "type": "function",
      "signature": "0x7d4061e6"
    },
    {
      "constant": false,
      "inputs": [
        {
          "name": "account",
          "type": "address"
        },
        {
          "name": "ranking",
          "type": "uint256"
        }
      ],
      "name": "setRating",
      "outputs": [],
      "payable": false,
      "stateMutability": "nonpayable",
      "type": "function",
      "signature": "0x80a24631"
    },
    {
      "constant": false,
      "inputs": [
        {
          "name": "articleNumber",
          "type": "uint256"
        }
      ],
      "name": "removed",
      "outputs": [],
      "payable": false,
      "stateMutability": "nonpayable",
      "type": "function",
      "signature": "0x8255899d"
    },
    {
      "constant": true,
      "inputs": [
        {
          "name": "",
          "type": "uint256"
        }
      ],
      "name": "validatorIds",
      "outputs": [
        {
          "name": "",
          "type": "address"
        }
      ],
      "payable": false,
      "stateMutability": "view",
      "type": "function",
      "signature": "0x919165aa"
    },
    {
      "constant": false,
      "inputs": [
        {
          "name": "articleNumber",
          "type": "uint256"
        }
      ],
      "name": "downVoted",
      "outputs": [],
      "payable": false,
      "stateMutability": "nonpayable",
      "type": "function",
      "signature": "0x9d0c8a9f"
    },
    {
      "constant": false,
      "inputs": [],
      "name": "renounceReader",
      "outputs": [],
      "payable": false,
      "stateMutability": "nonpayable",
      "type": "function",
      "signature": "0xaf938fc2"
    },
    {
      "constant": false,
      "inputs": [],
      "name": "renounceContributor",
      "outputs": [],
      "payable": false,
      "stateMutability": "nonpayable",
      "type": "function",
      "signature": "0xc462c423"
    },
    {
      "constant": true,
      "inputs": [],
      "name": "totalValidators",
      "outputs": [
        {
          "name": "",
          "type": "uint256"
        }
      ],
      "payable": false,
      "stateMutability": "view",
      "type": "function",
      "signature": "0xc81b356b"
    },
    {
      "constant": true,
      "inputs": [
        {
          "name": "articleNumber",
          "type": "uint256"
        }
      ],
      "name": "getArticleUpvotes",
      "outputs": [
        {
          "name": "upVotes",
          "type": "uint256"
        }
      ],
      "payable": false,
      "stateMutability": "view",
      "type": "function",
      "signature": "0xcd0b1300"
    },
    {
      "constant": false,
      "inputs": [
        {
          "name": "articleId",
          "type": "uint256"
        },
        {
          "name": "contributor",
          "type": "address"
        },
        {
          "name": "proofHash",
          "type": "bytes32"
        },
        {
          "name": "stake",
          "type": "uint256"
        },
        {
          "name": "account",
          "type": "address"
        }
      ],
      "name": "challenge",
      "outputs": [],
      "payable": false,
      "stateMutability": "nonpayable",
      "type": "function",
      "signature": "0xcee7d9d7"
    },
    {
      "constant": true,
      "inputs": [],
      "name": "totalChallenges",
      "outputs": [
        {
          "name": "",
          "type": "uint256"
        }
      ],
      "payable": false,
      "stateMutability": "view",
      "type": "function",
      "signature": "0xd17defcb"
    },
    {
      "constant": false,
      "inputs": [
        {
          "name": "account",
          "type": "address"
        },
        {
          "name": "fund",
          "type": "uint256"
        }
      ],
      "name": "addContributor",
      "outputs": [],
      "payable": false,
      "stateMutability": "nonpayable",
      "type": "function",
      "signature": "0xe0bd7d15"
    },
    {
      "constant": false,
      "inputs": [
        {
          "name": "account",
          "type": "address"
        },
        {
          "name": "funds",
          "type": "uint256"
        }
      ],
      "name": "addReader",
      "outputs": [],
      "payable": false,
      "stateMutability": "nonpayable",
      "type": "function",
      "signature": "0xe5fef7cd"
    },
    {
      "constant": false,
      "inputs": [],
      "name": "updateChallenge",
      "outputs": [],
      "payable": false,
      "stateMutability": "nonpayable",
      "type": "function",
      "signature": "0xef361e50"
    },
    {
      "constant": false,
      "inputs": [],
      "name": "renounceValidator",
      "outputs": [],
      "payable": false,
      "stateMutability": "nonpayable",
      "type": "function",
      "signature": "0xf0c043ee"
    },
    {
      "constant": true,
      "inputs": [],
      "name": "totalRulings",
      "outputs": [
        {
          "name": "",
          "type": "uint256"
        }
      ],
      "payable": false,
      "stateMutability": "view",
      "type": "function",
      "signature": "0xf8f2ba84"
    },
    {
      "constant": true,
      "inputs": [
        {
          "name": "account",
          "type": "address"
        }
      ],
      "name": "isValidator",
      "outputs": [
        {
          "name": "",
          "type": "bool"
        }
      ],
      "payable": false,
      "stateMutability": "view",
      "type": "function",
      "signature": "0xfacd743b"
    },
    {
      "constant": false,
      "inputs": [
        {
          "name": "account",
          "type": "address"
        },
        {
          "name": "funds",
          "type": "uint256"
        }
      ],
      "name": "addValidator",
      "outputs": [],
      "payable": false,
      "stateMutability": "nonpayable",
      "type": "function",
      "signature": "0xfc6c1f02"
    },
    {
      "constant": true,
      "inputs": [
        {
          "name": "articleNumber",
          "type": "uint256"
        }
      ],
      "name": "getArticleDatePublished",
      "outputs": [
        {
          "name": "datePublished",
          "type": "uint256"
        }
      ],
      "payable": false,
      "stateMutability": "view",
      "type": "function",
      "signature": "0xfc96a826"
    },
    {
      "inputs": [],
      "payable": false,
      "stateMutability": "nonpayable",
      "type": "constructor",
      "signature": "constructor"
    },
    {
      "payable": true,
      "stateMutability": "payable",
      "type": "fallback"
    },
    {
      "anonymous": false,
      "inputs": [
        {
          "indexed": false,
          "name": "aticleNum",
          "type": "uint256"
        }
      ],
      "name": "ArticleAdded",
      "type": "event",
      "signature": "0x9ed508f9dd7c730fd307b1ca38355cf4d9c00f58a2acfa5167b497c51a859e4c"
    },
    {
      "anonymous": false,
      "inputs": [
        {
          "indexed": false,
          "name": "aticleNum",
          "type": "uint256"
        }
      ],
      "name": "ArticleRemoved",
      "type": "event",
      "signature": "0xe95591b999a8fa4c23f2d0b426271960c193b5eb71cef3bc673ac5be6cb60df4"
    },
    {
      "anonymous": false,
      "inputs": [
        {
          "indexed": false,
          "name": "aticleNum",
          "type": "uint256"
        }
      ],
      "name": "ArticleApproved",
      "type": "event",
      "signature": "0x60bd4c6e468dd35d1c78b03ddc704f2f270ad2ed13b45bf571438f433db9b8f7"
    },
    {
      "anonymous": false,
      "inputs": [
        {
          "indexed": false,
          "name": "aticleNum",
          "type": "uint256"
        }
      ],
      "name": "ArticleChallenged",
      "type": "event",
      "signature": "0x7794351528fe7be520769ebfe19d7275d2a0ecb197e1bbc23afa224134887ba2"
    },
    {
      "anonymous": false,
      "inputs": [
        {
          "indexed": false,
          "name": "aticleNum",
          "type": "uint256"
        }
      ],
      "name": "ArticleUpVoted",
      "type": "event",
      "signature": "0xeb5a35545b0a45240a67898d2f6187c764da2eaca5c11a0e75e615dd80d9458d"
    },
    {
      "anonymous": false,
      "inputs": [
        {
          "indexed": false,
          "name": "aticleNum",
          "type": "uint256"
        }
      ],
      "name": "ArticleDownVoted",
      "type": "event",
      "signature": "0xd1ff0de57853f81f969355a26960199cd8211f9d274c6c552a148053125b4611"
    },
    {
      "anonymous": false,
      "inputs": [
        {
          "indexed": true,
          "name": "account",
          "type": "address"
        }
      ],
      "name": "ValidatorAdded",
      "type": "event",
      "signature": "0xe366c1c0452ed8eec96861e9e54141ebff23c9ec89fe27b996b45f5ec3884987"
    },
    {
      "anonymous": false,
      "inputs": [
        {
          "indexed": true,
          "name": "account",
          "type": "address"
        }
      ],
      "name": "ValidatorRemoved",
      "type": "event",
      "signature": "0xe1434e25d6611e0db941968fdc97811c982ac1602e951637d206f5fdda9dd8f1"
    },
    {
      "anonymous": false,
      "inputs": [
        {
          "indexed": true,
          "name": "account",
          "type": "address"
        }
      ],
      "name": "ReaderAdded",
      "type": "event",
      "signature": "0xb7724d890d2888af5a3fc456edb667e2c82c4441449ebcac301c618759e4f86d"
    },
    {
      "anonymous": false,
      "inputs": [
        {
          "indexed": true,
          "name": "account",
          "type": "address"
        }
      ],
      "name": "ReaderRemoved",
      "type": "event",
      "signature": "0xe933431644458f1217f9e93d3e000e03c9bbbe55761046d0985c2e4d157bcbaa"
    },
    {
      "anonymous": false,
      "inputs": [
        {
          "indexed": false,
          "name": "account",
          "type": "address"
        },
        {
          "indexed": false,
          "name": "challengeId",
          "type": "uint256"
        }
      ],
      "name": "ChallengeAdded",
      "type": "event",
      "signature": "0x71658dcd30af2516252b609c834023d8729aab62422a55f9559c3c854f3a8803"
    },
    {
      "anonymous": false,
      "inputs": [
        {
          "indexed": true,
          "name": "account",
          "type": "address"
        }
      ],
      "name": "ContributorAdded",
      "type": "event",
      "signature": "0x07681ffd9d424587412481b41d2ee582bb7bca757f626b0477051f3029470272"
    },
    {
      "anonymous": false,
      "inputs": [
        {
          "indexed": true,
          "name": "account",
          "type": "address"
        }
      ],
      "name": "ContributorRemoved",
      "type": "event",
      "signature": "0x665b9b7911d6a3e5a789e2be1ed4f9ffa84c1259e3b896752347195211122191"
    },
    {
      "constant": true,
      "inputs": [],
      "name": "isOperational",
      "outputs": [
        {
          "name": "",
          "type": "bool"
        }
      ],
      "payable": false,
      "stateMutability": "view",
      "type": "function",
      "signature": "0xcd905dff"
    },
    {
      "constant": false,
      "inputs": [
        {
          "name": "mode",
          "type": "bool"
        }
      ],
      "name": "setOperatingStatus",
      "outputs": [],
      "payable": false,
      "stateMutability": "nonpayable",
      "type": "function",
      "signature": "0x110466ed"
    },
    {
      "constant": false,
      "inputs": [
        {
          "name": "_address",
          "type": "address"
        },
        {
          "name": "_fund",
          "type": "uint256"
        }
      ],
      "name": "registerContributor",
      "outputs": [],
      "payable": false,
      "stateMutability": "nonpayable",
      "type": "function",
      "signature": "0x472f0bcc"
    },
    {
      "constant": false,
      "inputs": [
        {
          "name": "_address",
          "type": "address"
        },
        {
          "name": "_fund",
          "type": "uint256"
        }
      ],
      "name": "registerReader",
      "outputs": [],
      "payable": false,
      "stateMutability": "nonpayable",
      "type": "function",
      "signature": "0xf5301758"
    },
    {
      "constant": false,
      "inputs": [
        {
          "name": "_address",
          "type": "address"
        },
        {
          "name": "_fund",
          "type": "uint256"
        }
      ],
      "name": "registerValidator",
      "outputs": [],
      "payable": false,
      "stateMutability": "nonpayable",
      "type": "function",
      "signature": "0x9abee7d0"
    },
    {
      "constant": false,
      "inputs": [
        {
          "name": "_address",
          "type": "address"
        },
        {
          "name": "rank",
          "type": "uint256"
        }
      ],
      "name": "setContributorRating",
      "outputs": [],
      "payable": false,
      "stateMutability": "nonpayable",
      "type": "function",
      "signature": "0x57773bfc"
    },
    {
      "constant": false,
      "inputs": [
        {
          "name": "_address",
          "type": "address"
        },
        {
          "name": "rank",
          "type": "uint256"
        }
      ],
      "name": "setReaderRating",
      "outputs": [],
      "payable": false,
      "stateMutability": "nonpayable",
      "type": "function",
      "signature": "0x24567a7e"
    },
    {
      "constant": false,
      "inputs": [
        {
          "name": "_address",
          "type": "address"
        },
        {
          "name": "rank",
          "type": "uint256"
        }
      ],
      "name": "setValidatorRating",
      "outputs": [],
      "payable": false,
      "stateMutability": "nonpayable",
      "type": "function",
      "signature": "0xd6f57009"
    },
    {
      "constant": true,
      "inputs": [
        {
          "name": "_articleNumber",
          "type": "uint256"
        }
      ],
      "name": "getArticleContributor",
      "outputs": [
        {
          "name": "_contributor",
          "type": "address"
        }
      ],
      "payable": false,
      "stateMutability": "view",
      "type": "function",
      "signature": "0x7f928fe5"
    },
    {
      "constant": false,
      "inputs": [
        {
          "name": "_ipfsArticleHash",
          "type": "bytes32"
        },
        {
          "name": "_ipfsReferenceHash",
          "type": "bytes32"
        },
        {
          "name": "_title",
          "type": "string"
        },
        {
          "name": "_datePublished",
          "type": "uint256"
        },
        {
          "name": "_stake",
          "type": "uint256"
        }
      ],
      "name": "addArticle",
      "outputs": [],
      "payable": false,
      "stateMutability": "nonpayable",
      "type": "function",
      "signature": "0xd94cd260"
    },
    {
      "constant": false,
      "inputs": [
        {
          "name": "articleId",
          "type": "uint256"
        }
      ],
      "name": "addArticle",
      "outputs": [],
      "payable": false,
      "stateMutability": "nonpayable",
      "type": "function",
      "signature": "0xd453609a"
    },
    {
      "constant": true,
      "inputs": [],
      "name": "getNumberOfArticles",
      "outputs": [
        {
          "name": "noOfArticles",
          "type": "uint256"
        }
      ],
      "payable": false,
      "stateMutability": "view",
      "type": "function",
      "signature": "0x89da85d3"
    },
    {
      "constant": true,
      "inputs": [
        {
          "name": "_articleNumber",
          "type": "uint256"
        }
      ],
      "name": "getArticle",
      "outputs": [
        {
          "name": "title",
          "type": "string"
        },
        {
          "name": "datePublished",
          "type": "uint256"
        },
        {
          "name": "upvotes",
          "type": "uint256"
        },
        {
          "name": "downvotes",
          "type": "uint256"
        }
      ],
      "payable": false,
      "stateMutability": "view",
      "type": "function",
      "signature": "0xbd85d867"
    },
    {
      "constant": false,
      "inputs": [],
      "name": "approve",
      "outputs": [],
      "payable": false,
      "stateMutability": "nonpayable",
      "type": "function",
      "signature": "0x12424e3f"
    },
    {
      "constant": false,
      "inputs": [
        {
          "name": "articleId",
          "type": "uint256"
        }
      ],
      "name": "upVoteArticle",
      "outputs": [],
      "payable": false,
      "stateMutability": "nonpayable",
      "type": "function",
      "signature": "0x590944d4"
    },
    {
      "constant": false,
      "inputs": [
        {
          "name": "articleId",
          "type": "uint256"
        }
      ],
      "name": "downVoteArticle",
      "outputs": [],
      "payable": false,
      "stateMutability": "nonpayable",
      "type": "function",
      "signature": "0xbe57e959"
    },
    {
      "constant": false,
      "inputs": [
        {
          "name": "vote",
          "type": "bool"
        },
        {
          "name": "challengeLost",
          "type": "bool"
        },
        {
          "name": "_contributor",
          "type": "address"
        },
        {
          "name": "articleId",
          "type": "uint256"
        }
      ],
      "name": "updateContributorRating",
      "outputs": [],
      "payable": false,
      "stateMutability": "nonpayable",
      "type": "function",
      "signature": "0x841afbc3"
    },
    {
      "constant": false,
      "inputs": [
        {
          "name": "proofHash",
          "type": "bytes32"
        },
        {
          "name": "stake",
          "type": "uint256"
        },
        {
          "name": "articleId",
          "type": "uint256"
        }
      ],
      "name": "challengeArticle",
      "outputs": [],
      "payable": false,
      "stateMutability": "nonpayable",
      "type": "function",
      "signature": "0x95f4f4ce"
    },
    {
      "constant": false,
      "inputs": [
        {
          "name": "rulingId",
          "type": "uint256"
        },
        {
          "name": "vote",
          "type": "bool"
        },
        {
          "name": "challengeId",
          "type": "uint256"
        }
      ],
      "name": "voteOnChallenge",
      "outputs": [],
      "payable": false,
      "stateMutability": "nonpayable",
      "type": "function",
      "signature": "0x1d8de4f7"
    },
    {
      "constant": false,
      "inputs": [
        {
          "name": "amount",
          "type": "uint256"
        }
      ],
      "name": "withdraw",
      "outputs": [],
      "payable": true,
      "stateMutability": "payable",
      "type": "function",
      "signature": "0x2e1a7d4d"
    }
  ],
  "bytecode": "0x60806040526001600c60146101000a81548160ff0219169083151502179055503480156200002c57600080fd5b5062000049336000620000c8640100000000026401000000009004565b620000653360006200017a640100000000026401000000009004565b620000813360006200022c640100000000026401000000009004565b33600c60006101000a81548173ffffffffffffffffffffffffffffffffffffffff021916908373ffffffffffffffffffffffffffffffffffffffff160217905550620005fc565b620000ec8260006200035e6401000000000262003e3a179091906401000000009004565b80600160008473ffffffffffffffffffffffffffffffffffffffff1673ffffffffffffffffffffffffffffffffffffffff168152602001908152602001600020600101819055508173ffffffffffffffffffffffffffffffffffffffff167f07681ffd9d424587412481b41d2ee582bb7bca757f626b0477051f302947027260405160405180910390a25050565b6200019e8260026200035e6401000000000262003e3a179091906401000000009004565b80600360008473ffffffffffffffffffffffffffffffffffffffff1673ffffffffffffffffffffffffffffffffffffffff168152602001908152602001600020600101819055508173ffffffffffffffffffffffffffffffffffffffff167fb7724d890d2888af5a3fc456edb667e2c82c4441449ebcac301c618759e4f86d60405160405180910390a25050565b620002508260066200035e6401000000000262003e3a179091906401000000009004565b80600760008473ffffffffffffffffffffffffffffffffffffffff1673ffffffffffffffffffffffffffffffffffffffff16815260200190815260200160002060010181905550620002bd60016008546200044d6401000000000262003097179091906401000000009004565b6008819055508160096000600854815260200190815260200160002060006101000a81548173ffffffffffffffffffffffffffffffffffffffff021916908373ffffffffffffffffffffffffffffffffffffffff1602179055508173ffffffffffffffffffffffffffffffffffffffff167fe366c1c0452ed8eec96861e9e54141ebff23c9ec89fe27b996b45f5ec388498760405160405180910390a25050565b620003798282620004d8640100000000026401000000009004565b151515620003ef576040517f08c379a000000000000000000000000000000000000000000000000000000000815260040180806020018281038252601f8152602001807f526f6c65733a206163636f756e7420616c72656164792068617320726f6c650081525060200191505060405180910390fd5b60018260000160008373ffffffffffffffffffffffffffffffffffffffff1673ffffffffffffffffffffffffffffffffffffffff16815260200190815260200160002060006101000a81548160ff0219169083151502179055505050565b6000808284019050838110151515620004ce576040517f08c379a000000000000000000000000000000000000000000000000000000000815260040180806020018281038252601b8152602001807f536166654d6174683a206164646974696f6e206f766572666c6f77000000000081525060200191505060405180910390fd5b8091505092915050565b60008073ffffffffffffffffffffffffffffffffffffffff168273ffffffffffffffffffffffffffffffffffffffff1614151515620005a5576040517f08c379a00000000000000000000000000000000000000000000000000000000081526004018080602001828103825260228152602001807f526f6c65733a206163636f756e7420697320746865207a65726f20616464726581526020017f737300000000000000000000000000000000000000000000000000000000000081525060400191505060405180910390fd5b8260000160008373ffffffffffffffffffffffffffffffffffffffff1673ffffffffffffffffffffffffffffffffffffffff16815260200190815260200160002060009054906101000a900460ff16905092915050565b61414d806200060c6000396000f3fe608060405260043610610246576000357c0100000000000000000000000000000000000000000000000000000000900463ffffffff16806301c97c5714610248578063075d4782146102835780630a75d7451461029a578063110466ed146102b157806312424e3f146102ee5780631d0d35f5146103055780631d8de4f71461036e57806324567a7e146103bf5780632d85b2831461041a5780632e1a7d4d1461053e57806345e736851461056c578063472f0bcc146105a757806357773bfc14610602578063590944d41461065d57806369a7ddf714610698578063744d5c65146107015780637c224df8146107b55780637d4061e6146108045780637f928fe51461083f57806380a24631146108ba5780638255899d14610915578063841afbc31461095057806389da85d3146109c3578063919165aa146109ee57806395f4f4ce14610a695780639abee7d014610ab85780639d0c8a9f14610b13578063af938fc214610b4e578063bd85d86714610b65578063be57e95914610c2e578063c462c42314610c69578063c81b356b14610c80578063cd0b130014610cab578063cd905dff14610cfa578063cee7d9d714610d29578063d17defcb14610db8578063d453609a14610de3578063d6f5700914610e1e578063d94cd26014610e79578063e0bd7d1514610f69578063e5fef7cd14610fc4578063ef361e501461101f578063f0c043ee14611036578063f53017581461104d578063f8f2ba84146110a8578063facd743b146110d3578063fc6c1f021461113c578063fc96a82614611197575b005b34801561025457600080fd5b506102816004803603602081101561026b57600080fd5b81019080803590602001909291905050506111e6565b005b34801561028f57600080fd5b50610298611266565b005b3480156102a657600080fd5b506102af611303565b005b3480156102bd57600080fd5b506102ec600480360360208110156102d457600080fd5b8101908080351515906020019092919050505061141e565b005b3480156102fa57600080fd5b50610303611500565b005b34801561031157600080fd5b506103546004803603602081101561032857600080fd5b81019080803573ffffffffffffffffffffffffffffffffffffffff16906020019092919050505061161b565b604051808215151515815260200191505060405180910390f35b34801561037a57600080fd5b506103bd6004803603606081101561039157600080fd5b810190808035906020019092919080351515906020019092919080359060200190929190505050611638565b005b3480156103cb57600080fd5b50610418600480360360408110156103e257600080fd5b81019080803573ffffffffffffffffffffffffffffffffffffffff1690602001909291908035906020019092919050505061196f565b005b34801561042657600080fd5b50610528600480360360c081101561043d57600080fd5b81019080803573ffffffffffffffffffffffffffffffffffffffff16906020019092919080359060200190929190803590602001909291908035906020019064010000000081111561048e57600080fd5b8201836020820111156104a057600080fd5b803590602001918460018302840111640100000000831117156104c257600080fd5b91908080601f016020809104026020016040519081016040528093929190818152602001838380828437600081840152601f19601f820116905080830192505050505050509192919290803590602001909291908035906020019092919050505061197d565b6040518082815260200191505060405180910390f35b61056a6004803603602081101561055457600080fd5b8101908080359060200190929190505050611bd1565b005b34801561057857600080fd5b506105a56004803603602081101561058f57600080fd5b810190808035906020019092919050505061200a565b005b3480156105b357600080fd5b50610600600480360360408110156105ca57600080fd5b81019080803573ffffffffffffffffffffffffffffffffffffffff16906020019092919080359060200190929190505050612075565b005b34801561060e57600080fd5b5061065b6004803603604081101561062557600080fd5b81019080803573ffffffffffffffffffffffffffffffffffffffff16906020019092919080359060200190929190505050612083565b005b34801561066957600080fd5b506106966004803603602081101561068057600080fd5b8101908080359060200190929190505050612091565b005b3480156106a457600080fd5b506106e7600480360360208110156106bb57600080fd5b81019080803573ffffffffffffffffffffffffffffffffffffffff16906020019092919050505061209d565b604051808215151515815260200191505060405180910390f35b34801561070d57600080fd5b5061073a6004803603602081101561072457600080fd5b81019080803590602001909291905050506120ba565b6040518080602001828103825283818151815260200191508051906020019080838360005b8381101561077a57808201518184015260208101905061075f565b50505050905090810190601f1680156107a75780820380516001836020036101000a031916815260200191505b509250505060405180910390f35b3480156107c157600080fd5b506107ee600480360360208110156107d857600080fd5b810190808035906020019092919050505061217e565b6040518082815260200191505060405180910390f35b34801561081057600080fd5b5061083d6004803603602081101561082757600080fd5b81019080803590602001909291905050506121a9565b005b34801561084b57600080fd5b506108786004803603602081101561086257600080fd5b8101908080359060200190929190505050612214565b604051808273ffffffffffffffffffffffffffffffffffffffff1673ffffffffffffffffffffffffffffffffffffffff16815260200191505060405180910390f35b3480156108c657600080fd5b50610913600480360360408110156108dd57600080fd5b81019080803573ffffffffffffffffffffffffffffffffffffffff16906020019092919080359060200190929190505050612226565b005b34801561092157600080fd5b5061094e6004803603602081101561093857600080fd5b81019080803590602001909291905050506122b2565b005b34801561095c57600080fd5b506109c16004803603608081101561097357600080fd5b81019080803515159060200190929190803515159060200190929190803573ffffffffffffffffffffffffffffffffffffffff1690602001909291908035906020019092919050505061231d565b005b3480156109cf57600080fd5b506109d861261e565b6040518082815260200191505060405180910390f35b3480156109fa57600080fd5b50610a2760048036036020811015610a1157600080fd5b810190808035906020019092919050505061262d565b604051808273ffffffffffffffffffffffffffffffffffffffff1673ffffffffffffffffffffffffffffffffffffffff16815260200191505060405180910390f35b348015610a7557600080fd5b50610ab660048036036060811015610a8c57600080fd5b81019080803590602001909291908035906020019092919080359060200190929190505050612660565b005b348015610ac457600080fd5b50610b1160048036036040811015610adb57600080fd5b81019080803573ffffffffffffffffffffffffffffffffffffffff16906020019092919080359060200190929190505050612737565b005b348015610b1f57600080fd5b50610b4c60048036036020811015610b3657600080fd5b8101908080359060200190929190505050612745565b005b348015610b5a57600080fd5b50610b636127c5565b005b348015610b7157600080fd5b50610b9e60048036036020811015610b8857600080fd5b81019080803590602001909291905050506127d0565b6040518080602001858152602001848152602001838152602001828103825286818151815260200191508051906020019080838360005b83811015610bf0578082015181840152602081019050610bd5565b50505050905090810190601f168015610c1d5780820380516001836020036101000a031916815260200191505b509550505050505060405180910390f35b348015610c3a57600080fd5b50610c6760048036036020811015610c5157600080fd5b8101908080359060200190929190505050612822565b005b348015610c7557600080fd5b50610c7e61282e565b005b348015610c8c57600080fd5b50610c95612839565b6040518082815260200191505060405180910390f35b348015610cb757600080fd5b50610ce460048036036020811015610cce57600080fd5b810190808035906020019092919050505061283f565b6040518082815260200191505060405180910390f35b348015610d0657600080fd5b50610d0f61286a565b604051808215151515815260200191505060405180910390f35b348015610d3557600080fd5b50610db6600480360360a0811015610d4c57600080fd5b8101908080359060200190929190803573ffffffffffffffffffffffffffffffffffffffff1690602001909291908035906020019092919080359060200190929190803573ffffffffffffffffffffffffffffffffffffffff169060200190929190505050612881565b005b348015610dc457600080fd5b50610dcd612b5c565b6040518082815260200191505060405180910390f35b348015610def57600080fd5b50610e1c60048036036020811015610e0657600080fd5b8101908080359060200190929190505050612b62565b005b348015610e2a57600080fd5b50610e7760048036036040811015610e4157600080fd5b81019080803573ffffffffffffffffffffffffffffffffffffffff16906020019092919080359060200190929190505050612bd1565b005b348015610e8557600080fd5b50610f67600480360360a0811015610e9c57600080fd5b81019080803590602001909291908035906020019092919080359060200190640100000000811115610ecd57600080fd5b820183602082011115610edf57600080fd5b80359060200191846001830284011164010000000083111715610f0157600080fd5b91908080601f016020809104026020016040519081016040528093929190818152602001838380828437600081840152601f19601f8201169050808301925050505050505091929192908035906020019092919080359060200190929190505050612bdf565b005b348015610f7557600080fd5b50610fc260048036036040811015610f8c57600080fd5b81019080803573ffffffffffffffffffffffffffffffffffffffff16906020019092919080359060200190929190505050612df2565b005b348015610fd057600080fd5b5061101d60048036036040811015610fe757600080fd5b81019080803573ffffffffffffffffffffffffffffffffffffffff16906020019092919080359060200190929190505050612e7d565b005b34801561102b57600080fd5b50611034612f08565b005b34801561104257600080fd5b5061104b612fa5565b005b34801561105957600080fd5b506110a66004803603604081101561107057600080fd5b81019080803573ffffffffffffffffffffffffffffffffffffffff16906020019092919080359060200190929190505050612fb0565b005b3480156110b457600080fd5b506110bd612fbe565b6040518082815260200191505060405180910390f35b3480156110df57600080fd5b50611122600480360360208110156110f657600080fd5b81019080803573ffffffffffffffffffffffffffffffffffffffff169060200190929190505050612fc4565b604051808215151515815260200191505060405180910390f35b34801561114857600080fd5b506111956004803603604081101561115f57600080fd5b81019080803573ffffffffffffffffffffffffffffffffffffffff16906020019092919080359060200190929190505050612fe1565b005b3480156111a357600080fd5b506111d0600480360360208110156111ba57600080fd5b810190808035906020019092919050505061306c565b6040518082815260200191505060405180910390f35b6112106001600b60008481526020019081526020016000206006015461309790919063ffffffff16565b600b6000838152602001908152602001600020600601819055507feb5a35545b0a45240a67898d2f6187c764da2eaca5c11a0e75e615dd80d9458d600a546040518082815260200191505060405180910390a150565b6112bb60018060003373ffffffffffffffffffffffffffffffffffffffff1673ffffffffffffffffffffffffffffffffffffffff1681526020019081526020016000206002015461309790919063ffffffff16565b600160003373ffffffffffffffffffffffffffffffffffffffff1673ffffffffffffffffffffffffffffffffffffffff16815260200190815260200160002060020181905550565b61130c33612fc4565b1515611380576040517f08c379a00000000000000000000000000000000000000000000000000000000081526004018080602001828103825260198152602001807f43616c6c6572206973206e6f7420612056616c696461746f720000000000000081525060200191505060405180910390fd5b6113d66001600760003373ffffffffffffffffffffffffffffffffffffffff1673ffffffffffffffffffffffffffffffffffffffff1681526020019081526020016000206003015461309790919063ffffffff16565b600760003373ffffffffffffffffffffffffffffffffffffffff1673ffffffffffffffffffffffffffffffffffffffff16815260200190815260200160002060030181905550565b600c60009054906101000a900473ffffffffffffffffffffffffffffffffffffffff1673ffffffffffffffffffffffffffffffffffffffff163373ffffffffffffffffffffffffffffffffffffffff161415156114e3576040517f08c379a00000000000000000000000000000000000000000000000000000000081526004018080602001828103825260138152602001807f43616c6c6572206973206e6f742061646d696e0000000000000000000000000081525060200191505060405180910390fd5b80600c60146101000a81548160ff02191690831515021790555050565b61150933612fc4565b151561157d576040517f08c379a00000000000000000000000000000000000000000000000000000000081526004018080602001828103825260198152602001807f43616c6c6572206973206e6f7420612056616c696461746f720000000000000081525060200191505060405180910390fd5b6115d36001600760003373ffffffffffffffffffffffffffffffffffffffff1673ffffffffffffffffffffffffffffffffffffffff1681526020019081526020016000206002015461309790919063ffffffff16565b600760003373ffffffffffffffffffffffffffffffffffffffff1673ffffffffffffffffffffffffffffffffffffffff16815260200190815260200160002060020181905550565b600061163182600061312190919063ffffffff16565b9050919050565b61164133612fc4565b15156116b5576040517f08c379a00000000000000000000000000000000000000000000000000000000081526004018080602001828103825260198152602001807f43616c6c6572206973206e6f7420612056616c696461746f720000000000000081525060200191505060405180910390fd5b600080600090505b6003811015611803573373ffffffffffffffffffffffffffffffffffffffff16600e60008781526020019081526020016000206002018260038110151561170057fe5b0160009054906101000a900473ffffffffffffffffffffffffffffffffffffffff1673ffffffffffffffffffffffffffffffffffffffff1614156117a85783600e60008781526020019081526020016000206005018260038110151561176257fe5b602091828204019190066101000a81548160ff021916908315150217905550600e6000868152602001908152602001600020600601600081548092919060010191905055505b60011515600e6000878152602001908152602001600020600501826003811015156117cf57fe5b602091828204019190069054906101000a900460ff16151514156117f65781806001019250505b80806001019150506116bd565b506002811015156119195760016005600084815260200190815260200160002060050160006101000a81548160ff02191690831515021790555060006005600084815260200190815260200160002060010160009054906101000a900473ffffffffffffffffffffffffffffffffffffffff1690506118cd60018060008473ffffffffffffffffffffffffffffffffffffffff1673ffffffffffffffffffffffffffffffffffffffff1681526020019081526020016000206003015461309790919063ffffffff16565b600160008373ffffffffffffffffffffffffffffffffffffffff1673ffffffffffffffffffffffffffffffffffffffff1681526020019081526020016000206003018190555050611969565b6003600e60008681526020019081526020016000206006015414156119685760006005600084815260200190815260200160002060050160006101000a81548160ff0219169083151502179055505b5b50505050565b6119798282613244565b5050565b60006119956001600a5461309790919063ffffffff16565b600a81905550610180604051908101604052808873ffffffffffffffffffffffffffffffffffffffff168152602001878152602001868152602001858152602001848152602001600073ffffffffffffffffffffffffffffffffffffffff168152602001600015158152602001600015158152602001600015158152602001600081526020016000815260200183815250600b6000600a54815260200190815260200160002060008201518160000160006101000a81548173ffffffffffffffffffffffffffffffffffffffff021916908373ffffffffffffffffffffffffffffffffffffffff16021790555060208201518160010155604082015181600201556060820151816003019080519060200190611ab2929190613f17565b506080820151816004015560a08201518160050160006101000a81548173ffffffffffffffffffffffffffffffffffffffff021916908373ffffffffffffffffffffffffffffffffffffffff16021790555060c08201518160050160146101000a81548160ff02191690831515021790555060e08201518160050160156101000a81548160ff0219169083151502179055506101008201518160050160166101000a81548160ff0219169083151502179055506101208201518160060155610140820151816007015561016082015181600801559050507f9ed508f9dd7c730fd307b1ca38355cf4d9c00f58a2acfa5167b497c51a859e4c600a546040518082815260200191505060405180910390a1600a5490509695505050505050565b600d60003373ffffffffffffffffffffffffffffffffffffffff1673ffffffffffffffffffffffffffffffffffffffff168152602001908152602001600020548111151515611c88576040517f08c379a00000000000000000000000000000000000000000000000000000000081526004018080602001828103825260128152602001807f4e6f7420656e6f7567682062616c616e6365000000000000000000000000000081525060200191505060405180910390fd5b60008060011515611c983361161b565b15151415611dc657600160003373ffffffffffffffffffffffffffffffffffffffff1673ffffffffffffffffffffffffffffffffffffffff168152602001908152602001600020600101549050611cf8838261331e90919063ffffffff16565b9050671bc16d674ec800008110151515611d7a576040517f08c379a00000000000000000000000000000000000000000000000000000000081526004018080602001828103825260148152602001807f496e73756666696369656e742042616c616e636500000000000000000000000081525060200191505060405180910390fd5b6001915080600160003373ffffffffffffffffffffffffffffffffffffffff1673ffffffffffffffffffffffffffffffffffffffff168152602001908152602001600020600101819055505b60011515611dd333612fc4565b15151415611f0157600760003373ffffffffffffffffffffffffffffffffffffffff1673ffffffffffffffffffffffffffffffffffffffff168152602001908152602001600020600101549050611e33838261331e90919063ffffffff16565b9050670de0b6b3a76400008110151515611eb5576040517f08c379a00000000000000000000000000000000000000000000000000000000081526004018080602001828103825260148152602001807f496e73756666696369656e742042616c616e636500000000000000000000000081525060200191505060405180910390fd5b6001915080600760003373ffffffffffffffffffffffffffffffffffffffff1673ffffffffffffffffffffffffffffffffffffffff168152602001908152602001600020600101819055505b60011515611f0e3361209d565b15151415611f1b57600191505b60011515821515141561200557611f7a83600d60003373ffffffffffffffffffffffffffffffffffffffff1673ffffffffffffffffffffffffffffffffffffffff1681526020019081526020016000205461331e90919063ffffffff16565b600d60003373ffffffffffffffffffffffffffffffffffffffff1673ffffffffffffffffffffffffffffffffffffffff168152602001908152602001600020819055503373ffffffffffffffffffffffffffffffffffffffff166108fc849081150290604051600060405180830381858888f19350505050158015612003573d6000803e3d6000fd5b505b505050565b6001600b600083815260200190815260200160002060050160156101000a81548160ff0219169083151502179055507f7794351528fe7be520769ebfe19d7275d2a0ecb197e1bbc23afa224134887ba2600a546040518082815260200191505060405180910390a150565b61207f8282612df2565b5050565b61208d82826133a9565b5050565b61209a816111e6565b50565b60006120b382600261312190919063ffffffff16565b9050919050565b60606000600b600084815260200190815260200160002090506060816003018054600181600116156101000203166002900480601f01602080910402602001604051908101604052809291908181526020018280546001816001161561010002031660029004801561216d5780601f106121425761010080835404028352916020019161216d565b820191906000526020600020905b81548152906001019060200180831161215057829003601f168201915b505050505090508092505050919050565b600080600b600084815260200190815260200160002090506000816007015490508092505050919050565b6001600b600083815260200190815260200160002060050160146101000a81548160ff0219169083151502179055507f60bd4c6e468dd35d1c78b03ddc704f2f270ad2ed13b45bf571438f433db9b8f7600a546040518082815260200191505060405180910390a150565b600061221f8261348d565b9050919050565b61222e613f97565b600760008473ffffffffffffffffffffffffffffffffffffffff1673ffffffffffffffffffffffffffffffffffffffff16815260200190815260200160002060806040519081016040529081600082015481526020016001820154815260200160028201548152602001600382015481525050905081816000018181525050505050565b6001600b600083815260200190815260200160002060050160166101000a81548160ff0219169083151502179055507fe95591b999a8fa4c23f2d0b426271960c193b5eb71cef3bc673ac5be6cb60df4600a546040518082815260200191505060405180910390a150565b6001151583151514156124b1576000600160008473ffffffffffffffffffffffffffffffffffffffff1673ffffffffffffffffffffffffffffffffffffffff168152602001908152602001600020600001541115612411576123ca60018060008573ffffffffffffffffffffffffffffffffffffffff1673ffffffffffffffffffffffffffffffffffffffff1681526020019081526020016000206000015461331e90919063ffffffff16565b600160008473ffffffffffffffffffffffffffffffffffffffff1673ffffffffffffffffffffffffffffffffffffffff168152602001908152602001600020600001819055505b61246660018060008573ffffffffffffffffffffffffffffffffffffffff1673ffffffffffffffffffffffffffffffffffffffff1681526020019081526020016000206003015461309790919063ffffffff16565b600160008473ffffffffffffffffffffffffffffffffffffffff1673ffffffffffffffffffffffffffffffffffffffff16815260200190815260200160002060030181905550612618565b600115158415151415612507576124e86001600b60008481526020019081526020016000206006015461309790919063ffffffff16565b600b60008381526020019081526020016000206006018190555061254c565b6125316001600b60008481526020019081526020016000206007015461309790919063ffffffff16565b600b6000838152602001908152602001600020600701819055505b600061260a600160008573ffffffffffffffffffffffffffffffffffffffff1673ffffffffffffffffffffffffffffffffffffffff16815260200190815260200160002060000154600b600085815260200190815260200160002060060154600b600086815260200190815260200160002060070154600160008873ffffffffffffffffffffffffffffffffffffffff1673ffffffffffffffffffffffffffffffffffffffff168152602001908152602001600020600201546134d8565b90506126168382612083565b505b50505050565b600061262861357f565b905090565b60096020528060005260406000206000915054906101000a900473ffffffffffffffffffffffffffffffffffffffff1681565b6126693361209d565b15156126dd576040517f08c379a00000000000000000000000000000000000000000000000000000000081526004018080602001828103825260168152602001807f43616c6c6572206973206e6f742061205265616465720000000000000000000081525060200191505060405180910390fd5b6000600b600083815260200190815260200160002060000160009054906101000a900473ffffffffffffffffffffffffffffffffffffffff1690506127258282868633612881565b61273182600454613589565b50505050565b6127418282612fe1565b5050565b61276f6001600b60008481526020019081526020016000206007015461309790919063ffffffff16565b600b6000838152602001908152602001600020600701819055507fd1ff0de57853f81f969355a26960199cd8211f9d274c6c552a148053125b4611600a546040518082815260200191505060405180910390a150565b6127ce336136b6565b565b6060600080600060606127e2866120ba565b905060006127ef8761306c565b905060006127fc8861283f565b905060006128098961217e565b9050838383839750975097509750505050509193509193565b61282b81612745565b50565b61283733613710565b565b60085481565b600080600b600084815260200190815260200160002090506000816006015490508092505050919050565b6000600c60149054906101000a900460ff16905090565b612897600160045461309790919063ffffffff16565b60048190555060c0604051908101604052808681526020018573ffffffffffffffffffffffffffffffffffffffff1681526020018273ffffffffffffffffffffffffffffffffffffffff168152602001848152602001838152602001600015158152506005600060045481526020019081526020016000206000820151816000015560208201518160010160006101000a81548173ffffffffffffffffffffffffffffffffffffffff021916908373ffffffffffffffffffffffffffffffffffffffff16021790555060408201518160020160006101000a81548173ffffffffffffffffffffffffffffffffffffffff021916908373ffffffffffffffffffffffffffffffffffffffff160217905550606082015181600301556080820151816004015560a08201518160050160006101000a81548160ff021916908315150217905550905050612a346001600360008473ffffffffffffffffffffffffffffffffffffffff1673ffffffffffffffffffffffffffffffffffffffff1681526020019081526020016000206002015461309790919063ffffffff16565b600360008373ffffffffffffffffffffffffffffffffffffffff1673ffffffffffffffffffffffffffffffffffffffff16815260200190815260200160002060020181905550600360008273ffffffffffffffffffffffffffffffffffffffff1673ffffffffffffffffffffffffffffffffffffffff16815260200190815260200160002060030160045490806001815401808255809150509060018203906000526020600020016000909192909190915055507f71658dcd30af2516252b609c834023d8729aab62422a55f9559c3c854f3a880381600454604051808373ffffffffffffffffffffffffffffffffffffffff1673ffffffffffffffffffffffffffffffffffffffff1681526020018281526020019250505060405180910390a15050505050565b60045481565b600160003373ffffffffffffffffffffffffffffffffffffffff1673ffffffffffffffffffffffffffffffffffffffff16815260200190815260200160002060040181908060018154018082558091505090600182039060005260206000200160009091929091909150555050565b612bdb8282612226565b5050565b612be83361161b565b1515612c5c576040517f08c379a000000000000000000000000000000000000000000000000000000000815260040180806020018281038252601b8152602001807f43616c6c6572206973206e6f74206120436f6e7472696275746f72000000000081525060200191505060405180910390fd5b600160003373ffffffffffffffffffffffffffffffffffffffff1673ffffffffffffffffffffffffffffffffffffffff168152602001908152602001600020600101548111151515612d62576040517f08c379a00000000000000000000000000000000000000000000000000000000081526004018080602001828103825260598152602001807f496e73756666696369656e742066756e647320746f207075626c69736820617281526020017f7469636c652e20416d6f756e74207374616b65642073686f756c64206265206c81526020017f657373207468616e206163636f756e742062616c616e63652e0000000000000081525060600191505060405180910390fd5b6000612d7233878787878761197d565b9050600160003373ffffffffffffffffffffffffffffffffffffffff1673ffffffffffffffffffffffffffffffffffffffff168152602001908152602001600020600401819080600181540180825580915050906001820390600052602060002001600090919290919091505550612dea813361376a565b505050505050565b612dfb3361161b565b1515612e6f576040517f08c379a000000000000000000000000000000000000000000000000000000000815260040180806020018281038252601b8152602001807f43616c6c6572206973206e6f74206120436f6e7472696275746f72000000000081525060200191505060405180910390fd5b612e79828261387e565b5050565b612e863361209d565b1515612efa576040517f08c379a00000000000000000000000000000000000000000000000000000000081526004018080602001828103825260168152602001807f43616c6c6572206973206e6f742061205265616465720000000000000000000081525060200191505060405180910390fd5b612f048282613920565b5050565b612f5d60018060003373ffffffffffffffffffffffffffffffffffffffff1673ffffffffffffffffffffffffffffffffffffffff1681526020019081526020016000206003015461309790919063ffffffff16565b600160003373ffffffffffffffffffffffffffffffffffffffff1673ffffffffffffffffffffffffffffffffffffffff16815260200190815260200160002060030181905550565b612fae336139c2565b565b612fba8282612e7d565b5050565b600f5481565b6000612fda82600661312190919063ffffffff16565b9050919050565b612fea33612fc4565b151561305e576040517f08c379a00000000000000000000000000000000000000000000000000000000081526004018080602001828103825260198152602001807f43616c6c6572206973206e6f7420612056616c696461746f720000000000000081525060200191505060405180910390fd5b6130688282613a1c565b5050565b600080600b600084815260200190815260200160002090506000816004015490508092505050919050565b6000808284019050838110151515613117576040517f08c379a000000000000000000000000000000000000000000000000000000000815260040180806020018281038252601b8152602001807f536166654d6174683a206164646974696f6e206f766572666c6f77000000000081525060200191505060405180910390fd5b8091505092915050565b60008073ffffffffffffffffffffffffffffffffffffffff168273ffffffffffffffffffffffffffffffffffffffff16141515156131ed576040517f08c379a00000000000000000000000000000000000000000000000000000000081526004018080602001828103825260228152602001807f526f6c65733a206163636f756e7420697320746865207a65726f20616464726581526020017f737300000000000000000000000000000000000000000000000000000000000081525060400191505060405180910390fd5b8260000160008373ffffffffffffffffffffffffffffffffffffffff1673ffffffffffffffffffffffffffffffffffffffff16815260200190815260200160002060009054906101000a900460ff16905092915050565b61324c613fc0565b600360008473ffffffffffffffffffffffffffffffffffffffff1673ffffffffffffffffffffffffffffffffffffffff168152602001908152602001600020608060405190810160405290816000820154815260200160018201548152602001600282015481526020016003820180548060200260200160405190810160405280929190818152602001828054801561330457602002820191906000526020600020905b8154815260200190600101908083116132f0575b505050505081525050905081816000018181525050505050565b6000828211151515613398576040517f08c379a000000000000000000000000000000000000000000000000000000000815260040180806020018281038252601e8152602001807f536166654d6174683a207375627472616374696f6e206f766572666c6f77000081525060200191505060405180910390fd5b600082840390508091505092915050565b6133b1613fe9565b600160008473ffffffffffffffffffffffffffffffffffffffff1673ffffffffffffffffffffffffffffffffffffffff16815260200190815260200160002060a06040519081016040529081600082015481526020016001820154815260200160028201548152602001600382015481526020016004820180548060200260200160405190810160405280929190818152602001828054801561347357602002820191906000526020600020905b81548152602001906001019080831161345f575b505050505081525050905081816000018181525050505050565b600080600b6000848152602001908152602001600020905060008160000160009054906101000a900473ffffffffffffffffffffffffffffffffffffffff1690508092505050919050565b6000806134ee848661309790919063ffffffff16565b90506000613518600561350a8489613b2e90919063ffffffff16565b613bc190919063ffffffff16565b9050600061353060018661331e90919063ffffffff16565b90506135458882613bc190919063ffffffff16565b905061355a828261309790919063ffffffff16565b905061356f8582613b2e90919063ffffffff16565b9050809350505050949350505050565b6000600a54905090565b61359f6001600f5461309790919063ffffffff16565b600f819055506135ad614019565b6000600190505b600481101561364e57600960006135ca83613c8e565b815260200190815260200160002060009054906101000a900473ffffffffffffffffffffffffffffffffffffffff16826001830360038110151561360a57fe5b602002019073ffffffffffffffffffffffffffffffffffffffff16908173ffffffffffffffffffffffffffffffffffffffff168152505080806001019150506135b4565b5080600e6000600f54815260200190815260200160002060020190600361367692919061403c565b5082600e6000600f5481526020019081526020016000206000018190555081600e6000600f54815260200190815260200160002060010181905550505050565b6136ca816002613d3890919063ffffffff16565b8073ffffffffffffffffffffffffffffffffffffffff167fe933431644458f1217f9e93d3e000e03c9bbbe55761046d0985c2e4d157bcbaa60405160405180910390a250565b613724816000613d3890919063ffffffff16565b8073ffffffffffffffffffffffffffffffffffffffff167f665b9b7911d6a3e5a789e2be1ed4f9ffa84c1259e3b89675234719521112219160405160405180910390a250565b60006009600061377a6001613c8e565b815260200190815260200160002060009054906101000a900473ffffffffffffffffffffffffffffffffffffffff1690505b8173ffffffffffffffffffffffffffffffffffffffff168173ffffffffffffffffffffffffffffffffffffffff16141561382457600960006137ee6001613c8e565b815260200190815260200160002060009054906101000a900473ffffffffffffffffffffffffffffffffffffffff1690506137ac565b80600b600085815260200190815260200160002060050160006101000a81548173ffffffffffffffffffffffffffffffffffffffff021916908373ffffffffffffffffffffffffffffffffffffffff160217905550505050565b613892826000613e3a90919063ffffffff16565b80600160008473ffffffffffffffffffffffffffffffffffffffff1673ffffffffffffffffffffffffffffffffffffffff168152602001908152602001600020600101819055508173ffffffffffffffffffffffffffffffffffffffff167f07681ffd9d424587412481b41d2ee582bb7bca757f626b0477051f302947027260405160405180910390a25050565b613934826002613e3a90919063ffffffff16565b80600360008473ffffffffffffffffffffffffffffffffffffffff1673ffffffffffffffffffffffffffffffffffffffff168152602001908152602001600020600101819055508173ffffffffffffffffffffffffffffffffffffffff167fb7724d890d2888af5a3fc456edb667e2c82c4441449ebcac301c618759e4f86d60405160405180910390a25050565b6139d6816006613d3890919063ffffffff16565b8073ffffffffffffffffffffffffffffffffffffffff167fe1434e25d6611e0db941968fdc97811c982ac1602e951637d206f5fdda9dd8f160405160405180910390a250565b613a30826006613e3a90919063ffffffff16565b80600760008473ffffffffffffffffffffffffffffffffffffffff1673ffffffffffffffffffffffffffffffffffffffff16815260200190815260200160002060010181905550613a8d600160085461309790919063ffffffff16565b6008819055508160096000600854815260200190815260200160002060006101000a81548173ffffffffffffffffffffffffffffffffffffffff021916908373ffffffffffffffffffffffffffffffffffffffff1602179055508173ffffffffffffffffffffffffffffffffffffffff167fe366c1c0452ed8eec96861e9e54141ebff23c9ec89fe27b996b45f5ec388498760405160405180910390a25050565b60008082111515613ba7576040517f08c379a000000000000000000000000000000000000000000000000000000000815260040180806020018281038252601a8152602001807f536166654d6174683a206469766973696f6e206279207a65726f00000000000081525060200191505060405180910390fd5b60008284811515613bb457fe5b0490508091505092915050565b600080831415613bd45760009050613c88565b60008284029050828482811515613be757fe5b04141515613c83576040517f08c379a00000000000000000000000000000000000000000000000000000000081526004018080602001828103825260218152602001807f536166654d6174683a206d756c7469706c69636174696f6e206f766572666c6f81526020017f770000000000000000000000000000000000000000000000000000000000000081525060400191505060405180910390fd5b809150505b92915050565b60008060085490506000423385604051602001808481526020018373ffffffffffffffffffffffffffffffffffffffff1673ffffffffffffffffffffffffffffffffffffffff166c010000000000000000000000000281526014018281526020019350505050604051602081830303815290604052805190602001206001900490506000613d258383613b2e90919063ffffffff16565b9050600081905080945050505050919050565b613d428282613121565b1515613ddc576040517f08c379a00000000000000000000000000000000000000000000000000000000081526004018080602001828103825260218152602001807f526f6c65733a206163636f756e7420646f6573206e6f74206861766520726f6c81526020017f650000000000000000000000000000000000000000000000000000000000000081525060400191505060405180910390fd5b60008260000160008373ffffffffffffffffffffffffffffffffffffffff1673ffffffffffffffffffffffffffffffffffffffff16815260200190815260200160002060006101000a81548160ff0219169083151502179055505050565b613e448282613121565b151515613eb9576040517f08c379a000000000000000000000000000000000000000000000000000000000815260040180806020018281038252601f8152602001807f526f6c65733a206163636f756e7420616c72656164792068617320726f6c650081525060200191505060405180910390fd5b60018260000160008373ffffffffffffffffffffffffffffffffffffffff1673ffffffffffffffffffffffffffffffffffffffff16815260200190815260200160002060006101000a81548160ff0219169083151502179055505050565b828054600181600116156101000203166002900490600052602060002090601f016020900481019282601f10613f5857805160ff1916838001178555613f86565b82800160010185558215613f86579182015b82811115613f85578251825591602001919060010190613f6a565b5b509050613f9391906140b9565b5090565b608060405190810160405280600081526020016000815260200160008152602001600081525090565b608060405190810160405280600081526020016000815260200160008152602001606081525090565b60a06040519081016040528060008152602001600081526020016000815260200160008152602001606081525090565b606060405190810160405280600390602082028038833980820191505090505090565b82600381019282156140a8579160200282015b828111156140a75782518260006101000a81548173ffffffffffffffffffffffffffffffffffffffff021916908373ffffffffffffffffffffffffffffffffffffffff1602179055509160200191906001019061404f565b5b5090506140b591906140de565b5090565b6140db91905b808211156140d75760008160009055506001016140bf565b5090565b90565b61411e91905b8082111561411a57600081816101000a81549073ffffffffffffffffffffffffffffffffffffffff0219169055506001016140e4565b5090565b9056fea165627a7a72305820cbdba7c78cd6b4fd2dd134a4f67a8b7ca6412235f7852b8c278c7cae0d40d78f0029",
  "source": "pragma solidity >=0.4.21 <0.6.0;\nimport \"./accessControl/ContributorRole.sol\";\nimport \"./accessControl/ReaderRole.sol\";\nimport \"./accessControl/ValidatorRole.sol\";\nimport \"./Article.sol\";\n// Import the library 'Roles' and SafeMath\nimport \"../node_modules/openzeppelin-solidity/contracts/math/SafeMath.sol\";\n\n\ncontract Honestmedia is ContributorRole, ReaderRole, ValidatorRole, Article  {\n    using SafeMath for uint;\n\n\taddress owner;\n\n\t//check if contract operational\n    bool private operational = true;\n\n    //variables to define minimum funding amounts for validators and contributors.\n    //These should be checked when adding new actors.\n    uint constant MIN_FUNDING_VALIDATOR = 1 ether; //we can decide a different amount\n    uint constant MIN_FUNDING_CONTRIBUTOR = 2 ether; //we can decide a different amount\n\n    //mapping to store available withdrawals\n    mapping(address => uint) availableWithdrawls;\n\n    //Struct to store ruling\n    struct ruling {\n        uint articleId;\n        uint challengeId;\n        address[3] validators;\n        bool[3] votes;\n        uint voted;\n    }\n\n    //Mapping to save ruling for challenges\n    mapping(uint => ruling) allRulings;\n\n    //Variable to save totalRulings\n    uint public totalRulings;\n\n\tconstructor() public {\n        owner = msg.sender;\n    }\n\n     modifier requireIsOperational() {\n        require(operational, \"Contract is currently not operational\");\n        _;  // All modifiers require an \"_\" which indicates where the function body will be added\n    }\n\n    modifier requireContractOwner() {\n        require((msg.sender == owner), \"Caller is not admin\");\n        _;\n    }\n\n    function isOperational() \n                            public \n                            view \n                            returns(bool) {\n        return operational;\n    }\n\n    function setOperatingStatus\n                            (\n                                bool mode\n                            ) \n                            external\n                            requireContractOwner {\n        operational = mode;\n    }\n\n    //add contributor\n    function registerContributor(address _address, uint _fund) external {\n        ContributorRole.addContributor(_address, _fund);\n    }\n\n    //add reader\n    function registerReader(address _address, uint _fund) external {\n        ReaderRole.addReader(_address, _fund);\n    }\n\n    //add validator\n    function registerValidator(address _address, uint _fund) external {\n        ValidatorRole.addValidator(_address, _fund);\n    }\n\n    //seting ranking\n    function setContributorRating(address _address, uint rank) public {\n    \tContributorRole.setRating(_address, rank);\n    }\n\n    function setReaderRating(address _address, uint rank) external {\n    \tReaderRole.setRating(_address, rank);\n    }\n\n    function setValidatorRating(address _address, uint rank) external {\n    \tValidatorRole.setRating(_address, rank);\n    }\n\n    //function get article contributor\n    function getArticleContributor(uint _articleNumber) public view returns (address _contributor) {\n        return Article.getArticleContributor(_articleNumber);\n    }\n\n    //Function to store the article etc\n    function addArticle(bytes32 _ipfsArticleHash, bytes32 _ipfsReferenceHash, string memory _title,\n                        uint _datePublished, uint _stake) public onlyContributor\n    {\n        //Check if Amount staked is greater than balance of contributor\n        require(_stake <= ContributorRole.allContributors[msg.sender].balance,\n                         \"Insufficient funds to publish article. Amount staked should be less than account balance.\");\n        uint articleNum = Article.add(msg.sender, _ipfsArticleHash, _ipfsReferenceHash, _title, _datePublished, _stake);\n        ContributorRole.allContributors[msg.sender].articles.push(articleNum);\n        assignValidator(articleNum, msg.sender);\n    }\n\n    //function get the number of all articles\n    function getNumberOfArticles() public view returns (uint noOfArticles){\n        return Article.getNumberOfArticles();\n    }\n\n    //function to get the list of all the articles' titles\n    function getArticle(uint _articleNumber) public view returns (string memory title, uint datePublished, uint upvotes, uint downvotes){\n        string memory articleTitle = Article.getArticleTitle(_articleNumber);\n        uint articleDatePublished = Article.getArticleDatePublished(_articleNumber);\n        uint articleUpvotes = Article.getArticleUpvotes(_articleNumber);\n        uint articleDownvotes = Article.getArticleDownvotes(_articleNumber);\n        return (articleTitle, articleDatePublished, articleUpvotes, articleDownvotes);\n    }\n\n    //Assign validator to approve article\n    function assignValidator(uint articleId, address contributor) internal {\n        //check to see if random validator is also contributor\n        address randomValidator = ValidatorRole.validatorIds[random(1)];\n        while (randomValidator == contributor){\n           randomValidator = ValidatorRole.validatorIds[random(1)];\n        }\n        Article.allArticles[articleId].validator = randomValidator;\n    }\n\n\n    //approve article\n    function approve(uint articleId) internal onlyValidator {\n        require(Article.allArticles[articleId].validator == msg.sender, \"Validator not authorised\");\n        Article.allArticles[articleId].approved = true;\n    }\n\n    //upvote article\n    function upVoteArticle(uint articleId) public {\n        Article.upVoted(articleId);\n    }\n\n    //downvote article\n    function downVoteArticle(uint articleId) public {\n        Article.downVoted(articleId);\n    }\n\n    //Function to update rating for Contributors\n    function updateContributorRating(bool vote, bool challengeLost, address _contributor, uint articleId) public {\n        //change rating after challenge lost\n        if(challengeLost == true){\n            if(ContributorRole.allContributors[_contributor].rating > 0){\n                ContributorRole.allContributors[_contributor].rating = ContributorRole.allContributors[_contributor].rating.sub(1);\n            }\n            ContributorRole.allContributors[_contributor].challengesLost = ContributorRole.allContributors[_contributor].challengesLost.add(1);\n        }else {\n        //change rating after reader vote\n            if(vote == true){\n                Article.allArticles[articleId].upVotes = Article.allArticles[articleId].upVotes.add(1);\n            }else {\n                Article.allArticles[articleId].downVotes = Article.allArticles[articleId].downVotes.add(1);\n            }\n            uint newRating = contributorRatingCalculator(ContributorRole.allContributors[_contributor].rating, Article.allArticles[articleId].upVotes,\n                                                        Article.allArticles[articleId].downVotes, ContributorRole.allContributors[_contributor].articlesPublished);\n            setContributorRating(_contributor, newRating);\n        }\n    }\n\n    //Function to calculate rating for Contributors\n    function contributorRatingCalculator(uint currentRating, uint upVotes, uint downVotes, uint articles) internal pure returns(uint){\n        uint totalRatings = upVotes.add(downVotes);\n        uint recentRating = upVotes.div(totalRatings).mul(5);\n        uint newRating = articles.sub(1);\n        newRating = newRating.mul(currentRating);\n        newRating = newRating.add(recentRating);\n        newRating = newRating.div(articles);\n        return newRating;\n    }\n\n    //Function to challenge an article\n    function challengeArticle(bytes32 proofHash, uint stake, uint articleId) external onlyReader {\n        address contributor = Article.allArticles[articleId].contributor;\n        ReaderRole.challenge(articleId, contributor, proofHash, stake, msg.sender);\n        assignValidators(articleId, ReaderRole.totalChallenges);\n    }\n\n    //function to find random validators to vote on challenge\n    function assignValidators(uint _articleId, uint _challengeId) internal {\n        totalRulings = totalRulings.add(1);\n        address[3] memory validators;\n        for(uint i = 1; i < 4; i++)\n        {\n            validators[i-1] = ValidatorRole.validatorIds[random(i)];\n        }\n        allRulings[totalRulings].validators = validators;\n        allRulings[totalRulings].articleId = _articleId;\n        allRulings[totalRulings].challengeId = _challengeId;\n    }\n\n    //Random number generator\n    function random(uint nonce) internal view returns (uint) {\n        uint MAX = ValidatorRole.totalValidators;\n        uint seed = uint(keccak256(abi.encodePacked(now, msg.sender, nonce)));\n        uint scaled = seed.div(MAX);\n        uint adjusted = scaled;\n        return adjusted;\n    }\n\n    //function to register validator votes on challenge. Will also check if 2 of 3 consensus is reached\n    function voteOnChallenge(uint rulingId, bool vote, uint challengeId) external onlyValidator {\n        uint numOfYesVotes;\n        for(uint i = 0; i < 3; i++){\n            if (allRulings[rulingId].validators[i] == msg.sender) {\n                allRulings[rulingId].votes[i] = vote;\n                allRulings[rulingId].voted++;\n            }\n            if(allRulings[rulingId].votes[i] == true)\n                numOfYesVotes++;\n        }\n        if(numOfYesVotes >= 2){\n            ReaderRole.allChallenges[challengeId].success = true;\n            // update contributor's challenges lost\n            address contributor = ReaderRole.allChallenges[challengeId].contributor;\n            ContributorRole.allContributors[contributor].challengesLost = ContributorRole.allContributors[contributor].challengesLost.add(1);\n            // Distribute Amount staked by contributor to reader and validators\n        }else\n        {\n            if(allRulings[rulingId].voted == 3) {\n                ReaderRole.allChallenges[challengeId].success = false;\n                // Distribute Amount staked by reader to contributor and validators\n            }\n        }\n    }\n\n    //function that allows to withdraw funds. For Validators and Contributors their balance should not be less than the minimum funding amount.\n    function withdraw(uint amount) external payable {\n        require(amount <= availableWithdrawls[msg.sender], \"Not enough balance\");\n        bool allow;\n        uint balance;\n        if(ContributorRole.isContributor(msg.sender) == true){\n            balance = ContributorRole.allContributors[msg.sender].balance;\n            balance = balance.sub(amount);\n            require(balance >= MIN_FUNDING_CONTRIBUTOR, \"Insufficient Balance\");\n            allow = true;\n            ContributorRole.allContributors[msg.sender].balance = balance;\n        }\n        if(ValidatorRole.isValidator(msg.sender) == true){\n            balance = ValidatorRole.allValidators[msg.sender].balance;\n            balance = balance.sub(amount);\n            require(balance >= MIN_FUNDING_VALIDATOR, \"Insufficient Balance\");\n            allow = true;\n            ValidatorRole.allValidators[msg.sender].balance = balance;\n        }\n        if(ReaderRole.isReader(msg.sender) == true){\n            allow = true;\n        }\n        if(allow == true){\n            availableWithdrawls[msg.sender] = availableWithdrawls[msg.sender].sub(amount);\n            msg.sender.transfer(amount);\n        }\n    }\n\n    //Fallback function\n    function () external payable {\n    }\n\n\n\n}",
  "sourcePath": "/Users/ringaile/Documents/hackathon/contracts/Honestmedia.sol",
  "compiler": {
    "name": "solc",
    "version": "0.5.0+commit.1d4f565a.Emscripten.clang"
  },
  "schemaVersion": "3.0.5",
  "updatedAt": "2019-07-07T09:15:40.512Z",
  "devdoc": {
    "methods": {}
  },
  "userdoc": {
    "methods": {}
  }
}