{
  "contractName": "Honestmedia",
  "abi": [
    {
      "constant": false,
      "inputs": [
        {
          "name": "articleNumber",
          "type": "uint256"
        }
      ],
      "name": "upVoted",
      "outputs": [],
      "payable": false,
      "stateMutability": "nonpayable",
      "type": "function",
      "signature": "0x01c97c57"
    },
    {
      "constant": false,
      "inputs": [],
      "name": "publish",
      "outputs": [],
      "payable": false,
      "stateMutability": "nonpayable",
      "type": "function",
      "signature": "0x075d4782"
    },
    {
      "constant": false,
      "inputs": [],
      "name": "ruleOnChallenge",
      "outputs": [],
      "payable": false,
      "stateMutability": "nonpayable",
      "type": "function",
      "signature": "0x0a75d745"
    },
    {
      "constant": false,
      "inputs": [],
      "name": "approve",
      "outputs": [],
      "payable": false,
      "stateMutability": "nonpayable",
      "type": "function",
      "signature": "0x12424e3f"
    },
    {
      "constant": true,
      "inputs": [
        {
          "name": "account",
          "type": "address"
        }
      ],
      "name": "isContributor",
      "outputs": [
        {
          "name": "",
          "type": "bool"
        }
      ],
      "payable": false,
      "stateMutability": "view",
      "type": "function",
      "signature": "0x1d0d35f5"
    },
    {
      "constant": false,
      "inputs": [
        {
          "name": "articleNumber",
          "type": "uint256"
        }
      ],
      "name": "challenged",
      "outputs": [],
      "payable": false,
      "stateMutability": "nonpayable",
      "type": "function",
      "signature": "0x45e73685"
    },
    {
      "constant": true,
      "inputs": [
        {
          "name": "account",
          "type": "address"
        }
      ],
      "name": "isReader",
      "outputs": [
        {
          "name": "",
          "type": "bool"
        }
      ],
      "payable": false,
      "stateMutability": "view",
      "type": "function",
      "signature": "0x69a7ddf7"
    },
    {
      "constant": false,
      "inputs": [
        {
          "name": "articleNumber",
          "type": "uint256"
        }
      ],
      "name": "approved",
      "outputs": [],
      "payable": false,
      "stateMutability": "nonpayable",
      "type": "function",
      "signature": "0x7d4061e6"
    },
    {
      "constant": false,
      "inputs": [
        {
          "name": "account",
          "type": "address"
        },
        {
          "name": "ranking",
          "type": "uint256"
        }
      ],
      "name": "setRating",
      "outputs": [],
      "payable": false,
      "stateMutability": "nonpayable",
      "type": "function",
      "signature": "0x80a24631"
    },
    {
      "constant": false,
      "inputs": [
        {
          "name": "articleNumber",
          "type": "uint256"
        }
      ],
      "name": "removed",
      "outputs": [],
      "payable": false,
      "stateMutability": "nonpayable",
      "type": "function",
      "signature": "0x8255899d"
    },
    {
      "constant": true,
      "inputs": [
        {
          "name": "",
          "type": "uint256"
        }
      ],
      "name": "validatorIds",
      "outputs": [
        {
          "name": "",
          "type": "address"
        }
      ],
      "payable": false,
      "stateMutability": "view",
      "type": "function",
      "signature": "0x919165aa"
    },
    {
      "constant": false,
      "inputs": [
        {
          "name": "articleNumber",
          "type": "uint256"
        }
      ],
      "name": "downVoted",
      "outputs": [],
      "payable": false,
      "stateMutability": "nonpayable",
      "type": "function",
      "signature": "0x9d0c8a9f"
    },
    {
      "constant": false,
      "inputs": [],
      "name": "renounceReader",
      "outputs": [],
      "payable": false,
      "stateMutability": "nonpayable",
      "type": "function",
      "signature": "0xaf938fc2"
    },
    {
      "constant": false,
      "inputs": [],
      "name": "renounceContributor",
      "outputs": [],
      "payable": false,
      "stateMutability": "nonpayable",
      "type": "function",
      "signature": "0xc462c423"
    },
    {
      "constant": true,
      "inputs": [],
      "name": "totalValidators",
      "outputs": [
        {
          "name": "",
          "type": "uint256"
        }
      ],
      "payable": false,
      "stateMutability": "view",
      "type": "function",
      "signature": "0xc81b356b"
    },
    {
      "constant": true,
      "inputs": [],
      "name": "totalChallenges",
      "outputs": [
        {
          "name": "",
          "type": "uint256"
        }
      ],
      "payable": false,
      "stateMutability": "view",
      "type": "function",
      "signature": "0xd17defcb"
    },
    {
      "constant": false,
      "inputs": [
        {
          "name": "proofHash",
          "type": "bytes32"
        },
        {
          "name": "stake",
          "type": "uint256"
        },
        {
          "name": "account",
          "type": "address"
        }
      ],
      "name": "challenge",
      "outputs": [],
      "payable": false,
      "stateMutability": "nonpayable",
      "type": "function",
      "signature": "0xd879fb1a"
    },
    {
      "constant": false,
      "inputs": [
        {
          "name": "account",
          "type": "address"
        },
        {
          "name": "fund",
          "type": "uint256"
        }
      ],
      "name": "addContributor",
      "outputs": [],
      "payable": false,
      "stateMutability": "nonpayable",
      "type": "function",
      "signature": "0xe0bd7d15"
    },
    {
      "constant": false,
      "inputs": [
        {
          "name": "account",
          "type": "address"
        },
        {
          "name": "funds",
          "type": "uint256"
        }
      ],
      "name": "addReader",
      "outputs": [],
      "payable": false,
      "stateMutability": "nonpayable",
      "type": "function",
      "signature": "0xe5fef7cd"
    },
    {
      "constant": false,
      "inputs": [],
      "name": "updateChallenge",
      "outputs": [],
      "payable": false,
      "stateMutability": "nonpayable",
      "type": "function",
      "signature": "0xef361e50"
    },
    {
      "constant": false,
      "inputs": [],
      "name": "renounceValidator",
      "outputs": [],
      "payable": false,
      "stateMutability": "nonpayable",
      "type": "function",
      "signature": "0xf0c043ee"
    },
    {
      "constant": true,
      "inputs": [],
      "name": "totalRulings",
      "outputs": [
        {
          "name": "",
          "type": "uint256"
        }
      ],
      "payable": false,
      "stateMutability": "view",
      "type": "function",
      "signature": "0xf8f2ba84"
    },
    {
      "constant": true,
      "inputs": [
        {
          "name": "account",
          "type": "address"
        }
      ],
      "name": "isValidator",
      "outputs": [
        {
          "name": "",
          "type": "bool"
        }
      ],
      "payable": false,
      "stateMutability": "view",
      "type": "function",
      "signature": "0xfacd743b"
    },
    {
      "constant": false,
      "inputs": [
        {
          "name": "account",
          "type": "address"
        },
        {
          "name": "funds",
          "type": "uint256"
        }
      ],
      "name": "addValidator",
      "outputs": [],
      "payable": false,
      "stateMutability": "nonpayable",
      "type": "function",
      "signature": "0xfc6c1f02"
    },
    {
      "inputs": [],
      "payable": false,
      "stateMutability": "nonpayable",
      "type": "constructor",
      "signature": "constructor"
    },
    {
      "anonymous": false,
      "inputs": [
        {
          "indexed": false,
          "name": "aticleNum",
          "type": "uint256"
        }
      ],
      "name": "ArticleAdded",
      "type": "event",
      "signature": "0x9ed508f9dd7c730fd307b1ca38355cf4d9c00f58a2acfa5167b497c51a859e4c"
    },
    {
      "anonymous": false,
      "inputs": [
        {
          "indexed": false,
          "name": "aticleNum",
          "type": "uint256"
        }
      ],
      "name": "ArticleRemoved",
      "type": "event",
      "signature": "0xe95591b999a8fa4c23f2d0b426271960c193b5eb71cef3bc673ac5be6cb60df4"
    },
    {
      "anonymous": false,
      "inputs": [
        {
          "indexed": false,
          "name": "aticleNum",
          "type": "uint256"
        }
      ],
      "name": "ArticleApproved",
      "type": "event",
      "signature": "0x60bd4c6e468dd35d1c78b03ddc704f2f270ad2ed13b45bf571438f433db9b8f7"
    },
    {
      "anonymous": false,
      "inputs": [
        {
          "indexed": false,
          "name": "aticleNum",
          "type": "uint256"
        }
      ],
      "name": "ArticleChallenged",
      "type": "event",
      "signature": "0x7794351528fe7be520769ebfe19d7275d2a0ecb197e1bbc23afa224134887ba2"
    },
    {
      "anonymous": false,
      "inputs": [
        {
          "indexed": false,
          "name": "aticleNum",
          "type": "uint256"
        }
      ],
      "name": "ArticleUpVoted",
      "type": "event",
      "signature": "0xeb5a35545b0a45240a67898d2f6187c764da2eaca5c11a0e75e615dd80d9458d"
    },
    {
      "anonymous": false,
      "inputs": [
        {
          "indexed": false,
          "name": "aticleNum",
          "type": "uint256"
        }
      ],
      "name": "ArticleDownVoted",
      "type": "event",
      "signature": "0xd1ff0de57853f81f969355a26960199cd8211f9d274c6c552a148053125b4611"
    },
    {
      "anonymous": false,
      "inputs": [
        {
          "indexed": true,
          "name": "account",
          "type": "address"
        }
      ],
      "name": "ValidatorAdded",
      "type": "event",
      "signature": "0xe366c1c0452ed8eec96861e9e54141ebff23c9ec89fe27b996b45f5ec3884987"
    },
    {
      "anonymous": false,
      "inputs": [
        {
          "indexed": true,
          "name": "account",
          "type": "address"
        }
      ],
      "name": "ValidatorRemoved",
      "type": "event",
      "signature": "0xe1434e25d6611e0db941968fdc97811c982ac1602e951637d206f5fdda9dd8f1"
    },
    {
      "anonymous": false,
      "inputs": [
        {
          "indexed": true,
          "name": "account",
          "type": "address"
        }
      ],
      "name": "ReaderAdded",
      "type": "event",
      "signature": "0xb7724d890d2888af5a3fc456edb667e2c82c4441449ebcac301c618759e4f86d"
    },
    {
      "anonymous": false,
      "inputs": [
        {
          "indexed": true,
          "name": "account",
          "type": "address"
        }
      ],
      "name": "ReaderRemoved",
      "type": "event",
      "signature": "0xe933431644458f1217f9e93d3e000e03c9bbbe55761046d0985c2e4d157bcbaa"
    },
    {
      "anonymous": false,
      "inputs": [
        {
          "indexed": false,
          "name": "account",
          "type": "address"
        },
        {
          "indexed": false,
          "name": "challengeId",
          "type": "uint256"
        }
      ],
      "name": "ChallengeAdded",
      "type": "event",
      "signature": "0x71658dcd30af2516252b609c834023d8729aab62422a55f9559c3c854f3a8803"
    },
    {
      "anonymous": false,
      "inputs": [
        {
          "indexed": true,
          "name": "account",
          "type": "address"
        }
      ],
      "name": "ContributorAdded",
      "type": "event",
      "signature": "0x07681ffd9d424587412481b41d2ee582bb7bca757f626b0477051f3029470272"
    },
    {
      "anonymous": false,
      "inputs": [
        {
          "indexed": true,
          "name": "account",
          "type": "address"
        }
      ],
      "name": "ContributorRemoved",
      "type": "event",
      "signature": "0x665b9b7911d6a3e5a789e2be1ed4f9ffa84c1259e3b896752347195211122191"
    },
    {
      "constant": true,
      "inputs": [],
      "name": "isOperational",
      "outputs": [
        {
          "name": "",
          "type": "bool"
        }
      ],
      "payable": false,
      "stateMutability": "view",
      "type": "function",
      "signature": "0xcd905dff"
    },
    {
      "constant": false,
      "inputs": [
        {
          "name": "mode",
          "type": "bool"
        }
      ],
      "name": "setOperatingStatus",
      "outputs": [],
      "payable": false,
      "stateMutability": "nonpayable",
      "type": "function",
      "signature": "0x110466ed"
    },
    {
      "constant": false,
      "inputs": [
        {
          "name": "_address",
          "type": "address"
        },
        {
          "name": "_fund",
          "type": "uint256"
        }
      ],
      "name": "registerContributor",
      "outputs": [],
      "payable": false,
      "stateMutability": "nonpayable",
      "type": "function",
      "signature": "0x472f0bcc"
    },
    {
      "constant": false,
      "inputs": [
        {
          "name": "_address",
          "type": "address"
        },
        {
          "name": "_fund",
          "type": "uint256"
        }
      ],
      "name": "registerReader",
      "outputs": [],
      "payable": false,
      "stateMutability": "nonpayable",
      "type": "function",
      "signature": "0xf5301758"
    },
    {
      "constant": false,
      "inputs": [
        {
          "name": "_address",
          "type": "address"
        },
        {
          "name": "_fund",
          "type": "uint256"
        }
      ],
      "name": "registerValidator",
      "outputs": [],
      "payable": false,
      "stateMutability": "nonpayable",
      "type": "function",
      "signature": "0x9abee7d0"
    },
    {
      "constant": false,
      "inputs": [
        {
          "name": "_address",
          "type": "address"
        },
        {
          "name": "rank",
          "type": "uint256"
        }
      ],
      "name": "setContributorRating",
      "outputs": [],
      "payable": false,
      "stateMutability": "nonpayable",
      "type": "function",
      "signature": "0x57773bfc"
    },
    {
      "constant": false,
      "inputs": [
        {
          "name": "_address",
          "type": "address"
        },
        {
          "name": "rank",
          "type": "uint256"
        }
      ],
      "name": "setReaderRating",
      "outputs": [],
      "payable": false,
      "stateMutability": "nonpayable",
      "type": "function",
      "signature": "0x24567a7e"
    },
    {
      "constant": false,
      "inputs": [
        {
          "name": "_address",
          "type": "address"
        },
        {
          "name": "rank",
          "type": "uint256"
        }
      ],
      "name": "setValidatorRating",
      "outputs": [],
      "payable": false,
      "stateMutability": "nonpayable",
      "type": "function",
      "signature": "0xd6f57009"
    },
    {
      "constant": false,
      "inputs": [
        {
          "name": "_ipfsArticleHash",
          "type": "bytes32"
        },
        {
          "name": "_ipfsReferenceHash",
          "type": "bytes32"
        },
        {
          "name": "_stake",
          "type": "uint256"
        }
      ],
      "name": "addArticle",
      "outputs": [
        {
          "name": "",
          "type": "uint256"
        }
      ],
      "payable": false,
      "stateMutability": "nonpayable",
      "type": "function",
      "signature": "0xce4fef0e"
    },
    {
      "constant": false,
      "inputs": [
        {
          "name": "articleId",
          "type": "uint256"
        }
      ],
      "name": "addArticle",
      "outputs": [],
      "payable": false,
      "stateMutability": "nonpayable",
      "type": "function",
      "signature": "0xd453609a"
    },
    {
      "constant": false,
      "inputs": [
        {
          "name": "_ipfsArticleHash",
          "type": "bytes32"
        },
        {
          "name": "_ipfsReferenceHash",
          "type": "bytes32"
        },
        {
          "name": "_stake",
          "type": "uint256"
        },
        {
          "name": "_contributor",
          "type": "address"
        }
      ],
      "name": "addArticle",
      "outputs": [],
      "payable": false,
      "stateMutability": "nonpayable",
      "type": "function",
      "signature": "0x02cefdf3"
    },
    {
      "constant": false,
      "inputs": [
        {
          "name": "proofHash",
          "type": "bytes32"
        },
        {
          "name": "stake",
          "type": "uint256"
        }
      ],
      "name": "challengeArticle",
      "outputs": [],
      "payable": false,
      "stateMutability": "nonpayable",
      "type": "function",
      "signature": "0xaa7439f6"
    },
    {
      "constant": false,
      "inputs": [
        {
          "name": "rulingId",
          "type": "uint256"
        },
        {
          "name": "vote",
          "type": "bool"
        },
        {
          "name": "challengeId",
          "type": "uint256"
        }
      ],
      "name": "voteOnChallenge",
      "outputs": [],
      "payable": false,
      "stateMutability": "nonpayable",
      "type": "function",
      "signature": "0x1d8de4f7"
    }
  ],
  "bytecode": "0x60806040526001600c60146101000a81548160ff0219169083151502179055503480156200002c57600080fd5b5062000049336000620000c8640100000000026401000000009004565b620000653360006200017a640100000000026401000000009004565b620000813360006200022c640100000000026401000000009004565b33600c60006101000a81548173ffffffffffffffffffffffffffffffffffffffff021916908373ffffffffffffffffffffffffffffffffffffffff160217905550620005fc565b620000ec8260006200035e64010000000002620026c5179091906401000000009004565b80600160008473ffffffffffffffffffffffffffffffffffffffff1673ffffffffffffffffffffffffffffffffffffffff168152602001908152602001600020600101819055508173ffffffffffffffffffffffffffffffffffffffff167f07681ffd9d424587412481b41d2ee582bb7bca757f626b0477051f302947027260405160405180910390a25050565b6200019e8260026200035e64010000000002620026c5179091906401000000009004565b80600360008473ffffffffffffffffffffffffffffffffffffffff1673ffffffffffffffffffffffffffffffffffffffff168152602001908152602001600020600101819055508173ffffffffffffffffffffffffffffffffffffffff167fb7724d890d2888af5a3fc456edb667e2c82c4441449ebcac301c618759e4f86d60405160405180910390a25050565b620002508260066200035e64010000000002620026c5179091906401000000009004565b80600760008473ffffffffffffffffffffffffffffffffffffffff1673ffffffffffffffffffffffffffffffffffffffff16815260200190815260200160002060010181905550620002bd60016008546200044d6401000000000262001d59179091906401000000009004565b6008819055508160096000600854815260200190815260200160002060006101000a81548173ffffffffffffffffffffffffffffffffffffffff021916908373ffffffffffffffffffffffffffffffffffffffff1602179055508173ffffffffffffffffffffffffffffffffffffffff167fe366c1c0452ed8eec96861e9e54141ebff23c9ec89fe27b996b45f5ec388498760405160405180910390a25050565b620003798282620004d8640100000000026401000000009004565b151515620003ef576040517f08c379a000000000000000000000000000000000000000000000000000000000815260040180806020018281038252601f8152602001807f526f6c65733a206163636f756e7420616c72656164792068617320726f6c650081525060200191505060405180910390fd5b60018260000160008373ffffffffffffffffffffffffffffffffffffffff1673ffffffffffffffffffffffffffffffffffffffff16815260200190815260200160002060006101000a81548160ff0219169083151502179055505050565b6000808284019050838110151515620004ce576040517f08c379a000000000000000000000000000000000000000000000000000000000815260040180806020018281038252601b8152602001807f536166654d6174683a206164646974696f6e206f766572666c6f77000000000081525060200191505060405180910390fd5b8091505092915050565b60008073ffffffffffffffffffffffffffffffffffffffff168273ffffffffffffffffffffffffffffffffffffffff1614151515620005a5576040517f08c379a00000000000000000000000000000000000000000000000000000000081526004018080602001828103825260228152602001807f526f6c65733a206163636f756e7420697320746865207a65726f20616464726581526020017f737300000000000000000000000000000000000000000000000000000000000081525060400191505060405180910390fd5b8260000160008373ffffffffffffffffffffffffffffffffffffffff1673ffffffffffffffffffffffffffffffffffffffff16815260200190815260200160002060009054906101000a900460ff16905092915050565b6129c6806200060c6000396000f3fe6080604052600436106101cd576000357c0100000000000000000000000000000000000000000000000000000000900463ffffffff16806301c97c57146101d257806302cefdf31461020d578063075d47821461027c5780630a75d74514610293578063110466ed146102aa57806312424e3f146102e75780631d0d35f5146102fe5780631d8de4f71461036757806324567a7e146103b857806345e7368514610413578063472f0bcc1461044e57806357773bfc146104a957806369a7ddf7146105045780637d4061e61461056d57806380a24631146105a85780638255899d14610603578063919165aa1461063e5780639abee7d0146106b95780639d0c8a9f14610714578063aa7439f61461074f578063af938fc214610794578063c462c423146107ab578063c81b356b146107c2578063cd905dff146107ed578063ce4fef0e1461081c578063d17defcb1461087f578063d453609a146108aa578063d6f57009146108e5578063d879fb1a14610940578063e0bd7d15146109a5578063e5fef7cd14610a00578063ef361e5014610a5b578063f0c043ee14610a72578063f530175814610a89578063f8f2ba8414610ae4578063facd743b14610b0f578063fc6c1f0214610b78575b600080fd5b3480156101de57600080fd5b5061020b600480360360208110156101f557600080fd5b8101908080359060200190929190505050610bd3565b005b34801561021957600080fd5b5061027a6004803603608081101561023057600080fd5b81019080803590602001909291908035906020019092919080359060200190929190803573ffffffffffffffffffffffffffffffffffffffff169060200190929190505050610c53565b005b34801561028857600080fd5b50610291610d52565b005b34801561029f57600080fd5b506102a8610def565b005b3480156102b657600080fd5b506102e5600480360360208110156102cd57600080fd5b81019080803515159060200190929190505050610f0a565b005b3480156102f357600080fd5b506102fc610fec565b005b34801561030a57600080fd5b5061034d6004803603602081101561032157600080fd5b81019080803573ffffffffffffffffffffffffffffffffffffffff169060200190929190505050611107565b604051808215151515815260200191505060405180910390f35b34801561037357600080fd5b506103b66004803603606081101561038a57600080fd5b810190808035906020019092919080351515906020019092919080359060200190929190505050611124565b005b3480156103c457600080fd5b50610411600480360360408110156103db57600080fd5b81019080803573ffffffffffffffffffffffffffffffffffffffff16906020019092919080359060200190929190505050611307565b005b34801561041f57600080fd5b5061044c6004803603602081101561043657600080fd5b8101908080359060200190929190505050611315565b005b34801561045a57600080fd5b506104a76004803603604081101561047157600080fd5b81019080803573ffffffffffffffffffffffffffffffffffffffff16906020019092919080359060200190929190505050611380565b005b3480156104b557600080fd5b50610502600480360360408110156104cc57600080fd5b81019080803573ffffffffffffffffffffffffffffffffffffffff1690602001909291908035906020019092919050505061138e565b005b34801561051057600080fd5b506105536004803603602081101561052757600080fd5b81019080803573ffffffffffffffffffffffffffffffffffffffff16906020019092919050505061139c565b604051808215151515815260200191505060405180910390f35b34801561057957600080fd5b506105a66004803603602081101561059057600080fd5b81019080803590602001909291905050506113b9565b005b3480156105b457600080fd5b50610601600480360360408110156105cb57600080fd5b81019080803573ffffffffffffffffffffffffffffffffffffffff16906020019092919080359060200190929190505050611424565b005b34801561060f57600080fd5b5061063c6004803603602081101561062657600080fd5b81019080803590602001909291905050506114b0565b005b34801561064a57600080fd5b506106776004803603602081101561066157600080fd5b810190808035906020019092919050505061151b565b604051808273ffffffffffffffffffffffffffffffffffffffff1673ffffffffffffffffffffffffffffffffffffffff16815260200191505060405180910390f35b3480156106c557600080fd5b50610712600480360360408110156106dc57600080fd5b81019080803573ffffffffffffffffffffffffffffffffffffffff1690602001909291908035906020019092919050505061154e565b005b34801561072057600080fd5b5061074d6004803603602081101561073757600080fd5b810190808035906020019092919050505061155c565b005b34801561075b57600080fd5b506107926004803603604081101561077257600080fd5b8101908080359060200190929190803590602001909291905050506115dc565b005b3480156107a057600080fd5b506107a9611670565b005b3480156107b757600080fd5b506107c061167b565b005b3480156107ce57600080fd5b506107d7611686565b6040518082815260200191505060405180910390f35b3480156107f957600080fd5b5061080261168c565b604051808215151515815260200191505060405180910390f35b34801561082857600080fd5b506108696004803603606081101561083f57600080fd5b810190808035906020019092919080359060200190929190803590602001909291905050506116a3565b6040518082815260200191505060405180910390f35b34801561088b57600080fd5b506108946117f6565b6040518082815260200191505060405180910390f35b3480156108b657600080fd5b506108e3600480360360208110156108cd57600080fd5b81019080803590602001909291905050506117fc565b005b3480156108f157600080fd5b5061093e6004803603604081101561090857600080fd5b81019080803573ffffffffffffffffffffffffffffffffffffffff1690602001909291908035906020019092919050505061186b565b005b34801561094c57600080fd5b506109a36004803603606081101561096357600080fd5b810190808035906020019092919080359060200190929190803573ffffffffffffffffffffffffffffffffffffffff169060200190929190505050611879565b005b3480156109b157600080fd5b506109fe600480360360408110156109c857600080fd5b81019080803573ffffffffffffffffffffffffffffffffffffffff16906020019092919080359060200190929190505050611adf565b005b348015610a0c57600080fd5b50610a5960048036036040811015610a2357600080fd5b81019080803573ffffffffffffffffffffffffffffffffffffffff16906020019092919080359060200190929190505050611b6a565b005b348015610a6757600080fd5b50610a70611bf5565b005b348015610a7e57600080fd5b50610a87611c92565b005b348015610a9557600080fd5b50610ae260048036036040811015610aac57600080fd5b81019080803573ffffffffffffffffffffffffffffffffffffffff16906020019092919080359060200190929190505050611c9d565b005b348015610af057600080fd5b50610af9611cab565b6040518082815260200191505060405180910390f35b348015610b1b57600080fd5b50610b5e60048036036020811015610b3257600080fd5b81019080803573ffffffffffffffffffffffffffffffffffffffff169060200190929190505050611cb1565b604051808215151515815260200191505060405180910390f35b348015610b8457600080fd5b50610bd160048036036040811015610b9b57600080fd5b81019080803573ffffffffffffffffffffffffffffffffffffffff16906020019092919080359060200190929190505050611cce565b005b610bfd6001600b600084815260200190815260200160002060030154611d5990919063ffffffff16565b600b6000838152602001908152602001600020600301819055507feb5a35545b0a45240a67898d2f6187c764da2eaca5c11a0e75e615dd80d9458d600a546040518082815260200191505060405180910390a150565b610c5c33611107565b1515610cd0576040517f08c379a000000000000000000000000000000000000000000000000000000000815260040180806020018281038252601b8152602001807f43616c6c6572206973206e6f74206120436f6e7472696275746f72000000000081525060200191505060405180910390fd5b6000610cdd8585856116a3565b9050600160008373ffffffffffffffffffffffffffffffffffffffff1673ffffffffffffffffffffffffffffffffffffffff1681526020019081526020016000206004018190806001815401808255809150509060018203906000526020600020016000909192909190915055505050505050565b610da760018060003373ffffffffffffffffffffffffffffffffffffffff1673ffffffffffffffffffffffffffffffffffffffff16815260200190815260200160002060020154611d5990919063ffffffff16565b600160003373ffffffffffffffffffffffffffffffffffffffff1673ffffffffffffffffffffffffffffffffffffffff16815260200190815260200160002060020181905550565b610df833611cb1565b1515610e6c576040517f08c379a00000000000000000000000000000000000000000000000000000000081526004018080602001828103825260198152602001807f43616c6c6572206973206e6f7420612056616c696461746f720000000000000081525060200191505060405180910390fd5b610ec26001600760003373ffffffffffffffffffffffffffffffffffffffff1673ffffffffffffffffffffffffffffffffffffffff16815260200190815260200160002060030154611d5990919063ffffffff16565b600760003373ffffffffffffffffffffffffffffffffffffffff1673ffffffffffffffffffffffffffffffffffffffff16815260200190815260200160002060030181905550565b600c60009054906101000a900473ffffffffffffffffffffffffffffffffffffffff1673ffffffffffffffffffffffffffffffffffffffff163373ffffffffffffffffffffffffffffffffffffffff16141515610fcf576040517f08c379a00000000000000000000000000000000000000000000000000000000081526004018080602001828103825260138152602001807f43616c6c6572206973206e6f742061646d696e0000000000000000000000000081525060200191505060405180910390fd5b80600c60146101000a81548160ff02191690831515021790555050565b610ff533611cb1565b1515611069576040517f08c379a00000000000000000000000000000000000000000000000000000000081526004018080602001828103825260198152602001807f43616c6c6572206973206e6f7420612056616c696461746f720000000000000081525060200191505060405180910390fd5b6110bf6001600760003373ffffffffffffffffffffffffffffffffffffffff1673ffffffffffffffffffffffffffffffffffffffff16815260200190815260200160002060020154611d5990919063ffffffff16565b600760003373ffffffffffffffffffffffffffffffffffffffff1673ffffffffffffffffffffffffffffffffffffffff16815260200190815260200160002060020181905550565b600061111d826000611de390919063ffffffff16565b9050919050565b600080600090505b6003811015611272573373ffffffffffffffffffffffffffffffffffffffff16600e60008781526020019081526020016000206000018260038110151561116f57fe5b0160009054906101000a900473ffffffffffffffffffffffffffffffffffffffff1673ffffffffffffffffffffffffffffffffffffffff1614156112175783600e6000878152602001908152602001600020600301826003811015156111d157fe5b602091828204019190066101000a81548160ff021916908315150217905550600e6000868152602001908152602001600020600401600081548092919060010191905055505b60011515600e60008781526020019081526020016000206003018260038110151561123e57fe5b602091828204019190069054906101000a900460ff16151514156112655781806001019250505b808060010191505061112c565b506002811015156112b15760016005600084815260200190815260200160002060030160006101000a81548160ff021916908315150217905550611301565b6003600e60008681526020019081526020016000206004015414156113005760006005600084815260200190815260200160002060030160006101000a81548160ff0219169083151502179055505b5b50505050565b6113118282611f06565b5050565b6001600b600083815260200190815260200160002060020160016101000a81548160ff0219169083151502179055507f7794351528fe7be520769ebfe19d7275d2a0ecb197e1bbc23afa224134887ba2600a546040518082815260200191505060405180910390a150565b61138a8282611adf565b5050565b6113988282611fe0565b5050565b60006113b2826002611de390919063ffffffff16565b9050919050565b6001600b600083815260200190815260200160002060020160006101000a81548160ff0219169083151502179055507f60bd4c6e468dd35d1c78b03ddc704f2f270ad2ed13b45bf571438f433db9b8f7600a546040518082815260200191505060405180910390a150565b61142c612835565b600760008473ffffffffffffffffffffffffffffffffffffffff1673ffffffffffffffffffffffffffffffffffffffff16815260200190815260200160002060806040519081016040529081600082015481526020016001820154815260200160028201548152602001600382015481525050905081816000018181525050505050565b6001600b600083815260200190815260200160002060020160026101000a81548160ff0219169083151502179055507fe95591b999a8fa4c23f2d0b426271960c193b5eb71cef3bc673ac5be6cb60df4600a546040518082815260200191505060405180910390a150565b60096020528060005260406000206000915054906101000a900473ffffffffffffffffffffffffffffffffffffffff1681565b6115588282611cce565b5050565b6115866001600b600084815260200190815260200160002060040154611d5990919063ffffffff16565b600b6000838152602001908152602001600020600401819055507fd1ff0de57853f81f969355a26960199cd8211f9d274c6c552a148053125b4611600a546040518082815260200191505060405180910390a150565b6115e53361139c565b1515611659576040517f08c379a00000000000000000000000000000000000000000000000000000000081526004018080602001828103825260168152602001807f43616c6c6572206973206e6f742061205265616465720000000000000000000081525060200191505060405180910390fd5b611664828233611879565b61166c6120c4565b5050565b611679336121b5565b565b6116843361220f565b565b60085481565b6000600c60149054906101000a900460ff16905090565b60006116bb6001600a54611d5990919063ffffffff16565b600a8190555061010060405190810160405280858152602001848152602001600015158152602001600015158152602001600015158152602001600081526020016000815260200183815250600b6000600a548152602001908152602001600020600082015181600001556020820151816001015560408201518160020160006101000a81548160ff02191690831515021790555060608201518160020160016101000a81548160ff02191690831515021790555060808201518160020160026101000a81548160ff02191690831515021790555060a0820151816003015560c0820151816004015560e082015181600501559050507f9ed508f9dd7c730fd307b1ca38355cf4d9c00f58a2acfa5167b497c51a859e4c600a546040518082815260200191505060405180910390a1600a5490509392505050565b60045481565b600160003373ffffffffffffffffffffffffffffffffffffffff1673ffffffffffffffffffffffffffffffffffffffff16815260200190815260200160002060040181908060018154018082558091505090600182039060005260206000200160009091929091909150555050565b6118758282611424565b5050565b61188f6001600454611d5990919063ffffffff16565b6004819055506080604051908101604052808273ffffffffffffffffffffffffffffffffffffffff1681526020018481526020018381526020016000151581525060056000600454815260200190815260200160002060008201518160000160006101000a81548173ffffffffffffffffffffffffffffffffffffffff021916908373ffffffffffffffffffffffffffffffffffffffff160217905550602082015181600101556040820151816002015560608201518160030160006101000a81548160ff0219169083151502179055509050506119b96001600360008473ffffffffffffffffffffffffffffffffffffffff1673ffffffffffffffffffffffffffffffffffffffff16815260200190815260200160002060020154611d5990919063ffffffff16565b600360008373ffffffffffffffffffffffffffffffffffffffff1673ffffffffffffffffffffffffffffffffffffffff16815260200190815260200160002060020181905550600360008273ffffffffffffffffffffffffffffffffffffffff1673ffffffffffffffffffffffffffffffffffffffff16815260200190815260200160002060030160045490806001815401808255809150509060018203906000526020600020016000909192909190915055507f71658dcd30af2516252b609c834023d8729aab62422a55f9559c3c854f3a880381600454604051808373ffffffffffffffffffffffffffffffffffffffff1673ffffffffffffffffffffffffffffffffffffffff1681526020018281526020019250505060405180910390a1505050565b611ae833611107565b1515611b5c576040517f08c379a000000000000000000000000000000000000000000000000000000000815260040180806020018281038252601b8152602001807f43616c6c6572206973206e6f74206120436f6e7472696275746f72000000000081525060200191505060405180910390fd5b611b668282612269565b5050565b611b733361139c565b1515611be7576040517f08c379a00000000000000000000000000000000000000000000000000000000081526004018080602001828103825260168152602001807f43616c6c6572206973206e6f742061205265616465720000000000000000000081525060200191505060405180910390fd5b611bf1828261230b565b5050565b611c4a60018060003373ffffffffffffffffffffffffffffffffffffffff1673ffffffffffffffffffffffffffffffffffffffff16815260200190815260200160002060030154611d5990919063ffffffff16565b600160003373ffffffffffffffffffffffffffffffffffffffff1673ffffffffffffffffffffffffffffffffffffffff16815260200190815260200160002060030181905550565b611c9b336123ad565b565b611ca78282611b6a565b5050565b600f5481565b6000611cc7826006611de390919063ffffffff16565b9050919050565b611cd733611cb1565b1515611d4b576040517f08c379a00000000000000000000000000000000000000000000000000000000081526004018080602001828103825260198152602001807f43616c6c6572206973206e6f7420612056616c696461746f720000000000000081525060200191505060405180910390fd5b611d558282612407565b5050565b6000808284019050838110151515611dd9576040517f08c379a000000000000000000000000000000000000000000000000000000000815260040180806020018281038252601b8152602001807f536166654d6174683a206164646974696f6e206f766572666c6f77000000000081525060200191505060405180910390fd5b8091505092915050565b60008073ffffffffffffffffffffffffffffffffffffffff168273ffffffffffffffffffffffffffffffffffffffff1614151515611eaf576040517f08c379a00000000000000000000000000000000000000000000000000000000081526004018080602001828103825260228152602001807f526f6c65733a206163636f756e7420697320746865207a65726f20616464726581526020017f737300000000000000000000000000000000000000000000000000000000000081525060400191505060405180910390fd5b8260000160008373ffffffffffffffffffffffffffffffffffffffff1673ffffffffffffffffffffffffffffffffffffffff16815260200190815260200160002060009054906101000a900460ff16905092915050565b611f0e61285e565b600360008473ffffffffffffffffffffffffffffffffffffffff1673ffffffffffffffffffffffffffffffffffffffff1681526020019081526020016000206080604051908101604052908160008201548152602001600182015481526020016002820154815260200160038201805480602002602001604051908101604052809291908181526020018280548015611fc657602002820191906000526020600020905b815481526020019060010190808311611fb2575b505050505081525050905081816000018181525050505050565b611fe8612887565b600160008473ffffffffffffffffffffffffffffffffffffffff1673ffffffffffffffffffffffffffffffffffffffff16815260200190815260200160002060a0604051908101604052908160008201548152602001600182015481526020016002820154815260200160038201548152602001600482018054806020026020016040519081016040528092919081815260200182805480156120aa57602002820191906000526020600020905b815481526020019060010190808311612096575b505050505081525050905081816000018181525050505050565b6120da6001600f54611d5990919063ffffffff16565b600f819055506120e86128b7565b6000600190505b6004811015612189576009600061210583612519565b815260200190815260200160002060009054906101000a900473ffffffffffffffffffffffffffffffffffffffff16826001830360038110151561214557fe5b602002019073ffffffffffffffffffffffffffffffffffffffff16908173ffffffffffffffffffffffffffffffffffffffff168152505080806001019150506120ef565b5080600e6000600f5481526020019081526020016000206000019060036121b19291906128da565b5050565b6121c98160026125c390919063ffffffff16565b8073ffffffffffffffffffffffffffffffffffffffff167fe933431644458f1217f9e93d3e000e03c9bbbe55761046d0985c2e4d157bcbaa60405160405180910390a250565b6122238160006125c390919063ffffffff16565b8073ffffffffffffffffffffffffffffffffffffffff167f665b9b7911d6a3e5a789e2be1ed4f9ffa84c1259e3b89675234719521112219160405160405180910390a250565b61227d8260006126c590919063ffffffff16565b80600160008473ffffffffffffffffffffffffffffffffffffffff1673ffffffffffffffffffffffffffffffffffffffff168152602001908152602001600020600101819055508173ffffffffffffffffffffffffffffffffffffffff167f07681ffd9d424587412481b41d2ee582bb7bca757f626b0477051f302947027260405160405180910390a25050565b61231f8260026126c590919063ffffffff16565b80600360008473ffffffffffffffffffffffffffffffffffffffff1673ffffffffffffffffffffffffffffffffffffffff168152602001908152602001600020600101819055508173ffffffffffffffffffffffffffffffffffffffff167fb7724d890d2888af5a3fc456edb667e2c82c4441449ebcac301c618759e4f86d60405160405180910390a25050565b6123c18160066125c390919063ffffffff16565b8073ffffffffffffffffffffffffffffffffffffffff167fe1434e25d6611e0db941968fdc97811c982ac1602e951637d206f5fdda9dd8f160405160405180910390a250565b61241b8260066126c590919063ffffffff16565b80600760008473ffffffffffffffffffffffffffffffffffffffff1673ffffffffffffffffffffffffffffffffffffffff168152602001908152602001600020600101819055506124786001600854611d5990919063ffffffff16565b6008819055508160096000600854815260200190815260200160002060006101000a81548173ffffffffffffffffffffffffffffffffffffffff021916908373ffffffffffffffffffffffffffffffffffffffff1602179055508173ffffffffffffffffffffffffffffffffffffffff167fe366c1c0452ed8eec96861e9e54141ebff23c9ec89fe27b996b45f5ec388498760405160405180910390a25050565b60008060085490506000423385604051602001808481526020018373ffffffffffffffffffffffffffffffffffffffff1673ffffffffffffffffffffffffffffffffffffffff166c0100000000000000000000000002815260140182815260200193505050506040516020818303038152906040528051906020012060019004905060006125b083836127a290919063ffffffff16565b9050600081905080945050505050919050565b6125cd8282611de3565b1515612667576040517f08c379a00000000000000000000000000000000000000000000000000000000081526004018080602001828103825260218152602001807f526f6c65733a206163636f756e7420646f6573206e6f74206861766520726f6c81526020017f650000000000000000000000000000000000000000000000000000000000000081525060400191505060405180910390fd5b60008260000160008373ffffffffffffffffffffffffffffffffffffffff1673ffffffffffffffffffffffffffffffffffffffff16815260200190815260200160002060006101000a81548160ff0219169083151502179055505050565b6126cf8282611de3565b151515612744576040517f08c379a000000000000000000000000000000000000000000000000000000000815260040180806020018281038252601f8152602001807f526f6c65733a206163636f756e7420616c72656164792068617320726f6c650081525060200191505060405180910390fd5b60018260000160008373ffffffffffffffffffffffffffffffffffffffff1673ffffffffffffffffffffffffffffffffffffffff16815260200190815260200160002060006101000a81548160ff0219169083151502179055505050565b6000808211151561281b576040517f08c379a000000000000000000000000000000000000000000000000000000000815260040180806020018281038252601a8152602001807f536166654d6174683a206469766973696f6e206279207a65726f00000000000081525060200191505060405180910390fd5b6000828481151561282857fe5b0490508091505092915050565b608060405190810160405280600081526020016000815260200160008152602001600081525090565b608060405190810160405280600081526020016000815260200160008152602001606081525090565b60a06040519081016040528060008152602001600081526020016000815260200160008152602001606081525090565b606060405190810160405280600390602082028038833980820191505090505090565b8260038101928215612946579160200282015b828111156129455782518260006101000a81548173ffffffffffffffffffffffffffffffffffffffff021916908373ffffffffffffffffffffffffffffffffffffffff160217905550916020019190600101906128ed565b5b5090506129539190612957565b5090565b61299791905b8082111561299357600081816101000a81549073ffffffffffffffffffffffffffffffffffffffff02191690555060010161295d565b5090565b9056fea165627a7a7230582001d9083c07636a1169171f31e993b9c59087900da74dbd5654d1c64454f52d0a0029",
  "source": "pragma solidity >=0.4.21 <0.6.0;\nimport \"./accessControl/ContributorRole.sol\";\nimport \"./accessControl/ReaderRole.sol\";\nimport \"./accessControl/ValidatorRole.sol\";\nimport \"./Article.sol\";\n// Import the library 'Roles' and SafeMath\nimport \"../node_modules/openzeppelin-solidity/contracts/math/SafeMath.sol\";\n\n\ncontract Honestmedia is ContributorRole, ReaderRole, ValidatorRole, Article  {\n    using SafeMath for uint;\n\n\taddress owner;\n\n\t//check if contract operational\n    bool private operational = true;\n\n    //variables to define minimum funding amounts for validators and contributors.\n    //These should be checked when adding new actors.\n    uint constant MIN_FUNDING_VALIDATOR = 1 ether; //we can decide a different amount\n    uint constant MIN_FUNDING_CONTRIBUTOR = 2 ether; //we can decide a different amount\n\n    //mapping to store available withdrawals\n    mapping(address => uint) availableWithdrawls;\n\n    //Struct to store ruling\n    struct ruling {\n        address[3] validators;\n        bool[3] votes;\n        uint voted;\n    }\n\n    //Mapping to save ruling for challenges\n    mapping(uint => ruling) allRulings;\n\n    //Variable to save totalRulings\n    uint public totalRulings;\n\n\tconstructor() public {\n        owner = msg.sender;\n    }\n\n     modifier requireIsOperational() {\n        require(operational, \"Contract is currently not operational\");\n        _;  // All modifiers require an \"_\" which indicates where the function body will be added\n    }\n\n    modifier requireContractOwner() {\n        require((msg.sender == owner), \"Caller is not admin\");\n        _;\n    }\n\n    function isOperational() \n                            public \n                            view \n                            returns(bool) {\n        return operational;\n    }\n\n    function setOperatingStatus\n                            (\n                                bool mode\n                            ) \n                            external\n                            requireContractOwner {\n        operational = mode;\n    }\n\n    //add contributor\n    function registerContributor(address _address, uint _fund) external {\n        ContributorRole.addContributor(_address, _fund);\n    }\n\n    //add reader\n    function registerReader(address _address, uint _fund) external {\n        ReaderRole.addReader(_address, _fund);\n    }\n\n    //add validator\n    function registerValidator(address _address, uint _fund) external {\n        ValidatorRole.addValidator(_address, _fund);\n    }\n\n    //seting ranking\n    function setContributorRating(address _address, uint rank) external {\n    \tContributorRole.setRating(_address, rank);\n    }\n\n    function setReaderRating(address _address, uint rank) external {\n    \tReaderRole.setRating(_address, rank);\n    }\n\n    function setValidatorRating(address _address, uint rank) external {\n    \tValidatorRole.setRating(_address, rank);\n    }\n\n    //Function to store the article etc\n    function addArticle(bytes32 _ipfsArticleHash, bytes32 _ipfsReferenceHash, uint _stake, address _contributor) public onlyContributor {\n        uint articleNum = Article.addArticle(_ipfsArticleHash, _ipfsReferenceHash, _stake);\n        ContributorRole.allContributors[_contributor].articles.push(articleNum);\n        //Assign validator to approve article\n    }\n\n    //Function to challenge an article\n    function challengeArticle(bytes32 proofHash, uint stake) external onlyReader {\n        ReaderRole.challenge(proofHash, stake, msg.sender);\n        assignValidators();\n    }\n\n    //function to find random validators to vote on challenge\n    function assignValidators() internal {\n        totalRulings = totalRulings.add(1);\n        address[3] memory validators;\n        for(uint i = 1; i < 4; i++)\n        {\n            validators[i-1] = ValidatorRole.validatorIds[random(i)];\n        }\n        allRulings[totalRulings].validators = validators;\n    }\n\n    //Random number generator\n    function random(uint nonce) internal view returns (uint) {\n        uint MAX = ValidatorRole.totalValidators;\n        uint seed = uint(keccak256(abi.encodePacked(now, msg.sender, nonce)));\n        uint scaled = seed.div(MAX);\n        uint adjusted = scaled;\n        return adjusted;\n    }\n\n    //function to register validator votes on challenge. Will also check if 2 of 3 consensus is reached\n    function voteOnChallenge(uint rulingId, bool vote, uint challengeId) external {\n        uint numOfYesVotes;\n        for(uint i = 0; i < 3; i++){\n            if (allRulings[rulingId].validators[i] == msg.sender) {\n                allRulings[rulingId].votes[i] = vote;\n                allRulings[rulingId].voted++;\n            }\n            if(allRulings[rulingId].votes[i] == true)\n                numOfYesVotes++;\n        }\n        if(numOfYesVotes >= 2){\n            ReaderRole.allChallenges[challengeId].success = true;\n            // Distribute Amount staked by contributor to reader and validators\n        }else\n        {\n            if(allRulings[rulingId].voted == 3) {\n                ReaderRole.allChallenges[challengeId].success = false;\n                // Distribute Amount staked by reader to contributor and validators\n            }\n        }\n    }\n\n    //TODO: function that allows to withdraw funds. For Validators and Contributors their balance should not be less than the minimum funding amount.\n\n    \n\n\n\n}",
  "sourcePath": "/Users/ringaile/Documents/hackathon/contracts/Honestmedia.sol",
  "compiler": {
    "name": "solc",
    "version": "0.5.0+commit.1d4f565a.Emscripten.clang"
  },
  "schemaVersion": "3.0.5",
  "updatedAt": "2019-07-02T17:30:42.919Z",
  "devdoc": {
    "methods": {}
  },
  "userdoc": {
    "methods": {}
  }
}