{
  "contractName": "ReaderRole",
  "abi": [
    {
      "inputs": [],
      "payable": false,
      "stateMutability": "nonpayable",
      "type": "constructor"
    },
    {
      "anonymous": false,
      "inputs": [
        {
          "indexed": true,
          "name": "account",
          "type": "address"
        }
      ],
      "name": "ReaderAdded",
      "type": "event"
    },
    {
      "anonymous": false,
      "inputs": [
        {
          "indexed": true,
          "name": "account",
          "type": "address"
        }
      ],
      "name": "ReaderRemoved",
      "type": "event"
    },
    {
      "anonymous": false,
      "inputs": [
        {
          "indexed": false,
          "name": "account",
          "type": "address"
        },
        {
          "indexed": false,
          "name": "proofHash",
          "type": "bytes32"
        }
      ],
      "name": "ChallengeAdded",
      "type": "event"
    },
    {
      "constant": true,
      "inputs": [
        {
          "name": "account",
          "type": "address"
        }
      ],
      "name": "isReader",
      "outputs": [
        {
          "name": "",
          "type": "bool"
        }
      ],
      "payable": false,
      "stateMutability": "view",
      "type": "function"
    },
    {
      "constant": false,
      "inputs": [
        {
          "name": "account",
          "type": "address"
        },
        {
          "name": "funds",
          "type": "uint256"
        }
      ],
      "name": "addReader",
      "outputs": [],
      "payable": false,
      "stateMutability": "nonpayable",
      "type": "function"
    },
    {
      "constant": false,
      "inputs": [],
      "name": "renounceReader",
      "outputs": [],
      "payable": false,
      "stateMutability": "nonpayable",
      "type": "function"
    },
    {
      "constant": false,
      "inputs": [
        {
          "name": "proofHash",
          "type": "bytes32"
        },
        {
          "name": "stake",
          "type": "uint256"
        }
      ],
      "name": "challenge",
      "outputs": [],
      "payable": false,
      "stateMutability": "nonpayable",
      "type": "function"
    },
    {
      "constant": false,
      "inputs": [
        {
          "name": "account",
          "type": "address"
        },
        {
          "name": "ranking",
          "type": "uint256"
        }
      ],
      "name": "setRating",
      "outputs": [],
      "payable": false,
      "stateMutability": "nonpayable",
      "type": "function"
    }
  ],
  "bytecode": "0x608060405234801561001057600080fd5b5061002b336000610030640100000000026401000000009004565b6102ee565b6100518260006100df6401000000000261091c179091906401000000009004565b80600160008473ffffffffffffffffffffffffffffffffffffffff1673ffffffffffffffffffffffffffffffffffffffff168152602001908152602001600020600101819055508173ffffffffffffffffffffffffffffffffffffffff167fb7724d890d2888af5a3fc456edb667e2c82c4441449ebcac301c618759e4f86d60405160405180910390a25050565b6100f882826101cb640100000000026401000000009004565b15151561016d576040517f08c379a000000000000000000000000000000000000000000000000000000000815260040180806020018281038252601f8152602001807f526f6c65733a206163636f756e7420616c72656164792068617320726f6c650081525060200191505060405180910390fd5b60018260000160008373ffffffffffffffffffffffffffffffffffffffff1673ffffffffffffffffffffffffffffffffffffffff16815260200190815260200160002060006101000a81548160ff0219169083151502179055505050565b60008073ffffffffffffffffffffffffffffffffffffffff168273ffffffffffffffffffffffffffffffffffffffff1614151515610297576040517f08c379a00000000000000000000000000000000000000000000000000000000081526004018080602001828103825260228152602001807f526f6c65733a206163636f756e7420697320746865207a65726f20616464726581526020017f737300000000000000000000000000000000000000000000000000000000000081525060400191505060405180910390fd5b8260000160008373ffffffffffffffffffffffffffffffffffffffff1673ffffffffffffffffffffffffffffffffffffffff16815260200190815260200160002060009054906101000a900460ff16905092915050565b610a4e806102fd6000396000f3fe60806040526004361061006d576000357c0100000000000000000000000000000000000000000000000000000000900463ffffffff16806369a7ddf71461007257806380a24631146100db578063af938fc214610136578063e2083c181461014d578063e5fef7cd14610192575b600080fd5b34801561007e57600080fd5b506100c16004803603602081101561009557600080fd5b81019080803573ffffffffffffffffffffffffffffffffffffffff1690602001909291905050506101ed565b604051808215151515815260200191505060405180910390f35b3480156100e757600080fd5b50610134600480360360408110156100fe57600080fd5b81019080803573ffffffffffffffffffffffffffffffffffffffff1690602001909291908035906020019092919050505061020a565b005b34801561014257600080fd5b5061014b6102e4565b005b34801561015957600080fd5b506101906004803603604081101561017057600080fd5b8101908080359060200190929190803590602001909291905050506102ef565b005b34801561019e57600080fd5b506101eb600480360360408110156101b557600080fd5b81019080803573ffffffffffffffffffffffffffffffffffffffff169060200190929190803590602001909291905050506104e6565b005b600061020382600061057190919063ffffffff16565b9050919050565b6102126109f9565b600160008473ffffffffffffffffffffffffffffffffffffffff1673ffffffffffffffffffffffffffffffffffffffff16815260200190815260200160002060806040519081016040529081600082015481526020016001820154815260200160028201548152602001600382018054806020026020016040519081016040528092919081815260200182805480156102ca57602002820191906000526020600020905b8154815260200190600101908083116102b6575b505050505081525050905081816000018181525050505050565b6102ed33610694565b565b61030560016002546106ee90919063ffffffff16565b6002819055506080604051908101604052803373ffffffffffffffffffffffffffffffffffffffff1681526020018381526020018281526020016000151581525060036000600254815260200190815260200160002060008201518160000160006101000a81548173ffffffffffffffffffffffffffffffffffffffff021916908373ffffffffffffffffffffffffffffffffffffffff160217905550602082015181600101556040820151816002015560608201518160030160006101000a81548160ff02191690831515021790555090505061042e60018060003373ffffffffffffffffffffffffffffffffffffffff1673ffffffffffffffffffffffffffffffffffffffff168152602001908152602001600020600201546106ee90919063ffffffff16565b600160003373ffffffffffffffffffffffffffffffffffffffff1673ffffffffffffffffffffffffffffffffffffffff16815260200190815260200160002060020181905550600160003373ffffffffffffffffffffffffffffffffffffffff1673ffffffffffffffffffffffffffffffffffffffff16815260200190815260200160002060030160025490806001815401808255809150509060018203906000526020600020016000909192909190915055505050565b6104ef336101ed565b1515610563576040517f08c379a00000000000000000000000000000000000000000000000000000000081526004018080602001828103825260168152602001807f43616c6c6572206973206e6f742061205265616465720000000000000000000081525060200191505060405180910390fd5b61056d8282610778565b5050565b60008073ffffffffffffffffffffffffffffffffffffffff168273ffffffffffffffffffffffffffffffffffffffff161415151561063d576040517f08c379a00000000000000000000000000000000000000000000000000000000081526004018080602001828103825260228152602001807f526f6c65733a206163636f756e7420697320746865207a65726f20616464726581526020017f737300000000000000000000000000000000000000000000000000000000000081525060400191505060405180910390fd5b8260000160008373ffffffffffffffffffffffffffffffffffffffff1673ffffffffffffffffffffffffffffffffffffffff16815260200190815260200160002060009054906101000a900460ff16905092915050565b6106a881600061081a90919063ffffffff16565b8073ffffffffffffffffffffffffffffffffffffffff167fe933431644458f1217f9e93d3e000e03c9bbbe55761046d0985c2e4d157bcbaa60405160405180910390a250565b600080828401905083811015151561076e576040517f08c379a000000000000000000000000000000000000000000000000000000000815260040180806020018281038252601b8152602001807f536166654d6174683a206164646974696f6e206f766572666c6f77000000000081525060200191505060405180910390fd5b8091505092915050565b61078c82600061091c90919063ffffffff16565b80600160008473ffffffffffffffffffffffffffffffffffffffff1673ffffffffffffffffffffffffffffffffffffffff168152602001908152602001600020600101819055508173ffffffffffffffffffffffffffffffffffffffff167fb7724d890d2888af5a3fc456edb667e2c82c4441449ebcac301c618759e4f86d60405160405180910390a25050565b6108248282610571565b15156108be576040517f08c379a00000000000000000000000000000000000000000000000000000000081526004018080602001828103825260218152602001807f526f6c65733a206163636f756e7420646f6573206e6f74206861766520726f6c81526020017f650000000000000000000000000000000000000000000000000000000000000081525060400191505060405180910390fd5b60008260000160008373ffffffffffffffffffffffffffffffffffffffff1673ffffffffffffffffffffffffffffffffffffffff16815260200190815260200160002060006101000a81548160ff0219169083151502179055505050565b6109268282610571565b15151561099b576040517f08c379a000000000000000000000000000000000000000000000000000000000815260040180806020018281038252601f8152602001807f526f6c65733a206163636f756e7420616c72656164792068617320726f6c650081525060200191505060405180910390fd5b60018260000160008373ffffffffffffffffffffffffffffffffffffffff1673ffffffffffffffffffffffffffffffffffffffff16815260200190815260200160002060006101000a81548160ff0219169083151502179055505050565b60806040519081016040528060008152602001600081526020016000815260200160608152509056fea165627a7a72305820f279f944d294e10048798ebdd6410f1961471ebdaf1312dd62ffbd3ac3f17db00029",
  "source": "pragma solidity >=0.4.21 <0.6.0;\r\n\r\n// Import the library 'Roles' and SafeMath\r\nimport \"../../node_modules/openzeppelin-solidity/contracts/access/Roles.sol\";\r\nimport \"../../node_modules/openzeppelin-solidity/contracts/math/SafeMath.sol\";\r\n\r\n// Define a contract 'ReaderRole' to manage this role - add, remove, check\r\ncontract ReaderRole {\r\n  using Roles for Roles.Role;\r\n  using SafeMath for uint;\r\n\r\n  // Define 2 events, one for Adding, and other for Removing\r\n  event ReaderAdded(address indexed account);\r\n  event ReaderRemoved(address indexed account);\r\n  event ChallengeAdded(address account, bytes32 proofHash);\r\n\r\n  // Define a struct 'Readers' by inheriting from 'Roles' library, struct Role\r\n  Roles.Role private readers;\r\n\r\n  //Define a struct to store Reader information\r\n  struct readerInfo {\r\n      uint rating;\r\n      uint balance;\r\n      uint numOfChallenges;\r\n      uint[] challenges; //array of challenge ids raised by the reader\r\n  }\r\n\r\n  //Define a mapping to map reader address and reader info\r\n  mapping(address => readerInfo) allReaders;\r\n\r\n  //Struct for challenges\r\n  struct challengeInfo {\r\n    address reader;\r\n    bytes32 proofHash;\r\n    uint stake;\r\n    bool success;\r\n  }\r\n\r\n  //Save number of total challenges\r\n  uint totalChallenges;\r\n\r\n  //Mapping for saving all challenges\r\n  mapping(uint => challengeInfo) allChallenges;\r\n\r\n  // In the constructor make the address that deploys this contract the 1st Reader\r\n  constructor() public {\r\n    _addReader(msg.sender, 0);\r\n  }\r\n\r\n  // Define a modifier that checks to see if msg.sender has the appropriate role\r\n  modifier onlyReader() {\r\n    require(isReader(msg.sender), \"Caller is not a Reader\");\r\n    _;\r\n  }\r\n\r\n  // Define a function 'isReader' to check this role\r\n  function isReader(address account) public view returns (bool) {\r\n    return readers.has(account);\r\n  }\r\n\r\n  // Define a function 'addReader' that adds this role\r\n  function addReader(address account, uint funds) public onlyReader {\r\n    _addReader(account, funds);\r\n  }\r\n\r\n  // Define a function 'renounceReader' to renounce this role\r\n  function renounceReader() public {\r\n    _removeReader(msg.sender);\r\n  }\r\n\r\n  //Define a function to increase number of challenges\r\n  function challenge(bytes32 proofHash, uint stake) external {\r\n    totalChallenges = totalChallenges.add(1);\r\n    allChallenges[totalChallenges] = challengeInfo({reader: msg.sender, proofHash: proofHash, stake: stake, success: false});\r\n    allReaders[msg.sender].numOfChallenges = allReaders[msg.sender].numOfChallenges.add(1);\r\n    allReaders[msg.sender].challenges.push(totalChallenges);\r\n  }\r\n\r\n  //set ranking of contributor\r\n  function setRating(address account, uint ranking) public {\r\n    readerInfo memory reader = allReaders[account];\r\n    reader.rating = ranking;\r\n  }\r\n\r\n  // Define an internal function '_addReader' to add this role, called by 'addReader'\r\n  function _addReader(address account, uint funds) internal {\r\n    readers.add(account);\r\n    allReaders[account].balance = funds;\r\n    emit ReaderAdded(account);\r\n  }\r\n\r\n  // Define an internal function '_removeReader' to remove this role, called by 'removeReader'\r\n  function _removeReader(address account) internal {\r\n    readers.remove(account);\r\n    emit ReaderRemoved(account);\r\n  }\r\n}",
  "sourcePath": "C:\\Users\\avant\\Desktop\\honest_media\\contracts\\accessControl\\ReaderRole.sol",
  "compiler": {
    "name": "solc",
    "version": "0.5.0+commit.1d4f565a.Emscripten.clang"
  },
  "schemaVersion": "3.0.5",
  "updatedAt": "2019-06-30T21:25:26.821Z",
  "devdoc": {
    "methods": {}
  },
  "userdoc": {
    "methods": {}
  }
}