{
  "contractName": "ReaderRole",
  "abi": [
    {
      "inputs": [],
      "payable": false,
      "stateMutability": "nonpayable",
      "type": "constructor"
    },
    {
      "anonymous": false,
      "inputs": [
        {
          "indexed": true,
          "name": "account",
          "type": "address"
        }
      ],
      "name": "ReaderAdded",
      "type": "event"
    },
    {
      "anonymous": false,
      "inputs": [
        {
          "indexed": true,
          "name": "account",
          "type": "address"
        }
      ],
      "name": "ReaderRemoved",
      "type": "event"
    },
    {
      "constant": true,
      "inputs": [
        {
          "name": "account",
          "type": "address"
        }
      ],
      "name": "isReader",
      "outputs": [
        {
          "name": "",
          "type": "bool"
        }
      ],
      "payable": false,
      "stateMutability": "view",
      "type": "function"
    },
    {
      "constant": false,
      "inputs": [
        {
          "name": "account",
          "type": "address"
        },
        {
          "name": "funds",
          "type": "uint256"
        }
      ],
      "name": "addReader",
      "outputs": [],
      "payable": false,
      "stateMutability": "nonpayable",
      "type": "function"
    },
    {
      "constant": false,
      "inputs": [],
      "name": "renounceReader",
      "outputs": [],
      "payable": false,
      "stateMutability": "nonpayable",
      "type": "function"
    },
    {
      "constant": false,
      "inputs": [],
      "name": "challenge",
      "outputs": [],
      "payable": false,
      "stateMutability": "nonpayable",
      "type": "function"
    }
  ],
  "bytecode": "0x608060405234801561001057600080fd5b5061002b336000610030640100000000026401000000009004565b6102ee565b6100518260006100df64010000000002610654179091906401000000009004565b80600160008473ffffffffffffffffffffffffffffffffffffffff1673ffffffffffffffffffffffffffffffffffffffff168152602001908152602001600020600101819055508173ffffffffffffffffffffffffffffffffffffffff167fb7724d890d2888af5a3fc456edb667e2c82c4441449ebcac301c618759e4f86d60405160405180910390a25050565b6100f882826101cb640100000000026401000000009004565b15151561016d576040517f08c379a000000000000000000000000000000000000000000000000000000000815260040180806020018281038252601f8152602001807f526f6c65733a206163636f756e7420616c72656164792068617320726f6c650081525060200191505060405180910390fd5b60018260000160008373ffffffffffffffffffffffffffffffffffffffff1673ffffffffffffffffffffffffffffffffffffffff16815260200190815260200160002060006101000a81548160ff0219169083151502179055505050565b60008073ffffffffffffffffffffffffffffffffffffffff168273ffffffffffffffffffffffffffffffffffffffff1614151515610297576040517f08c379a00000000000000000000000000000000000000000000000000000000081526004018080602001828103825260228152602001807f526f6c65733a206163636f756e7420697320746865207a65726f20616464726581526020017f737300000000000000000000000000000000000000000000000000000000000081525060400191505060405180910390fd5b8260000160008373ffffffffffffffffffffffffffffffffffffffff1673ffffffffffffffffffffffffffffffffffffffff16815260200190815260200160002060009054906101000a900460ff16905092915050565b61075d806102fd6000396000f3fe608060405260043610610062576000357c0100000000000000000000000000000000000000000000000000000000900463ffffffff16806369a7ddf714610067578063af938fc2146100d0578063d2ef7398146100e7578063e5fef7cd146100fe575b600080fd5b34801561007357600080fd5b506100b66004803603602081101561008a57600080fd5b81019080803573ffffffffffffffffffffffffffffffffffffffff169060200190929190505050610159565b604051808215151515815260200191505060405180910390f35b3480156100dc57600080fd5b506100e5610176565b005b3480156100f357600080fd5b506100fc610181565b005b34801561010a57600080fd5b506101576004803603604081101561012157600080fd5b81019080803573ffffffffffffffffffffffffffffffffffffffff1690602001909291908035906020019092919050505061021e565b005b600061016f8260006102a990919063ffffffff16565b9050919050565b61017f336103cc565b565b6101d660018060003373ffffffffffffffffffffffffffffffffffffffff1673ffffffffffffffffffffffffffffffffffffffff1681526020019081526020016000206002015461042690919063ffffffff16565b600160003373ffffffffffffffffffffffffffffffffffffffff1673ffffffffffffffffffffffffffffffffffffffff16815260200190815260200160002060020181905550565b61022733610159565b151561029b576040517f08c379a00000000000000000000000000000000000000000000000000000000081526004018080602001828103825260168152602001807f43616c6c6572206973206e6f742061205265616465720000000000000000000081525060200191505060405180910390fd5b6102a582826104b0565b5050565b60008073ffffffffffffffffffffffffffffffffffffffff168273ffffffffffffffffffffffffffffffffffffffff1614151515610375576040517f08c379a00000000000000000000000000000000000000000000000000000000081526004018080602001828103825260228152602001807f526f6c65733a206163636f756e7420697320746865207a65726f20616464726581526020017f737300000000000000000000000000000000000000000000000000000000000081525060400191505060405180910390fd5b8260000160008373ffffffffffffffffffffffffffffffffffffffff1673ffffffffffffffffffffffffffffffffffffffff16815260200190815260200160002060009054906101000a900460ff16905092915050565b6103e081600061055290919063ffffffff16565b8073ffffffffffffffffffffffffffffffffffffffff167fe933431644458f1217f9e93d3e000e03c9bbbe55761046d0985c2e4d157bcbaa60405160405180910390a250565b60008082840190508381101515156104a6576040517f08c379a000000000000000000000000000000000000000000000000000000000815260040180806020018281038252601b8152602001807f536166654d6174683a206164646974696f6e206f766572666c6f77000000000081525060200191505060405180910390fd5b8091505092915050565b6104c482600061065490919063ffffffff16565b80600160008473ffffffffffffffffffffffffffffffffffffffff1673ffffffffffffffffffffffffffffffffffffffff168152602001908152602001600020600101819055508173ffffffffffffffffffffffffffffffffffffffff167fb7724d890d2888af5a3fc456edb667e2c82c4441449ebcac301c618759e4f86d60405160405180910390a25050565b61055c82826102a9565b15156105f6576040517f08c379a00000000000000000000000000000000000000000000000000000000081526004018080602001828103825260218152602001807f526f6c65733a206163636f756e7420646f6573206e6f74206861766520726f6c81526020017f650000000000000000000000000000000000000000000000000000000000000081525060400191505060405180910390fd5b60008260000160008373ffffffffffffffffffffffffffffffffffffffff1673ffffffffffffffffffffffffffffffffffffffff16815260200190815260200160002060006101000a81548160ff0219169083151502179055505050565b61065e82826102a9565b1515156106d3576040517f08c379a000000000000000000000000000000000000000000000000000000000815260040180806020018281038252601f8152602001807f526f6c65733a206163636f756e7420616c72656164792068617320726f6c650081525060200191505060405180910390fd5b60018260000160008373ffffffffffffffffffffffffffffffffffffffff1673ffffffffffffffffffffffffffffffffffffffff16815260200190815260200160002060006101000a81548160ff021916908315150217905550505056fea165627a7a723058203c45660f3223731a93b7b47e46dd61ae8a517bcf57e06dadb5d7becf62c16e100029",
  "source": "pragma solidity >=0.4.21 <0.6.0;\r\n\r\n// Import the library 'Roles' and SafeMath\r\nimport \"../../node_modules/openzeppelin-solidity/contracts/access/Roles.sol\";\r\nimport \"../../node_modules/openzeppelin-solidity/contracts/math/SafeMath.sol\";\r\n\r\n// Define a contract 'ReaderRole' to manage this role - add, remove, check\r\ncontract ReaderRole {\r\n  using Roles for Roles.Role;\r\n  using SafeMath for uint;\r\n\r\n  // Define 2 events, one for Adding, and other for Removing\r\n  event ReaderAdded(address indexed account);\r\n  event ReaderRemoved(address indexed account);\r\n\r\n  // Define a struct 'Readers' by inheriting from 'Roles' library, struct Role\r\n  Roles.Role private readers;\r\n\r\n  //Define a struct to store Reader information\r\n  struct readerInfo {\r\n      uint rating;\r\n      uint balance;\r\n      uint numOfChallenges;\r\n  }\r\n  //Define a mapping to map reader address and reader info\r\n  mapping(address => readerInfo) allReaders;\r\n\r\n  // In the constructor make the address that deploys this contract the 1st Reader\r\n  constructor() public {\r\n    _addReader(msg.sender, 0);\r\n  }\r\n\r\n  // Define a modifier that checks to see if msg.sender has the appropriate role\r\n  modifier onlyReader() {\r\n    require(isReader(msg.sender), \"Caller is not a Reader\");\r\n    _;\r\n  }\r\n\r\n  // Define a function 'isReader' to check this role\r\n  function isReader(address account) public view returns (bool) {\r\n    return readers.has(account);\r\n  }\r\n\r\n  // Define a function 'addReader' that adds this role\r\n  function addReader(address account, uint funds) public onlyReader {\r\n    _addReader(account, funds);\r\n  }\r\n\r\n  // Define a function 'renounceReader' to renounce this role\r\n  function renounceReader() public {\r\n    _removeReader(msg.sender);\r\n  }\r\n\r\n  //Define a function to increase number of challenges\r\n  function challenge() external {\r\n    allReaders[msg.sender].numOfChallenges = allReaders[msg.sender].numOfChallenges.add(1);\r\n  }\r\n\r\n  // Define an internal function '_addReader' to add this role, called by 'addReader'\r\n  function _addReader(address account, uint funds) internal {\r\n    readers.add(account);\r\n    allReaders[account].balance = funds;\r\n    emit ReaderAdded(account);\r\n  }\r\n\r\n  // Define an internal function '_removeReader' to remove this role, called by 'removeReader'\r\n  function _removeReader(address account) internal {\r\n    readers.remove(account);\r\n    emit ReaderRemoved(account);\r\n  }\r\n}",
  "sourcePath": "C:/Users/avant/Desktop/honest_media/contracts/accessControl/ReaderRole.sol",
  "compiler": {
    "name": "solc",
    "version": "0.5.0+commit.1d4f565a.Emscripten.clang"
  },
  "schemaVersion": "3.0.5",
  "updatedAt": "2019-06-30T13:54:51.363Z",
  "devdoc": {
    "methods": {}
  },
  "userdoc": {
    "methods": {}
  }
}