{
  "contractName": "ValidatorRole",
  "abi": [
    {
      "constant": true,
      "inputs": [
        {
          "name": "",
          "type": "uint256"
        }
      ],
      "name": "validatorIds",
      "outputs": [
        {
          "name": "",
          "type": "address"
        }
      ],
      "payable": false,
      "stateMutability": "view",
      "type": "function",
      "signature": "0x919165aa"
    },
    {
      "constant": true,
      "inputs": [],
      "name": "totalValidators",
      "outputs": [
        {
          "name": "",
          "type": "uint256"
        }
      ],
      "payable": false,
      "stateMutability": "view",
      "type": "function",
      "signature": "0xc81b356b"
    },
    {
      "inputs": [],
      "payable": false,
      "stateMutability": "nonpayable",
      "type": "constructor",
      "signature": "constructor"
    },
    {
      "anonymous": false,
      "inputs": [
        {
          "indexed": true,
          "name": "account",
          "type": "address"
        }
      ],
      "name": "ValidatorAdded",
      "type": "event",
      "signature": "0xe366c1c0452ed8eec96861e9e54141ebff23c9ec89fe27b996b45f5ec3884987"
    },
    {
      "anonymous": false,
      "inputs": [
        {
          "indexed": true,
          "name": "account",
          "type": "address"
        }
      ],
      "name": "ValidatorRemoved",
      "type": "event",
      "signature": "0xe1434e25d6611e0db941968fdc97811c982ac1602e951637d206f5fdda9dd8f1"
    },
    {
      "constant": true,
      "inputs": [
        {
          "name": "account",
          "type": "address"
        }
      ],
      "name": "isValidator",
      "outputs": [
        {
          "name": "",
          "type": "bool"
        }
      ],
      "payable": false,
      "stateMutability": "view",
      "type": "function",
      "signature": "0xfacd743b"
    },
    {
      "constant": false,
      "inputs": [
        {
          "name": "account",
          "type": "address"
        },
        {
          "name": "funds",
          "type": "uint256"
        }
      ],
      "name": "addValidator",
      "outputs": [],
      "payable": false,
      "stateMutability": "nonpayable",
      "type": "function",
      "signature": "0xfc6c1f02"
    },
    {
      "constant": false,
      "inputs": [],
      "name": "renounceValidator",
      "outputs": [],
      "payable": false,
      "stateMutability": "nonpayable",
      "type": "function",
      "signature": "0xf0c043ee"
    },
    {
      "constant": false,
      "inputs": [],
      "name": "approve",
      "outputs": [],
      "payable": false,
      "stateMutability": "nonpayable",
      "type": "function",
      "signature": "0x12424e3f"
    },
    {
      "constant": false,
      "inputs": [],
      "name": "ruleOnChallenge",
      "outputs": [],
      "payable": false,
      "stateMutability": "nonpayable",
      "type": "function",
      "signature": "0x0a75d745"
    },
    {
      "constant": false,
      "inputs": [
        {
          "name": "account",
          "type": "address"
        },
        {
          "name": "ranking",
          "type": "uint256"
        }
      ],
      "name": "setRating",
      "outputs": [],
      "payable": false,
      "stateMutability": "nonpayable",
      "type": "function",
      "signature": "0x80a24631"
    },
    {
      "constant": false,
      "inputs": [
        {
          "name": "account",
          "type": "address"
        }
      ],
      "name": "updateChallengesWon",
      "outputs": [],
      "payable": false,
      "stateMutability": "nonpayable",
      "type": "function",
      "signature": "0x793be013"
    },
    {
      "constant": false,
      "inputs": [
        {
          "name": "account",
          "type": "address"
        }
      ],
      "name": "updateChallengesLost",
      "outputs": [],
      "payable": false,
      "stateMutability": "nonpayable",
      "type": "function",
      "signature": "0xe0b7663e"
    }
  ],
  "bytecode": "0x60806040523480156200001157600080fd5b506200002e33600062000034640100000000026401000000009004565b620004f9565b62000058826000620001826401000000000262000bfa179091906401000000009004565b80600160008473ffffffffffffffffffffffffffffffffffffffff1673ffffffffffffffffffffffffffffffffffffffff16815260200190815260200160002060010181905550620000c560016002546200027164010000000002620007d4179091906401000000009004565b6002819055508160036000600254815260200190815260200160002060006101000a81548173ffffffffffffffffffffffffffffffffffffffff021916908373ffffffffffffffffffffffffffffffffffffffff1602179055506200013b826002620002fc640100000000026401000000009004565b8173ffffffffffffffffffffffffffffffffffffffff167fe366c1c0452ed8eec96861e9e54141ebff23c9ec89fe27b996b45f5ec388498760405160405180910390a25050565b6200019d82826200039e640100000000026401000000009004565b15151562000213576040517f08c379a000000000000000000000000000000000000000000000000000000000815260040180806020018281038252601f8152602001807f526f6c65733a206163636f756e7420616c72656164792068617320726f6c650081525060200191505060405180910390fd5b60018260000160008373ffffffffffffffffffffffffffffffffffffffff1673ffffffffffffffffffffffffffffffffffffffff16815260200190815260200160002060006101000a81548160ff0219169083151502179055505050565b6000808284019050838110151515620002f2576040517f08c379a000000000000000000000000000000000000000000000000000000000815260040180806020018281038252601b8152602001807f536166654d6174683a206164646974696f6e206f766572666c6f77000000000081525060200191505060405180910390fd5b8091505092915050565b62000306620004c2565b600160008473ffffffffffffffffffffffffffffffffffffffff1673ffffffffffffffffffffffffffffffffffffffff16815260200190815260200160002060c060405190810160405290816000820154815260200160018201548152602001600282015481526020016003820154815260200160048201548152602001600582015481525050905081816000018181525050505050565b60008073ffffffffffffffffffffffffffffffffffffffff168273ffffffffffffffffffffffffffffffffffffffff16141515156200046b576040517f08c379a00000000000000000000000000000000000000000000000000000000081526004018080602001828103825260228152602001807f526f6c65733a206163636f756e7420697320746865207a65726f20616464726581526020017f737300000000000000000000000000000000000000000000000000000000000081525060400191505060405180910390fd5b8260000160008373ffffffffffffffffffffffffffffffffffffffff1673ffffffffffffffffffffffffffffffffffffffff16815260200190815260200160002060009054906101000a900460ff16905092915050565b60c0604051908101604052806000815260200160008152602001600081526020016000815260200160008152602001600081525090565b610d3a80620005096000396000f3fe6080604052600436106100a4576000357c0100000000000000000000000000000000000000000000000000000000900463ffffffff1680630a75d745146100a957806312424e3f146100c0578063793be013146100d757806380a2463114610128578063919165aa14610183578063c81b356b146101fe578063e0b7663e14610229578063f0c043ee1461027a578063facd743b14610291578063fc6c1f02146102fa575b600080fd5b3480156100b557600080fd5b506100be610355565b005b3480156100cc57600080fd5b506100d561046f565b005b3480156100e357600080fd5b50610126600480360360208110156100fa57600080fd5b81019080803573ffffffffffffffffffffffffffffffffffffffff169060200190929190505050610589565b005b34801561013457600080fd5b506101816004803603604081101561014b57600080fd5b81019080803573ffffffffffffffffffffffffffffffffffffffff16906020019092919080359060200190929190505050610627565b005b34801561018f57600080fd5b506101bc600480360360208110156101a657600080fd5b81019080803590602001909291905050506106c7565b604051808273ffffffffffffffffffffffffffffffffffffffff1673ffffffffffffffffffffffffffffffffffffffff16815260200191505060405180910390f35b34801561020a57600080fd5b506102136106fa565b6040518082815260200191505060405180910390f35b34801561023557600080fd5b506102786004803603602081101561024c57600080fd5b81019080803573ffffffffffffffffffffffffffffffffffffffff169060200190929190505050610700565b005b34801561028657600080fd5b5061028f61079e565b005b34801561029d57600080fd5b506102e0600480360360208110156102b457600080fd5b81019080803573ffffffffffffffffffffffffffffffffffffffff1690602001909291905050506107a9565b604051808215151515815260200191505060405180910390f35b34801561030657600080fd5b506103536004803603604081101561031d57600080fd5b81019080803573ffffffffffffffffffffffffffffffffffffffff169060200190929190803590602001909291905050506107c6565b005b61035e336107a9565b15156103d2576040517f08c379a00000000000000000000000000000000000000000000000000000000081526004018080602001828103825260198152602001807f43616c6c6572206973206e6f7420612056616c696461746f720000000000000081525060200191505060405180910390fd5b61042760018060003373ffffffffffffffffffffffffffffffffffffffff1673ffffffffffffffffffffffffffffffffffffffff168152602001908152602001600020600301546107d490919063ffffffff16565b600160003373ffffffffffffffffffffffffffffffffffffffff1673ffffffffffffffffffffffffffffffffffffffff16815260200190815260200160002060030181905550565b610478336107a9565b15156104ec576040517f08c379a00000000000000000000000000000000000000000000000000000000081526004018080602001828103825260198152602001807f43616c6c6572206973206e6f7420612056616c696461746f720000000000000081525060200191505060405180910390fd5b61054160018060003373ffffffffffffffffffffffffffffffffffffffff1673ffffffffffffffffffffffffffffffffffffffff168152602001908152602001600020600201546107d490919063ffffffff16565b600160003373ffffffffffffffffffffffffffffffffffffffff1673ffffffffffffffffffffffffffffffffffffffff16815260200190815260200160002060020181905550565b6105de60018060008473ffffffffffffffffffffffffffffffffffffffff1673ffffffffffffffffffffffffffffffffffffffff168152602001908152602001600020600501546107d490919063ffffffff16565b600160008373ffffffffffffffffffffffffffffffffffffffff1673ffffffffffffffffffffffffffffffffffffffff1681526020019081526020016000206005018190555050565b61062f610cd7565b600160008473ffffffffffffffffffffffffffffffffffffffff1673ffffffffffffffffffffffffffffffffffffffff16815260200190815260200160002060c060405190810160405290816000820154815260200160018201548152602001600282015481526020016003820154815260200160048201548152602001600582015481525050905081816000018181525050505050565b60036020528060005260406000206000915054906101000a900473ffffffffffffffffffffffffffffffffffffffff1681565b60025481565b61075560018060008473ffffffffffffffffffffffffffffffffffffffff1673ffffffffffffffffffffffffffffffffffffffff168152602001908152602001600020600401546107d490919063ffffffff16565b600160008373ffffffffffffffffffffffffffffffffffffffff1673ffffffffffffffffffffffffffffffffffffffff1681526020019081526020016000206004018190555050565b6107a73361085e565b565b60006107bf8260006108b890919063ffffffff16565b9050919050565b6107d082826109db565b5050565b6000808284019050838110151515610854576040517f08c379a000000000000000000000000000000000000000000000000000000000815260040180806020018281038252601b8152602001807f536166654d6174683a206164646974696f6e206f766572666c6f77000000000081525060200191505060405180910390fd5b8091505092915050565b610872816000610af890919063ffffffff16565b8073ffffffffffffffffffffffffffffffffffffffff167fe1434e25d6611e0db941968fdc97811c982ac1602e951637d206f5fdda9dd8f160405160405180910390a250565b60008073ffffffffffffffffffffffffffffffffffffffff168273ffffffffffffffffffffffffffffffffffffffff1614151515610984576040517f08c379a00000000000000000000000000000000000000000000000000000000081526004018080602001828103825260228152602001807f526f6c65733a206163636f756e7420697320746865207a65726f20616464726581526020017f737300000000000000000000000000000000000000000000000000000000000081525060400191505060405180910390fd5b8260000160008373ffffffffffffffffffffffffffffffffffffffff1673ffffffffffffffffffffffffffffffffffffffff16815260200190815260200160002060009054906101000a900460ff16905092915050565b6109ef826000610bfa90919063ffffffff16565b80600160008473ffffffffffffffffffffffffffffffffffffffff1673ffffffffffffffffffffffffffffffffffffffff16815260200190815260200160002060010181905550610a4c60016002546107d490919063ffffffff16565b6002819055508160036000600254815260200190815260200160002060006101000a81548173ffffffffffffffffffffffffffffffffffffffff021916908373ffffffffffffffffffffffffffffffffffffffff160217905550610ab1826002610627565b8173ffffffffffffffffffffffffffffffffffffffff167fe366c1c0452ed8eec96861e9e54141ebff23c9ec89fe27b996b45f5ec388498760405160405180910390a25050565b610b0282826108b8565b1515610b9c576040517f08c379a00000000000000000000000000000000000000000000000000000000081526004018080602001828103825260218152602001807f526f6c65733a206163636f756e7420646f6573206e6f74206861766520726f6c81526020017f650000000000000000000000000000000000000000000000000000000000000081525060400191505060405180910390fd5b60008260000160008373ffffffffffffffffffffffffffffffffffffffff1673ffffffffffffffffffffffffffffffffffffffff16815260200190815260200160002060006101000a81548160ff0219169083151502179055505050565b610c0482826108b8565b151515610c79576040517f08c379a000000000000000000000000000000000000000000000000000000000815260040180806020018281038252601f8152602001807f526f6c65733a206163636f756e7420616c72656164792068617320726f6c650081525060200191505060405180910390fd5b60018260000160008373ffffffffffffffffffffffffffffffffffffffff1673ffffffffffffffffffffffffffffffffffffffff16815260200190815260200160002060006101000a81548160ff0219169083151502179055505050565b60c060405190810160405280600081526020016000815260200160008152602001600081526020016000815260200160008152509056fea165627a7a72305820174a604be9656ab976d6b0a7d85ac1d3cccb65a4c73d8de139e8d04d45e4e9630029",
  "source": "pragma solidity >=0.4.21 <0.6.0;\n\n// Import the library 'Roles' and SafeMath\nimport \"../../node_modules/openzeppelin-solidity/contracts/access/Roles.sol\";\nimport \"../../node_modules/openzeppelin-solidity/contracts/math/SafeMath.sol\";\n\n// Define a contract 'ValidatorRole' to manage this role - add, remove, check\ncontract ValidatorRole {\n  using Roles for Roles.Role;\n  using SafeMath for uint;\n\n  // Define 2 events, one for Adding, and other for Removing\n  event ValidatorAdded(address indexed account);\n  event ValidatorRemoved(address indexed account);\n\n  // Define a struct 'Validators' by inheriting from 'Roles' library, struct Role\n  Roles.Role private validators;\n\n  //Define a struct to store Validator information\n  struct validatorInfo {\n      uint rating;\n      uint balance;\n      uint numOfApprovals;\n      uint numOfChallenges;\n      uint challengesLost;\n      uint challengesWon;\n  }\n  //Define a mapping to map validator address and validator info\n  mapping(address => validatorInfo) allValidators;\n\n  //Define a variable to store total number of validators\n  uint public totalValidators;\n\n  //Define a mapping to store validator Ids\n  mapping(uint => address) public validatorIds;\n\n  // In the constructor make the address that deploys this contract the 1st Validator\n  constructor() public {\n    _addValidator(msg.sender, 0);\n  }\n\n  // Define a modifier that checks to see if msg.sender has the appropriate role\n  modifier onlyValidator() {\n    require(isValidator(msg.sender), \"Caller is not a Validator\");\n    _;\n  }\n\n  // Define a function 'isValidator' to check this role\n  function isValidator(address account) public view returns (bool) {\n    return validators.has(account);\n  }\n\n  // Define a function 'addValidator' that adds this role\n  function addValidator(address account, uint funds) public {\n    _addValidator(account, funds);\n  }\n\n  // Define a function 'renounceValidator' to renounce this role\n  function renounceValidator() public {\n    _removeValidator(msg.sender);\n  }\n\n  //Define a function to increase number of approvals\n  function approve() external onlyValidator{\n    allValidators[msg.sender].numOfApprovals = allValidators[msg.sender].numOfApprovals.add(1);\n  }\n\n  //Define a function to increase number of challenges\n  function ruleOnChallenge() external onlyValidator{\n    allValidators[msg.sender].numOfChallenges = allValidators[msg.sender].numOfChallenges.add(1);\n  }\n\n  //set ranking of validator\n  function setRating(address account, uint ranking) public {\n    validatorInfo memory validator = allValidators[account];\n    validator.rating = ranking;\n  }\n\n  //Increase number of challenges won\n  function updateChallengesWon(address account) public {\n    allValidators[account].challengesWon = allValidators[account].challengesWon.add(1);\n  }\n\n  //Increase number of challenges Lost\n  function updateChallengesLost(address account) public {\n    allValidators[account].challengesLost = allValidators[account].challengesLost.add(1);\n  }\n\n  // Define an internal function '_addValidator' to add this role, called by 'addValidator'\n  function _addValidator(address account, uint funds) internal {\n    validators.add(account);\n    allValidators[account].balance = funds;\n    totalValidators = totalValidators.add(1);\n    validatorIds[totalValidators] = account;\n    setRating(account, 2);\n    emit ValidatorAdded(account);\n  }\n\n  // Define an internal function '_removeValidator' to remove this role, called by 'removeValidator'\n  function _removeValidator(address account) internal {\n    validators.remove(account);\n    emit ValidatorRemoved(account);\n  }\n}",
  "sourcePath": "/Users/ringaile/Documents/hackathon/contracts/accessControl/ValidatorRole.sol",
  "compiler": {
    "name": "solc",
    "version": "0.5.0+commit.1d4f565a.Emscripten.clang"
  },
  "schemaVersion": "3.0.5",
  "updatedAt": "2019-07-07T20:13:56.378Z",
  "devdoc": {
    "methods": {}
  },
  "userdoc": {
    "methods": {}
  }
}