{
  "contractName": "ValidatorRole",
  "abi": [
    {
      "inputs": [],
      "payable": false,
      "stateMutability": "nonpayable",
      "type": "constructor"
    },
    {
      "anonymous": false,
      "inputs": [
        {
          "indexed": true,
          "name": "account",
          "type": "address"
        }
      ],
      "name": "ValidatorAdded",
      "type": "event"
    },
    {
      "anonymous": false,
      "inputs": [
        {
          "indexed": true,
          "name": "account",
          "type": "address"
        }
      ],
      "name": "ValidatorRemoved",
      "type": "event"
    },
    {
      "constant": true,
      "inputs": [
        {
          "name": "account",
          "type": "address"
        }
      ],
      "name": "isValidator",
      "outputs": [
        {
          "name": "",
          "type": "bool"
        }
      ],
      "payable": false,
      "stateMutability": "view",
      "type": "function"
    },
    {
      "constant": false,
      "inputs": [
        {
          "name": "account",
          "type": "address"
        },
        {
          "name": "funds",
          "type": "uint256"
        }
      ],
      "name": "addValidator",
      "outputs": [],
      "payable": false,
      "stateMutability": "nonpayable",
      "type": "function"
    },
    {
      "constant": false,
      "inputs": [],
      "name": "renounceValidator",
      "outputs": [],
      "payable": false,
      "stateMutability": "nonpayable",
      "type": "function"
    },
    {
      "constant": false,
      "inputs": [],
      "name": "approve",
      "outputs": [],
      "payable": false,
      "stateMutability": "nonpayable",
      "type": "function"
    },
    {
      "constant": false,
      "inputs": [],
      "name": "ruleOnChallenge",
      "outputs": [],
      "payable": false,
      "stateMutability": "nonpayable",
      "type": "function"
    },
    {
      "constant": false,
      "inputs": [
        {
          "name": "account",
          "type": "address"
        },
        {
          "name": "ranking",
          "type": "uint256"
        }
      ],
      "name": "setRating",
      "outputs": [],
      "payable": false,
      "stateMutability": "nonpayable",
      "type": "function"
    }
  ],
  "bytecode": "0x608060405234801561001057600080fd5b5061002b336000610030640100000000026401000000009004565b6102ee565b6100518260006100df640100000000026108ff179091906401000000009004565b80600160008473ffffffffffffffffffffffffffffffffffffffff1673ffffffffffffffffffffffffffffffffffffffff168152602001908152602001600020600101819055508173ffffffffffffffffffffffffffffffffffffffff167fe366c1c0452ed8eec96861e9e54141ebff23c9ec89fe27b996b45f5ec388498760405160405180910390a25050565b6100f882826101cb640100000000026401000000009004565b15151561016d576040517f08c379a000000000000000000000000000000000000000000000000000000000815260040180806020018281038252601f8152602001807f526f6c65733a206163636f756e7420616c72656164792068617320726f6c650081525060200191505060405180910390fd5b60018260000160008373ffffffffffffffffffffffffffffffffffffffff1673ffffffffffffffffffffffffffffffffffffffff16815260200190815260200160002060006101000a81548160ff0219169083151502179055505050565b60008073ffffffffffffffffffffffffffffffffffffffff168273ffffffffffffffffffffffffffffffffffffffff1614151515610297576040517f08c379a00000000000000000000000000000000000000000000000000000000081526004018080602001828103825260228152602001807f526f6c65733a206163636f756e7420697320746865207a65726f20616464726581526020017f737300000000000000000000000000000000000000000000000000000000000081525060400191505060405180910390fd5b8260000160008373ffffffffffffffffffffffffffffffffffffffff1673ffffffffffffffffffffffffffffffffffffffff16815260200190815260200160002060009054906101000a900460ff16905092915050565b610a31806102fd6000396000f3fe608060405260043610610078576000357c0100000000000000000000000000000000000000000000000000000000900463ffffffff1680630a75d7451461007d57806312424e3f1461009457806380a24631146100ab578063f0c043ee14610106578063facd743b1461011d578063fc6c1f0214610186575b600080fd5b34801561008957600080fd5b506100926101e1565b005b3480156100a057600080fd5b506100a96102fb565b005b3480156100b757600080fd5b50610104600480360360408110156100ce57600080fd5b81019080803573ffffffffffffffffffffffffffffffffffffffff16906020019092919080359060200190929190505050610415565b005b34801561011257600080fd5b5061011b6104a1565b005b34801561012957600080fd5b5061016c6004803603602081101561014057600080fd5b81019080803573ffffffffffffffffffffffffffffffffffffffff1690602001909291905050506104ac565b604051808215151515815260200191505060405180910390f35b34801561019257600080fd5b506101df600480360360408110156101a957600080fd5b81019080803573ffffffffffffffffffffffffffffffffffffffff169060200190929190803590602001909291905050506104c9565b005b6101ea336104ac565b151561025e576040517f08c379a00000000000000000000000000000000000000000000000000000000081526004018080602001828103825260198152602001807f43616c6c6572206973206e6f7420612056616c696461746f720000000000000081525060200191505060405180910390fd5b6102b360018060003373ffffffffffffffffffffffffffffffffffffffff1673ffffffffffffffffffffffffffffffffffffffff1681526020019081526020016000206003015461055490919063ffffffff16565b600160003373ffffffffffffffffffffffffffffffffffffffff1673ffffffffffffffffffffffffffffffffffffffff16815260200190815260200160002060030181905550565b610304336104ac565b1515610378576040517f08c379a00000000000000000000000000000000000000000000000000000000081526004018080602001828103825260198152602001807f43616c6c6572206973206e6f7420612056616c696461746f720000000000000081525060200191505060405180910390fd5b6103cd60018060003373ffffffffffffffffffffffffffffffffffffffff1673ffffffffffffffffffffffffffffffffffffffff1681526020019081526020016000206002015461055490919063ffffffff16565b600160003373ffffffffffffffffffffffffffffffffffffffff1673ffffffffffffffffffffffffffffffffffffffff16815260200190815260200160002060020181905550565b61041d6109dc565b600160008473ffffffffffffffffffffffffffffffffffffffff1673ffffffffffffffffffffffffffffffffffffffff16815260200190815260200160002060806040519081016040529081600082015481526020016001820154815260200160028201548152602001600382015481525050905081816000018181525050505050565b6104aa336105de565b565b60006104c282600061063890919063ffffffff16565b9050919050565b6104d2336104ac565b1515610546576040517f08c379a00000000000000000000000000000000000000000000000000000000081526004018080602001828103825260198152602001807f43616c6c6572206973206e6f7420612056616c696461746f720000000000000081525060200191505060405180910390fd5b610550828261075b565b5050565b60008082840190508381101515156105d4576040517f08c379a000000000000000000000000000000000000000000000000000000000815260040180806020018281038252601b8152602001807f536166654d6174683a206164646974696f6e206f766572666c6f77000000000081525060200191505060405180910390fd5b8091505092915050565b6105f28160006107fd90919063ffffffff16565b8073ffffffffffffffffffffffffffffffffffffffff167fe1434e25d6611e0db941968fdc97811c982ac1602e951637d206f5fdda9dd8f160405160405180910390a250565b60008073ffffffffffffffffffffffffffffffffffffffff168273ffffffffffffffffffffffffffffffffffffffff1614151515610704576040517f08c379a00000000000000000000000000000000000000000000000000000000081526004018080602001828103825260228152602001807f526f6c65733a206163636f756e7420697320746865207a65726f20616464726581526020017f737300000000000000000000000000000000000000000000000000000000000081525060400191505060405180910390fd5b8260000160008373ffffffffffffffffffffffffffffffffffffffff1673ffffffffffffffffffffffffffffffffffffffff16815260200190815260200160002060009054906101000a900460ff16905092915050565b61076f8260006108ff90919063ffffffff16565b80600160008473ffffffffffffffffffffffffffffffffffffffff1673ffffffffffffffffffffffffffffffffffffffff168152602001908152602001600020600101819055508173ffffffffffffffffffffffffffffffffffffffff167fe366c1c0452ed8eec96861e9e54141ebff23c9ec89fe27b996b45f5ec388498760405160405180910390a25050565b6108078282610638565b15156108a1576040517f08c379a00000000000000000000000000000000000000000000000000000000081526004018080602001828103825260218152602001807f526f6c65733a206163636f756e7420646f6573206e6f74206861766520726f6c81526020017f650000000000000000000000000000000000000000000000000000000000000081525060400191505060405180910390fd5b60008260000160008373ffffffffffffffffffffffffffffffffffffffff1673ffffffffffffffffffffffffffffffffffffffff16815260200190815260200160002060006101000a81548160ff0219169083151502179055505050565b6109098282610638565b15151561097e576040517f08c379a000000000000000000000000000000000000000000000000000000000815260040180806020018281038252601f8152602001807f526f6c65733a206163636f756e7420616c72656164792068617320726f6c650081525060200191505060405180910390fd5b60018260000160008373ffffffffffffffffffffffffffffffffffffffff1673ffffffffffffffffffffffffffffffffffffffff16815260200190815260200160002060006101000a81548160ff0219169083151502179055505050565b60806040519081016040528060008152602001600081526020016000815260200160008152509056fea165627a7a723058204684fce34b8e34a3149f47de38f448b53e5d8d1cb4b53a699096885936d4bbd00029",
  "source": "pragma solidity >=0.4.21 <0.6.0;\r\n\r\n// Import the library 'Roles' and SafeMath\r\nimport \"../../node_modules/openzeppelin-solidity/contracts/access/Roles.sol\";\r\nimport \"../../node_modules/openzeppelin-solidity/contracts/math/SafeMath.sol\";\r\n\r\n// Define a contract 'ValidatorRole' to manage this role - add, remove, check\r\ncontract ValidatorRole {\r\n  using Roles for Roles.Role;\r\n  using SafeMath for uint;\r\n\r\n  // Define 2 events, one for Adding, and other for Removing\r\n  event ValidatorAdded(address indexed account);\r\n  event ValidatorRemoved(address indexed account);\r\n\r\n  // Define a struct 'Validators' by inheriting from 'Roles' library, struct Role\r\n  Roles.Role private validators;\r\n\r\n  //Define a struct to store Validator information\r\n  struct validatorInfo {\r\n      uint rating;\r\n      uint balance;\r\n      uint numOfApprovals;\r\n      uint numOfChallenges;\r\n  }\r\n  //Define a mapping to map validator address and validator info\r\n  mapping(address => validatorInfo) allValidators;\r\n\r\n  // In the constructor make the address that deploys this contract the 1st Validator\r\n  constructor() public {\r\n    _addValidator(msg.sender, 0);\r\n  }\r\n\r\n  // Define a modifier that checks to see if msg.sender has the appropriate role\r\n  modifier onlyValidator() {\r\n    require(isValidator(msg.sender), \"Caller is not a Validator\");\r\n    _;\r\n  }\r\n\r\n  // Define a function 'isValidator' to check this role\r\n  function isValidator(address account) public view returns (bool) {\r\n    return validators.has(account);\r\n  }\r\n\r\n  // Define a function 'addValidator' that adds this role\r\n  function addValidator(address account, uint funds) public onlyValidator {\r\n    _addValidator(account, funds);\r\n  }\r\n\r\n  // Define a function 'renounceValidator' to renounce this role\r\n  function renounceValidator() public {\r\n    _removeValidator(msg.sender);\r\n  }\r\n\r\n  //Define a function to increase number of approvals\r\n  function approve() external onlyValidator{\r\n    allValidators[msg.sender].numOfApprovals = allValidators[msg.sender].numOfApprovals.add(1);\r\n  }\r\n\r\n  //Define a function to increase number of challenges\r\n  function ruleOnChallenge() external onlyValidator{\r\n    allValidators[msg.sender].numOfChallenges = allValidators[msg.sender].numOfChallenges.add(1);\r\n  }\r\n\r\n  //set ranking of contributor\r\n  function setRating(address account, uint ranking) public {\r\n    validatorInfo memory validator = allValidators[account];\r\n    validator.rating = ranking;\r\n  }\r\n\r\n  // Define an internal function '_addValidator' to add this role, called by 'addValidator'\r\n  function _addValidator(address account, uint funds) internal {\r\n    validators.add(account);\r\n    allValidators[account].balance = funds;\r\n    emit ValidatorAdded(account);\r\n  }\r\n\r\n  // Define an internal function '_removeValidator' to remove this role, called by 'removeValidator'\r\n  function _removeValidator(address account) internal {\r\n    validators.remove(account);\r\n    emit ValidatorRemoved(account);\r\n  }\r\n}",
  "sourcePath": "C:\\Users\\avant\\Desktop\\honest_media\\contracts\\accessControl\\ValidatorRole.sol",
  "compiler": {
    "name": "solc",
    "version": "0.5.0+commit.1d4f565a.Emscripten.clang"
  },
  "schemaVersion": "3.0.5",
  "updatedAt": "2019-06-30T21:25:26.835Z",
  "devdoc": {
    "methods": {}
  },
  "userdoc": {
    "methods": {}
  }
}