{
  "contractName": "ValidatorRole",
  "abi": [
    {
      "constant": true,
      "inputs": [
        {
          "name": "",
          "type": "uint256"
        }
      ],
      "name": "validatorIds",
      "outputs": [
        {
          "name": "",
          "type": "address"
        }
      ],
      "payable": false,
      "stateMutability": "view",
      "type": "function"
    },
    {
      "constant": true,
      "inputs": [],
      "name": "totalValidators",
      "outputs": [
        {
          "name": "",
          "type": "uint256"
        }
      ],
      "payable": false,
      "stateMutability": "view",
      "type": "function"
    },
    {
      "inputs": [],
      "payable": false,
      "stateMutability": "nonpayable",
      "type": "constructor"
    },
    {
      "anonymous": false,
      "inputs": [
        {
          "indexed": true,
          "name": "account",
          "type": "address"
        }
      ],
      "name": "ValidatorAdded",
      "type": "event"
    },
    {
      "anonymous": false,
      "inputs": [
        {
          "indexed": true,
          "name": "account",
          "type": "address"
        }
      ],
      "name": "ValidatorRemoved",
      "type": "event"
    },
    {
      "constant": true,
      "inputs": [
        {
          "name": "account",
          "type": "address"
        }
      ],
      "name": "isValidator",
      "outputs": [
        {
          "name": "",
          "type": "bool"
        }
      ],
      "payable": false,
      "stateMutability": "view",
      "type": "function"
    },
    {
      "constant": false,
      "inputs": [
        {
          "name": "account",
          "type": "address"
        },
        {
          "name": "funds",
          "type": "uint256"
        }
      ],
      "name": "addValidator",
      "outputs": [],
      "payable": false,
      "stateMutability": "nonpayable",
      "type": "function"
    },
    {
      "constant": false,
      "inputs": [],
      "name": "renounceValidator",
      "outputs": [],
      "payable": false,
      "stateMutability": "nonpayable",
      "type": "function"
    },
    {
      "constant": false,
      "inputs": [],
      "name": "approve",
      "outputs": [],
      "payable": false,
      "stateMutability": "nonpayable",
      "type": "function"
    },
    {
      "constant": false,
      "inputs": [],
      "name": "ruleOnChallenge",
      "outputs": [],
      "payable": false,
      "stateMutability": "nonpayable",
      "type": "function"
    },
    {
      "constant": false,
      "inputs": [
        {
          "name": "account",
          "type": "address"
        },
        {
          "name": "ranking",
          "type": "uint256"
        }
      ],
      "name": "setRating",
      "outputs": [],
      "payable": false,
      "stateMutability": "nonpayable",
      "type": "function"
    }
  ],
  "bytecode": "0x608060405234801561001057600080fd5b5061002233600061002760201b60201c565b610388565b61003f82600061014160201b6109631790919060201c565b80600160008473ffffffffffffffffffffffffffffffffffffffff1673ffffffffffffffffffffffffffffffffffffffff168152602001908152602001600020600101819055506100a0600160025461022260201b6105d41790919060201c565b6002819055508160036000600254815260200190815260200160002060006101000a81548173ffffffffffffffffffffffffffffffffffffffff021916908373ffffffffffffffffffffffffffffffffffffffff1602179055508173ffffffffffffffffffffffffffffffffffffffff167fe366c1c0452ed8eec96861e9e54141ebff23c9ec89fe27b996b45f5ec388498760405160405180910390a25050565b61015182826102aa60201b60201c565b156101c4576040517f08c379a000000000000000000000000000000000000000000000000000000000815260040180806020018281038252601f8152602001807f526f6c65733a206163636f756e7420616c72656164792068617320726f6c650081525060200191505060405180910390fd5b60018260000160008373ffffffffffffffffffffffffffffffffffffffff1673ffffffffffffffffffffffffffffffffffffffff16815260200190815260200160002060006101000a81548160ff0219169083151502179055505050565b6000808284019050838110156102a0576040517f08c379a000000000000000000000000000000000000000000000000000000000815260040180806020018281038252601b8152602001807f536166654d6174683a206164646974696f6e206f766572666c6f77000000000081525060200191505060405180910390fd5b8091505092915050565b60008073ffffffffffffffffffffffffffffffffffffffff168273ffffffffffffffffffffffffffffffffffffffff161415610331576040517f08c379a0000000000000000000000000000000000000000000000000000000008152600401808060200182810382526022815260200180610e6c6022913960400191505060405180910390fd5b8260000160008373ffffffffffffffffffffffffffffffffffffffff1673ffffffffffffffffffffffffffffffffffffffff16815260200190815260200160002060009054906101000a900460ff16905092915050565b610ad5806103976000396000f3fe608060405234801561001057600080fd5b50600436106100885760003560e01c8063c81b356b1161005b578063c81b356b1461015d578063f0c043ee1461017b578063facd743b14610185578063fc6c1f02146101e157610088565b80630a75d7451461008d57806312424e3f1461009757806380a24631146100a1578063919165aa146100ef575b600080fd5b61009561022f565b005b61009f610347565b005b6100ed600480360360408110156100b757600080fd5b81019080803573ffffffffffffffffffffffffffffffffffffffff1690602001909291908035906020019092919050505061045f565b005b61011b6004803603602081101561010557600080fd5b81019080803590602001909291905050506104ea565b604051808273ffffffffffffffffffffffffffffffffffffffff1673ffffffffffffffffffffffffffffffffffffffff16815260200191505060405180910390f35b61016561051d565b6040518082815260200191505060405180910390f35b610183610523565b005b6101c76004803603602081101561019b57600080fd5b81019080803573ffffffffffffffffffffffffffffffffffffffff16906020019092919050505061052e565b604051808215151515815260200191505060405180910390f35b61022d600480360360408110156101f757600080fd5b81019080803573ffffffffffffffffffffffffffffffffffffffff1690602001909291908035906020019092919050505061054b565b005b6102383361052e565b6102aa576040517f08c379a00000000000000000000000000000000000000000000000000000000081526004018080602001828103825260198152602001807f43616c6c6572206973206e6f7420612056616c696461746f720000000000000081525060200191505060405180910390fd5b6102ff60018060003373ffffffffffffffffffffffffffffffffffffffff1673ffffffffffffffffffffffffffffffffffffffff168152602001908152602001600020600301546105d490919063ffffffff16565b600160003373ffffffffffffffffffffffffffffffffffffffff1673ffffffffffffffffffffffffffffffffffffffff16815260200190815260200160002060030181905550565b6103503361052e565b6103c2576040517f08c379a00000000000000000000000000000000000000000000000000000000081526004018080602001828103825260198152602001807f43616c6c6572206973206e6f7420612056616c696461746f720000000000000081525060200191505060405180910390fd5b61041760018060003373ffffffffffffffffffffffffffffffffffffffff1673ffffffffffffffffffffffffffffffffffffffff168152602001908152602001600020600201546105d490919063ffffffff16565b600160003373ffffffffffffffffffffffffffffffffffffffff1673ffffffffffffffffffffffffffffffffffffffff16815260200190815260200160002060020181905550565b610467610a3e565b600160008473ffffffffffffffffffffffffffffffffffffffff1673ffffffffffffffffffffffffffffffffffffffff168152602001908152602001600020604051806080016040529081600082015481526020016001820154815260200160028201548152602001600382015481525050905081816000018181525050505050565b60036020528060005260406000206000915054906101000a900473ffffffffffffffffffffffffffffffffffffffff1681565b60025481565b61052c3361065c565b565b60006105448260006106b690919063ffffffff16565b9050919050565b6105543361052e565b6105c6576040517f08c379a00000000000000000000000000000000000000000000000000000000081526004018080602001828103825260198152602001807f43616c6c6572206973206e6f7420612056616c696461746f720000000000000081525060200191505060405180910390fd5b6105d08282610794565b5050565b600080828401905083811015610652576040517f08c379a000000000000000000000000000000000000000000000000000000000815260040180806020018281038252601b8152602001807f536166654d6174683a206164646974696f6e206f766572666c6f77000000000081525060200191505060405180910390fd5b8091505092915050565b6106708160006108a690919063ffffffff16565b8073ffffffffffffffffffffffffffffffffffffffff167fe1434e25d6611e0db941968fdc97811c982ac1602e951637d206f5fdda9dd8f160405160405180910390a250565b60008073ffffffffffffffffffffffffffffffffffffffff168273ffffffffffffffffffffffffffffffffffffffff16141561073d576040517f08c379a0000000000000000000000000000000000000000000000000000000008152600401808060200182810382526022815260200180610a886022913960400191505060405180910390fd5b8260000160008373ffffffffffffffffffffffffffffffffffffffff1673ffffffffffffffffffffffffffffffffffffffff16815260200190815260200160002060009054906101000a900460ff16905092915050565b6107a882600061096390919063ffffffff16565b80600160008473ffffffffffffffffffffffffffffffffffffffff1673ffffffffffffffffffffffffffffffffffffffff1681526020019081526020016000206001018190555061080560016002546105d490919063ffffffff16565b6002819055508160036000600254815260200190815260200160002060006101000a81548173ffffffffffffffffffffffffffffffffffffffff021916908373ffffffffffffffffffffffffffffffffffffffff1602179055508173ffffffffffffffffffffffffffffffffffffffff167fe366c1c0452ed8eec96861e9e54141ebff23c9ec89fe27b996b45f5ec388498760405160405180910390a25050565b6108b082826106b6565b610905576040517f08c379a0000000000000000000000000000000000000000000000000000000008152600401808060200182810382526021815260200180610a676021913960400191505060405180910390fd5b60008260000160008373ffffffffffffffffffffffffffffffffffffffff1673ffffffffffffffffffffffffffffffffffffffff16815260200190815260200160002060006101000a81548160ff0219169083151502179055505050565b61096d82826106b6565b156109e0576040517f08c379a000000000000000000000000000000000000000000000000000000000815260040180806020018281038252601f8152602001807f526f6c65733a206163636f756e7420616c72656164792068617320726f6c650081525060200191505060405180910390fd5b60018260000160008373ffffffffffffffffffffffffffffffffffffffff1673ffffffffffffffffffffffffffffffffffffffff16815260200190815260200160002060006101000a81548160ff0219169083151502179055505050565b604051806080016040528060008152602001600081526020016000815260200160008152509056fe526f6c65733a206163636f756e7420646f6573206e6f74206861766520726f6c65526f6c65733a206163636f756e7420697320746865207a65726f2061646472657373a165627a7a723058201dad63771a2dfb1d7a611de99f17be1901f75bfbaf3cd9f0e7d388a41b0badb90029526f6c65733a206163636f756e7420697320746865207a65726f2061646472657373",
  "source": "pragma solidity >=0.4.21 <0.6.0;\r\n\r\n// Import the library 'Roles' and SafeMath\r\nimport \"../../node_modules/openzeppelin-solidity/contracts/access/Roles.sol\";\r\nimport \"../../node_modules/openzeppelin-solidity/contracts/math/SafeMath.sol\";\r\n\r\n// Define a contract 'ValidatorRole' to manage this role - add, remove, check\r\ncontract ValidatorRole {\r\n  using Roles for Roles.Role;\r\n  using SafeMath for uint;\r\n\r\n  // Define 2 events, one for Adding, and other for Removing\r\n  event ValidatorAdded(address indexed account);\r\n  event ValidatorRemoved(address indexed account);\r\n\r\n  // Define a struct 'Validators' by inheriting from 'Roles' library, struct Role\r\n  Roles.Role private validators;\r\n\r\n  //Define a struct to store Validator information\r\n  struct validatorInfo {\r\n      uint rating;\r\n      uint balance;\r\n      uint numOfApprovals;\r\n      uint numOfChallenges;\r\n  }\r\n  //Define a mapping to map validator address and validator info\r\n  mapping(address => validatorInfo) allValidators;\r\n\r\n  //Define a variable to store total number of validators\r\n  uint public totalValidators;\r\n\r\n  //Define a mapping to store validator Ids\r\n  mapping(uint => address) public validatorIds;\r\n\r\n  // In the constructor make the address that deploys this contract the 1st Validator\r\n  constructor() public {\r\n    _addValidator(msg.sender, 0);\r\n  }\r\n\r\n  // Define a modifier that checks to see if msg.sender has the appropriate role\r\n  modifier onlyValidator() {\r\n    require(isValidator(msg.sender), \"Caller is not a Validator\");\r\n    _;\r\n  }\r\n\r\n  // Define a function 'isValidator' to check this role\r\n  function isValidator(address account) public view returns (bool) {\r\n    return validators.has(account);\r\n  }\r\n\r\n  // Define a function 'addValidator' that adds this role\r\n  function addValidator(address account, uint funds) public onlyValidator {\r\n    _addValidator(account, funds);\r\n  }\r\n\r\n  // Define a function 'renounceValidator' to renounce this role\r\n  function renounceValidator() public {\r\n    _removeValidator(msg.sender);\r\n  }\r\n\r\n  //Define a function to increase number of approvals\r\n  function approve() external onlyValidator{\r\n    allValidators[msg.sender].numOfApprovals = allValidators[msg.sender].numOfApprovals.add(1);\r\n  }\r\n\r\n  //Define a function to increase number of challenges\r\n  function ruleOnChallenge() external onlyValidator{\r\n    allValidators[msg.sender].numOfChallenges = allValidators[msg.sender].numOfChallenges.add(1);\r\n  }\r\n\r\n  //set ranking of contributor\r\n  function setRating(address account, uint ranking) public {\r\n    validatorInfo memory validator = allValidators[account];\r\n    validator.rating = ranking;\r\n  }\r\n\r\n  // Define an internal function '_addValidator' to add this role, called by 'addValidator'\r\n  function _addValidator(address account, uint funds) internal {\r\n    validators.add(account);\r\n    allValidators[account].balance = funds;\r\n    totalValidators = totalValidators.add(1);\r\n    validatorIds[totalValidators] = account;\r\n    emit ValidatorAdded(account);\r\n  }\r\n\r\n  // Define an internal function '_removeValidator' to remove this role, called by 'removeValidator'\r\n  function _removeValidator(address account) internal {\r\n    validators.remove(account);\r\n    emit ValidatorRemoved(account);\r\n  }\r\n}",
  "sourcePath": "C:\\Users\\rva\\Documents\\hackathon\\honest_media\\contracts\\accessControl\\ValidatorRole.sol",
  "compiler": {
    "name": "solc",
    "version": "0.5.8+commit.23d335f2.Emscripten.clang"
  },
  "schemaVersion": "3.0.10",
  "updatedAt": "2019-07-03T11:30:17.753Z",
  "devdoc": {
    "methods": {}
  },
  "userdoc": {
    "methods": {}
  }
}